:100000000C941C080C9460080C9429090C9460084A
:100010000C9460080C9460080C9460080C946008C0
:100020000C9460080C9460080C94FE280C946008F2
:100030000C9460080C9460080C9460080C946008A0
:100040000C9460080C9460080C9460080C94600890
:100050000C94600800571E001F00200021002200A1
:10006000230024002500260027002D002E004C0030
:1000700031002B0014001A000800150017001C00A6
:1000800018000C00120013002F00280030000000A0
:10009000035104001600070009000A000B000D00C0
:1000A0000E000F0033002A00340000000000D75C6F
:1000B0001D001B000600190005000153110010006F
:1000C000360037003800D85C04510000E400E2003C
:1000D0000451E300000000002C00E600E4000000F2
:1000E000000000000000000000003500A900AA0088
:1000F0000000000000000000000000000000000000
:1001000000000000000000000100010001000100EB
:1001100001000100010001000100010001000100D7
:1001200001000100010001000100010001000100C7
:1001300001000100010001000100010001000100B7
:1001400001000000010001000100010001000100A8
:100150000100010001000100010001000100000098
:100160000000010001000100010001000100010088
:100170000100010001000100010001000100000078
:10018000010001002C00E20000000000010001005D
:10019000010000000000000000000000000001005D
:1001A000010001000000000000000000000000004D
:1001B00000000000000000000000000001001E0D13
:1001C0001F0D200D210D01000100010001000100A3
:1001D00001000100010001000100010001000E0DFD
:1001E0000100010001000100010001000100010007
:1001F000010001000100000001000B0D0D0D0F0DAD
:1002000001000100010001000100010001000100E6
:1002100001000000000001000100010001000100D8
:1002200001000100110D100D01000100010001008D
:1002300001000000010001000100010000000000B9
:1002400001000100010000000000000000000000AB
:10025000000001000100010000000000000000009B
:10026000000000000000000000000000000000008E
:1002700035003A003B003C003D003F003F0040009D
:10028000410042004300440045004C004900010089
:100290000100010001000100010001000100010056
:1002A0000100010001000100010000000100010047
:1002B00001000100010001005000510052004F00F8
:1002C0000100010001000000000001000100010028
:1002D0000100010001000100010001000100010016
:1002E0000100010001000000010001000100010007
:1002F00000000000010001000100000000000000FB
:1003000000000000000001000100010000000000EA
:1003100000000000000000000000000000000000DD
:1003200000000000010001000100010001000100C7
:1003300001000100010001000100010001000100B5
:1003400001000100F400F000F500010001000100CF
:100350000100010001000100010001000100000096
:100360000100F200F100F3000100010050014D0115
:100370004A014F0101002A010100000000000100B4
:10038000010001000100010001004E000100010018
:100390000100010001000100010000000100010056
:1003A0000100010000000000010001000100000048
:1003B00000000000000000000000005C01000100DF
:1003C000000000000000000000000000000000002D
:1003D000000000000000000044454255473A2064F8
:1003E000697361626C65642E0A0044454255473A60
:1003F00020656E61626C65642E0A000A002530314A
:100400003662003A200025303258000A722F6320ED
:10041000303132333435363738394142434445463A
:100420000A007267626C696768742074696D65722E
:100430002064697361626C652E0A007267626C6980
:100440006768742074696D657220656E61626C65A1
:10045000642E0A007267626C696768742073657441
:1004600020687376205B4E4F454550524F4D5D3AA4
:100470002025752C25752C25750A007267626C691C
:100480006768742073657420687376205B454550F7
:10049000524F4D5D3A2025752C25752C25750A0087
:1004A0007267626C69676874207261696E626F77E7
:1004B00020736574206873763A2025642C25642C9B
:1004C00025642C25750A007267626C696768742060
:1004D00064697361626C65205B454550524F4D5DA8
:1004E0003A207267626C696768745F636F6E6669F1
:1004F000672E656E61626C65203D2025750A00726D
:1005000067626C6967687420656E61626C65205B08
:10051000454550524F4D5D3A207267626C6967687D
:10052000745F636F6E6669672E656E61626C6520CD
:100530003D2025750A007267626C696768742074D3
:100540006F67676C65205B454550524F4D5D3A20A3
:100550007267626C696768745F636F6E6669672E45
:10056000656E61626C65203D2025750A00726762C8
:100570006C69676874206D6F6465205B4E4F4545FC
:1005800050524F4D5D3A2025750A007267626C69C2
:10059000676874206D6F6465205B454550524F4D10
:1005A0005D3A2025750A007267626C696768745F3E
:1005B000696E6974207267626C696768745F636FE3
:1005C0006E6669672E6D6F6465203D20302E205762
:1005D000726974652064656661756C742076616CFF
:1005E00075657320746F20454550524F4D2E0A009B
:1005F0007267626C696768745F696E6974206565AB
:10060000636F6E666967206973206E6F7420656E14
:1006100061626C65642E0A007267626C6967687457
:100620005F696E6974207374617274210A00726765
:10063000626C696768745F696E69742063616C6C71
:1006400065642E0A007267626C696768745F636F25
:100650006E6669672E7370656564203D2025640AA7
:10066000007267626C696768745F636F6E66696762
:100670002E76616C203D2025640A007267626C69E9
:100680006768745F636F6E6669672E736174203D7F
:100690002025640A007267626C696768745F636F23
:1006A0006E6669672E687565203D2025640A0072B4
:1006B00067686C696768745F636F6E6669672E6DE3
:1006C0006F6465203D2025640A007267626C69676B
:1006D00068745F636F6E6669672E656E61626C65D4
:1006E000203D2025640A007267626C696768745F48
:1006F000636F6E666967206570726F6D0A00000433
:100700007F3F1F643214643214783C1E1E140A05A5
:100710002223252628292A2C2D2F3032333536380E
:100720003A3B3D3E4042434547494A4C4E50515367
:100730005557595A5C5E6062646668696B6D6F718B
:10074000737577797B7D7F81838587898A8C8E908D
:10075000929496989A9C9E9FA1A3A5A7A8AAACAE96
:10076000AFB1B3B4B6B8B9BBBCBEBFC1C2C3C5C6D6
:10077000C7C9CACBCCCDCED0D1D2D2D3D4D5D6D77F
:10078000D7D8D9D9DADADBDBDBDCDCDCDCDCDDDDBD
:10079000DDDDDCDCDCDCDCDBDBDBDADAD9D9D8D7AD
:1007A000D7D6D5D4D3D2D2D1D0CECDCCCBCAC9C74F
:1007B000C6C5C3C2C1BFBEBCBBB9B8B6B4B3B1AF86
:1007C000AEACAAA8A7A5A3A19F9E9C9A9896949226
:1007D000908E8C8A89878583817F7D7B79777573FD
:1007E000716F6D6B6968666462605E5C5A595755DB
:1007F0005351504E4C4A4947454342403E3D3B3A97
:100800003836353332302F2D2C2A2928262523221D
:10081000FFAA7F554000000000000000000000011A
:1008200001010101010101010202020202020202B0
:10083000030303030303030404040404050505057B
:100840000506060606060707070708080808090937
:10085000090A0A0A0B0B0B0C0C0C0D0D0D0E0E0EDB
:100860000F0F101010111112121313141415151666
:10087000161717181819191A1A1B1C1C1D1D1E1FD4
:100880001F20212122232324252526272828292A21
:100890002B2C2C2D2E2F3031313233343536373846
:1008A000393A3B3C3D3E3F40414243444546474840
:1008B000494B4C4D4E4F50525354555758595A5C12
:1008C0005D5E606163646567686A6B6C6E6F7172B0
:1008D000747677797A7C7D7F8182848687898B8D17
:1008E0008E9092949597999B9D9FA1A2A4A6A8AA49
:1008F000ACAEB0B2B4B6B9BBBDBFC1C3C5C8CACC3B
:10090000CED0D3D5D7DADCDEE1E3E6E8EAEDEFF2EC
:10091000F4F7F9FCFF0A002530325820006B6579A6
:10092000626F6172645F7265706F72743A20000A60
:100930000025303258006B6579626F6172645F73B5
:1009400065745F6C65643A2000646F6E652E0A0002
:10095000626F6F746D61676963207363616E3A20C3
:100960002E2E2E20003F00433E20004C25640A001E
:1009700074696D65725F72656164333228293A204B
:100980002530346C580A00686F73745F6B65796248
:100990006F6172645F6C65647328293A2025580A78
:1009A000000A092D20537461747573202D0A0047C5
:1009B00043433A20392E312E30204156522D4C4996
:1009C00042433A20322E302E30204156525F41525F
:1009D00043483A20617672350A004F5054494F4ED1
:1009E000533A205655534220424F4F544D414749A8
:1009F000432045585452414B455920434F4E534F85
:100A00004C4520434F4D4D414E4420343039360A39
:100A1000004255494C443A2022302E362E3135338F
:100A20002D313638372D673033366531632D6469A3
:100A300072747922202831393A33353A34352053CB
:100A400065702020312032303139290A005649445E
:100A50003A203078323041302854475229205049CA
:100A6000443A203078343232452854475220416C81
:100A700069636529205645523A2044455649434505
:100A80005F5645520A00444553433A204445534378
:100A900052495054494F4E0A000A092D205665729A
:100AA00073696F6E202D0A000A092D20436F6E7343
:100AB0006F6C65202D0A4553432F713A0971756992
:100AC000740A000A092D204D61676963202D0A44CC
:100AD0003A094465627567204D65737361676520E7
:100AE000546F67676C650A583A094D61747269788A
:100AF000204465627567204D6F646520546F676799
:100B00006C65202D2053686F77206B657970726556
:100B10007373657320696E206D61747269782067E4
:100B20007269640A4B3A094B6579626F617264209D
:100B3000446562756720546F67676C65202D20538C
:100B4000686F77206B65797072657373207265705A
:100B50006F72740A4D3A094465627567204D6F756E
:100B6000736520546F67676C650A563A095665725B
:100B700073696F6E0A533A095374617475730A434B
:100B80003A09416374697661746520436F6E736FCF
:100B90006C65204D6F64650A46312D4631303A0947
:100BA00053776974636820746F204C617965722093
:100BB000302D392028463130203D204C30290A3054
:100BC0002D393A0953776974636820746F204C613A
:100BD00079657220302D390A47524156453A0953FA
:100BE000776974636820746F204C61796572203076
:100BF0002028616C7465726E617465290A423A0935
:100C00004A756D7020746F20426F6F746C6F6164F1
:100C100065720A4553433A094A756D7020746F2016
:100C2000426F6F746C6F616465722028616C7465CB
:100C3000726E617465290A453A095072696E7420B2
:100C4000454550524F4D2053657474696E67730A61
:100C50004253504143453A09436C65617220454512
:100C600050524F4D0A000A002575002E6E6B726FB0
:100C70003A20000A002575002E737761705F62616B
:100C8000636B736C6173685F6261636B73706163E4
:100C9000653A20000A002575002E737761705F6742
:100CA000726176655F6573633A20000A00257500FE
:100CB0002E6E6F5F6775693A20000A002575002E59
:100CC000737761705F72616C745F726775693A20E7
:100CD000000A002575002E737761705F6C616C747B
:100CE0005F6C6775693A20000A002575002E636104
:100CF00070736C6F636B5F746F5F636F6E74726F32
:100D00006C3A20000A002575002E737761705F63CE
:100D10006F6E74726F6C5F636170736C6F636B3A4C
:100D200020000A0025303258006B65796D61705FD4
:100D3000636F6E6669672E7261773A20000A00253C
:100D400075002E6D6F7573653A20000A00257500D9
:100D50002E6B6579626F6172643A20000A00257516
:100D6000002E6D61747269783A20000A00257500C2
:100D70002E656E61626C653A20000A00253032589B
:100D80000064656275675F636F6E6669672E726186
:100D9000773A20000A0025750064656661756C74F9
:100DA0005F6C617965723A20003F000A6D6F757360
:100DB000653A206F66660A000A6D6F7573653A20A2
:100DC0006F6E0A000A6B6579626F6172643A206F18
:100DD00066660A000A6B6579626F6172643A206F19
:100DE0006E0A000A6D61747269783A206F66660A4D
:100DF000000A6D61747269783A206F6E0A000A64A5
:100E0000656275673A206F66660A000A64656275F6
:100E1000673A206F6E0A000A0A4A756D70696E673C
:100E200020746F20626F6F746C6F616465722E2E18
:100E30002E2000433E2000436C656172696E67207E
:100E4000454550524F4D0A006565636F6E66696790
:100E50003A0A006D61696E206C6F6F700A00696EEE
:100E60006974466F72557362436F6E6E6563746921
:100E70007669747928290A000A002530325800530F
:100E800045545F4C45443A20000A0056454E444FB5
:100E9000523A00554E4B4E4F574E3A005345545F11
:100EA0004C45443A20005345545F5245504F5254EC
:100EB0003A200025303258005345545F49444C4590
:100EC0003A20004745545F49444C453A2000474585
:100ED000545F5245504F52543A006B6275663A2047
:100EE00066756C6C0A00290A0025303258005D28AE
:100EF000002575002D3E00257500562D5553423AAC
:100F0000206B6275665B0009023B0002010080FAFB
:100F1000090400000103010100092101010001226F
:100F200040000705810308000109040100010300D6
:100F30000000092101010001228400070583030844
:100F4000000105010902A10185020901A1000509AD
:100F50001901290515002501750195058102750303
:100F6000950181030501093009311581257F750837
:100F70009502810609381581257F350045007508E1
:100F800095018106050C0A38021581257F750895A3
:100F9000018106C0C005010980A101850315012654
:100FA000B700190129B7751095018100C0050C091A
:100FB00001A10185041501269C0219012A9C0275D4
:100FC0001095018100C005010906A1017501950870
:100FD000050719E029E7150025018102950175082B
:100FE00081039505750105081901290591029501EF
:100FF0007503910395067508150026FF000507196E
:101000000029FF8100C01201100100000008A0208B
:101010002E42000201020001140354004700520056
:10102000200041006C006900630065000803540063
:10103000470052000403090411241FBECFE5D8E085
:10104000DEBFCDBF04B603FE24C08091BA029091EA
:10105000BB02A091BC02B091BD028730904BA7406B
:10106000B04BB9F41092BA021092BB021092BC02BB
:101070001092BD0214BE84B7877F84BF0FB6F89468
:10108000A89581B5886181BD11BC0FBEE0E0F8E391
:10109000099510E0A0E6B0E0EEE0F4E602C00590AD
:1010A0000D92A23DB107D9F722E0A2EDB0E001C058
:1010B0001D92AA3BB207E1F70E944D2D0C94A0317E
:1010C0000C940000FF93EF93E091D200F091D300D5
:1010D000309709F00995EF91FF910895FC018591F2
:1010E000803011F0EFDFFBCF0895FF27E0E230E220
:1010F00047FF0CC0419597FF09C0EDE260957095E0
:1011000080959095611D711D811D911D27FF02C065
:10111000219530E350E2AA27660F771F881F991F99
:10112000AA1FA41710F0A41B63955A95A9F7AA301B
:1011300008F0A95FA05DAF93F39561157105810576
:10114000910541F7ED3211F4EF93F395F21718F48E
:101150003F93F395FBCF8F91B5DFFA95E1F70895B3
:10116000E991F9918591803021F0853219F0AADF5B
:10117000F9CF089520E0E89455915532C1F35033EA
:1011800011F4689455915A3348F4505390F3220F58
:10119000022E220F220F200D250FF4CF0EF42195E1
:1011A00089919991533619F3533729F1533559F1F0
:1011B000BC0188279927E8945C3621F4899199919C
:1011C00068945591543639F446EF7EF077FF0DC0A0
:1011D0008FEF9FEF0AC055374AE039F0583540E1AC
:1011E00021F0523642E009F00895FF93EF937DDF3E
:1011F000EF91FF91B7CFFF93EF93FC018191803086
:10120000B9F360DFFBCFFF93EF9368DFF1CFDF939C
:10121000CF93CDB7DEB72596A3DFCF91DF910895A9
:10122000A82FB92F80E090E041E050EA609530E0CF
:1012300009C02D9182279795879510F084279527CF
:10124000305EC8F36F5FA8F30895EADF8D939D9336
:101250000895CF93CFB7CF93C395839BE9F7839B33
:101260000EC0839B0CC0839B0AC0839B08C0839BDA
:1012700006C0C0919102C395C0939102A3C0DF93B1
:10128000C0919002DD27C856DD4F839B02C0DF91DD
:10129000E6CF2F930F931F9300B32FEF03FB20F99B
:1012A0004F933F9310B34FEF012703FB21F93BE02E
:1012B00031C04E7F012F10B3216028C0102F4D7F09
:1012C0002260000000B329C04B7F2460012F000082
:1012D00010B32BC010B3477F28602AC04F7E00B3E5
:1012E00020612CC04F7D10B320622FC04F7B00B314
:1012F000206432C0422700B349934FEF000010270B
:1013000013FB20F910B31C70C9F1297F91F201275A
:1013100003FB21F900B3237F89F2315058F11027E4
:1013200013FB22F910B3277E79F2012703FB23F97F
:101330002F7C81F200B3102713FB24F92F7971F26F
:1013400000C010B3012703FB25F92F7359F200C029
:1013500000B3102713FB26F9223040F200C010B36F
:10136000012703FB27F9243028F64F77206810B3B4
:101370000000F9CF10E81ABF002719C03B50319583
:10138000C31BD04010E81ABF0881033CF9F00B34AE
:10139000E9F020918E021981110F1213EDCF4A81CD
:1013A000441F093641F10D3211F0013E29F7009337
:1013B00096023F914F911F910F912F91DF91CAB7E4
:1013C000C7FD4ACFCF91CFBFCF91189520919602FC
:1013D000222379F3109194021123C1F53430C2F124
:1013E0003093940220938F02109190023BE0311BC6
:1013F000309390022DC00091940201303CF50AE533
:101400004F7049F43091970034FD24C00093970049
:10141000C7E7D2E023C0433049F03091820234FD67
:1014200019C000938202C3E8D2E018C03091AE0226
:1014300034FD10C00093AE02CFEAD2E00FC0279572
:10144000A8F45150A9F4220F0000F9CF4AE503C0D7
:1014500042ED01C0432FC4E1D0E032E011B31C6083
:10146000939A11BB02B320E41CE05F93012756E07E
:1014700002BB279520F4515021F4220FF9CF012708
:1014800056E000003B5A02BBD0F2279528F4515099
:1014900029F4220F0000F9CF012756E0279502BB5F
:1014A00020F4515021F4220FF9CF012756E0299161
:1014B000332302BB21F6037F10919502110FC65111
:1014C000D04002BB11F010938E0210E81ABF0860E2
:1014D00011B3137F402F437F5F9100C000C002BB58
:1014E00011BB42BB66CF11B887E080B985B383607A
:1014F00085BB86B7846086BF86B7816086BF86B7A6
:10150000806486BF0895EF92FF920F931F93CF934D
:10151000DF93182FEB0116BE84EA86BF0E94AD2828
:101520007C0106B607FE21C081B1887F883021F09A
:1015300081B1887F8031B9F513B984E886BF0E94F4
:10154000AD288C0106B607FE23C021B1287F90E0AC
:1015500080E02831B1F081E090E0203411F490E097
:1015600080E09195819591090CC0CF3FDC07C9F2CD
:101570000E94AD288E199F098C179D0790F28EEF5F
:101580009FEFDF91CF911F910F91FF90EF90089502
:10159000CF3FDC07B9F20E94AD28801B910B8C175E
:1015A0009D0780F2ECCF8FEF9FEFEBCF0F931F9350
:1015B000CF93DF93EB0183B984E886BF0E94AD2807
:1015C0008C0106B607FE10C021B1287F81E090E0B3
:1015D000283211F490E080E0919581959109DF9196
:1015E000CF911F910F910895CF3FDC0751F30E94D7
:1015F000AD28801B910B8C179D0718F38EEF9FEF82
:10160000EECFCF92DF92EF92FF920F931F93CF9383
:10161000DF936B018A01F22EE32E622F732F0E945B
:10162000830AAC01E6010C0D1D1DC017D10711F096
:1016300057FF0CC084E986BFCA01DF91CF911F918B
:101640000F91FF90EF90DF90CF9008956F2D7E2D3A
:1016500089910E94D60AAC01E8CF0E94730A0C94CB
:1016600085108091360280FD07C0EBE3F2E086E34F
:10167000DF011D928A95E9F724E630E046E350E069
:101680006BE372E080EB0C94010B8091D40081112C
:1016900010C08091360280FF0CC024E630E046E3A3
:1016A00050E06BE372E080EB0E94010B81E08093DD
:1016B000D4000E94AC180C94861080FF08C0909A49
:1016C00081FF07C0919A82FF06C0929A0895909870
:1016D000F7CF9198F8CF929808950F931F93CF93D7
:1016E000DF938C01EB019A9581159F4138F510FF2E
:1016F00003C080EEFB01099511FF03C081EEFE01DE
:10170000099512FF03C082EEFE01099513FF03C085
:1017100083EEFE0109950115104180F084EEFE0173
:10172000099585EEFE01099586EEFE01099587EE85
:10173000FE01DF91CF911F910F910994DF91CF911D
:101740001F910F910895982F977081E001C0880F25
:101750009A95EAF70E941A270C9455270C94A30B2C
:10176000982F977081E001C0880F9A95EAF70E9440
:1017700020270C9455270C94B00BCF93DF93EC01EA
:10178000805E9109089720F063EA7BE0209711F4CE
:101790006EEA7BE0CE010E946D0B8C2FDF91CF9122
:1017A0000C94241DCF93DF93EC010E94C51DCE0144
:1017B000805E9109089720F060EB7BE0209711F4A0
:1017C0006BEB7BE0CE01DF91CF910C946D0B81E050
:1017D000089581E008950C94E90B1F93CF93DF9354
:1017E00000D000D00F92CDB7DEB749835A836B8308
:1017F0002091160189819A8121111BC06623A9F0CD
:101800000E946626182F682F89819A810E940F26D0
:1018100069817A81812F0F900F900F900F900F9018
:10182000DF91CF911F910C940C0E0E943D26182F32
:10183000EFCF0E94662669817A81EDCFFC0140815D
:1018400051816281738184810C94ED0B0E94D927B0
:10185000811102C00E945D280C942D0B0E94761A03
:101860000C94450B0C945D0B0C94320C08950E9463
:101870008C200E94360C2FEB87E299E021508040AB
:101880009040E1F700C000000C9422290F931F93B1
:10189000CF93DF93EC010E941E0C8C01BE010E94CD
:1018A000D519BE01C8010E94EB0B882309F452C070
:1018B000BE01C8010E941C1A882309F44BC0BE0156
:1018C000C8010E94321B882309F444C00F3D8CE5F7
:1018D0001807A0F4023C8CE51807B8F405318CE534
:1018E0001807E8F402308CE5180708F014C1011558
:1018F0008CE5180759F101301C4591F1CE01DF91BB
:10190000CF911F910F910C94E70BF801E25CFC451D
:10191000ED31F10598F7EE55FE4C0C943931063156
:101920001C4561F70E9403279A81992309F466C137
:101930008A7A91E009F490E09093D50081115CC11E
:1019400089E20E94DE260E94552704C08A81811107
:101950000E94370C80E0DF91CF911F910F91089585
:101960008A818823B9F39091A001892F8E7F90FFFF
:1019700081608093A00180FF05C08AEE93E00E9401
:101980006E08E8CF88ED93E0FACF8A81882311F3BF
:101990000E945D28DFCF8A818823E1F20E9495189A
:1019A000D9CF8A818823B1F20E940327827251F035
:1019B0000E94CF17CFCF8A81882361F20E9403272C
:1019C0008272B1F30E94C117C5CF8A81882309F4BE
:1019D000C1CF0E948E16BECF8A81882309F4BACF68
:1019E0000E949A16B7CF8A81882309F4B3CF0E9448
:1019F000A916B0CF8A81882309F4ACCF0E94B8160B
:101A0000A9CF8A81882309F4A5CF0E94C716A2CF47
:101A10008A81882309F49ECF0E94D6169BCF8A81A3
:101A2000882309F497CF0E94021594CF8A818823D6
:101A300009F490CF0E9425158DCF8A81882309F45F
:101A400089CF81E00E94D21785CF8A81882309F44B
:101A500081CF0E94FA14823028F00E94FA14853057
:101A600008F4B0CF82E0EECF8A81882309F472CFE8
:101A70000E94FA14863028F00E94FA14883008F484
:101A8000A1CF86E0DFCF8A81882309F463CF0E944B
:101A9000FA14893028F00E94FA148E3008F492CF9C
:101AA00089E0D0CF8A81882309F454CF0E94FA14A8
:101AB0008F3028F00E94FA14843108F483CF8FE02D
:101AC000C1CF8A81882309F445CF0E94FA14853159
:101AD00028F00E94FA14873108F474CF85E1B2CF60
:101AE0008A81882309F436CF88E1ACCF8A818823A4
:101AF00009F430CF0E94FA14893128F00E94FA14B8
:101B0000823208F45FCF89E19DCF8A81882309F46E
:101B100021CF83E297CF8A81882309F4EFCE0E94F8
:101B2000D927811102C00E945D280E94F62790E00B
:101B30009093760280937502F801E350FC45809102
:101B400075028160E231F10538F4E154FE4C0C94E9
:101B5000393180917502826080937502809175029F
:101B60000E94FA270E948C20F5CE80917502846035
:101B7000F3CF809175028860EFCF8091750280610C
:101B8000EBCF809175028062E7CF8091750280640F
:101B9000E3CF809175028068DFCF809175028C6001
:101BA000DBCF809175028E7FD7CF809175028D7FBC
:101BB000D3CF809175028B7FCFCF80917502877FC5
:101BC000CBCF809175028F7EC7CF809175028F7DBC
:101BD000C3CF809175028F7BBFCF809175028F77C5
:101BE000BBCF80917502837FB7CF90917502892F0B
:101BF00097FB87F98058B0CF85E3A3CE8091D500BD
:101C0000811104C089E20E94E5269DCE85E3FBCFC9
:101C100090E080E008950895972F70E02FE0929F64
:101C2000600D711D1124FB019AE5899FE00DF11DE6
:101C30001124EE0FFF1FEC5AFF4F859194910895E8
:101C4000FC01EE0FFF1FE550FC4F85919491089524
:101C5000CF93DF930E940C0E0E94E70FEC018115D9
:101C600020E5920708F0A3C0811530E4930708F03F
:101C700012C1803E910508F079C0803C910508F0C2
:101C8000F3C0883A910580F4853A910508F0F2C0D6
:101C90008130910509F47BC00497813A910508F4DD
:101CA00076C0D0E0C0E073C08F3B9105D1F3883A95
:101CB000910509F447C1893A910509F446C18A3A68
:101CC000910509F445C18B3A910509F444C18C3A58
:101CD000910509F443C18B3B910509F442C18C3B4A
:101CE000910509F441C18D3A910509F440C1803B49
:101CF000910509F43FC18E3A910509F43EC18F3A2E
:101D0000910509F43DC1813B910509F43CC1823B39
:101D1000910509F43BC1833B910509F43AC1843B29
:101D2000910509F439C1853B910509F438C1863B19
:101D3000910509F437C1873B910509F436C1883B09
:101D4000910509F435C1893B910509F434C18D3BF6
:101D5000910509F433C18E3B910509F432C18A3BE8
:101D6000910509F431C1C0E0D4E411C0811540E20D
:101D7000940788F48F3F910509F048F4883E910557
:101D800030F0805F9109D065409708F08ACFCE018E
:101D9000DF91CF910895C11580E3D80708F475C08D
:101DA000CE019927D3FD74C0EC01D06CF0CFC115E2
:101DB00095E5D90760F5C11524E5D20708F09CC068
:101DC000C11533E5D30778F4C11542E5D40708F00F
:101DD00082C0C11581E5D80708F460C0DC2FCC278C
:101DE000C16FD06AD4CFCE018370992721E030E053
:101DF00002C0220F331F8A95E2F7C695C69590E27E
:101E0000C99FE0011124C22BD32BDA68C0CFC115C2
:101E10002AE5D207B0F4C11539E5D30708F07CC034
:101E2000C11546E5D40708F46CC0CE0198558F3F24
:101E3000910511F008F035CFDC2FCC27C06FD06AA8
:101E4000A6CFCE0190568115904208F02ACF8D2F53
:101E50008F710E94621090E0982F882788279F71C9
:101E60009C012C2BE90156C0805C91090E94200E38
:101E7000EC018DCF853A910509F45EC0863A910553
:101E800009F05DC0C2E8D0E482CFCE019F70EECFF2
:101E9000EC01D86C7CCFDF70D06A79CFCE0174E0D2
:101EA000969587957A95E1F783702C2F2695269540
:101EB000237040E2249F90011124382B8C2F8370D3
:101EC000C1E0D0E002C0CC0FDD1F8A95E2F7C22B43
:101ED000D32BDC685CCFCE018370992721E030E002
:101EE00002C0220F331F8A95E2F7C695C69580E29D
:101EF000C89FE0011124EBCFDC2FCC27C46FD06A40
:101F000046CF8C2F0E946210C82FD0E0DC2FCC2748
:101F1000CC27DF71D0623BCF8C2F8F700E94621074
:101F200034E0D695C7953A95E1F79C2F9F70C82F5E
:101F3000CF70C06ED92FB0CFC1E8D0E428CFC3E8AE
:101F4000D0E425CFC2EED4E422CFC9EED4E41FCF33
:101F5000CAEED4E41CCFC5EBD4E419CFC6EBD4E46D
:101F600016CFC3EBD4E413CFC4EBD4E410CFC7EB4C
:101F7000D4E40DCFCCECD4E40ACFCDECD4E407CF3D
:101F8000C3E8D5E404CFCAE8D5E401CFC2E9D5E47B
:101F9000FECEC4E9D5E4FBCEC1E2D6E4F8CEC3E27E
:101FA000D6E4F5CEC4E2D6E4F2CEC5E2D6E4EFCE76
:101FB000C6E2D6E4ECCEC7E2D6E4E9CECFE6D4E47E
:101FC000E6CEC0E7D4E4E3CECAE2D6E4E0CE803E7B
:101FD000910581F1C8F48133910509F462C048F498
:101FE0008932910509F456C08A32910509F460C01E
:101FF000089589339105B9F082389105A1F08533B0
:10200000910509F440C00895863E910561F138F4C8
:10201000823E9105B1F0833E9105E1F00895873E3F
:10202000910551F10895209175022370D9F080EE49
:1020300090E008952091750220FF14C089E390E09C
:1020400008952091750222FF0DC024FD09C083EE82
:1020500090E008952091750222FD31C024FF02C056
:1020600090E080E008952091750223FFFBCF24FDCE
:10207000F7CF87EE90E008952091750223FFEECF11
:1020800086EE90E008952091750225FFEBCF89E25E
:1020900090E008952091750225FFE4CF85E390E05C
:1020A00008952091750226FFDDCF8AE290E0089521
:1020B0002091750226FFD6CF81E390E0089582EE4D
:1020C00090E008959091750292FF06C0282F287124
:1020D000283069F4877F846093FF06C0282F287119
:1020E000283161F4877E846194FD877E0895282FCE
:1020F0002471243089F78B7F8860EECF282F2471DC
:10210000243191F78B7E8861EFCF08950895E82FF1
:10211000F0E0EE0FFF1FEA52FF4F8081918108959A
:10212000CF92DF92EF92FF920F931F93CF93DF93A3
:102130008BE094E00E946E0886EDE82E80E0F82E99
:10214000D0E0C0E096E0C92E94E0D92E0DEF13E068
:10215000DF93CF93DF92CF920E94070983E094E050
:102160000E946E08F701819191917F010E94CC2716
:102170009F938F931F930F930E9407098BEF93E018
:102180000E946E0821968DB79EB708960FB6F894F8
:102190009EBF0FBE8DBFC630D105D1F6DF91CF9166
:1021A0001F910F91FF90EF90DF90CF900895A7EAD5
:1021B000B0E041E050E09D91E92FE295EF70F0E052
:1021C00021A99F70BA0102C0660F771F9A95E2F7A6
:1021D000CB018095822381AB70E0AD3AB70759F708
:1021E000A8E9B0E061E070E08D91E82FE295EF7032
:1021F000F0E041A98F709B0101C0220F8A95EAF798
:10220000922F9095942391AB82A9822B82AB80E090
:10221000A73AB80749F7E2EEF0E0A6EDB0E08EEE9F
:1022200090E0119211921D921D928E179F07C9F78F
:1022300086E00E94B3110C94260C5F926F927F92FD
:102240008F929F92AF92BF92CF92DF92EF92FF92C6
:102250000F931F93CF93DF9322EE30E007EA10E055
:10226000612CEE24E394F12CE901899099909E0170
:10227000DE011E921E92F80181918F01E82FE295F6
:10228000EF70F0E091A98F70B70101C0660F8A95D9
:10229000EAF7892F862B81AB82A9562E509485218F
:1022A00082AB88E78A95F1F788E9C82E80E0D82EBE
:1022B00050E040E0E60179906E01872D82958F70A5
:1022C00090E0EC0188A9AD90BC90119790E0D72DDB
:1022D000DF7002C095958795DA95E2F780FD40C0E2
:1022E000C701042E02C0880F991F0A94E2F78A29B9
:1022F0009B2911969C938E934F5F5F4F4F305105F2
:10230000C9F681A9D52DD823D1AB82A9682B62ABA0
:1023100081E04D915C914815590509F480E0682AE7
:10232000E0E02E3E3E0709F09FCF262D46E066ED09
:1023300070E082EE90E00E94B4110E942E0C862D77
:10234000DF91CF911F910F91FF90EF90DF90CF9091
:10235000BF90AF909F908F907F906F905F90089507
:1023600090E080E0C4CF0895FF920F931F93CF9326
:10237000DF93F82E092F162FD72FC42F222349F0D1
:1023800081E08093F0000E94AD289093EF0080934D
:10239000EE008091F0008823A1F08091EE009091F2
:1023A000EF000E94D928069760F0EF2DF02FA12FA3
:1023B000BD2F90E080E0D0E08C179D0744F0109294
:1023C000F000DF91CF911F910F91FF90089521911F
:1023D00031912D933D930196EFCFAF92BF92CF9263
:1023E000DF92EF92FF920F931F93CF93DF93362FDD
:1023F000D72E282FE82FF0E0711110C0EB5EF74FB9
:102400006491762F862FDF91CF911F910F91FF90CE
:10241000EF90DF90CF90BF90AF900895E72EF12C12
:1024200086E0689F80011124CFEFD0E0C801BE0193
:102430000E941131832F90E0880F991F35E5369F58
:10244000A001379F500D1124841B950B382F330F9B
:10245000380FCE018E199F098E9FA0018F9F500DBE
:102460009E9F500D1124952F3D9DD0011124AB2F1F
:10247000BB276E01CA1ADB0ACE9ED001CF9EB00DDB
:10248000DE9EB00D11248B2F5E01A31AB108AE9C05
:102490006001AF9CD00CBE9CD00C1124CD2CDD244F
:1024A000CC19DD09CE9F7001CF9FF00CDE9FF00CA0
:1024B00011246330710531F10C3F33E0130760F4F0
:1024C0006130710519F16230710521F10F3F11057D
:1024D00048F4852F9F2D06C064307105F1F06630F9
:1024E0007105B9F3E22FF0E0EB5EF74F7491E92F3D
:1024F000F0E0EB5EF74F6491E82FF0E0EB5EF74F12
:10250000849181CF9B2F822F252FECCF922F2B2FC1
:10251000852FE8CF8F2D922FF7CF822F2F2DE2CF4F
:102520000895CF93DF93982F762F842FE901692F99
:102530000E94ED11798368838A83DF91CF9108959A
:102540000F931F93CF93DF93EC0110E000E0909185
:102550007C009017110609F06CF40E94310B8C81FD
:1025600090E00196817099278C83DF91CF911F9124
:102570000F9108952091F400A801420F511D9A0176
:10258000220F331F240F351F255C3D4F4C81609176
:1025900038028091370296959017110651F04CF051
:1025A000442349F0409139020E9491120F5F1F4F5E
:1025B000CECF4423B9F340E0F7CF0F931F93CF93CF
:1025C000DF938C01FC0184819581019681709927AC
:1025D00095838483C0E0D5E580917C00C81730F0F6
:1025E000DF91CF911F910F910C94310B2091F4004A
:1025F000422F4C0F5527551FCA019A01220F331F36
:10260000280F391F255C3D4F8C2F8695F80144819A
:102610005581840F952F911D8170409139026091F1
:1026200038028D9F802D11240E949112CF5FD4CF4C
:102630000F931F93CF93DF938091F40090917D00CF
:1026400023E0829FF0011124E55CFD4F891740F1E2
:10265000C0E0D3E060917C00C61740F10E94310BCE
:1026600020917A008091F200820F8093F200909185
:102670007B00920F90937B00191654F4082E000CE7
:10268000990B40917C004150550B841795071CF025
:10269000219520937A00DF91CF911F910F9108959A
:1026A0001182108212828F5F3396D0CF0C2F10E0F0
:1026B00070E0C8010E9425312091F400820F482F5C
:1026C00050E02091F200022E000C330B021713078A
:1026D000BCF020917B00022E000C330B2017310739
:1026E0007CF08D9F90011124255C3D4F4091390273
:1026F00060913802809137020E949112CF5FAACF79
:10270000FA01EE0FFF1FE40FF51FE55CFD4F11828C
:1027100010821282F3CFBF92CF92DF92EF92FF929C
:102720000F931F93CF93DF93FC0182810FEF80FF04
:1027300001E010E080917C001817C0F00E94310B7E
:102740008091F300013009F04DC0811102C08091E9
:102750007C0081508093F300DF91CF911F910F9106
:10276000FF90EF90DF90CF90BF900895C091F4005C
:10277000C12ED12CCC0DDD2DD11DCE01880F991F7E
:10278000C80FD91FC55CDD4F198218821A8234E048
:10279000E32EF12CB12C8091F3008B0D87FF03C049
:1027A00090917C00890F082E000C990BC816D90651
:1027B00091F4809139028E9DA0018F9D500D1124BE
:1027C00055954795559547959E01609138028091A2
:1027D00037020E949112B00EF1E0EF1AF108D9F61B
:1027E0001F5FA8CF90E0019660917C0070E00E948E
:1027F0002531B0CFEF92FF921F93CF93DF93EC017F
:1028000010E0EE24EA94F12C60917C00161770F031
:102810000E94310B9A818C8190FF27C08F5F8C833F
:10282000DF91CF911F91FF90EF9008952091F400D8
:10283000422F410F5527551FCA019A01220F331FFE
:10284000280F391F255C3D4F70E0C7010E942531DC
:10285000962F8C814091390260913802199F800D2A
:1028600011240E9491121F5FCFCF8150D8CF809149
:102870003602982F9E7F29F4817082608093360201
:1028800008958A34E8F381708864F8CF88E090E096
:102890000C9454310F931F93CF93DF938B01D82F58
:1028A000C92F0E943714A8016D2F7C2F88E090E07B
:1028B000DF91CF911F910F910C947131CF93DF93E2
:1028C00000D000D0CDB7DEB7E6E3F2E083E080834E
:1028D00011828FEF82838383148280819181A28110
:1028E000B38189839A83AB83BC83BC01CD010F90F4
:1028F0000F900F900F90DF91CF910C944A1480911C
:10290000A00180FF76C087EE96E09F938F930E9490
:1029100007098091A0010F900F9080FF6AC08091FD
:10292000360281701F928F938AEC96E09F938F936B
:102930000E9407098091A0010F900F900F900F90B7
:1029400080FF57C08091360286951F928F938FEA41
:1029500096E09F938F930E9407098091A0010F90AA
:102960000F900F900F9080FF44C0809137021F920C
:102970008F9385E996E09F938F930E94070980913A
:10298000A0010F900F900F900F9080FF32C08091A8
:1029900038021F928F938BE796E09F938F930E944C
:1029A00007098091A0010F900F900F900F9080FF6A
:1029B00020C0809139021F928F9381E696E09F9309
:1029C0008F930E9407098091A0010F900F900F90A4
:1029D0000F9080FF0EC080913A021F928F9385E482
:1029E00096E09F938F930E9407090F900F900F908E
:1029F0000F9008958091360280FF02C08695089559
:102A000080E00895CF93DF9300D000D0CDB7DEB73C
:102A100080913A02833018F48F5F80933A0280915C
:102A2000360290913702A0913802B0913902898321
:102A30009A83AB83BC83BC01CD010F900F900F90A4
:102A40000F90DF91CF910C944A14CF93DF9300D075
:102A500000D0CDB7DEB780913A02882319F08150BB
:102A600080933A028091360290913702A091380209
:102A7000B091390289839A83AB83BC83BC01CD01B9
:102A80000F900F900F900F90DF91CF910C944A14FC
:102A90009091360290FF14C09091F40020917D0037
:102AA00033E0939FF0011124E55CFD4F921710F085
:102AB0000C94310B8183608342839F5F3396F6CF02
:102AC0000895CF93DF9300D00F92CDB7DEB79091EA
:102AD000360290FF0AC09E012F5F3F4F0E94911265
:102AE0004B8169818A810E9448150F900F900F9049
:102AF000DF91CF910895CF93DF93EC01EC81F0E06B
:102B0000E05FF84F4491E6E3F2E0628181810E9448
:102B100061158C818F5F8C83DF91CF910895CF9366
:102B2000DF93EC01E6E3F2E0438162818C810E9455
:102B300061158C818F5F8C83DF91CF9108954F92C7
:102B40005F926F927F928F929F92AF92BF92CF923D
:102B5000DF92EF92FF920F931F93CF93DF9300D0FA
:102B600000D000D00F92CDB7DEB7182FF62E042F6D
:102B7000E22E9091360290FF48C0E92FE695AE2FE5
:102B8000B0E0A355BF4F8C918093FC009E7F9230A4
:102B900009F052C09E012F5F3F4F812F0E9491127A
:102BA0004B8169818A810E94481510933702F09207
:102BB000380200933902EE2009F49EC0809136025B
:102BC00090913702A0913802B09139028C839D8395
:102BD000AE83BF83BC01CD010E944A1480913902AB
:102BE0001F928F93809138021F928F9380913702AA
:102BF0001F928F938BE794E09F938F930E94070916
:102C00000FB6F894DEBF0FBECDBF27960FB6F8946F
:102C1000DEBF0FBECDBFDF91CF911F910F91FF900F
:102C2000EF90DF90CF90BF90AF909F908F907F906C
:102C30006F905F904F900895823019F4009139029F
:102C4000B4CF863019F410913702AFCF8930D9F361
:102C5000893109F0AACFE9518E2F8170682E81E069
:102C6000762C7826E695F0E0E05FF74FC590D4909B
:102C7000512CDD2490EA892E94E0992E60917C00FD
:102C8000561618F00E94310B90CFA52CB12C5C9CED
:102C9000C0015D9C900D112470E00E941131412E05
:102CA000611028C0460E8091A00180FF11C0DF9204
:102CB000CF921F927F921F924F921F925F929F928C
:102CC0008F920E9407090FB6F894DEBF0FBECDBFEA
:102CD0002091F400A20EB11C9501220F331F2A0D82
:102CE0003B1D255C3D4F402F6F2D842D0E9491127E
:102CF0005394C4CF461AD7CF1F920F931F92FF92BF
:102D00001F921F9384E594E077CF282FE6E3F2E04B
:102D1000818143816281885F0C949F1581E00C94CE
:102D20008516282FE6E3F2E0818143816281885095
:102D30000C949F1581E00C949116282FE6E3F2E0A5
:102D4000628131E1630F08F46FEF438181810C945C
:102D50009F1581E00C949D16282FE6E3F2E0628136
:102D600031E1631B08F460E0438181810C949F157D
:102D700081E00C94AC16282FE6E3F2E0438131E1C8
:102D8000430F08F44FEF628181810C949F1581E01D
:102D90000C94BB16282FE6E3F2E0438131E1431B9C
:102DA00008F440E0628181810C949F1581E00C94CD
:102DB000CA1620E00C949F150F931F93CF93DF93B7
:102DC00000D00F92CDB7DEB78C018091F100811158
:102DD0000AC09E012F5F3F4F4FEF6FEF0E9491128D
:102DE0008A818093F100F8016481613049F062309A
:102DF000F1F08091F10040E0662331F040E019C02D
:102E00006091F10040E080E00E944815F801848163
:102E100090E0019663E070E00E94253184830F907A
:102E20000F900F90DF91CF911F910F9108954091D6
:102E3000F10080E060E0E8CF60913602669570E0D6
:102E40004BE050E08EE790E00E943F31892B19F46F
:102E500081E08093FD000E94AD289093F60080935E
:102E6000F5008091A00180FF08C08BE394E09F9360
:102E70008F930E9407090F900F9008951092FD0004
:102E80008091A00180FF08C082E294E09F938F931D
:102E90000E9407090F900F900895CF93DF9300D001
:102EA00000D0CDB7DEB79091360290FF59C0917037
:102EB000811144C0926090933602662309F445C0A4
:102EC0008091360290913702A0913802B091390278
:102ED00089839A83AB83BC83BC01CD010E944A14D1
:102EE0008091360286951F928F938BE895E09F9391
:102EF0008F930E9407090F900F900F900F90609191
:102F00003602669570E04BE050E08EE790E00E945C
:102F10003F31892B11F10E943E1781E08093F80028
:102F20004091390260913802809137020F900F90E2
:102F30000F900F90DF91CF910C94D916853210F03D
:102F40009864B9CF880F982BB6CF809136028695BA
:102F50001F928F938DE695E0CACF0E941C17DDCF9C
:102F60000F900F900F900F90DF91CF910895682FE1
:102F70008091360286958F5F853208F081E00C944F
:102F80004D1781E00C94B717682F909136029695F3
:102F90008FEF890F913009F484E20C944D1781E092
:102FA0000C94C41761E00C944D17CF93DF93C6E3E4
:102FB000D2E08881816088831F9281E08F938FEFB8
:102FC00094E09F938F930E9407090F900F900F90AA
:102FD0000F9088818695DF91CF910C94D21760E095
:102FE0000C944D178091FB00811163C08091A0016A
:102FF00081608093A00180FF14C08EE296E09F93D1
:103000008F930E9407098091A0010F900F9080FF7D
:1030100008C088E196E09F938F930E9407090F9064
:103020000F900E94D927811110C08091A00180FFCC
:1030300008C080EF95E09F938F930E9407090F903F
:103040000F900E945D280E945E140E9446146093B7
:1030500036027093370280933802909339026E7F64
:10306000C1F48091A00180FF08C087EA95E09F939A
:103070008F930E9407090F900F900E945E140E9488
:10308000461460933602709337028093380290930F
:1030900039020E9437140E947F141092FD00809123
:1030A000360280FF03C086950E94EF1781E080936F
:1030B000FB000895CF93DF9300D000D0CDB7DEB7EB
:1030C000A6E3B2E08C918E7F8C938D919D910D90B3
:1030D000BC91A02D89839A83AB83BC83BC01CD01B5
:1030E0000E944A14E6E3F2E0808181701F928F9380
:1030F00087EC94E09F938F930E9407090E943E17EC
:10310000FFEB24ED81E0F15020408040E1F700C06A
:1031100000000F900F900F900F900F900F900F9056
:103120000F90DF91CF910C94310B809136028095F6
:1031300081701F928F9386E395E09F938F930E94F7
:103140000709809136020F900F900F900F9080FD2D
:103150000C945A180C94D5170F931F93CF93DF93A9
:103160008091FD00882309F48DC08091FC00E091DE
:103170003602E695E81BE093F7008230C9F5F0E0EF
:10318000E45FF84FE491CE2FD0E00BE715E180919A
:10319000F800882389F01092F8000E94AD289E0163
:1031A00020953095280F391F3093F6002093F500B5
:1031B0001092FA001092F9008091F5009091F600BB
:1031C0000E94D9288C179D0708F45CC0E091F50097
:1031D000F091F600CE0FDF1FD093F600C093F500FC
:1031E00085EF90E0F801DF91CF911F910F91099445
:1031F000863049F4F0E0E75FF84FE491CE2FD0E05D
:103200000FE815E1C4CF893051F4E695F0E0EA5FAC
:10321000F84FE491CE2FD0E00AEF13E1B8CF8F3012
:1032200051F4E695F0E0ED5FF84FE491CE2FD0E059
:103230000BE813E1ACCF853149F4F0E0E050F94FF1
:10324000E491CE2FD0E008E113E1A1CFC8EED3E0A6
:103250000DED12E1883109F49ACF833239F4EEEFA3
:10326000F6E0C591D4910CED16E191CFC4EFD1E019
:1032700000EA12E1843209F48ACFC0EDD7E000E918
:1032800012E185CFDF91CF911F910F910895CF93D8
:10329000DF93EC0181E0898B8F810E94062788856E
:1032A0000E941A270E945527EA81FB81309739F046
:1032B0006C897D89CE010696DF91CF910994DF91CB
:1032C000CF910895CF93DF93EC01FB018881823089
:1032D00031F4828193810E94BD0B81E08B87DF9165
:1032E000CF910895FB01DC018C91813021F4808124
:1032F00091810C94BD0B823019F482819381F9CFB6
:103300000895FB01DC018C91813021F48081918151
:103310000C94D20B823019F482819381F9CF0895F5
:10332000EF92FF920F931F93CF93DF93EC018A8567
:10333000811134C0EB80FC8087E5F81A26E12E9DD0
:10334000C0012F9D900D1124DC01A05ABF4F14968F
:10335000ED91FC911597309731F054966D917C91D9
:103360008A599F4F099586E18E9D80018F9D100D92
:103370001124005A1F4FF80187810E940C27F80181
:1033800080850E9420270E945527188219861B8657
:103390001E821D821092FF001092FE00DF91CF91DD
:1033A0001F910F91FF90EF900895DF92EF92FF929F
:1033B0000F931F93CF93DF938C01FB0182818823AE
:1033C00091F0809189008F3F71F0C0E6D0E0F12C40
:1033D000E12CDD24D39480918900082E000C990BF8
:1033E0008E159F0544F4DF91CF911F910F91FF90AF
:1033F000EF90DF9008958E818823C9F089859A85A2
:103400008017910739F48091FE009091FF0080179A
:10341000910769F0DF861C870B878989811103C0BA
:10342000CE010E944719CE0106960E949019FFEF27
:10343000EF1AFF0A6696CFCFEF92FF920F931F937A
:10344000CF93DF938C01FB0197558F3F910509F0D6
:10345000D0F520918900022E000C330B2817390774
:1034600014F480938900228136E1389F7001399FDE
:10347000F00C1124E701C05ADF4F288B92818E8116
:10348000992349F11A8709878F5F8E830E94AD289F
:103490009E878D870E943C278F830E940327888701
:1034A0000E9417279885982B9887E881F981309793
:1034B00031F06C897D89C7018A599F4F0995109316
:1034C000FF000093FE0081E0DF91CF911F910F91EB
:1034D000FF90EF9008958823B1F38989882399F3A9
:1034E000C7018A599F4F0E949019EDCFEF92FF922A
:1034F0000F931F93CF93DF938091890010E006E133
:103500008F3FC1F5DF91CF911F910F91FF90EF9009
:103510000895029FF001039FF00D1124E05AFF4F20
:10352000E288F388E114F10419F488ECE82EF12C18
:10353000029FE001039FD00D1124C05ADF4F8E81FE
:103540008823B9F08D859E850E94D928E816F90652
:1035500080F4109F700111248989811105C0C70171
:10356000805A9F4F0E944719C7018A599F4F0E9456
:1035700090191F5F212F30E080918900082E000CE8
:10358000990B821793072CF6BDCF0F931F93CF9300
:10359000DF93C62FD42F022FFC0182818823C9F02C
:1035A000609302010E94AD28909301018093000175
:1035B00080E28C0F883008F050C0C77081E001C0F5
:1035C000880FCA95EAF7DF91CF911F910F910C9464
:1035D000001E10910201161335C0809100019091D8
:1035E00001010E94D928883C910560F5C0E2CD0F09
:1035F0001D17B9F080E2810F883040F4177081E028
:1036000001C0880F1A95EAF70E94071EC83048F4D7
:1036100081E09D2F977001C0880F9A95EAF70E946C
:10362000001E802F0E94ED1DC830B8F4D77081E0D5
:1036300001C0880FDA95EAF7DF91CF911F910F91C2
:103640000C94071E80E28C0F883038F4C77081E03C
:1036500001C0880FCA95EAF7EFCFDF91CF911F9194
:103660000F9108959C01CB01203F4CE5340769F18F
:1036700090F4283DFCE53F0721F1293D4CE5340756
:1036800081F1273D3C45B1F0FC018281882361F145
:10369000109202010895223FFCE53F07D1F0233F3D
:1036A0004CE53407D1F0213F3C4571F727E245EE68
:1036B00064EE03C026E241EE61EE0E94C51A80E08E
:1036C000089527E245EE65EEF8CF26E241EE60EE82
:1036D000F4CF26E241EE62EEF0CF27E245EE66EE51
:1036E000ECCF28E241E0EFCF81E00895909308010C
:1036F000809307010895E0910701F0910801309748
:1037000021F00190F081E02D099480E00895EF927E
:10371000FF920F931F93CF93DF938C01E0910701EA
:10372000F09108013097C1F10280F381E02D0995F5
:103730008091A00182FF30C080FF04C08DE199E03C
:103740000E946E08D0E0C0E087E1E82E89E0F82E04
:103750008091A00180FF0EC0F801EC0FFD1F808159
:103760001F928F93FF92EF920E9407090F900F9084
:103770000F900F902196C830D10551F78091A0018C
:1037800080FF0AC085E199E0DF91CF911F910F91F1
:10379000FF90EF900C946E08DF91CF911F910F91E5
:1037A000FF90EF90089520910501309106012817B0
:1037B000390771F09093060180930501E0910701AC
:1037C000F0910801309721F00680F781E02D0994EF
:1037D000089520910301309104012817390771F0F1
:1037E0009093040180930301E0910701F091080197
:1037F000309721F00084F185E02D09940895089513
:1038000008950C94FF1B08950C94031C0E94001C47
:103810000C94011C81E008950E94A6280E94D710F4
:103820000E9486290E94F2170C94041CCF93C82F83
:103830008091A00182FF1EC080FF1CC086E399E03A
:103840000E946E088091A00180FF14C01F92CF9348
:1038500081E399E09F938F930E9407098091A001D3
:103860000F900F900F900F9080FF04C08FE299E0AF
:103870000E946E088C2FCF910C94340C5F926F9243
:103880007F928F929F92AF92BF92CF92DF92EF92F0
:10389000FF920F931F93CF93DF9300D000D00F922E
:1038A000CDB7DEB70E941D110E940A1C882309F4BF
:1038B00077C09AE0A92E91E0B92E10E000E08824AC
:1038C0008394912C502E802F0E9487107C01F5014B
:1038D000C190D1905F01C816D90609F45BC08091F0
:1038E000A00181FD0E94901090E080E0CE24DF24B2
:1038F0003401082E02C0660C771C0A94E2F7960188
:1039000026213721232B09F440C089835A82E620DF
:10391000F72081E0EF2809F480E08B830E94AD2836
:103920008160782F9D838C8349815A816B818D8141
:103930000E94F61C000F111FF801E65FFE4F808108
:10394000918168267926718260820E947B1B90910A
:1039500009018917B1F10E947B1B809309010F9027
:103960000F900F900F900F90DF91CF911F910F91BB
:10397000FF90EF90DF90CF90BF90AF909F908F908F
:103980007F906F905F900C94161C01968F3091057C
:1039900009F0AECF0F5F1F4F0630110509F092CF2F
:1039A0008FEF89838A831B820E94AD288160782FE4
:1039B0009D838C8349815A816B818D810E94F61C85
:1039C000C4CF0F900F900F900F900F90DF91CF9179
:1039D0001F910F91FF90EF90DF90CF90BF90AF902D
:1039E0009F908F907F906F905F900895CF93DF931B
:1039F000CDB7DEB72B970FB6F894DEBF0FBECDBFA5
:103A00004F83588769877A878B871E8285E0FE01FE
:103A10003796DE01119601900D928A95E1F7498162
:103A20005A816B817C818D819E812B960FB6F89493
:103A3000DEBF0FBECDBFDF91CF910C942523FC01DB
:103A4000808191810C94A826CF93C82F882309F4F4
:103A50009AC08CEF8C0F813A58F48C2F0E940A2D5B
:103A6000811191C08C2F0E94DE26CF910C94552796
:103A700080E28C0F883048F4C77081E001C0880F65
:103A8000CA95EAF70E940627F0CF8BE58C0F8330AA
:103A900068F481E890E0C53A31F083E890E0C63AF6
:103AA00011F482E890E0CF910C94D31B88E58C0F41
:103AB000873108F068C082EE90E0C83A09F460C02F
:103AC00089EE90E0C93A09F45BC08AEE90E0CA3A08
:103AD00009F456C085EB90E0CB3A09F451C086EB6F
:103AE00090E0CC3A09F44CC083EB90E0CB3B09F476
:103AF00047C084EB90E0CC3B09F442C087EB90E0F8
:103B0000CD3AF1F18CEC90E0C03BD1F18DEC90E03E
:103B1000CE3AB1F183E891E0CF3A91F18AE891E0B1
:103B2000C13B71F182E991E0C23B51F184E991E03E
:103B3000C33B31F181E292E0C43B11F183E292E0B8
:103B4000C53BF1F084E292E0C63BD1F085E292E021
:103B5000C73BB1F086E292E0C83B91F087E292E089
:103B6000C93B71F08FE690E0CD3B51F080E790E0EB
:103B7000CE3B31F090E080E0CA3B11F48AE292E063
:103B8000CF910C94E91BCF910895882329F19CEFE4
:103B9000980F913A20F40E94E5260C94552790E264
:103BA000980F983050F4877091E001C0990F8A9572
:103BB000EAF7892F0E940C27F0CF9BE5980F9330EE
:103BC00020F490E080E00C94D31B885A873120F4D5
:103BD00090E080E00C94E91B0895CF93C82F0E94D9
:103BE000241DC93349F42FEF82E597E0215080402E
:103BF0009040E1F700C000008C2FCF910C94C51DC0
:103C0000882321F00E9406270C94552708958823C5
:103C100021F00E940C270C9455270895BF92CF9253
:103C2000DF92EF92FF920F931F93CF93DF9300D019
:103C300000D00F92CDB7DEB76C016D837983FC01A4
:103C4000058102950F70128111110E9428270E9490
:103C5000FC26E82E882371F01123B1F08D81805E5F
:103C6000883090F082E00E94A0270E94FC2691E01C
:103C7000E82EE926B980B2949FE0B922EB2DF0E05E
:103C8000EF52FE4C0C943931E12CF4CF09810F70C6
:103C9000F981F07F11F00295007F1123B1F000232C
:103CA00061F08D81805E883018F02D81211109C06E
:103CB000802F0E9406270E9455278D810E94241D77
:103CC00015C0802F0E941A27F6CF8D810E94C51D36
:103CD000002361F08D81805E883018F04D814111A4
:103CE00033C0802F0E940C270E94552758E0B5163C
:103CF00029F086E08B0D8F70823020F40E947B1BB0
:103D00000E94340CEE2009F4BCC10E94F82680FD0C
:103D1000B8C1F60112820E94F2260E94FF24C60159
:103D20000E9450200E94F2260F900F900F900F904B
:103D30000F90DF91CF911F910F91FF90EF90DF9047
:103D4000CF90BF900C943025802F0E942027CCCF9D
:103D500059815F70F52E6981607F603219F0F294AD
:103D600080EFF8227D81772369F0713049F11123CA
:103D700091F1002351F1F601858180FF9ECF8F7074
:103D8000858323C0112381F0011106C00E943C27C6
:103D90008F290E94001EAACF0130C1F70E943C2744
:103DA0008F290E944227A2CF011106C00E944B27F3
:103DB0008F2D0E94071E9ACF013009F497CFF6CFBE
:103DC000112329F0063008F091CF8F2DE2CF053076
:103DD00008F08CCFEDCF002359F38D810E94C51DD3
:103DE00085CF898186958695837069F0813009F049
:103DF0007DCF8D8199819370111102C090E080E098
:103E00000E94E91B73CF8D8199819370111102C0BB
:103E100090E080E00E94D31B69CF8981837009F014
:103E200050C0111163CF4D81429546954770440FA4
:103E3000440F8D818F7090E0B0E0A0E0042E04C0AC
:103E4000880F991FAA1FBB1F0A94D2F7FD8100E0BB
:103E500010E09801F4FF0FC00FE010E020E030E028
:103E600004C0000F111F221F331F4A95D2F700957F
:103E700010952095309549814695469543704D8320
:103E8000B901A801482B592B6A2B7B2B49835A83F4
:103E90006B837C835D8169817A818B819C815230C7
:103EA00051F0533059F0513019F00E9475241ECF53
:103EB0000E944D241BCF0E949D2418CF0E944B24AA
:103EC00015CF8695112311F089818170882309F41B
:103ED0000DCF4D81429546954770440F440F8D811B
:103EE0008F7090E0B0E0A0E0042E04C0880F991F0E
:103EF000AA1FBB1F0A94D2F76D8100E010E0980161
:103F000064FF0FC00FE010E020E030E004C0000FBD
:103F1000111F221F331F4A95D2F700951095209547
:103F2000309579817695769573707D83B901A80176
:103F3000482B592B6A2B7B2B49835A836B837C83B9
:103F40005D8169817A818B819C81523051F053303F
:103F500059F0513019F00E94BE25C8CE0E94962516
:103F6000C5CE0E94E625C2CE0E94C924BFCE6D8177
:103F7000623F09F448C080F4603F81F1613FE1F1A4
:103F8000862F805E8031D8F0112309F457C00111CB
:103F900094CE89818F7134C07D81733FD9F1743F94
:103FA00099F7112309F440C099819F719983892F52
:103FB0000E94FF2463E089810E948B2797CE8D8128
:103FC0008F708D8389818F71112321F00E94FF24CE
:103FD0008D81DFCE0E9430258D81EBCE112341F003
:103FE000053008F083CE89818F710E9465257ECED1
:103FF000063008F07BCEF7CF89818F71112339F01D
:104000000E94FF2473CE89818F711123C9F30E940E
:1040100030256CCE112329F089818F710E94DA241A
:1040200065CE0E94D52462CE81E00E94A027023096
:1040300008F45CCE82E00E94A02758CE002371F0E5
:10404000ED81E93309F0C9CEFFEF22E547E0F150F9
:1040500020404040E1F700C00000BFCE89818F7151
:10406000D6CF49814F706D81C6010E94080E0E9413
:10407000BF233CCE49814F706D81C6010E940B0E5B
:1040800035CE0F900F900F900F900F90DF91CF9142
:104090001F910F91FF90EF90DF90CF90BF90089508
:1040A0000F931F93CF93DF93EC018B819C81892B1E
:1040B00029F08881998189238F3F29F4DF91CF915D
:1040C0001F910F910895CE010E94460C8823B1F3F1
:1040D000688179818A810E94B4268C010E940E2613
:1040E0000E944A24B801CE01DF91CF911F910F9118
:1040F0000C940E1E0E9428270E9439270E945527E3
:1041000090E080E00E94D31B90E080E00C94E91BDB
:104110000E94EC260C947A200E9414270C9488208C
:10412000282F892F82958F70903C80F48A30B0F4CC
:10413000843020F4823090F480E008958630E1F7F6
:1041400081E0203E88F0213FB9F70EC08C3011F09D
:104150008F3091F793FB882780F9089581E0203F05
:1041600039F018F4203E40F70895243F29F7FCCF9A
:1041700008950E94A8260C949020CF93DF9300D03E
:1041800000D00F92CDB7DEB70F900F900F900F9029
:104190000F90DF91CF910895CF93DF9300D000D09F
:1041A00000D0CDB7DEB726960FB6F894DEBF0FBEAF
:1041B000CDBFDF91CF9108951F93CF93DF93E0910F
:1041C000170116E0809118018E1304C0DF91CF9182
:1041D0001F910895CE2FD0E01E9FF0011124E75EBD
:1041E000FE4F4081518162817381848195810E945B
:1041F000CC20FE013196E770E5CF40914901509106
:104200004A0160914B0170914C0180914D01909158
:104210004E010C94CC201F93CF93DF9380914E01DD
:10422000807FC1F480914B018823A1F08091170118
:10423000C09118016091490170914A0140914C016F
:1042400050914D01D62FD723DA01A095B09516E0F5
:10425000C81304C0DF91CF911F91089590E04115DC
:10426000510511F0DF3F31F401968770F1CF2A0F2D
:104270003B1F17C0189FF001199FF00D1124E75E36
:10428000FE4F21812713F0CF20812613EDCF22810D
:104290002111EACF238134812417350740F3241BF1
:1042A000350B283C310500F720914E012F7020611D
:1042B00020934E0126E0289FF001299FF00D112444
:1042C000E25EFE4F80818F708061808389E491E09F
:1042D0000E945020DF91CF911F910C94DC209F927F
:1042E000AF92BF92CF92DF92EF92FF920F931F9304
:1042F000CF93DF93CDB7DEB72B970FB6F894DEBF21
:104300000FBECDBF8C0185E0F801DE01179601904C
:104310000D928A95E1F7D8014C9111965C91119715
:104320001296EC90129780914C0190914D0100975C
:1043300009F46CC12091490130914A01632F622335
:104340006F3F09F463C11396CD90DC9090904B01C0
:10435000992009F4FAC0C816D90608F43FC0F6013E
:10436000E81BF90BCF01FF24F394883C910508F07A
:10437000F12C89E4A82E81E0B82E80914E01982F6F
:10438000907FFF2009F4B9C0911180C0FE2C351335
:104390002AC0241328C0E11026C08F70806180934A
:1043A0004E010E94FD20C5010E94502080914E01C7
:1043B000D80115968C938F2D2B960FB6F894DEBFEF
:1043C0000FBECDBFDF91CF911F910F91FF90EF9066
:1043D000DF90CF90BF90AF909F900895809590957B
:1043E0008C0D9D1DC0CFCD2829F0842F85238F3FB4
:1043F00009F028C180E0B82FB170DB2EE0911701E1
:104400002091180136E080FD1CC0EE20A1F28091C1
:104410004E01816080934E01F12CCDCF8E2F90E024
:104420003E9FF0011124E75EFE4F6181651306C0D7
:104430006081641303C062816E11E7CFFC01319685
:10444000E770E213EBCF4F8358878F8198850E94E6
:10445000A826292F22952F70903260F0225F2F70AE
:10446000223078F49F7051F0F8019581907F31F4FB
:10447000D12C0AC09F7011F08823D1F3805E883060
:10448000B8F3C8010E945020FD2C95CF351306C00B
:10449000241304C0D801EE2009F47CC04F83588750
:1044A0008F8198850E94B920882319F1EE2009F1A7
:1044B00080914E01803270F02091490130914A0183
:1044C0003A8329831B82DD82CC828E83CE010196C2
:1044D0000E94502086E0F801A9E4B1E001900D921D
:1044E0008A95E1F70E940B210E94FD20FF24F3949E
:1044F00062CFC8010E945020F9CF911113C07C2DCA
:10450000DB86CA866E2D8B850E94BD2089E491E0F2
:104510000E94502086E0F50111928A95E9F70E94E9
:10452000FD2049CF3513BACF2413B8CFE110B6CF51
:10453000D80115968C93C8010E94502086E0F501A1
:1045400011928A95E9F7F92C36CFC816D90680F171
:10455000B601681B790BCB01F12C883C910508F062
:1045600046C0FE2CEE2029F2351330C024132EC095
:1045700080914E0180FD21C0982F907FF1F0D801ED
:1045800015968C931597903F39F0982F907F905FF8
:104590008F70892B15968C93C8010E94502086E05D
:1045A000F801A9E4B1E001900D928A95E1F7B7CF47
:1045B000809590958C0D9D1DCFCF86E0F801A9E4E4
:1045C000B1E001900D928A95E1F7F5CE4F835887BF
:1045D0008F8198850E94B92081117CCF80914E01F6
:1045E000816080934E01C8010E945020E4CE7C2D52
:1045F000DB86CA866E2D8B850E94BD2086E0E9E4AD
:10460000F1E0DF011D928A95E9F789CFEE2009F4E8
:1046100070CF4F8358878F8198850E94B920F82EDC
:10462000882309F466CF86E0F801A9E4B1E001909F
:104630000D928A95E1F789E491E00E941F1D0E9486
:104640000B216DCF81E08E25D6CE1F93CF93DF93C4
:10465000CDB7DEB72C970FB6F894DEBF0FBECDBF37
:104660004F83588769877A878B879C87CE01079607
:104670000E946F21882369F08A859B85892B39F0F8
:104680004F815885842F85238F3F09F071C016E034
:104690005FC086E0FE013796DE01119601900D9213
:1046A0008A95E1F78A859B85892B89F388859F8187
:1046B00089238F3F61F32091180130E0C9010196F1
:1046C00087709927409117014817190671F40E94C5
:1046D0008C20109218011092170186E0E9E4F1E0B5
:1046E000DF011D928A95E9F7D2CF96E0929FD00123
:1046F000939FB00D1124A75EBE4FFE01319601902D
:104700000D929A95E1F7809318010E94DC20BFCFAB
:10471000819FC0011124875E9E4F0E946F218823D4
:10472000E9F0E09117011E9FF0011124E75EFE4FB2
:104730004081518162817381848195810E94CC2066
:104740008091170190E00196877099278093170157
:1047500080911701909118018913DACF2C960FB62A
:10476000F894DEBF0FBECDBFDF91CF911F910895AA
:1047700069857A858B859C850E94CC2088CFEF92B5
:10478000FF920F931F93CF93DF938C01892B89F0B6
:10479000F12CEE24E394E8012196F801849184370A
:1047A00009F457C0A0F4823009F43EC048F48130C7
:1047B000D1F0DF91CF911F910F91FF90EF9008956D
:1047C0009CEF980F9037A8F70E94241D0AC08537E8
:1047D00009F44CC09CE7980F903758F78F770E94E8
:1047E000C51D8E0116C00E5F1F4FFE01849190E221
:1047F000980F983060F48770FE2D01C0FF0F8A95E6
:10480000EAF78F2F0E942B270E94552702C00E9493
:10481000241D8F2D815008F4BECFE7EBFBE03197CC
:10482000F1F700C00000F6CF0E5F1F4FFE0184912C
:1048300090E2980F983050F48770FE2D01C0FF0F62
:104840008A95EAF78F2F0E943127DECF0E94C51D7F
:10485000E0CF0E5F1F4FFE01C491C150D0F287EB35
:104860009BE00197F1F700C00000F7CF0E5F1F4FEC
:10487000FE01F490CECF08950C943B240E943C247A
:1048800060938F01709390018093910190939201B6
:104890000C947A2008950C943E24CF93DF9300D09B
:1048A00000D0CDB7DEB769837A838B839C838091F8
:1048B0008F0190919001A0919101B0919201298175
:1048C0003A814B815C81282B392B4A2B5B2B298326
:1048D0003A834B835C83CA01B9010F900F900F900C
:1048E0000F90DF91CF910C943E24CF93DF9300D0B3
:1048F00000D0CDB7DEB769837A838B839C838091A8
:104900008F0190919001A0919101B0919201298124
:104910003A814B815C81282339234A235B232983F5
:104920003A834B835C83CA01B9010F900F900F90BB
:104930000F90DF91CF910C943E24CF93DF9300D062
:1049400000D0CDB7DEB769837A838B839C83809157
:104950008F0190919001A0919101B09192012981D4
:104960003A814B815C81282739274A275B27298395
:104970003A834B835C83CA01B9010F900F900F906B
:104980000F90DF91CF910C943E240C943B240C9417
:10499000C5240E94C72460938B0170938C0180937F
:1049A0008D0190938E010C947A2060E070E0CB0131
:1049B0000C94C9240F931F93CF93DF9300D000D0A2
:1049C000CDB7DEB741E050E060E070E08A019B01C6
:1049D00004C0000F111F221F331F8A95D2F70983CD
:1049E0001A832B833C83C901B8010F900F900F905D
:1049F0000F90DF91CF911F910F910C94C9240F93C9
:104A00001F93CF93DF9300D000D0CDB7DEB741E046
:104A100050E060E070E004C0440F551F661F771F30
:104A20008A95D2F780918B0190918C01A0918D0194
:104A3000B0918E018A019B01082B192B2A2B3B2B4D
:104A400009831A832B833C83C901B8010F900F900F
:104A50000F900F90DF91CF911F910F910C94C9246B
:104A60000F931F93CF93DF9300D000D0CDB7DEB765
:104A700041E050E060E070E004C0440F551F661F45
:104A8000771F8A95D2F740955095609570958091E3
:104A90008B0190918C01A0918D01B0918E018A01C2
:104AA0009B01082319232A233B2309831A832B8381
:104AB0003C83C901B8010F900F900F900F90DF91C8
:104AC000CF911F910F910C94C9240F931F93CF93F3
:104AD000DF9300D000D0CDB7DEB741E050E060E01A
:104AE00070E004C0440F551F661F771F8A95D2F7E8
:104AF00080918B0190918C01A0918D01B0918E01DC
:104B00008A019B01082719272A273B2709831A8333
:104B10002B833C83C901B8010F900F900F900F9029
:104B2000DF91CF911F910F910C94C924CF93DF9304
:104B300000D000D0CDB7DEB769837A838B839C83A6
:104B400080918B0190918C01A0918D01B0918E018B
:104B500029813A814B815C81282B392B4A2B5B2B95
:104B600029833A834B835C83CA01B9010F900F906C
:104B70000F900F90DF91CF910C94C924CF93DF93C6
:104B800000D000D0CDB7DEB769837A838B839C8356
:104B900080918B0190918C01A0918D01B0918E013B
:104BA00029813A814B815C81282339234A235B2365
:104BB00029833A834B835C83CA01B9010F900F901C
:104BC0000F900F90DF91CF910C94C924CF93DF9376
:104BD00000D000D0CDB7DEB769837A838B839C8306
:104BE00080918B0190918C01A0918D01B0918E01EB
:104BF00029813A814B815C81282739274A275B2705
:104C000029833A834B835C83CA01B9010F900F90CB
:104C10000F900F90DF91CF910C94C9240895E82F45
:104C20002FE0929FE00D11248E2F877041E001C08C
:104C3000440F8A95EAF7E695E695E69585E0E89FC4
:104C4000F0011124E15BFE4F30E020E070E0519173
:104C5000DF011197CB01022E02C0969587950A9429
:104C6000E2F7817081958527842385278C932F5FB8
:104C70003F4F2530310559F70895E82F2FE0929FD7
:104C8000E00D11249E2F9770E695E695E69585E058
:104C9000E89FF0011124E15BFE4F50E040E080E02E
:104CA000219130E0092E02C0369527950A94E2F74B
:104CB00021703327042E01C0220F0A94EAF7822BB9
:104CC0004F5F5F4F4530510559F70895BF92CF921E
:104CD000DF92EF92FF920F931F93CF93DF938C019C
:104CE000C0908B01D0908C01E0908D01F0908E01EE
:104CF00080918F0190919001A0919101B0919201CA
:104D0000C82AD92AEA2AFB2ACFE1D0E0BC2ED70153
:104D1000C6010C2E04C0B695A795979587950A9461
:104D2000D2F780FD0EC0219788F7B12C8B2DDF9133
:104D3000CF911F910F91FF90EF90DF90CF90BF9098
:104D40000895B8018C2F0E94280E019761F3EECFD1
:104D5000CF93DF93D82FC92F0E9466266D2F7C2F0B
:104D6000DF91CF910C94280E1F93CF93DF93162FD2
:104D7000D72F90911601992339F0862F972FDF9125
:104D8000CF911F910C94A826882391F0862F972FFE
:104D90000E946626C82F682F812F9D2F0E940F2604
:104DA000612F7D2F8C2FDF91CF911F910C94280EB6
:104DB000862F972F0E943D26C82FF2CF682F809113
:104DC0008A0090918B000C949A28682F80918A0019
:104DD00090918B000C949C2880918A0090918B007C
:104DE0000C949E28809193018595859585950895CD
:104DF000809193018770089590919301977081E05D
:104E000009F480E0089580919F01089590919F0199
:104E1000982B90939F010895982F909580919F01D2
:104E2000892380939F01089510929F010895809196
:104E30009E01089590919E01982B90939E01089554
:104E4000982F909580919E01892380939E010895CB
:104E500010929E01089590919D01982B90939D0131
:104E60000895982F909580919D01892380939D01AD
:104E7000089510929D0108958091940108950895D8
:104E80000C943F2790919401981721F080939401FE
:104E90000C944027089580919401882329F0109262
:104EA000940180E00C9440270895E0918A00F091ED
:104EB0008B0080919F018083E0918A00F0918B00AC
:104EC000808190919E01892B8083E0918A00F091EE
:104ED0008B00808190919D01892B8083909194011A
:104EE000992381F0E0918A00F0918B008081892BD9
:104EF000808380918A0090918B000E945F288111AD
:104F00000E944B2780918A0090918B000C94871B04
:104F100008950C94882798E0899F90011124622BB2
:104F2000609393010E94FF2480919301859585955C
:104F300085950C9489271092930180E00C94892721
:104F4000909193018095892380939301282F277056
:104F500071F4282F082E000C330B9217130639F02A
:104F60008595859585950E9430250C949B270895FD
:104F7000829594E0899F900111242C7C86958695DA
:104F80008373282B30E0C901880F991F8A7A3595E1
:104F900027952575822B0895CF93DF93D92F0E94F3
:104FA000B827C82F8D2F0E94B8279C2FDF91CF9153
:104FB000089590E080E00E945A319C0181E02D3EEE
:104FC0003E4F09F080E0089582E090E00C944C316F
:104FD000682F82E090E00C94603183E090E00C94C4
:104FE0004C31682F83E090E00C94603184E090E0D5
:104FF0000C944C31682F84E090E00C946031AB014C
:10500000BC018FE090E00C947131AB01BC0183E1F5
:1050100090E00C94713160E070E0CB010C940528B5
:1050200060E070E0CB010E94FF270C940B286DEE2E
:105030007EEF90E080E00E947D3160E082E090E0D1
:105040000E94603160E083E090E00E946031109245
:105050008F0110929001109291011092920160E0E4
:1050600084E090E00E94603160E085E090E00E9482
:10507000603160E086E090E00E9460316FEF87E091
:1050800090E00E94603140E050E0BA0188E090E09A
:105090000E94713160E08DE090E00E94603140E05C
:1050A00050E0BA0188E190E00E94713160E087E150
:1050B00090E00E9460310C9410280C941728AC01E9
:1050C0009C012E5F3F4F485F5F4F80E024173507FC
:1050D00009F40895F90191919F019923B9F38F5F24
:1050E000F5CF9C01FC0132968FEF90E0419146177D
:1050F00051F08F3F19F4411101C0892F9F5F963005
:10510000A9F78F3F09F40895280F311D87FD3A95BF
:10511000F901628308959C01FC013296285F3F4F9C
:105120008191861303C0DF0111971C92E217F307E8
:10513000B9F708950C9471280C948B28FC013296D1
:1051400086E0DF011D928A95E9F708958BE083BF21
:105150008BEB8CBF82E089BF08952FB7F8948091C4
:10516000710290917202A0917302B09174022FBFEC
:105170000895CF93DF9300D000D0CDB7DEB78FB7BF
:10518000F894209171023091720240917302509113
:10519000740229833A834B835C838FBF69817A8150
:1051A0008B819C810F900F900F900F90DF91CF918A
:1051B0000895CF92DF92EF92FF929C014FB7F8943F
:1051C0008091710290917202A0917302B091740269
:1051D0004FBF6C017D01EE24FF24A90170E060E067
:1051E000C416D506E606F70638F0821B930BFF902F
:1051F000EF90DF90CF9008950197F7CF78941F92AA
:105200001FB61F9211248F939F93AF93BF938091EA
:10521000710290917202A0917302B0917402019692
:10522000A11DB11D8093710290937202A09373022D
:10523000B0937402BF91AF919F918F911F901FBE49
:105240001F90189560E081E090E00E94833187E034
:1052500090EBDC018093BA029093BB02A093BC0256
:10526000B093BD0288E19CE00FB6F894A89581BD8B
:105270000FBE91BDFFCFAF92BF92CF92DF92EF9260
:10528000FF920F931F93CF93C0E0AA24A394B12C55
:10529000E82EF12C8C2F0E9487106C0110E000E0AA
:1052A000C501002E02C0880F991F0A94E2F78C21D5
:1052B0009D21892B99F0602F7C2F80E00E940C0E9D
:1052C000E816F90659F481E0CF911F910F91FF90F4
:1052D000EF90DF90CF90BF90AF9008950F5F1F4F7A
:1052E0000F301105E9F6CF5FC630A1F680E0ECCFB4
:1052F000CF93C82F8CE20E943B29882321F08C2F6A
:10530000CF910C943B2980E0CF910895CF93DF9308
:1053100000D000D0CDB7DEB70E94D927811102C0DE
:105320000E945D2880E599E00E946E0825E62983A9
:105330009981915099839111F6C089E499E00E9476
:105340006E0889E20E94782981111AC18AE20E94BE
:10535000782981110E945D2885E00E9478298111B9
:105360000E9422290E94E4278093A00187E00E94E6
:105370007829882371F08BE10E947829882309F429
:10538000DBC09091A001892F8D7F91FF8260809377
:10539000A0018091A0010E94E8270E94F62790E0DA
:1053A000909376028093750280EE0E94782988237C
:1053B00041F090917502892F8E7F90FF81608093DC
:1053C000750289E30E947829882341F09091750243
:1053D000892F8D7F91FF82608093750282EE0E94FB
:1053E0007829882341F090917502892F8B7F92FF55
:1053F00084608093750286EE0E947829882341F0AC
:1054000090917502892F877F93FF88608093750242
:1054100083EE0E947829882341F090917502892FAC
:105420008F7E94FF80618093750285E30E947829C6
:10543000882341F090917502892F8F7D95FF8062BE
:105440008093750281E30E947829882341F090912E
:105450007502892F8F7B96FF80648093750281E1AE
:105460000E947829882341F090917502892F97FB3B
:1054700087F9805880937502809175020E94FA27FF
:1054800087E20E94782989838EE10E947829882307
:1054900019F0A981A260A9838FE10E94782988234D
:1054A00019F0B981B460B98380E20E947829882319
:1054B00019F029812860298381E20E9478298823B4
:1054C00019F039813061398382E20E94782988237A
:1054D00019F049814062498383E20E947829882338
:1054E00019F059815064598384E20E9478298823F5
:1054F00009F43FC089818068898389810E94F127EE
:105500003981232F30E050E040E029833A834B83F8
:105510005C83CA01B9010F900F900F900F90DF913B
:10552000CF910C944B240E941D118FE295E70197B7
:10553000F1F700C00000FCCE8EE00E94782988239D
:1055400039F09091A001892F8B7F92FF84601FCF4B
:1055500080E10E9478299091A001882329F0892F69
:10556000877F93FF886013CF892F8E7F90FF8160A4
:105570000ECF99819111C1CF0E94ED27282FC2CF64
:105580000F900F900F900F90DF91CF910895CF93D0
:10559000DF9300D000D0CDB7DEB789831F928F9301
:1055A0008BE699E09F938F930E94070981E090E03A
:1055B000A0E0B0E09C01AD01098004C0220F331FC0
:1055C000441F551F0A94D2F729833A834B835C8387
:1055D000CA01B9010E944B240F900F900F900F90B9
:1055E0000F900F900F900F90DF91CF910C948C2023
:1055F000CF938B3258F4853098F0EBEFE80FE6321A
:1056000078F4F0E0EF51FE4C0C943931833470F4AF
:105610008A3308F0F7C1853359F0883309F443C160
:1056200089EA9DE00E946E0880E052C18334C1F790
:1056300080E00E94C72A2EC188E49EE00E946E0886
:1056400089E99DE00E946E080E94ED271F928F93CA
:1056500086E99DE09F938F930E94070984E99DE06E
:105660000E946E080E94E427C82F81E89DE00E94F6
:105670006E081F92CF938CE79DE09F938F930E94BB
:1056800007098AE79DE00E946E0880E79DE00E947E
:105690006E088C2F81701F928F938DE69DE09F93F3
:1056A0008F930E9407098BE69DE00E946E0881E6B9
:1056B0009DE00E946E08C1FB882780F91F928F939E
:1056C0008EE59DE09F938F930E9407098CE59DE0F6
:1056D0000E946E0880E59DE00E946E08C2FB88274C
:1056E00080F91F928F938DE49DE09F938F930E948A
:1056F00007098BE49DE00E946E0882E49DE00E9411
:105700006E08C3FBCC27C0F91F92CF938FE39DE0B7
:105710009F938F930E9407098DE39DE00E946E087E
:105720000E94F627C82F89E29DE00E946E081F9212
:10573000CF9384E29DE09F938F930E94070982E2BA
:105740009DE00E946E0889E09DE00E946E088C2F0B
:1057500081701F928F9386E09DE09F938F930E94AC
:1057600007098DB79EB780960FB6F8949EBF0FBEFF
:105770008DBF84E09DE00E946E088DEE9CE00E944B
:105780006E08C1FB882780F91F928F938AEE9CE0F8
:105790009F938F930E94070988EE9CE00E946E08F9
:1057A00086ED9CE00E946E08C2FB882780F91F925C
:1057B0008F9383ED9CE09F938F930E94070981ED67
:1057C0009CE00E946E088FEB9CE00E946E08C3FB79
:1057D000882780F91F928F938CEB9CE09F938F9387
:1057E0000E9407098AEB9CE00E946E0880EB9CE017
:1057F0000E946E08C4FB882780F91F928F938DEA60
:105800009CE09F938F930E9407098BEA9CE00E9483
:105810006E0889E99CE00E946E08C5FB882780F924
:105820001F928F9386E99CE09F938F930E940709B4
:1058300084E99CE00E946E0888E79CE00E946E0864
:10584000C6FB882780F91F928F9385E79CE09F9382
:105850008F930E94070983E79CE00E946E088BE605
:105860009CE00E946E08C7FBCC27C0F91F92CF9323
:1058700088E69CE09F938F930E94070986E69CE050
:105880000E946E088DB79EB74C960FB6F8949EBFD7
:105890000FBE8DBF81E01CC087E39EE00E946E08B2
:1058A0000E945D28F7CF83EC9AE00E946E08F2CF49
:1058B0008091A001807F8093A00188EA9AE00E94F5
:1058C0006E0883E39EE00E946E0881E08093A10150
:1058D000CF9108950E948C2087E19EE00E946E087F
:1058E0009FEF2EE984E2915020408040E1F700C014
:1058F00000000E942229CECF9091A001892F8E7F97
:1059000090FF81608093A00180FF03C08BE09EE048
:10591000CCCF8EEF9DE00E946E088091A001817F28
:105920008093A001B7CF9091A001892F8D7F91FF27
:1059300082608093A00181FF08C081EF9DE00E94FA
:105940006E088091A0018160EBCF83EE9DE0ADCF2A
:105950009091A001892F8B7F92FF84608093A0019A
:1059600082FF03C084ED9DE0EACF84EC9DE09DCFF3
:105970009091A001892F877F93FF88608093A00179
:1059800083FF03C088EB9DE0DACF8BEA9DE08DCFEB
:1059900089E99AE00E946E0886E89AE00E946E0803
:1059A0008DE49AE00E946E0881E19AE00E946E0800
:1059B0008AED99E00E946E088FEA99E076CF81EA3D
:1059C00099E00E946E080E947B1B1F928F9387E8CC
:1059D00099E09F938F930E9407090E94B9289F9393
:1059E0008F937F936F9380E799E09F938F930E94AB
:1059F00007098DB79EB70A960FB6F8949EBF0FBEE3
:105A00008DBF48CF895315CE8D5113CE80E00895B8
:105A10000C94062DCF93C82F8091A101882331F0DB
:105A2000813099F01092A10180E00DC00E940327FF
:105A30008232D1F78C2F0E94062D81111BC08C2F32
:105A40000E94F82A8170CF9108950E940327823224
:105A500089F38C2F0E94082D811119C0C932C9F019
:105A600060F4CB3061F0C431A1F085E699E00E948A
:105A70006E0811C081E090E0E5CFC833B1F788EA45
:105A80009AE00E946E0887E699E00E946E0881E025
:105A9000D9CF1092A10180E0D5CF0E94AD28EC01B2
:105AA0000E94061C0E940C1C0E94AB2E0E94761BBA
:105AB0008091A00180FF04C08EE59EE00E946E08E8
:105AC0000E94FE308B9A80E0815061F48B9878942C
:105AD0008091A00180FF04C083E59EE00E946E08D3
