:100000000C9413080C9457080C9420090C9457086E
:100010000C9457080C9457080C9457080C945708E4
:100020000C9457080C9457080C94C1270C9457084B
:100030000C9457080C9457080C9457080C945708C4
:100040000C9457080C9457080C9457080C945708B4
:100050000C94570800571E001F00200021002200AA
:10006000230024002500260027002D002E004C0030
:1000700031002B0014001A000800150017001C00A6
:1000800018000C00120013002F00280030000000A0
:10009000035104001600070009000A000B000D00C0
:1000A0000E000F0033002A00340000000000D75C6F
:1000B0001D001B000600190005000153110010006F
:1000C000360037003800D85C04510000E400E2003C
:1000D0000451E300000000002C00E600E4000000F2
:1000E000000000000000000000003500A900AA0088
:1000F0000000000000000000000000000000000000
:1001000000000000000000000100010001000100EB
:1001100001000100010001000100010001000100D7
:1001200001000100010001000100010001000100C7
:1001300001000100010001000100010001000100B7
:1001400001000000010001000100010001000100A8
:100150000100010001000100010001000100000098
:100160000000010001000100010001000100010088
:100170000100010001000100010001000100000078
:10018000010001002C00E20000000000010001005D
:10019000010000000000000000000000000001005D
:1001A000010001000000000000000000000000004D
:1001B00000000000000000000000000001001E0D13
:1001C0001F0D200D210D01000100010001000100A3
:1001D00001000100010001000100010001000E0DFD
:1001E0000100010001000100010001000100010007
:1001F000010001000100000001000B0D0D0D0F0DAD
:1002000001000100010001000100010001000100E6
:1002100001000000000001000100010001000100D8
:1002200001000100110D100D01000100010001008D
:1002300001000000010001000100010000000000B9
:1002400001000100010000000000000000000000AB
:10025000000001000100010000000000000000009B
:10026000000000000000000000000000000000008E
:1002700035003A003B003C003D003F003F0040009D
:10028000410042004300440045004C004900010089
:100290000100010001000100010001000100010056
:1002A0000100010001000100010000000100010047
:1002B00001000100010001005000510052004F00F8
:1002C0000100010001000000000001000100010028
:1002D0000100010001000100010001000100010016
:1002E0000100010001000000010001000100010007
:1002F00000000000010001000100000000000000FB
:1003000000000000000001000100010000000000EA
:1003100000000000000000000000000000000000DD
:1003200000000000010001000100010001000100C7
:1003300001000100010001000100010001000100B5
:1003400001000100F400F000F500010001000100CF
:100350000100010001000100010001000100000096
:100360000100F200F100F3000100010050014D0115
:100370004A014F0101002A010100000000000100B4
:10038000010001000100010001004E000100010018
:100390000100010001000100010000000100010056
:1003A0000100010000000000010001000100000048
:1003B00000000000000000000000005C01000100DF
:1003C000000000000000000000000000000000002D
:1003D000000000000000000044454255473A2065F7
:1003E0006E61626C65642E0A000A00253031366247
:1003F000003A200025303258000A722F6320303135
:1004000032333435363738394142434445460A00A1
:100410007267626C696768742074696D65722064C4
:10042000697361626C652E0A007267626C69676845
:10043000742074696D657220656E61626C65642EEE
:100440000A007267626C696768742073657420685B
:100450007376205B4E4F454550524F4D5D3A2025F7
:10046000752C25752C25750A007267626C696768A2
:10047000742073657420687376205B454550524F35
:100480004D5D3A2025752C25752C25750A0072675F
:10049000626C69676874207261696E626F7720733D
:1004A0006574206873763A2025642C25642C2564B5
:1004B0002C25750A007267626C696768742064692C
:1004C0007361626C65205B454550524F4D5D3A202B
:1004D0007267626C696768745F636F6E6669672EC6
:1004E000656E61626C65203D2025750A0072676249
:1004F0006C6967687420656E61626C65205B454558
:1005000050524F4D5D3A207267626C696768745F44
:10051000636F6E6669672E656E61626C65203D2053
:1005200025750A007267626C6967687420746F676A
:10053000676C65205B454550524F4D5D3A207267B0
:10054000626C696768745F636F6E6669672E656E5B
:1005500061626C65203D2025750A007267626C69D6
:10056000676874206D6F6465205B4E4F454550523F
:100570004F4D5D3A2025750A007267626C696768A5
:1005800074206D6F6465205B454550524F4D5D3A58
:100590002025750A007267626C696768745F696E0E
:1005A0006974207267626C696768745F636F6E66F6
:1005B00069672E6D6F6465203D20302E205772696B
:1005C00074652064656661756C742076616C756510
:1005D0007320746F20454550524F4D2E0A007267AC
:1005E000626C696768745F696E6974206565636FC2
:1005F0006E666967206973206E6F7420656E616234
:100600006C65642E0A007267626C696768745F6962
:100610006E6974207374617274210A007267626C6F
:10062000696768745F696E69742063616C6C656486
:100630002E0A007267626C696768745F636F6E662A
:1006400069672E7370656564203D2025640A007219
:1006500067626C696768745F636F6E6669672E7640
:10066000616C203D2025640A007267626C696768CE
:10067000745F636F6E6669672E736174203D202519
:10068000640A007267626C696768745F636F6E66A4
:1006900069672E687565203D2025640A00726768C9
:1006A0006C696768745F636F6E6669672E6D6F64EF
:1006B00065203D2025640A007267626C6967687472
:1006C0005F636F6E6669672E656E61626C65203D63
:1006D0002025640A007267626C696768745F636FE3
:1006E0006E666967206570726F6D0A0000047F3F57
:1006F0001F643214643214783C1E1E140A0522232F
:10070000252628292A2C2D2F3032333536383A3BEE
:100710003D3E4042434547494A4C4E505153555740
:10072000595A5C5E6062646668696B6D6F7173755F
:1007300077797B7D7F81838587898A8C8E9092945F
:1007400096989A9C9E9FA1A3A5A7A8AAACAEAFB16C
:10075000B3B4B6B8B9BBBCBEBFC1C2C3C5C6C7C9B6
:10076000CACBCCCDCED0D1D2D2D3D4D5D6D7D7D870
:10077000D9D9DADADBDBDBDCDCDCDCDCDDDDDDDDC2
:10078000DCDCDCDCDCDBDBDBDADAD9D9D8D7D7D6CA
:10079000D5D4D3D2D2D1D0CECDCCCBCAC9C7C6C581
:1007A000C3C2C1BFBEBCBBB9B8B6B4B3B1AFAEACC7
:1007B000AAA8A7A5A3A19F9E9C9A98969492908E72
:1007C0008C8A89878583817F7D7B79777573716F4B
:1007D0006D6B6968666462605E5C5A595755535127
:1007E000504E4C4A4947454342403E3D3B3A3836DD
:1007F000353332302F2D2C2A292826252322FFAAF3
:100800007F554000000000000000000000010101D1
:1008100001010101010102020202020202020303BC
:100820000303030303040404040405050505050686
:100830000606060607070707080808080909090A3F
:100840000A0A0B0B0B0C0C0C0D0D0D0E0E0E0F0FE0
:100850001010101111121213131414151516161767
:1008600017181819191A1A1B1C1C1D1D1E1F1F20D2
:10087000212122232324252526272828292A2B2C19
:100880002C2D2E2F30313132333435363738393A3A
:100890003B3C3D3E3F404142434445464748494B2F
:1008A0004C4D4E4F50525354555758595A5C5D5EFB
:1008B000606163646567686A6B6C6E6F7172747691
:1008C00077797A7C7D7F8182848687898B8D8E90F3
:1008D00092949597999B9D9FA1A2A4A6A8AAACAE1D
:1008E000B0B2B4B6B9BBBDBFC1C3C5C8CACCCED007
:1008F000D3D5D7DADCDEE1E3E6E8EAEDEFF2F4F7B0
:10090000F9FCFF0A002530325820006B6579626FD0
:100910006172645F7265706F72743A20000A00251C
:10092000303258006B6579626F6172645F73657411
:100930005F6C65643A2000646F6E652E0A00626F1A
:100940006F746D61676963207363616E3A202E2E48
:100950002E20003F00433E20004C25640A007469AD
:100960006D65725F72656164333228293A202530E3
:10097000346C580A00686F73745F6B6579626F61DD
:1009800072645F6C65647328293A2025580A000A4E
:10099000092D20537461747573202D0A0047434359
:1009A0003A20382E332E30204156522D4C494243A6
:1009B0003A20322E302E30204156525F4152434869
:1009C0003A20617672350A004F5054494F4E533ADF
:1009D000205655534220424F4F544D4147494320E2
:1009E00045585452414B455920434F4E534F4C4567
:1009F00020434F4D4D414E4420343039360A004299
:100A000055494C443A2022302E362E3135332D3183
:100A10003530332D673438306463332D6469727434
:100A20007922202830303A32383A3535204D6179F4
:100A30002032332032303139290A005649443A20D5
:100A40003078323041302854475229205049443AB6
:100A5000203078343232452854475220416C696343
:100A60006529205645523A204445564943455F562C
:100A700045520A00444553433A20444553435249A2
:100A80005054494F4E0A000A092D20566572736969
:100A90006F6E202D0A000A092D20436F6E736F6C54
:100AA00065202D0A4553432F713A09717569740AFF
:100AB000000A092D204D61676963202D0A443A0917
:100AC0004465627567204D65737361676520546F77
:100AD00067676C650A583A094D61747269782044F9
:100AE00065627567204D6F646520546F67676C653C
:100AF000202D2053686F77206B6579707265737352
:100B0000657320696E206D617472697820677269FF
:100B1000640A4B3A094B6579626F617264204465DF
:100B200062756720546F67676C65202D2053686F6E
:100B300077206B65797072657373207265706F7260
:100B4000740A4D3A094465627567204D6F75736587
:100B500020546F67676C650A563A09566572736967
:100B60006F6E0A533A095374617475730A433A09F4
:100B7000416374697661746520436F6E736F6C6551
:100B8000204D6F64650A46312D4631303A0953775E
:100B90006974636820746F204C6179657220302D10
:100BA000392028463130203D204C30290A302D395B
:100BB0003A0953776974636820746F204C617965D2
:100BC0007220302D390A47524156453A0953776908
:100BD00074636820746F204C61796572203020281E
:100BE000616C7465726E617465290A423A094A75CE
:100BF0006D7020746F20426F6F746C6F61646572EA
:100C00000A4553433A094A756D7020746F20426F4C
:100C10006F746C6F616465722028616C7465726EAC
:100C2000617465290A453A095072696E7420454518
:100C300050524F4D2053657474696E67730A425366
:100C4000504143453A09436C656172204545505215
:100C50004F4D0A000A002575002E6E6B726F3A2008
:100C6000000A002575002E737761705F6261636B07
:100C7000736C6173685F6261636B73706163653A23
:100C800020000A002575002E737761705F6772611E
:100C900076655F6573633A20000A002575002E6E45
:100CA0006F5F6775693A20000A002575002E73771B
:100CB00061705F72616C745F726775693A20000AD7
:100CC000002575002E737761705F6C616C745F6CCA
:100CD0006775693A20000A002575002E63617073FC
:100CE0006C6F636B5F746F5F636F6E74726F6C3A7F
:100CF00020000A002575002E737761705F636F6EA8
:100D000074726F6C5F636170736C6F636B3A200019
:100D10000A0025303258006B65796D61705F636F32
:100D20006E6669672E7261773A20000A00257500A9
:100D30002E6D6F7573653A20000A002575002E6BC5
:100D40006579626F6172643A20000A002575002E91
:100D50006D61747269783A20000A002575002E656D
:100D60006E61626C653A20000A00253032580064DA
:100D7000656275675F636F6E6669672E7261773A49
:100D800020000A0025750064656661756C745F6CEF
:100D9000617965723A20003F000A6D6F7573653A9C
:100DA000206F66660A000A6D6F7573653A206F6E74
:100DB0000A000A6B6579626F6172643A206F666639
:100DC0000A000A6B6579626F6172643A206F6E0A7D
:100DD000000A6D61747269783A206F66660A000ACB
:100DE0006D61747269783A206F6E0A000A646562F8
:100DF00075673A206F66660A000A64656275673A2D
:100E0000206F6E0A000A0A4A756D70696E67207459
:100E10006F20626F6F746C6F616465722E2E2E206E
:100E200000433E2000436C656172696E6720454552
:100E300050524F4D0A006565636F6E6669673A0AE6
:100E4000006D61696E206C6F6F700A00696E697465
:100E5000466F72557362436F6E6E6563746976692F
:100E6000747928290A000A00253032580053455465
:100E70005F4C45443A20000A0056454E444F523AD2
:100E800000554E4B4E4F574E3A005345545F4C451C
:100E9000443A20005345545F5245504F52543A2033
:100EA0000025303258005345545F49444C453A20A0
:100EB000004745545F49444C453A20004745545F3C
:100EC0005245504F52543A006B6275663A2066752F
:100ED0006C6C0A00290A0025303258005D28002574
:100EE00075002D3E00257500562D5553423A206B56
:100EF0006275665B0009023B0002010080FA09048A
:100F0000000001030101000921010100012240004C
:100F10000705810308000109040100010300000026
:100F20000921010100012284000705830308000153
:100F300005010902A10185020901A10005091901A4
:100F40002905150025017501950581027503950197
:100F500081030501093009311581257F7508950246
:100F6000810609381581257F3500450075089501F2
:100F70008106050C0A38021581257F7508950181C7
:100F800006C0C005010980A1018503150126B7002F
:100F9000190129B7751095018100C0050C0901A13F
:100FA0000185041501269C0219012A9C02751095E1
:100FB000018100C005010906A10175019508050719
:100FC00019E029E7150025018102950175088103C3
:100FD000950575010508190129059102950175030B
:100FE000910395067508150026FF000507190029CD
:100FF000FF8100C01201100100000008A0202E4255
:1010000000020102000114035400470052002000B6
:1010100041006C006900630065000803540047004C
:1010200052000403090411241FBECFE5D8E0DEBF3F
:10103000CDBF04B603FE24C08091BA029091BB02DA
:10104000A091BC02B091BD028730904BA740B04B3D
:10105000B9F41092BA021092BB021092BC02109224
:10106000BD0214BE84B7877F84BF0FB6F894A895DD
:1010700081B5886181BD11BC0FBEE0E0F8E3099540
:1010800010E0A0E6B0E0EAE0F1E602C005900D92C3
:10109000A23DB107D9F722E0A2EDB0E001C01D9258
:1010A000AA3BB207E1F70E94F12B0C943E300C945E
:1010B0000000FF93EF93E091D200F091D3003097BE
:1010C00009F00995EF91FF910895FC018591803019
:1010D00011F0EFDFFBCF0895FF27E0E230E247FF9A
:1010E0000CC0419597FF09C0EDE260957095809521
:1010F0009095611D711D811D911D27FF02C02195D5
:1011000030E350E2AA27660F771F881F991FAA1F96
:10111000A41710F0A41B63955A95A9F7AA3008F0FC
:10112000A95FA05DAF93F3956115710581059105E8
:1011300041F7ED3211F4EF93F395F21718F43F9362
:10114000F395FBCF8F91B5DFFA95E1F70895E9911B
:10115000F9918591803021F0853219F0AADFF9CF1D
:10116000089520E0E89455915532C1F3503311F4BD
:10117000689455915A3348F4505390F3220F022E3D
:10118000220F220F200D250FF4CF0EF42195899107
:101190009991533619F3533729F1533559F1BC015D
:1011A00088279927E8945C3621F48991999168946D
:1011B0005591543639F446EF7EF077FF0DC08FEF2E
:1011C0009FEF0AC055374AE039F0583540E121F029
:1011D000523642E009F00895FF93EF937DDFEF91DF
:1011E000FF91B7CFFF93EF93FC0181918030B9F36A
:1011F00060DFFBCFFF93EF9368DFF1CFDF93CF93F7
:10120000CDB7DEB72596A3DFCF91DF910895A82F44
:10121000B92F80E090E041E050EA609530E009C0ED
:101220002D9182279795879510F084279527305E1A
:10123000C8F36F5FA8F30895EADF8D939D93089537
:10124000CF93CFB7CF93C395839BE9F7839B0EC012
:10125000839B0CC0839B0AC0839B08C0839B06C0F2
:10126000C0919102C395C0939102A3C0DF93C09136
:101270009002DD27C856DD4F839B02C0DF91E6CF89
:101280002F930F931F9300B32FEF03FB20F94F937E
:101290003F9310B34FEF012703FB21F93BE031C02F
:1012A0004E7F012F10B3216028C0102F4D7F226088
:1012B000000000B329C04B7F2460012F000010B351
:1012C0002BC010B3477F28602AC04F7E00B3206137
:1012D0002CC04F7D10B320622FC04F7B00B3206421
:1012E00032C0422700B349934FEF0000102713FB91
:1012F00020F910B31C70C9F1297F91F2012703FB7B
:1013000021F900B3237F89F2315058F1102713FBE4
:1013100022F910B3277E79F2012703FB23F92F7CF2
:1013200081F200B3102713FB24F92F7971F200C06A
:1013300010B3012703FB25F92F7359F200C000B346
:10134000102713FB26F9223040F200C010B301270A
:1013500003FB27F9243028F64F77206810B30000EC
:10136000F9CF10E81ABF002719C03B503195C31BB5
:10137000D04010E81ABF0881033CF9F00B34E9F0C3
:1013800020918E021981110F1213EDCF4A81441F53
:10139000093641F10D3211F0013E29F70093960212
:1013A0003F914F911F910F912F91DF91CAB7C7FDC8
:1013B0004ACFCF91CFBFCF9118952091960222238B
:1013C00079F3109194021123C1F53430C2F13093B6
:1013D000940220938F02109190023BE0311B3093D6
:1013E00090022DC00091940201303CF50AE54F7047
:1013F00049F43091970034FD24C000939700C7E76B
:10140000D2E023C0433049F03091820234FD19C04C
:1014100000938202C3E8D2E018C03091AE0234FDDE
:1014200010C00093AE02CFEAD2E00FC02795A8F417
:101430005150A9F4220F0000F9CF4AE503C042ED54
:1014400001C0432FC4E1D0E032E011B31C60939A95
:1014500011BB02B320E41CE05F93012756E002BBFE
:10146000279520F4515021F4220FF9CF012756E09F
:1014700000003B5A02BBD0F2279528F4515029F4C2
:10148000220F0000F9CF012756E0279502BB20F478
:10149000515021F4220FF9CF012756E0299133232F
:1014A00002BB21F6037F10919502110FC651D04067
:1014B00002BB11F010938E0210E81ABF086011B33E
:1014C000137F402F437F5F9100C000C002BB11BB60
:1014D00042BB66CF11B887E080B985B3836085BB16
:1014E00086B7846086BF86B7816086BF86B7806412
:1014F00086BF0895EF92FF920F931F93CF93DF93D0
:10150000182FEB0116BE84EA86BF0E947F277C015C
:1015100006B607FE21C081B1887F883021F081B1F5
:10152000887F8031B9F513B984E886BF0E947F2790
:101530008C0106B607FE23C021B1287F90E080E031
:101540002831B1F081E090E0203411F490E080E0A7
:101550009195819591090CC0CF3FDC07C9F20E949B
:101560007F278E199F098C179D0790F28EEF9FEFB2
:10157000DF91CF911F910F91FF90EF900895CF3F92
:10158000DC07B9F20E947F27801B910B8C179D0707
:1015900080F2ECCF8FEF9FEFEBCF0F931F93CF93A2
:1015A000DF93EB0183B984E886BF0E947F278C011B
:1015B00006B607FE10C021B1287F81E090E02832F6
:1015C00011F490E080E0919581959109DF91CF91A0
:1015D0001F910F910895CF3FDC0751F30E947F27A1
:1015E000801B910B8C179D0718F38EEF9FEFEECFAA
:1015F000CF92DF92EF92FF920F931F93CF93DF93DF
:101600006B018A017901B9010E947A0AE6010C0D89
:101610001D1DC017D10759F424E926BFDF91CF91D2
:101620001F910F91FF90EF90DF90CF90089597FD5D
:10163000F3CFB70189910E94CD0AEBCF0E946A0ACD
:101640000C94BF108091360280FD07C0EBE3F2E0FE
:1016500086E3DF011D928A95E9F724E630E046E350
:1016600050E06BE372E080EB0C94F80A8091D400B8
:10167000811110C08091360280FF0CC024E630E05A
:1016800046E350E06BE372E080EB0E94F80A81E0F1
:101690008093D4000E9474180C94C01080FF08C07E
:1016A000909A81FF07C0919A82FF06C0929A08958E
:1016B0009098F7CF9198F8CF929808950F931F9331
:1016C000CF93DF938C01EB019A9581159F4138F5FB
:1016D00010FF03C080EEFB01099511FF03C081EEEE
:1016E000FE01099512FF03C082EEFE01099513FF6A
:1016F00003C083EEFE0109950115104180F084EED0
:10170000FE01099585EEFE01099586EEFE0109951B
:1017100087EEFE01DF91CF911F910F910994DF9128
:10172000CF911F910F910895877091E001C0990F9B
:101730008A95EAF7892F0E94ED250C9426260C94B1
:10174000940B877091E001C0990F8A95EAF7892F71
:101750000E94F3250C9426260C94A10BCF93DF93C3
:10176000EC01805E9109089720F064E97BE0209706
:1017700011F46FE97BE0CE010E945E0B8C2FDF91AC
:10178000CF910C94F01CCF93DF93EC010E94911D3C
:10179000CE01805E9109089720F061EA7BE02097F6
:1017A00011F46CEA7BE0CE01DF91CF910C945E0BDB
:1017B00081E0089581E008950C94DA0B1F93CF9394
:1017C000DF9300D000D00F92CDB7DEB749835A83A4
:1017D0006B832091160189819A8121111BC0662398
:1017E000A9F00E944225182F682F89819A810E94B2
:1017F000EE2469817A81812F0F900F900F900F90C6
:101800000F90DF91CF911F910C944C0E0E941A25DE
:10181000182FEFCF0E94422569817A81EDCFFC011C
:10182000408151816281738184810C94DE0B0E941E
:10183000AE26811102C00E9432270C941E0B0E941A
:101840003F1A0C94360B0C944E0B0C94230C0895F9
:101850000E942E200E94270C2FEB87E299E0215056
:1018600080409040E1F700C000000C94E5270F9302
:101870001F93CF93DF938C010E940F0CEC01B801F2
:101880000E949F19B801CE010E94DC0B882309F445
:10189000DFC0B801CE010E94E519882309F4D8C041
:1018A000B801CE010E94FB1A882309F4D1C0C93CBB
:1018B0008CE5D80709F404C108F061C0C23CECE52E
:1018C000DE0709F4D9C088F5C5318CE5D807A8F43E
:1018D000C2309CE5D90708F05DC1C115ECE5DE0713
:1018E00009F4B1C0C130DC4509F4B8C0C801DF91CA
:1018F000CF911F910F910C94D80BC631DC45B1F7F5
:101900000E94D725F8019281992309F4B7C18A7AF8
:1019100091E009F490E09093D5008111ADC189E286
:101920000E94B2250E94262693C0C53C9CE5D9079B
:1019300009F4B5C0A8F4C33CFCE5DF0709F4A3C073
:10194000C43CDC4599F6F8018281882309F480C003
:101950000E94D725827209F49FC00E949B1778C00D
:10196000F8018281C73CFCE5DF0709F4A4C008F454
:101970009DC0882309F46CC00E94AB1669C0C03DAD
:10198000ECE5DE0709F4C8C070F5CC3C8CE5D8075F
:1019900009F4A5C088F4CA3CECE5DE0709F497C059
:1019A000CB3CDC4509F0A2CFF8018281882309F401
:1019B0004FC00E941F154CC0F8018281CE3CFCE54F
:1019C000DF0709F49BC008F492C0882309F440C0E3
:1019D0000E941715863028F00E941715883008F4E9
:1019E000BCCF86E088C0C33DECE5DE0709F4B4C097
:1019F000C0F4C13D8CE5D80709F49EC0C23DDC456A
:101A000009F074CFF8018281882311F10E94171523
:101A1000853128F00E941715873108F49ECF85E1A3
:101A20006AC0C53DECE5DE0709F4ADC008F49BC013
:101A3000CE3DDC4509F05ACFF8018281882341F080
:101A40000E94322705C0F801828181110E94280C72
:101A500080E0DF91CF911F910F910895F80182816D
:101A60008823B1F38091A00181608093A00188ED6B
:101A700093E00E946508ECCFF8018281882341F34E
:101A80000E945D18E5CFF8018281882309F30E9446
:101A9000D725827209F461CF0E94A817D9CFF80127
:101AA00082818823A9F20E948016D2CF882381F2F6
:101AB0000E948D16CDCF882359F20E949C16C8CF64
:101AC000F8018281882321F20E94BA16C1CFF80161
:101AD0008281882309F4BCCF0E94C916B9CFF801CE
:101AE0008281882309F4B4CF0E943015B1CF8823B6
:101AF00009F4AECF81E00E94AB17AACF882309F486
:101B0000A7CF0E941715823028F00E941715853044
:101B100008F423CF82E0EFCFF8018281882309F413
:101B200097CF0E941715893028F00E9417158E3024
:101B300008F413CF89E0DFCFF8018281882309F40C
:101B400087CF0E9417158F3028F00E941715843117
:101B500008F403CF8FE0CFCFF8018281882309F406
:101B600077CF88E1C8CFF8018281882309F470CF4C
:101B70000E941715893128F00E941715823208F447
:101B8000ECCE89E1B8CFF8018281882309F460CFD7
:101B900083E2B1CFF8018281882309F4A7CE0E94A5
:101BA000AE26811102C00E9432270E94CB2690E00F
:101BB0009093760280937502FE01E350FC4580917C
:101BC00075028160E231F10538F4E05CFF4C0C9461
:101BD000D72F809175028260809375028091750283
:101BE0000E94CF260E942E2033CF80917502846000
:101BF000F3CF809175028860EFCF8091750280618C
:101C0000EBCF809175028062E7CF8091750280648E
:101C1000E3CF809175028068DFCF809175028C6080
:101C2000DBCF809175028E7FD7CF809175028D7F3B
:101C3000D3CF809175028B7FCFCF80917502877F44
:101C4000CBCF809175028F7EC7CF809175028F7D3B
:101C5000C3CF809175028F7BBFCF809175028F7744
:101C6000BBCF80917502837FB7CF90917502892F8A
:101C700097FB87F98058B0CF85E352CE8091D5008D
:101C8000811104C089E20E94B9254CCE85E3FBCFC7
:101C900090E080E008950895972F70E02FE0929FE4
:101CA000600D711D1124FB019AE5899FE00DF11D66
:101CB0001124EE0FFF1FEC5AFF4F85919491089568
:101CC000FC01EE0FFF1FE751FC4F859194910895A1
:101CD000CF93DF930E944C0E0E942110EC018115DE
:101CE00020E5920708F042C0811530E4930708F020
:101CF00014C1883E910528F5803E910508F0A0C0EA
:101D0000883A910588F4853A910508F08FC08130B2
:101D1000910509F495C0009709F492C0049708F062
:101D20008FC0D0E0C0E08CC08F3B910508F48CC020
:101D3000805C9109C03CD105A0F30E94600EEC01CB
:101D40007FC08115904250F4C11581E0D80708F09A
:101D500077C0C03FD10528F3D06572C0C11590E3AC
:101D6000D90708F0D0C0CE019F70E7CF811525E5D7
:101D7000920758F5811534E5930708F0FDC08115E9
:101D800042E5940750F4C11581E5D80708F4C8C0AE
:101D9000DC2FCC27C16FD06A53C0982F96959695AB
:101DA0009E0123703327C115D34508F0D6C0C1E08A
:101DB000D0E002C0CC0FDD1F2A95E2F720E2929F0F
:101DC000C0011124C82BD92BC6C0C11589E5D8077D
:101DD000A8F4C11598E5D90708F0D3C0C11526E5C8
:101DE000D20708F09ECF8C2F0E949C10C82FD0E005
:101DF000DC2FCC27CC27DF71D06222C0C1153AE599
:101E0000D30708F4C3C0CE0190568115904208F064
:101E100088CF8D2F8F710E949C1090E0982F88277B
:101E200088279F719C012C2BE901E6CF853A91050B
:101E300009F4BCC0863A910509F0BBC0C2E8D0E401
:101E4000CE01DF91CF910895883A910509F4B4C08D
:101E5000893A910509F4B3C08A3A910509F4B2C0F0
:101E60008B3A910509F4B1C08C3A910509F4B0C0E0
:101E70008B3B910509F4AFC08C3B910509F4AEC0D2
:101E80008D3A910509F4ADC0803B910509F4ACC0D1
:101E90008E3A910509F4ABC08F3A910509F4AAC0B6
:101EA000813B910509F4A9C0823B910509F4A8C0C2
:101EB000833B910509F4A7C0843B910509F4A6C0B2
:101EC000853B910509F4A5C0863B910509F4A4C0A2
:101ED000873B910509F4A3C0883B910509F4A2C092
:101EE000893B910509F4A1C08D3B910509F4A0C07F
:101EF0008E3B910509F49FC08A3B910509F49EC071
:101F0000C0E0D4E49DCFCE019927D3FF03C0EC01FC
:101F1000D86C96CFEC01D06C93CFDF70D06A90CFA5
:101F2000CE01E4E096958795EA95E1F783702C2F32
:101F300026952695237090E2299F90011124382B35
:101F40008C2F8370C1E0D0E002C0CC0FDD1F8A95DA
:101F5000E2F7C22BD32BDC6873CFC1E0D0E002C024
:101F6000CC0FDD1F2A95E2F730E2939FC0011124C8
:101F7000C82BD92BDA6864CFD82FCC27C46FD06A8E
:101F80005FCFDC2FCC27C06FD06A5ACF8C2F8F70D9
:101F90000E949C1034E0D695C7953A95E1F79C2FA6
:101FA0009F70C82FCF70C06ED92FB8CFC1E8D0E4D2
:101FB00047CFC3E8D0E444CFC2EED4E441CFC9EE6A
:101FC000D4E43ECFCAEED4E43BCFC5EBD4E438CF63
:101FD000C6EBD4E435CFC3EBD4E432CFC4EBD4E4C6
:101FE0002FCFC7EBD4E42CCFCCECD4E429CFCDEC6D
:101FF000D4E426CFC3E8D5E423CFCAE8D5E420CF84
:10200000C2E9D5E41DCFC4E9D5E41ACFC1E2D6E4D4
:1020100017CFC3E2D6E414CFC4E2D6E411CFC5E2B1
:10202000D6E40ECFC6E2D6E40BCFC7E2D6E408CFA3
:10203000CFE6D4E405CFC0E7D4E402CFCAE2D6E4C9
:10204000FFCE8238910549F1B0F48133910509F44E
:1020500062C048F48932910509F456C08A3291056C
:1020600009F460C008958533910509F446C08933A9
:10207000910599F00895833E910531F138F4803E41
:10208000910591F0823E9105B1F00895863E91054B
:1020900021F1873E910551F1089520917502237039
:1020A000D9F080EE90E008952091750220FF14C0D1
:1020B00089E390E008952091750222FF0DC024FD70
:1020C00009C083EE90E008952091750222FD31C091
:1020D00024FF02C090E080E008952091750223FF64
:1020E000FBCF24FDF7CF87EE90E008952091750295
:1020F00023FFEECF86EE90E008952091750225FF34
:10210000EBCF89E290E008952091750225FFE4CF9E
:1021100085E390E008952091750226FFDDCF8AE2E5
:1021200090E008952091750226FFD6CF81E390E0DC
:10213000089582EE90E008959091750292FF06C096
:10214000282F2871283069F4877F846093FF06C0A8
:10215000282F2871283161F4877E846194FD877E61
:102160000895282F2471243089F78B7F8860EECF63
:10217000282F2471243191F78B7E8861EFCF089549
:102180000895E82FF0E0EE0FFF1FEA52FF4F808125
:1021900091810895CF92DF92EF92FF920F931F9358
:1021A000CF93DF9389EF93E00E94650886EDE82ED8
:1021B00080E0F82ED0E0C0E094EFC92E93E0D92E55
:1021C0000BEE13E0DF93CF93DF92CF920E94FE08D5
:1021D00081EF93E00E946508F701819191917F0161
:1021E0000E94A1269F938F931F930F930E94FE0836
:1021F00089EE93E00E94650821968DB79EB70896F8
:102200000FB6F8949EBF0FBE8DBFC630D105D1F674
:10221000DF91CF911F910F91FF90EF90DF90CF90C2
:102220000895A7EAB0E041E050E09D91E92FE295E2
:10223000EF70F0E021A99F70BA0102C0660F771F0E
:102240009A95E2F7CB018095822381AB70E0AD3A9D
:10225000B70759F7A8E9B0E061E070E08D91E82F89
:10226000E295EF70F0E041A98F709B0101C0220F51
:102270008A95EAF7922F9095942391AB82A9822BAD
:1022800082AB80E0A73AB80749F7E2EEF0E0A6EDAE
:10229000B0E08EEE90E0119211921D921D928E1779
:1022A0009F07C9F786E00E94F0110C94170C4F921B
:1022B0005F927F928F929F92AF92BF92CF92DF9266
:1022C000EF92FF920F931F93CF93DF9392EE492EDD
:1022D00090E0592E27EAE22E20E0F22E20E0CC24D6
:1022E000C394D12CE201899099902E01DE011E92B7
:1022F0001E92F70181917F01E82FE295EF70F0E0E7
:1023000091A98F70B60101C0660F8A95EAF7892FEF
:10231000862B81AB82A9362F3095832382AB88E749
:102320008A95F1F788E9A82E80E0B82E50E040E0C9
:10233000E50179905E01872D82958F7090E0EC0128
:1023400088A90D911C91119790E0D72DDF7002C0E4
:1023500095958795DA95E2F780FD3FC0C601042E7A
:1023600002C0880F991F0A94E2F7082B192B1196C7
:102370001C930E934F5F5F4F4F305105C9F681A9F3
:10238000382331AB82A9682B62AB81E04D915C911F
:102390004815590509F480E0282BEEEE4E16E0E0D2
:1023A0005E0609F09FCF46E066ED70E082EE90E0B9
:1023B0000E94F1110E941F0C81E0DF91CF911F91CB
:1023C0000F91FF90EF90DF90CF90BF90AF909F90D4
:1023D0008F907F905F904F90089590E080E0C5CF00
:1023E0000895FF920F931F93CF93DF93F82E092F39
:1023F000162FD72FC42F222349F081E08093F000BD
:102400000E947F279093EF008093EE008091F00070
:102410008823A1F08091EE009091EF000E94972711
:10242000069760F0EF2DF02FA12FBD2F90E080E0F8
:10243000D0E08C179D0744F01092F000DF91CF910F
:102440001F910F91FF900895219131912D933D930C
:102450000196EFCFCF92DF92EF92FF920F931F93EF
:10246000CF93DF939B01E82FF82F682F782F33232A
:1024700009F46FC0E32EF12C082F10E046E0249FF2
:10248000C0011124CFEFD0E0BE010E94AF2FAB01FD
:10249000822F90E0880F991F25E5249FB001259F8A
:1024A000700D1124861B970B982F990F980FBE0162
:1024B0006E197F09609FD001619FB00D709FB00DB4
:1024C00011248B2F939F90011124232F3327BE01BA
:1024D000621B730B609F9001619F300D709F300DE8
:1024E00011246E01C91AD108CE9CB001CF9C700D89
:1024F000DE9C700D1124672F7727C61BD70BC09F5A
:102500007001C19FF00CD09FF00C11247F2D423040
:10251000510541F148F44115510569F0413051052B
:1025200029F17B2F832F07C04430510511F128F189
:1025300046305105B1F7F0E0ED5FF74F6491E72FBA
:10254000F0E0ED5FF74F7491E82FF0E0ED5FF74FAB
:102550008491DF91CF911F910F91FF90EF90DF90C9
:10256000CF900895EB2F8F2D7F2FE5CF7E2FE32F78
:10257000E2CFEF2D7B2F8F2FDECF732FEB2FFBCFF3
:102580000895CF93DF93762FE901682F842F0E945F
:102590002A12362F272F398328838A83DF91CF9100
:1025A00008950F931F93CF93DF93EC0110E000E0A9
:1025B00090917C009017110609F06CF40E94220B98
:1025C0008C8190E00196817099278C83DF91CF9167
:1025D0001F910F9108952091F400A801420F511D01
:1025E0009A01220F331F240F351F255C3D4F4C816C
:1025F000609138028091370296959017110651F03C
:102600004CF0442349F0409139020E94C1120F5FFF
:102610001F4FCECF4423B9F340E0F7CF0F931F9362
:10262000CF93DF938C01FC018481958101968170A9
:10263000992795838483C0E0D5E580917C00C817F5
:1026400030F0DF91CF911F910F910C94220B2091CC
:10265000F400422F4C0F5527551FCA019A01220F33
:10266000331F280F391F255C3D4F8C2F8695F801AD
:1026700044815581840F952F911D817040913902BD
:10268000609138028D9F802D11240E94C112CF5F6E
:10269000D4CF0F931F93CF93DF938091F400909149
:1026A0007D0023E0829FF0011124E55CFD4F891736
:1026B00040F1C0E0D3E060917C00C61740F10E9479
:1026C000220B20917A008091F200820F8093F20019
:1026D00090917B00920F90937B00191654F4082E72
:1026E000000C990B40917C004150550B84179507C5
:1026F0001CF0219520937A00DF91CF911F910F91CB
:1027000008951182108212828F5F3396D0CF0C2FE2
:1027100010E070E0C8010E94C32F2091F400820FE6
:10272000482F50E02091F200022E000C330B0217CC
:102730001307BCF020917B00022E000C330B2017F6
:1027400031077CF08D9F90011124255C3D4F409115
:10275000390260913802809137020E94C112CF5F26
:10276000AACFFA01EE0FFF1FE40FF51FE55CFD4F46
:10277000118210821282F3CFBF92CF92DF92EF923A
:10278000FF920F931F93CF93DF93FC0182810FEF92
:1027900080FF01E010E080917C001817C0F00E94DB
:1027A000220B8091F300013009F04DC0811102C06D
:1027B00080917C0081508093F300DF91CF911F9135
:1027C0000F91FF90EF90DF90CF90BF900895C09150
:1027D000F400C12ED12CCC0DDD2DD11DCE01880FE2
:1027E000991FC80FD91FC55CDD4F198218821A8244
:1027F00034E0E32EF12CB12C8091F3008B0D87FF98
:1028000003C090917C00890F082E000C990BC8160C
:10281000D90691F4809139028E9DA0018F9D500DB3
:10282000112455954795559547959E01609138021D
:10283000809137020E94C112B00EF1E0EF1AF10848
:10284000D9F61F5FA8CF90E0019660917C0070E000
:102850000E94C32FB0CFEF92FF921F93CF93DF93CD
:10286000EC0110E0EE24EA94F12C60917C00161744
:1028700070F00E94220B9A818C8190FF27C08F5F9D
:102880008C83DF91CF911F91FF90EF90089520915D
:10289000F400422F410F5527551FCA019A01220FFC
:1028A000331F280F391F255C3D4F70E0C7010E9480
:1028B000C32F962F8C814091390260913802199F65
:1028C000800D11240E94C1121F5FCFCF8150D8CF3D
:1028D00080913602982F9E7F29F4817082608093C8
:1028E000360208958A34E8F381708864F8CF88E06E
:1028F00090E00C94F22FCF92DF92EF92FF926B0157
:102900007C010E946814B701A60188E090E0FF9066
:10291000EF90DF90CF900C940F30E6E3F2E083E08D
:10292000808311828FEF828383831482608171811F
:10293000828193810C947B148091A00180FF76C0EA
:1029400085ED96E09F938F930E94FE088091A001F1
:102950000F900F9080FF6AC08091360281701F92A5
:102960008F9388EB96E09F938F930E94FE0880914F
:10297000A0010F900F900F900F9080FF57C0809193
:10298000360286951F928F938DE996E09F938F93E1
:102990000E94FE088091A0010F900F900F900F9061
:1029A00080FF44C0809137021F928F9383E896E0A6
:1029B0009F938F930E94FE088091A0010F900F902B
:1029C0000F900F9080FF32C0809138021F928F933A
:1029D00089E696E09F938F930E94FE088091A00164
:1029E0000F900F900F900F9080FF20C080913902C0
:1029F0001F928F938FE496E09F938F930E94FE081F
:102A00008091A0010F900F900F900F9080FF0EC04B
:102A100080913A021F928F9383E396E09F938F9366
:102A20000E94FE080F900F900F900F9008958091D4
:102A3000360280FF02C08695089580E00895809157
:102A40003A02833018F48F5F80933A026091360225
:102A50007091370280913802909139020C947B1466
:102A600080913A02882319F0815080933A02609154
:102A700036027091370280913802909139020C949D
:102A80007B149091360290FF14C09091F400209135
:102A90007D0033E0939FF0011124E55CFD4F921718
:102AA00010F00C94220B8183608342839F5F3396E6
:102AB000F6CF0895CF93DF9300D00F92CDB7DEB756
:102AC0009091360290FF0AC09E012F5F3F4F0E94F7
:102AD000C1124B8169818A810E9441150F900F902C
:102AE0000F90DF91CF910895CF93DF93EC01EC81AC
:102AF000F0E0E250F94F4491E6E3F2E06281818137
:102B00000E945A158C818F5F8C83DF91CF9108953D
:102B1000CF93DF93EC01E6E3F2E0438162818C81A5
:102B20000E945A158C818F5F8C83DF91CF9108951D
:102B30004F925F926F927F928F929F92AF92BF92CD
:102B4000CF92DF92EF92FF920F931F93CF93DF9379
:102B500000D00F92CDB7DEB7182FD62E042F722ECD
:102B60009091360290FF42C0E92FE695AE2FB0E07B
:102B7000A355BF4F8C918093FC009E7F923009F04B
:102B800049C09E012F5F3F4F812F0E94C1124B8190
:102B900069818A810E94411510933702D0923802D0
:102BA00000933902772009F498C060913602709141
:102BB000370280913802909139020E947B148091F3
:102BC00039021F928F93809138021F928F938091C8
:102BD00037021F928F9389E694E09F938F930E9410
:102BE000FE080FB6F894DEBF0FBECDBF0F900F905A
:102BF0000F90DF91CF911F910F91FF90EF90DF9099
:102C0000CF90BF90AF909F908F907F906F905F908C
:102C10004F900895823019F400913902BDCF86306B
:102C200019F410913702B8CF8930D9F3893109F0FE
:102C3000B3CFE9518E2F8170682E8E2F80958170D1
:102C4000C82EE695F0E0E250F84FE590F490412C64
:102C5000FF249EE8A92E94E0B92E60917C004616D0
:102C600018F00E94220B98CF842C912C8E9CC001CE
:102C70008F9C900D9E9C900D112470E00E94AF2FB0
:102C8000512E611028C0560E8091A00180FF11C006
:102C9000FF92EF921F92CF921F925F921F924F92DC
:102CA000BF92AF920E94FE080FB6F894DEBF0FBE2F
:102CB000CDBF2091F400820E911C9401220F331F8E
:102CC000280D391D255C3D4F402F6D2D852D0E940F
:102CD000C1124394C2CF561AD7CF1F920F931F929F
:102CE000DF921F921F9382E494E077CFE6E3F2E055
:102CF0009181282F4381628188E0890F0C94981577
:102D000081E00C947616E6E3F2E09181282F43816E
:102D1000628188EF890F0C94981581E00C948316DA
:102D2000E6E3F2E0628121E1620F08F46FEF282F01
:102D3000438181810C94981581E00C949016E6E310
:102D4000F2E0628121E1621B08F460E0282F4381F8
:102D500081810C94981581E00C949F16E6E3F2E0D3
:102D6000438121E1420F08F44FEF282F62818181D6
:102D70000C94981581E00C94AE16E6E3F2E04381E2
:102D800021E1421B08F440E0282F628181810C94EC
:102D9000981581E00C94BD1620E00C9498150F93C3
:102DA0001F93CF93DF9300D00F92CDB7DEB78C0186
:102DB0008091F10081110AC09E012F5F3F4F4FEFBC
:102DC0006FEF0E94C1128A818093F100F801648143
:102DD000613069F08091F10040E0662361F040E0ED
:102DE000623011F44091F10080E060E004C0609135
:102DF000F10040E080E00E944115F801848190E0FC
:102E0000019663E070E00E94C32F84830F900F90BF
:102E10000F90DF91CF911F910F910895609136022D
:102E2000669570E04BE050E08EE790E00E94DD2F69
:102E3000892B19F481E08093FD000E947F279093F5
:102E4000F6008093F5008091A00180FF08C089E220
:102E500094E09F938F930E94FE080F900F90089527
:102E60001092FD008091A00180FF08C080E194E0F5
:102E70009F938F930E94FE080F900F90089590915A
:102E8000360290FF4CC09170811137C092609093D0
:102E900036026623C9F16091360270913702809143
:102EA0003802909139020E947B14809136028695F7
:102EB0001F928F9389E795E09F938F930E94FE085E
:102EC0000F900F900F900F9060913602669570E012
:102ED0004BE050E08EE790E00E94DD2F892BE1F07F
:102EE0000E94301781E08093F80040913902609190
:102EF0003802809137020C94CC16853210F0986419
:102F0000C6CF880F982BC3CF8091360286951F922B
:102F10008F938BE595E0D0CF0E940E17E3CF0895F5
:102F2000682F90913602969581E0890F853208F0DE
:102F300081E00C943F1781E00C949017682F9091DA
:102F4000360296958FEF890F09F484E20C943F17AF
:102F500081E00C949E1761E00C943F17CF93DF93B0
:102F6000C6E3D2E08881816088831F9281E08F93DD
:102F70008DEE94E09F938F930E94FE080F900F9028
:102F80000F900F9088818695DF91CF910C94AB17AD
:102F900060E00C943F178091FB00811163C0809129
:102FA000A00181608093A00180FF14C08CE196E0B5
:102FB0009F938F930E94FE088091A0010F900F9025
:102FC00080FF08C086E096E09F938F930E94FE08E2
:102FD0000F900F900E94AE26811110C08091A00129
:102FE00080FF08C08EED95E09F938F930E94FE08AE
:102FF0000F900F900E9432270E948D140E94771428
:1030000060933602709337028093380290933902AE
:103010006E7FC1F48091A00180FF08C085E995E032
:103020009F938F930E94FE080F900F900E948D1423
:103030000E947714609336027093370280933802AF
:10304000909339020E9468140E949C141092FD0013
:103050008091360280FF03C086950E94C81781E0E8
:103060008093FB000895CF93DF93C6E3D2E088817D
:103070008E7F8883688179818A819B810E947B14FD
:10308000888181701F928F9385EB94E09F938F933B
:103090000E94FE080E9430172FEB84ED91E0215032
:1030A00080409040E1F700C000000F900F900F901B
:1030B0000F90DF91CF910C94220B80913602809576
:1030C00081701F928F9384E295E09F938F930E946B
:1030D000FE08809136020F900F900F900F9080FDA8
:1030E0000C9433180C94AE170F931F93CF93DF9368
:1030F0008091FD00882309F48DC08091FC00E0914F
:103100003602E695E81BE093F7008230C9F5F0E05F
:10311000E650F94FE491CE2FD0E004E715E180911D
:10312000F800882389F01092F8000E947F279E0102
:1031300020953095820F931F9093F6008093F500B1
:103140001092FA001092F9008091F5009091F6002B
:103150000E9497278C179D0708F45CC0E091F5004A
:10316000F091F600CE0FDF1FD093F600C093F5006C
:1031700085EF90E0F801DF91CF911F910F910994B5
:10318000863049F4F0E0E950F94FE491CE2FD0E0D9
:1031900008E815E1C4CF893051F4E695F0E0EC5031
:1031A000F94FE491CE2FD0E00BE214E1B8CF8F308D
:1031B00051F4E695F0E0EF50F94FE491CE2FD0E0D6
:1031C0000CEB13E1ACCF853149F4F0E0E251F94F5B
:1031D000E491CE2FD0E009E413E1A1CFC8EED3E013
:1031E0000EE013E1883109F49ACF833239F4ECEE22
:1031F000F6E0C591D4910FEC16E191CFC4EFD1E088
:1032000001ED12E1843209F48ACFC0EDD7E000EC81
:1032100012E185CFDF91CF911F910F910895CF9348
:10322000DF93EC0181E0898B8F810E94DA2588850C
:103230000E94ED250E942626EA81FB81309739F015
:103240006C897D89CE010696DF91CF910994DF913B
:10325000CF910895CF93DF93EC018881823039F4C8
:10326000FB01828193810E94AE0B81E08B87DF910D
:10327000CF910895FC018081813029F4FB01808188
:1032800091810C94AE0B823021F4FB0182819381F9
:10329000F8CF0895FC018081813029F4FB01808101
:1032A00091810C94C30B823021F4FB0182819381C4
:1032B000F8CF0895EF92FF920F931F93CF93DF9370
:1032C000EC018A85811134C0EB80FC8087E5F81A17
:1032D00026E12E9DC0012F9D900D1124DC01A05AE6
:1032E000BF4F1496ED91FC911597309731F054969D
:1032F0006D917C918A599F4F099586E18E9D800141
:103300008F9D100D1124005A1F4FF80187810E94D4
:10331000E025F80180850E94F3250E942626188268
:1033200019861B861E821D821092FF001092FE00DD
:10333000DF91CF911F910F91FF90EF900895DF9251
:10334000EF92FF920F931F93CF93DF937C01FB01CA
:103350008281882391F0809189008F3F71F0C0E6CF
:10336000D0E010E000E0DD24D39480918900082EA5
:10337000000C990B8017910744F4DF91CF911F91B6
:103380000F91FF90EF90DF9008958E818823C9F010
:1033900089859A858E159F0539F48091FE0090915C
:1033A000FF008E159F0569F0DF86FC86EB86898914
:1033B000811103C0CE010E940F19CE0106960E9412
:1033C0005A190F5F1F4F6696D0CFEF92FF920F935F
:1033D0001F93CF93DF937C0197558F3F910509F0A1
:1033E000D8F520918900022E000C330B28173907DD
:1033F00014F480938900FB01228136E1389F80011B
:10340000399F100D1124E801C05ADF4F288B92819B
:103410008E81992349F1FA86E9868F5F8E830E9417
:103420007F279E878D870E940D268F830E94D72538
:1034300088870E94EA259885892B8887E881F98109
:10344000309731F06C897D89C8018A599F4F099561
:10345000F092FF00E092FE0081E0DF91CF911F919A
:103460000F91FF90EF9008958823B1F38989882305
:1034700099F3C8018A599F4F0E945A19EDCFEF92D4
:10348000FF920F931F93CF93DF938091890010E0F9
:1034900006E18F3FC1F5DF91CF911F910F91FF9012
:1034A000EF900895029FF001039FF00D1124E05A60
:1034B000FF4FE288F388E114F10419F488ECE82E58
:1034C000F12C029FE001039FD00D1124C05ADF4F61
:1034D0008E818823B9F08D859E850E949727E816F6
:1034E000F90680F4109F700111248989811105C0AB
:1034F000C701805A9F4F0E940F19C7018A599F4FD9
:103500000E945A191F5F212F30E080918900082EF8
:10351000000C990B821793072CF6BDCF0F931F93C6
:10352000CF93DF93C62FD42F022FFC0182818823F3
:10353000C9F0609302010E947F279093010180935C
:10354000000180E28C0F883008F050C0C77081E025
:1035500001C0880FCA95EAF7DF91CF911F910F91B3
:103560000C94CC1D10910201161335C080910001FE
:10357000909101010E949727883C910560F5C0E277
:10358000CD0F1D17B9F080E2810F883040F417701D
:1035900081E001C0880F1A95EAF70E94D31DC83058
:1035A00048F481E09D2F977001C0880F9A95EAF743
:1035B0000E94CC1D802F0E94B91DC830B8F4D7706E
:1035C00081E001C0880FDA95EAF7DF91CF911F9172
:1035D0000F910C94D31D80E28C0F883038F4C770A3
:1035E00081E001C0880FCA95EAF7EFCFDF91CF9154
:1035F0001F910F9108959C01CB01203F4CE53407AA
:1036000031F190F4283DFCE53F07E9F0293D4CE518
:10361000340769F1273D3C4579F426E241EE61EE3D
:103620000E948E1A80E00895223FFCE53F07B9F022
:1036300090F0233F3C45B9F0FC0182818823D1F012
:1036400010920201089527E245EE65EEE9CF26E2E9
:1036500041EE60EEE5CF27E245EE64EEE1CF26E2F3
:1036600041EE62EEDDCF27E245EE66EED9CF28E2ED
:1036700041E0EBCF81E0089590930801809307012A
:103680000895E0910701F0910801309721F0019031
:10369000F081E02D099480E00895EF92FF920F935E
:1036A0001F93CF93DF938C01E0910701F091080104
:1036B0003097C1F10280F381E02D09958091A0013E
:1036C00082FF30C080FF04C08BE099E00E94650853
:1036D000D0E0C0E085E0E82E89E0F82E8091A001DE
:1036E00080FF0EC0F801EC0FFD1F80811F928F93A9
:1036F000FF92EF920E94FE080F900F900F900F9094
:103700002196C830D10551F78091A00180FF0AC0F1
:1037100083E099E0DF91CF911F910F91FF90EF909F
:103720000C946508DF91CF911F910F91FF90EF905E
:10373000089520910501309106012817390771F08D
:103740009093060180930501E0910701F091080133
:10375000309721F00680F781E02D0994089520919B
:103760000301309104012817390771F09093040187
:1037700080930301E0910701F0910801309721F057
:103780000084F185E02D09940895089508950C941E
:10379000C51B08950C94C91B0E94C61B0C94C71B23
:1037A00081E008950E9478270E9411110E94492803
:1037B0000E94CB170C94CA1BCF93C82F8091A001F5
:1037C00082FF1EC080FF1CC084E299E00E94650851
:1037D0008091A00180FF14C01F92CF938FE199E0E8
:1037E0009F938F930E94FE088091A0010F900F90ED
:1037F0000F900F9080FF04C08DE199E00E94650852
:103800008C2FCF910C94250C5F926F927F928F92A8
:103810009F92AF92BF92CF92DF92EF92FF920F935F
:103820001F93CF93DF93CDB7DEB72A970FB6F894E7
:10383000DEBF0FBECDBF0E9457110E94D01B882350
:1038400009F478C09AE0A92E91E0B92E10E000E0CA
:1038500088248394912C502E802F0E94C1107C01CB
:10386000F501C190D1905F01C816D90609F45CC07A
:103870008091A00181FD0E94CA1090E080E0CE24DA
:10388000DF243401082E02C0660C771C0A94E2F78C
:10389000960126213721232B09F441C08E835F82B4
:1038A000E620F72081E0EF2809F480E088870E9475
:1038B0007F278160782F9A8789874E815F8168850D
:1038C0008A850E94C11C000F111FF801E65FFE4FA0
:1038D0008081918168267926718260820E94411BD5
:1038E000909109018917B9F10E94411B8093090148
:1038F0002A960FB6F894DEBF0FBECDBFDF91CF91F1
:103900001F910F91FF90EF90DF90CF90BF90AF90FD
:103910009F908F907F906F905F900C94DC1B01962E
:103920008F30910509F0ADCF0F5F1F4F06301105A5
:1039300009F091CF8FEF89838A831B820E947F27B2
:103940008160782F9D838C8349815A816B818D8121
:103950000E94C11CC3CF2A960FB6F894DEBF0FBEDB
:10396000CDBFDF91CF911F910F91FF90EF90DF902E
:10397000CF90BF90AF909F908F907F906F905F900F
:103980000895CF93DF93CDB7DEB72B970FB6F8949A
:10399000DEBF0FBECDBF4F83588769877A878B877D
:1039A0001E821D8285E0FE013796DE011196019090
:1039B0000D928A95E1F749815A816B817C818D81D5
:1039C0009E812B960FB6F894DEBF0FBECDBFDF9160
:1039D000CF910C94CE22FC01808191810C9484259E
:1039E000CF93C82F882309F49AC08CEF8C0F813AAB
:1039F00058F48C2F0E94AE2B811191C08C2F0E9405
:103A0000B225CF910C94262680E28C0F883048F4A2
:103A1000C77081E001C0880FCA95EAF70E94DA25D5
:103A2000F0CF8BE58C0F833068F481E890E0C53AE5
:103A300031F083E890E0C63A11F482E890E0CF914B
:103A40000C94991B88E58C0F873108F068C082EED2
:103A500090E0C83A09F460C089EE90E0C93A09F4F0
:103A60005BC08AEE90E0CA3A09F456C085EB90E05C
:103A7000CB3A09F451C086EB90E0CC3A09F44CC043
:103A800083EB90E0CB3B09F447C084EB90E0CC3B68
:103A900009F442C087EB90E0CD3AF1F18CEC90E074
:103AA000C03BD1F18DEC90E0CE3AB1F183E891E0EA
:103AB000CF3A91F18AE891E0C13B71F182E991E05E
:103AC000C23B51F184E991E0C33B31F181E292E0E4
:103AD000C43B11F183E292E0C53BF1F084E292E055
:103AE000C63BD1F085E292E0C73BB1F086E292E0BE
:103AF000C83B91F087E292E0C93B71F08FE690E01D
:103B0000CD3B51F080E790E0CE3B31F090E080E09B
:103B1000CA3B11F48AE292E0CF910C94AF1BCF9193
:103B20000895882329F19CEF980F913A20F40E9480
:103B3000B9250C94262690E2980F983050F487709F
:103B400091E001C0990F8A95EAF7892F0E94E0253C
:103B5000F0CF9BE5980F933020F490E080E00C9438
:103B6000991B885A873120F490E080E00C94AF1BB9
:103B70000895CF93C82F0E94F01CC93349F42FEF4A
:103B800082E597E0215080409040E1F700C00000BE
:103B90008C2FCF910C94911D882321F00E94DA255F
:103BA0000C9426260895882321F00E94E0250C9489
:103BB000262608958F929F92AF92BF92CF92DF9266
:103BC000EF92FF920F931F93CF93DF937C01D62F39
:103BD000C72FFC01058102950F70128111110E94FF
:103BE000FA250E94D025C82E882371F01123B1F048
:103BF00080E28D0F883090F082E00E9471260E9452
:103C0000D02591E0C82EC926DC2ED2949FE0D9227F
:103C1000ED2DF0E0EE5AFF4C0C94D72FC12CF4CFD1
:103C20000C2F0F70C07F11F00295007F1123A9F0B7
:103C3000002359F080E28D0F883010F0D11109C0B7
:103C4000802F0E94DA250E9426268D2F0E94F01CCC
:103C500014C0802F0E94ED25F6CF8D2F0E94911D5C
:103C6000002359F080E28D0F883010F0D11133C05D
:103C7000802F0E94E0250E94262698E0D91639F070
:103C8000D91648F086E08D0D8F70823020F40E94A6
:103C9000411B0E94250CCC2009F497C10E94CC2521
:103CA00080FD93C1F70112820E94C6250E94522412
:103CB000C7010E94F21F0E94C625DF91CF911F917C
:103CC0000F91FF90EF90DF90CF90BF90AF909F90BB
:103CD0008F900C947324802F0E94F325CCCFFC2F5F
:103CE000FF70BF2EC07FC03219F0B29480EFB822AF
:103CF000DD2369F0D13049F1112391F1002351F115
:103D0000F701858180FFA1CF8F70858323C01123A8
:103D100081F0011106C00E940D268B290E94CC1D46
:103D2000ACCF0130C1F70E940D268B290E941326CB
:103D3000A4CF011106C00E941C268B2D0E94D31D0A
:103D40009CCF013009F499CFF6CF112329F006302A
:103D500008F093CF8B2DE2CF053008F08ECFEDCF5A
:103D6000002359F38D2F0E94911D87CF8C2F8695AC
:103D70008695837069F0813009F07FCF8D2F9C2F5D
:103D80009370111102C090E080E00E94AF1B75CFCC
:103D90008D2F9C2F9370111102C090E080E00E9443
:103DA000991B6BCF8C2F837009F047C0111165CF21
:103DB0002D2F229526952770220F220F6D2F6F70C1
:103DC000862E912CB12CA12C022E04C0880C991C9B
:103DD000AA1CBB1C0A94D2F760E070E0CB01D4FFB0
:103DE0000FC06FE070E080E090E004C0660F771FC6
:103DF000881F991F2A95D2F76095709580959095A8
:103E0000C695C695C370C23051F080F468297929EF
:103E10008A299B29C13071F00E9404242ECF682981
:103E200079298A299B290E94162427CF0E940424DD
:103E3000C501B4010E94F22320CF8695112311F011
:103E40008C2F8170882309F418CF2D2F2295269569
:103E50002770220F220F6D2F6F70862E912CB12CA0
:103E6000A12C022E04C0880C991CAA1CBB1C0A940D
:103E7000D2F760E070E0CB01D4FF0FC06FE070E0DC
:103E800080E090E004C0660F771F881F991F2A9575
:103E9000D2F76095709580959095C695C695C3703C
:103EA000C23051F080F4682979298A299B29C130D0
:103EB00071F00E94C924E1CE682979298A299B29B9
:103EC0000E94DB24DACE0E94C924C501B4010E94FD
:103ED000B724D3CEE0E2ED0FE53108F04DC0F0E0BD
:103EE000EE59FF4C0C94D72FDF708C2F8F7111235C
:103EF00021F00E9452248D2F11CF0E9473248D2F08
:103F00001DCF112341F0053008F0B7CE8C2F8F71F3
:103F10000E949624B2CE063008F0AFCEF7CF8C2F99
:103F20008F71112339F00E945224A7CE8C2F8F71EC
:103F30001123C9F30E947324A0CE112329F08C2FE2
:103F40008F710E943D2499CE0E94382496CE112371
:103F500049F0CF718C2F0E94522463E08C2F0E9475
:103F60005C268BCE81E00E947126023008F485CE5B
:103F700082E00E94712681CE112329F0011165CEC5
:103F80008C2F8F71D0CF002369F0D93309F0EACE9E
:103F9000FFEF22E587E0F15020408040E1F700C0CC
:103FA0000000E0CE8C2F8F71C5CF4C2F4F706D2F3E
:103FB000C7010E94480E0E9468235FCE4C2F4F70AD
:103FC0006D2FC7010E944B0E58CEDF91CF911F91EC
:103FD0000F91FF90EF90DF90CF90BF90AF909F90A8
:103FE0008F9008950F931F93CF93DF93EC018B81F4
:103FF0009C81892B29F08881998189238F3F29F41D
:10400000DF91CF911F910F910895CE010E94370C3F
:104010008823B1F3688179818A810E948E258C0181
:104020000E94ED240E94EF23B801CE01DF91CF91D1
:104030001F910F910C94DA1D0E94FA250E940A2606
:104040000E94262690E080E00E94991B90E080E08C
:104050000C94AF1B0E94C0250C941C200E94E725E5
:104060000C942A20E92FE295EF70E250EE3070F4C4
:10407000F0E0E958FF4C0C94D72F803F19F020F462
:10408000803E20F481E00895843FE1F380E00895CC
:10409000803EC0F3813FD1F7F5CF93FB882780F9AD
:1040A00008950E9484250C943220CF93DF9300D092
:1040B00000D00F92CDB7DEB70F900F900F900F90FA
:1040C0000F90DF91CF910895CF93DF9300D000D070
:1040D00000D0CDB7DEB726960FB6F894DEBF0FBE80
:1040E000CDBFDF91CF9108951F93CF93DF93C09100
:1040F000170116E0809118018C1304C0DF91CF9155
:104100001F910895D0E01C9FF0011D9FF00D112418
:10411000E75EFE4F40815181628173818481958188
:104120000E9464202196C770E5CF409149015091CB
:104130004A0160914B0170914C0180914D01909129
:104140004E010C9464201F93CF93DF9380914E0116
:10415000807FC1F480914B018823A1F080911701E9
:10416000C09118016091490170914A0140914C0140
:1041700050914D01D62FD723DA01A095B09516E0C6
:10418000C81304C0DF91CF911F91089590E04115AD
:10419000510511F0DF3F31F401968770F1CF2A0FFE
:1041A0003B1F17C0189FF001199FF00D1124E75E07
:1041B000FE4F21812713F0CF20812613EDCF2281DE
:1041C0002111EACF238134812417350740F3241BC2
:1041D000350B283C310500F720914E012F702061EE
:1041E00020934E0126E0289FF001299FF00D112415
:1041F000E25EFE4F80818F708061808389E491E070
:104200000E94F21FDF91CF911F910C947420BF92F6
:10421000CF92DF92EF92FF920F931F93CF93DF9392
:10422000CDB7DEB761970FB6F894DEBF0FBECDBF36
:104230008C0185E0F801DE011D9601900D928A95B2
:10424000E1F7D8014C9111965C9111971296EC9080
:10425000129780914C0190914D01009709F47FC114
:104260002091490130914A01622F63236F3F09F485
:1042700076C11396CD90DC90B0904B01BB2009F431
:1042800011C1C816D906D0F1F601E81BF90BCF0110
:10429000FF24F394883C910508F0F12C80914E01A5
:1042A000982F907FFF2009F4B8C091117FC0FE2C99
:1042B000351329C0241327C0E11025C08F708061F9
:1042C00080934E010E94952089E491E00E94F21FA4
:1042D00080914E01D80115968C938F2D61960FB663
:1042E000F894DEBF0FBECDBFDF91CF911F910F912C
:1042F000FF90EF90DF90CF90BF90089580959095BC
:104300008C0D9D1DC5CFCD2829F0852F84238F3F8F
:1043100009F041C180E0B82FB170DB2E80FF3CC0B6
:10432000809117012091180136E0821315C04D8746
:104330005E878D859E850E948425292F22952F706A
:104340002230F0F0243018F59F70F1F0F8019581DB
:10435000907FD1F4D12C1EC090E0389FF001399F9E
:10436000F00D1124E75EFE4F6181651306C0608188
:10437000641303C06281E6120FC001968770D5CF27
:104380009F7011F0882331F3805E883018F3C801E4
:104390000E94F21FFD2CA1CFEE2009F49ECF809148
:1043A0004E01816080934E01F12C97CF351306C0EA
:1043B000241304C0D801EE2009F49AC04D875E870B
:1043C0008D859E850E945120882319F1EE2009F1E8
:1043D00080914E01803270F02091490130914A0164
:1043E00038872F831986DB86CA868C87CE0107968D
:1043F0000E94F21F86E0F801A9E4B1E001900D925D
:104400008A95E1F70E94A3200E949520FF24F3944F
:1044100064CFC8010E94F21FF9CF911113C07C2D07
:10442000D98AC88A6E2D89890E94552089E491E035
:104430000E94F21F86E0E9E4F1E0DF011D928A9517
:10444000E9F763C0351312C0241310C0E1100EC089
:10445000F8018583C8010E94F21FE9E4F1E086E0DB
:10446000DF011D928A95E9F7FB2C37CF4D875E87D8
:104470008D859E850E945120882359F2EE2049F2B5
:1044800080914E01803208F4B5CF209149013091DE
:104490004A013A8329831B82DD82CC828E83CE013E
:1044A0000196A6CFC816D90698F1F601E81BF90BBC
:1044B000CF01F12C883C910508F049C0FE2CEE207C
:1044C00009F4A7CF351332C0241330C080914E01B8
:1044D00080FD23C0982F907F01F1D80115968C9311
:1044E0001597903F39F0982F907F905F8F70892BB0
:1044F00015968C93C8010E94F21F86E0F801A9E48A
:10450000B1E001900D928A95E1F70E949520E5CEE9
:10451000809590958C0D9D1DCCCF86E0F801A9E487
:10452000B1E001900D928A95E1F7D7CE4D875E8775
:104530008D859E850E94512081115CCF80914E0116
:10454000816080934E01C8010E94F21FC6CE7C2D6F
:10455000D98AC88A6E2D89890E9455206BCFEE209A
:1045600009F457CF4D875E878D859E850E94512027
:10457000F82E882309F44DCF86E0F801A9E4B1E0D4
:1045800001900D928A95E1F789E491E00E94EB1C7D
:104590000E94A320BACF81E08E25BDCE1F93CF937A
:1045A000DF93CDB7DEB72C970FB6F894DEBF0FBE02
:1045B000CDBF4F83588769877A878B879C87CE01C9
:1045C00007960E940721882369F08A859B85892B9D
:1045D00039F04F815885842F85238F3F09F071C0B2
:1045E00016E05FC086E0FE013796DE01119601906D
:1045F0000D928A95E1F78A859B85892B89F38885B9
:104600009F8189238F3F61F32091180130E0C90118
:10461000019687709927409117014817190671F480
:104620000E942E20109218011092170186E0E9E4F2
:10463000F1E0DF011D928A95E9F7D2CF96E0929FD3
:10464000D001939FB00D1124A75EBE4FFE0131969D
:1046500001900D929A95E1F7809318010E947420C1
:10466000BFCF819FC0011124875E9E4F0E9407210A
:104670008823E9F0E09117011E9FF0011124E75E05
:10468000FE4F4081518162817381848195810E94B6
:1046900064208091170190E001968770992780939C
:1046A000170180911701909118018913DACF2C9688
:1046B0000FB6F894DEBF0FBECDBFDF91CF911F9133
:1046C000089569857A858B859C850E94642088CFB2
:1046D000EF92FF920F931F93CF93DF938C01892B5F
:1046E00081F0F12CEE24E394E8012196F801849105
:1046F000843770F4843008F05FC08130B1F08230CC
:10470000A1F1DF91CF911F910F91FF90EF9008954C
:10471000853709F44CC008F43DC09CE7980F9037EA
:1047200080F78F770E94911D49C00E5F1F4FFE01D9
:10473000849190E2980F983060F48770FE2D01C04C
:10474000FF0F8A95EAF78F2F0E94FD250E942626EB
:1047500002C00E94F01C8F2D815030F2E7EBFBE08D
:104760003197F1F700C00000F7CF0E5F1F4FFE0139
:10477000849190E2980F983050F48770FE2D01C01C
:10478000FF0F8A95EAF78F2F0E940326DFCF0E9442
:10479000911DE1CF0E5F1F4FFE01C491C150D8F2B1
:1047A00087EB9BE00197F1F700C00000F7CF0E5FA9
:1047B0001F4FFE01F490CFCF0E94F01C8E01CBCF93
:1047C00008950C94E0230E94E12360938F0170937D
:1047D000900180939101909392010C941C20089574
:1047E0000C94E3230F931F9300918F01109190017C
:1047F0002091910130919201602B712B822B932B90
:104800001F910F910C94E3230F931F9300918F013D
:1048100010919001209191013091920160237123B8
:10482000822393231F910F910C94E3230F931F93E3
:1048300000918F011091900120919101309192018E
:1048400060277127822793271F910F910C94E323F0
:104850000C94E0230C9428240E942A2460938B015A
:1048600070938C0180938D0190938E010C941C2089
:1048700060E070E0CB010C942C240F931F9341E077
:1048800050E060E070E08A019B0104C0000F111F3E
:10489000221F331F8A95D2F7C901B8011F910F91CA
:1048A0000C942C240F931F9341E050E060E070E0E3
:1048B00004C0440F551F661F771F8A95D2F7809159
:1048C0008B0190918C01A0918D01B0918E018A0194
:1048D0009B01082B192B2A2B3B2BC901B8011F91D7
:1048E0000F910C942C240F931F9341E050E060E053
:1048F00070E004C0440F551F661F771F8A95D2F7DA
:10490000CB01BA01609570958095909500918B01CF
:1049100010918C0120918D0130918E0160237123C3
:10492000822393231F910F910C942C240F931F9398
:1049300041E050E060E070E004C0440F551F661F86
:10494000771F8A95D2F780918B0190918C01A0916D
:104950008D01B0918E018A019B01082719272A2712
:104960003B27C901B8011F910F910C942C240F9380
:104970001F9300918B0110918C0120918D0130913A
:104980008E01602B712B822B932B1F910F910C9416
:104990002C240F931F9300918B0110918C01209177
:1049A0008D0130918E0160237123822393231F9107
:1049B0000F910C942C240F931F9300918B01109155
:1049C0008C0120918D0130918E0160277127822703
:1049D00093271F910F910C942C2408952FE0929F00
:1049E000800D1124982F977041E001C0440F9A95D3
:1049F000EAF786958695869595E0899FF0011124C2
:104A0000E15BFE4F90E080E070E05191DF01119793
:104A10009B01082E02C0369527950A94E2F7217073
:104A200021952527242325272C9301968530910550
:104A300061F708952FE0929F800D1124982F9770B1
:104A400086958695869525E0829FF0011124E15B8D
:104A5000FE4F50E040E080E0219130E0092E02C09E
:104A6000369527950A94E2F721703327042E01C06A
:104A7000220F0A94EAF7822B4F5F5F4F45305105B2
:104A800059F70895BF92CF92DF92EF92FF920F9362
:104A90001F93CF93DF938C01C0908B01D0908C013A
:104AA000E0908D01F0908E0180918F0190919001A6
:104AB000A0919101B0919201C82AD92AEA2AFB2A31
:104AC000CFE1D0E0BC2ED701C6010C2E04C0B695B4
:104AD000A795979587950A94D2F780FD0EC02197E8
:104AE00088F7B12C8B2DDF91CF911F910F91FF9003
:104AF000EF90DF90CF90BF900895B8018C2F0E9467
:104B0000680E019761F3EECFCF93DF93EC010E9423
:104B10004225BE01DF91CF910C94680E1F93CF9375
:104B2000DF93EB0190911601992331F0CB01DF91D6
:104B3000CF911F910C948425882379F0CB010E949A
:104B40004225182F682FCE010E94EE24BE01812F2E
:104B5000DF91CF911F910C94680ECB010E941A2512
:104B6000182FF4CF682F80918A0090918B000C94BD
:104B70006D27682F80918A0090918B000C946F278D
:104B800080918A0090918B000C9471278091930101
:104B900085958595859508958091930187700895F1
:104BA00090919301977081E009F480E008958091DD
:104BB0009F01089590919F01892B80939F010895F3
:104BC000809590919F01982390939F010895109252
:104BD0009F01089580919E01089590919E01892BD7
:104BE00080939E010895809590919E0198239093C3
:104BF0009E01089510929E01089590919D01892B28
:104C000080939D010895809590919D0198239093A4
:104C10009D01089510929D01089580919401089539
:104C200008950C94102690919401981721F0809388
:104C300094010C941126089580919401882329F001
:104C40001092940180E00C9411260895E0918A005E
:104C5000F0918B0080919F018083E0918A00F09118
:104C60008B00808190919E01892B8083E0918A0046
:104C7000F0918B00808190919D01892B8083909190
:104C80009401992381F0E0918A00F0918B0080815A
:104C9000892B808380918A0090918B000E94342719
:104CA00081110E941C2680918A0090918B000C94A7
:104CB0004D1B08950C94592698E0899F900111246A
:104CC000622B609393010E945224809193018595F9
:104CD000859585950C945A261092930180E00C944A
:104CE0005A26909193018095892380939301282FD0
:104CF000277071F4282F082E000C330B921713061F
:104D000039F08595859585950E9473240C946C26C1
:104D10000895829590E09C01220F331F220F331FCC
:104D20002C7C95958795959587958373282B30E0F6
:104D3000C901880F991F8A7A359527952575822B89
:104D40000895CF93DF93D92F0E948926C82F8D2FE6
:104D50000E9489269C2FDF91CF91089590E080E0FA
:104D60000E94F82F21E08D3E9E4F09F020E0822F17
:104D7000089582E090E00C94EA2F682F82E090E0A2
:104D80000C94FE2F83E090E00C94EA2F682F83E0D0
:104D900090E00C94FE2F84E090E00C94EA2F682FB2
:104DA00084E090E00C94FE2FAB01BC018FE090E01A
:104DB0000C940F30AB01BC0183E190E00C940F30F8
:104DC00060E070E0CB010C94DA2660E070E0CB018B
:104DD0000E94D4260C94E0266DEE7EEF90E080E0F9
:104DE0000E941B3060E082E090E00E94FE2F60E0B5
:104DF00083E090E00E94FE2F10928F0110929001AC
:104E0000109291011092920160E084E090E00E9483
:104E1000FE2F60E085E090E00E94FE2F60E086E0DB
:104E200090E00E94FE2F6FEF87E090E00E94FE2F3F
:104E300040E050E0BA0188E090E00E940F3060E06E
:104E40008DE090E00E94FE2F40E050E0BA0188E142
:104E500090E00E940F3060E087E190E00E94FE2F1A
:104E60000C94E5260C94EC269C012E5F3F4FAC0180
:104E7000485F5F4F80E02417350709F40895F90172
:104E800091919F019923B9F38F5FF5CF9C01FC01AC
:104E900032969FEF80E04191461751F09F3F19F401
:104EA000411101C0982F8F5F8630A9F79F3F09F409
:104EB0000895290F311D97FD3A95F90162830895F0
:104EC000FC01329608962191261303C0DF01119749
:104ED0001C92E817F907B9F708950C9446270C942B
:104EE0006027029626E0FC0111922A95E9F70895C1
:104EF0008BE083BF8BEB8CBF82E089BF08952FB717
:104F0000F8948091710290917202A0917302B09115
:104F100074022FBF08952FB7F894609171027091B9
:104F2000720280917302909174022FBF0895CF9204
:104F3000DF92EF92FF920F931F932FB7F894409157
:104F400071025091720260917302709174022FBFCE
:104F50006A017B01EE24FF248C0130E020E0C016C2
:104F6000D106E206F30650F0481B590BCA011F9107
:104F70000F91FF90EF90DF90CF900895415051092D
:104F8000F3CF78941F921FB61F9211248F939F9393
:104F9000AF93BF938091710290917202A0917302BE
:104FA000B09174020196A11DB11D8093710290937E
:104FB0007202A0937302B0937402BF91AF919F915C
:104FC0008F911F901FBE1F90189560E081E090E0C8
:104FD0000E94213087E090EBDC018093BA0290932D
:104FE000BB02A093BC02B093BD0288E19CE00FB667
:104FF000F894A89581BD0FBE91BDFFCFAF92BF922F
:10500000CF92DF92EF92FF920F931F93CF93C0E066
:10501000CC24C394D12CE82EF12C8C2F0E94C110EB
:105020005C0110E000E0C601002E02C0880F991F4D
:105030000A94E2F78A219B21892B99F40F5F1F4F75
:105040000F30110581F7CF5FC63039F780E0CF917F
:105050001F910F91FF90EF90DF90CF90BF90AF9096
:105060000895602F7C2F80E00E944C0EE816F90610
:1050700029F781E0ECCFCF93C82F8CE20E94FE2766
:10508000882321F08C2FCF910C94FE2780E0CF91C4
:105090000895CF930E94AE26811102C00E9432274C
:1050A0008EE399E00E946508C5E6C15009F0D5C0BD
:1050B00087E399E00E94650889E20E943B288111FC
:1050C000F8C08AE20E943B2881110E94322785E0C5
:1050D0000E943B2881110E94E5270E94B9268093F7
:1050E000A00187E00E943B28882371F08BE10E9499
:1050F0003B28882309F4BAC09091A001892F8D7FA5
:1051000091FF82608093A0018091A0010E94BD2642
:105110000E94CB2690E0909376028093750280EEF9
:105120000E943B28882341F090917502892F8E7F41
:1051300090FF81608093750289E30E943B28882359
:1051400041F090917502892F8D7F91FF826080934D
:10515000750282EE0E943B28882341F090917502EF
:10516000892F8B7F92FF84608093750286EE0E9468
:105170003B28882341F090917502892F877F93FF08
:1051800088608093750283EE0E943B28882341F05B
:1051900090917502892F8F7E94FF806180937502B4
:1051A00085E30E943B28882341F090917502892F66
:1051B0008F7D95FF80628093750281E30E943B287A
:1051C000882341F090917502892F8F7B96FF806430
:1051D0008093750281E10E943B28882341F09091E1
:1051E0007502892F97FB87F980588093750280910B
:1051F00075020E94CF2687E20E943B28C82F8EE1CD
:105200000E943B288111C2608FE10E943B288111DE
:10521000C46080E20E943B288111C86081E20E9444
:105220003B288111C06182E20E943B288111C0624B
:1052300083E20E943B288111C06484E20E943B28E3
:10524000882389F1C0688C2F0E94C6266C2F70E0DD
:1052500090E080E0CF910C94F0230E9457118FE2F0
:1052600095E70197F1F700C000001FCF8EE00E9484
:105270003B28882339F09091A001892F8B7F92FFE2
:10528000846040CF80E10E943B289091A001882358
:1052900029F0892F877F93FF886034CF892F8E7FF5
:1052A00090FF81602FCFC111CECF0E94C226682F00
:1052B000CECFCF910895CF93C82F1F928F9389E5BA
:1052C00099E09F938F930E94FE0861E070E080E078
:1052D00090E004C0660F771F881F991FCA95D2F708
:1052E0000E94F0230F900F900F900F90CF910C948D
:1052F0002E20CF938B3109F4E0C108F078C18B30B8
:1053000009F49FC108F042C1863009F4ADC148F4E8
:10531000853009F47AC187E99DE00E94650880E044
:10532000B3C1873009F4B2C18830A9F786E39EE0A3
:105330000E94650887E89DE00E9465080E94C226D9
:105340001F928F9384E89DE09F938F930E94FE08A5
:1053500082E89DE00E9465080E94B926C82F8FE66A
:105360009DE00E9465081F92CF938AE69DE09F937F
:105370008F930E94FE0888E69DE00E9465088EE5F6
:105380009DE00E9465088C2F81701F928F938BE5A2
:105390009DE09F938F930E94FE0889E59DE00E9407
:1053A00065088FE49DE00E946508C1FB882780F9AD
:1053B0001F928F938CE49DE09F938F930E94FE0831
:1053C0008AE49DE00E9465088EE39DE00E946508E6
:1053D000C2FB882780F91F928F938BE39DE09F93F8
:1053E0008F930E94FE0889E39DE00E94650880E398
:1053F0009DE00E946508C3FBCC27C0F91F92CF93A4
:105400008DE29DE09F938F930E94FE088BE29DE0CA
:105410000E9465080E94CB26C82F87E19DE00E946C
:1054200065081F92CF9382E19DE09F938F930E9426
:10543000FE0880E19DE00E94650887EF9CE00E94E5
:1054400065088C2F81701F928F9384EF9CE09F934F
:105450008F930E94FE088DB79EB780960FB6F89482
:105460009EBF0FBE8DBF82EF9CE00E9465088BED52
:105470009CE00E946508C1FB882780F91F928F93EA
:1054800088ED9CE09F938F930E94FE0886ED9CE040
:105490000E94650884EC9CE00E946508C2FB882796
:1054A00080F91F928F9381EC9CE09F938F930E94D1
:1054B000FE088FEB9CE00E9465088DEA9CE00E944C
:1054C0006508C3FB882780F91F928F938AEA9CE0C6
:1054D0009F938F930E94FE0888EA9CE00E946508D3
:1054E0008EE99CE00E946508C4FB882780F91F9222
:1054F0008F938BE99CE09F938F930E94FE0889E92C
:105500009CE00E94650887E89CE00E946508C5FB56
:10551000882780F91F928F9384E89CE09F938F9354
:105520000E94FE0882E89CE00E94650886E69CE0F6
:105530000E946508C6FB882780F91F928F9383E637
:105540009CE09F938F930E94FE0881E69CE00E945E
:10555000650889E59CE00E946508C7FBCC27C0F977
:105560001F92CF9386E59CE09F938F930E94FE0845
:1055700084E59CE00E9465088DB79EB74C960FB6F7
:10558000F8949EBF0FBE8DBF81E07EC0803109F4CC
:10559000ACC080F48E3009F0BECE9091A001892F6E
:1055A0008B7F92FF84608093A00182FF9BC082EC7E
:1055B0009DE08FC0863109F4A8C0893109F0ABCED7
:1055C00087E89AE00E94650884E79AE00E946508EF
:1055D0008BE39AE00E9465088FEF99E00E946508CE
:1055E00088EC99E00E9465088DE999E02CC08A3228
:1055F000A1F1E8F4873269F128F48E3108F48BCEFA
:105600008D5128C0893209F086CE0E942E2085E077
:105610009EE00E9465089FEF2EE984E291502040B1
:105620008040E1F700C000000E94E527ADCF833441
:1056300068F48A3308F08CC0853359F0883309F058
:105640006ACE81EB9AE00E9465089ECF833409F010
:1056500062CE80E00E945B2997CF85E29EE00E94A7
:1056600065080E94322790CF8091A001807F8093AF
:10567000A00186E99AE00E94650881E29EE00E940E
:10568000650881E08093A101CF9108959091A001D8
:10569000892F8E7F90FF81608093A00180FF03C0DF
:1056A00089EF9DE0D0CF8CEE9DE00E94650880914F
:1056B000A001817F8093A00167CF9091A001892FE5
:1056C0008D7F91FF82608093A00181FF08C08FEDE4
:1056D0009DE00E9465088091A0018160EBCF81ED83
:1056E0009DE0B1CF82EB9DE0AECF9091A001892FDC
:1056F000877F93FF88608093A00183FF03C086EAC1
:105700009DE0E7CF89E99DE09ECF8FE899E00E9478
:1057100065080E94411B1F928F9385E799E09F9334
:105720008F930E94FE080E948B279F938F937F93F5
:105730006F938EE599E09F938F930E94FE088DB73B
:105740009EB70A960FB6F8949EBF0FBE8DBF1CCFB2
:10575000895380CF80E008950C94AA2BCF93C82F53
:105760008091A101882331F0813099F01092A1013C
:1057700080E00DC00E94D7258232D1F78C2F0E9485
:10578000AA2B811119C08C2F0E9479298170CF9189
:1057900008950E94D725823289F38C2F0E94AC2B6A
:1057A000811119C0C431C9F050F4CB3061F083E5E8
:1057B00099E00E94650813C081E090E0E7CFC9320C
:1057C00061F0C833A1F786E99AE00E94650885E593
:1057D00099E00E94650881E0D9CF1092A10180E094
:1057E000D5CF0E947F278C010E94CC1B0E94D21B28
:1057F0000E944D2D0E943C1B8091A00180FF04C09F
:105800008CE49EE00E9465080E949C2F8B9A80E0A9
:10581000815061F48B9878948091A00180FF04C03E
:1058200081E49EE00E946508C0E009C0A895E7EB0E
:10583000FBE03197F1F700C00000EACFC1E08091B2
:105840009102882399F0109291020E947F278C0187
:105850000E94882E80919702882329F080918202ED
:1058600084FD0E94041C0E94AC2CDECFC8010E9463
:105870009727069718F7CC2359F3E1CF809134028C
:105880000895CF93DF9300D00F92CDB7DEB720916C
:10589000A4013091A5012817390789F09093A5013B
:1058A0008093A40124E029839B838A838091AE02A4
:1058B00084FF05C063E0CE0101960E94842E0F9004
:1058C0000F900F90DF91CF910895CF93DF9300D089
:1058D0000F92CDB7DEB72091A2013091A301281716
:1058E000390789F09093A3018093A20123E02983D3
:1058F0009B838A838091AE0284FF05C063E0CE0162
:1059000001960E94842E0F900F900F90DF91CF91FF
:105910000895CF93DF9300D000D000D0CDB7DEB78D
:10592000FC0182E0898395E0DE01129601900D92E0
:105930009A95E1F78091AE0284FF05C066E0CE0142
:1059400001960E94842E26960FB6F894DEBF0FBEF5
:10595000CDBFDF91CF910895CF93DF93CAE0D0E020
:105960008091820284FF63C08091B1019091B20165
:10597000981709F467C028E0829FC001112468E0ED
:105980008D549E4F0E94802E8091B10190E001962F
:105990008F7099278093B1018091A00182FF52C03E
:1059A00088EE9EE00E9465088091B1011F928F935E
:1059B00085EE9EE09F938F930E94FE0882EE9EE00C
:1059C0000E9465088091B2011F928F938FED9EE037
:1059D0009F938F930E94FE088CED9EE00E946508C5
:1059E0005091B2014091B1018DB79EB708960FB6A4
:1059F000F8949EBF0FBE8DBF242F30E0852F90E01E
:105A0000821B930B541708F440969F938F9387ED56
:105A10009EE09F938F930E94FE080F900F900F902F
:105A20000F9084ED9EE0DF91CF910C9465080E9469
:105A3000882E87EB9BE00197F1F700C000002197CB
:105A400009F08ECFDF91CF910895FC01A091B201B2
:105A5000B0E09D012F5F3F4F2F7033278091B10140
:105A6000821791F083E0AA0FBB1F8A95E1F7AD542E
:105A7000BE4F98E001900D929A95E1F72093B20104
:105A80000E94882E0C94AC2C8091A00180FFF8CF4E
:105A900088EC9EE00E946508F3CF8CE890E00895C2
:105AA000CF93DF93EC018091A00181709881907673
:105AB000903209F07BC09981913081F4882321F0E4
:105AC0008CEB9EE00E94650889EA91E09093930236
:105AD0008093920288E0DF91CF910895923071F423
