:100000000C94F5060C943C070C943C070C943C07AC
:100010000C943C070C943C070C943C070C943C0754
:100020000C943C070C943C070C946B290C943D2ACF
:100030000C941B1A0C943C070C943C070C943C0742
:100040000C943C070C943C070C943C070C943C0724
:100050000C943C070C94BB1A0C943C070C943C0782
:100060000C943C070C943C070C943C070C943C0704
:100070000C943C070C943C070C943C070C943C07F4
:100080000C943C070C943C070C943C070C943C07E4
:100090000C943C070C943C070C943C070C943C07D4
:1000A0000C943C070C943C070C943C07F309F509AD
:1000B000000AF709F909FB09FD09FF09020A040A08
:1000C000060A110A080A0A0A0C0A0E0A100A130A7A
:1000D0003B103B106D106D10AB10CB103B123B1260
:1000E0000D113B12BA11BA112B123B123B123412F2
:1000F000C711C711C711C711C711C711C711C71140
:10010000C711C711C711C711C711C711C711C7112F
:10011000D811E611ED11F411FE11CA12CA12DC1247
:10012000DC12D312DC12DC12DC12CA12CA12D81290
:10013000DC12DC12D812AA2AD12AC32BD12AC32B53
:100140001D2B402BC32B962BA52B253032583A2044
:10015000253038620A000A722F632030313233347E
:100160003536370A001F0014001A00160004001D5F
:10017000001B0006002000210015000800070009F0
:100180000019000500220023001C0017000A000BC4
:1001900000110000001E0029002B000251D65CE077
:1001A00000E2002C002400250018000C000E000DB9
:1001B00000100000003100015330003400A900D7C6
:1001C0005CAA00E300260027001200130033000F92
:1001D00000360000002D002E0028002F002A0038D5
:1001E00000370000001F0014001A00160004001D54
:1001F000001B000600200021001500080007000970
:100200000019000500220023001C0017000A000B43
:1002100000110000001E0029002B000251D65CE2F4
:1002200000E3002C002400250018000C000E000D37
:10023000001000000031003500300034000153D7B9
:100240005CE600E000260027001200130033000FD8
:1002500000360000002D002E0028002F002A003854
:1002600000370000003B0001000100A900AA0001C6
:1002700000010001003C003D0001000100A8000158
:1002800000010001003E003F00010001000100509C
:1002900000570000003A00A50039000100010001EC
:1002A00000010001004000410001004600520051E1
:1002B00000560000004900005C2A005800010001BF
:1002C0000001000100420043004700480001004FC8
:1002D000004D00000044004500F40052004C005165
:1002E000004E0000000100010001000100010001BA
:1002F00000010001000100010001000100010001F6
:1003000000010001000100010001000100010001E5
:1003100000010000000100010001000100010001D6
:1003200000010001000100010001000100010001C5
:100330000001000000010035000100010001000182
:1003400000010001000100010001000100010001A5
:100350000001000000010001000100010001000196
:10036000000100000044454255473A20656E616235
:100370006C65642E0A000A002530325820006B6537
:1003800079626F6172645F7265706F72743A200097
:100390000A0025303258006B6579626F6172645FC4
:1003A0007365745F6C65643A2000646F6E652E0A35
:1003B00000626F6F746D61676963207363616E3A89
:1003C000202E2E2E2000290A002575002F002575CD
:1003D000005D2800256400200025640020002564BD
:1003E0000020002564007C0025303258006D6F75B8
:1003F00073656B6579205B62746E7C7820792076FA
:1004000020685D287265702F61636C293A205B005B
:100410006D6B5F776865656C5F74696D655F746F40
:100420005F6D6178203D2025640A006D6B5F776801
:1004300065656C5F6D61785F7370656564203D20F4
:1004400025640A006D6B5F74696D655F746F5F6D25
:100450006178203D2025640A006D6B5F6D61785FD7
:100460007370656564203D2025640A006D6B5F69CB
:100470006E74657276616C203D2025640A006D6B98
:100480005F64656C6179203D2025640A006D6B5FB7
:10049000776865656C5F74696D655F746F5F6D61CA
:1004A00078203D2025640A006D6B5F776865656C78
:1004B0005F6D61785F7370656564203D2025640A17
:1004C000006D6B5F74696D655F746F5F6D6178203F
:1004D0003D2025640A006D6B5F6D61785F73706508
:1004E0006564203D2025640A006D6B5F696E74654C
:1004F0007276616C203D2025640A006D6B5F646537
:100500006C6179203D2025640A000A0025750036BB
:100510003A20776865656C5F74696D655F746F5FBD
:100520006D61783A20000A00257500353A20776819
:1005300065656C5F6D61785F73706565643A200016
:100540000A00257500343A2074696D655F746F5F29
:100550006D61783A20000A00257500333A206D61FC
:10056000785F73706565643A20000A002575003273
:100570003A20696E74657276616C286D73293A2031
:10058000000A00257500313A2064656C6179282ADB
:1005900031306D73293A20000A092D2056616C759F
:1005A0006573202D0A004D3E004D25643E20003F1E
:1005B000007365742064656661756C740A00433E5F
:1005C000200077686572652064656C74613A206309
:1005D0007572736F723D25642C20776865656C3D7C
:1005E00025640A53656520687474703A2F2F656E10
:1005F0002E77696B6970656469612E6F72672F77FA
:10060000696B692F4D6F7573655F6B6579730A0050
:100610000A092D204D6F7573656B6579202D0A458C
:1006200053432F713A09717569740A313A09646547
:100630006C6179282A31306D73290A323A09696E62
:1006400074657276616C286D73290A333A096D619D
:10065000785F73706565640A343A0974696D655F23
:10066000746F5F6D61780A353A09776865656C5F0C
:100670006D61785F73706565640A363A09776865FD
:10068000656C5F74696D655F746F5F6D61780A0A90
:10069000703A097072696E742076616C7565730AC0
:1006A000643A097365742064656661756C74730AD5
:1006B00075703A092B310A646F776E3A092D310A49
:1006C000706775703A092B31300A7067646F776E06
:1006D0003A092D31300A0A7370656564203D206443
:1006E000656C7461202A206D61785F737065656444
:1006F000202A2028726570656174202F2074696D2E
:10070000655F746F5F6D6178290A003F004D3E2080
:1007100000433E20004C25640A0074696D65725FD9
:1007200072656164333228293A202530346C580AC6
:10073000006B6579626F6172645F69646C653A2011
:1007400025580A006B6579626F6172645F70726F21
:10075000746F636F6C3A2025580A00686F73745F7A
:100760006B6579626F6172645F6C65647328293AA6
:100770002025580A000A092D2053746174757320CE
:100780002D0A004743433A20342E392E3220415659
:10079000522D4C4942433A20312E382E3073766E1A
:1007A000204156525F415243483A20617672350AE1
:1007B000004F5054494F4E533A204C554641204229
:1007C0004F4F544D41474943204D4F5553454B459D
:1007D000592045585452414B455920434F4E534F91
:1007E0004C4520434F4D4D414E4420343039360A5C
:1007F000004255494C443A2022302E362E313732B1
:100800002D3238322D673165333930662D64697287
:10081000747922202832323A33373A3238204A610A
:100820006E2032372032303139290A005649443A95
:100830002030784645454428712E6D2E6B29205076
:1008400049443A203078434146452848484B4220A5
:100850006D6F6429205645523A203078303130345B
:100860000A00444553433A20712E6D2E6B206B6570
:1008700079626F617264206669726D77617265205A
:10088000666F722048484B420A000A092D205665BF
:100890007273696F6E202D0A000A092D20436F6E56
:1008A000736F6C65202D0A4553432F713A0971759A
:1008B00069740A6D3A096D6F7573656B65790A0025
:1008C0000A092D204D61676963202D0A443A0944C5
:1008D00065627567204D65737361676520546F6746
:1008E000676C650A583A094D6174726978204465ED
:1008F000627567204D6F646520546F67676C652073
:100900002D2053686F77206B6579707265737365FE
:100910007320696E206D61747269782067726964F2
:100920000A4B3A094B6579626F61726420446562D3
:10093000756720546F67676C65202D2053686F774B
:10094000206B65797072657373207265706F727455
:100950000A4D3A094465627567204D6F75736520CD
:10096000546F67676C650A563A0956657273696F0A
:100970006E0A533A095374617475730A433A094114
:100980006374697661746520436F6E736F6C652064
:100990004D6F64650A46312D4631303A0953776907
:1009A00074636820746F204C6179657220302D3932
:1009B0002028463130203D204C30290A302D393A4C
:1009C0000953776974636820746F204C617965728C
:1009D00020302D390A4553433A09537769746368C7
:1009E00020746F204C6179657220302028616C740E
:1009F00065726E617465206B65792031290A4752F2
:100A00004156453A0953776974636820746F204CE6
:100A10006179657220302028616C7465726E617432
:100A200065206B65792032290A50415553453A09B2
:100A30004A756D7020746F20426F6F746C6F6164C3
:100A4000657220285265736574290A453A09507207
:100A5000696E7420454550524F4D2053657474693A
:100A60006E67730A000A002575002E6E6B726F3A6E
:100A700020000A002575002E737761705F62616344
:100A80006B736C6173685F6261636B7370616365E4
:100A90003A20000A002575002E737761705F677237
:100AA0006176655F6573633A20000A002575002E44
:100AB0006E6F5F6775693A20000A002575002E7316
:100AC0007761705F72616C745F726775693A20005C
:100AD0000A002575002E737761705F6C616C745F1E
:100AE0006C6775693A20000A002575002E636170F5
:100AF000736C6F636B5F746F5F636F6E74726F6C38
:100B00003A20000A002575002E737761705F636FCD
:100B10006E74726F6C5F636170736C6F636B3A209D
:100B2000000A0025303258006B65796D61705F6393
:100B30006F6E6669672E7261773A20000A0025752C
:100B4000002E6D6F7573653A20000A002575002E22
:100B50006B6579626F6172643A20000A0025750046
:100B60002E6D61747269783A20000A002575002E96
:100B7000656E61626C653A20000A002530325800CB
:100B800064656275675F636F6E6669672E72617711
:100B90003A20000A0025750064656661756C745F13
:100BA0006C617965723A20003F000A6D6F7573655C
:100BB0003A206F66660A000A6D6F7573653A206F9A
:100BC0006E0A000A6B6579626F6172643A206F6623
:100BD000660A000A6B6579626F6172643A206F6E13
:100BE0000A000A6D61747269783A206F66660A00BD
:100BF0000A6D61747269783A206F6E0A000A646542
:100C00006275673A206F66660A000A6465627567F6
:100C10003A206F6E0A000A0A4A756D70696E672085
:100C2000746F20626F6F746C6F616465722E2E2E0C
:100C30002000433E20006565636F6E6669673A0A6F
:100C4000005B735D004B6579626F61726420737441
:100C50006172742E0A005B575D005B535D005B524E
:100C60005D005B445D005B435D00040330000000F9
:100C70001203480048004B00420020006D006F0046
:100C8000640000000C0371002E006D002E006B004C
:100C900000000403090409025B00030100A0FA0933
:100CA000040000010301010009211101000122409B
:100CB000000705810308000A090401000103000080
:100CC000000921110100012285000705820320008F
:100CD0000A090402000203000000092111010001B9
:100CE00022220007058303200001070503032000DB
:100CF000011201100100000008EDFEFECA0401010E
:100D00000203010631FF0974A1010975150026FFD0
:100D1000009520750881020976150026FF009520B0
:100D200075089102C005010902A10185020901A10E
:100D30000005091901290515002501950575018191
:100D400002950175038101050109300931158125DD
:100D50007F95027508810609381581257F950175F3
:100D6000088106050C0A38021581257F9501750852
:100D70008106C0C005010980A10185031601002676
:100D800003001A81002A8300751095018100C005B7
:100D90000C0901A1018504160100269C021A01001C
:100DA0002A9C02751095018100C005010906A10168
:100DB000050719E029E7150025019508750181024D
:100DC0009501750881010508190129059505750129
:100DD00091029501750391010507190029FF15007E
:100DE00026FF00950675088100C011241FBECFEFB5
:100DF000DAE0DEBFCDBF04B603FE27C08091030258
:100E000090910402A0910502B09106028730904BA8
:100E1000A740B04BD1F4109203021092040210923A
:100E200005021092060214BE84B7877F84BF0FB6F6
:100E3000F894A8958091600088618093600010927A
:100E400060000FBEE0E0F8E3099511E0A0E0B1E03A
:100E5000E8EEF8E502C005900D92AC32B107D9F783
:100E600022E0ACE2B1E001C01D92A330B207E1F78D
:100E70000E9486260C94722C0C940000FF93EF9332
:100E8000E0912C01F0912D01309709F00995EF9137
:100E9000FF910895FC018591803011F0EFDFFBCFC9
:100EA0000895FF27E0E230E247FF0CC0419597FF2D
:100EB00009C0EDE26095709580959095611D711D5A
:100EC000811D911D27FF02C0219530E350E2AA2722
:100ED000660F771F881F991FAA1FA41710F0A41B65
:100EE00063955A95A9F7AA3008F0A95FA05DAF9362
:100EF000F395611571058105910541F7ED3211F406
:100F0000EF93F395F21718F43F93F395FBCF8F917E
:100F1000B5DFFA95E1F70895E991F991859180306F
:100F200021F0853219F0AADFF9CF089520E0E89486
:100F300055915532C1F3503311F4689455915A3399
:100F400048F4505390F3220F022E220F220F200D4F
:100F5000250FF4CF0EF4219589919991533619F309
:100F6000533729F1533559F1BC0188279927E89463
:100F70005C3621F48991999168945591543639F4ED
:100F800046EF7EF077FF0DC08FEF9FEF0AC0553719
:100F90004AE039F0583540E121F0523642E009F09C
:100FA0000895FF93EF937DDFEF91FF91B7CFFF930C
:100FB000EF93FC0181918030B9F360DFFBCFFF93A9
:100FC000EF9368DFF1CFDF93CF93CDB7DEB72596F0
:100FD000A3DFCF91DF9108958FEF84B980E485B9C5
:100FE00057985F9A2E9A2F98E6E3F1E088E08E0FEB
:100FF00011928E13FDCFEEE2F1E088E08E0F119298
:101000008E13FDCF86E391E09093410180934001E0
:101010008EE291E090933F0180933E010895089500
:101020000C940F080F931F93CF93DF9380913E0191
:1010300090913F01209140013091410130933F0157
:1010400020933E019093410180934001C0E0D0E0A5
:1010500001E010E080E090E025B1207C2C2BAC0179
:1010600033E0440F551F3A95E1F7242B25B9EAE107
:10107000EA95F1F700C0E0913E01F0913F01EC0FDD
:10108000FD1F208130E0082E02C0359527950A9477
:10109000E2F720FD2F9AF5E3FA95F1F70000E6B5A7
:1010A0002E982AE12A95F1F700C040914001509115
:1010B0004101DA01AC0FBD1F4F9B0AC09801082EF9
:1010C00001C0220F0A94EAF720953C91232308C01F
:1010D0006C919801082E01C0220F0A94EAF7262B82
:1010E0002C9326B56E2F70E02E1718F026B530E041
:1010F00004C026B530E021503F4F261B370B263069
:10110000310558F0E0913E01F0913F01EC0FFD1FD9
:101110002081FA01EC0FFD1F20833AE13A95F1F7A7
:1011200000C02F982E9AEBE2F1E03197F1F700C062
:10113000000001968830910509F08ECFA091400102
:10114000B0914101AC0FBD1FE0913E01F0913F0114
:10115000EC0FFD1F9C918081981751F00E94591A45
:101160006093420170934301809344019093450141
:101170002196C830D10509F06DCF8091FA018530F4
:1011800021F08091FA01811111C0609142017091AA
:10119000430180914401909145010E948F1A613171
:1011A00077428105910510F00E94CC190E942B090D
:1011B00081E0DF91CF911F910F910895209140011F
:1011C00030914101F901E80FF11D808108950F93DD
:1011D0001F93CF93DF9386E591E00E944A07C0E01A
:1011E000D0E00AE411E0E0914001F0914101EC0F00
:1011F000FD1F80810E94FC181F928F93DF93CF9375
:101200001F930F930E94E30721960F900F900F906A
:101210000F900F900F90C830D10529F7DF91CF9133
:101220001F910F9108950895089561110BC0FC015D
:101230008281882321F085EE0E94DE0E03C085EEB8
:101240000E94C30F80E090E0089581E0089581E05E
:1012500008950C9427090C94100808950C942D09F6
:101260000C942E0908950E94B8120E9432092FEFA3
:1012700084E39CE0215080409040E1F700C00000F2
:101280000C94E11AFF920F931F93CF93DF938C017D
:10129000FC01C081D18180915C01811113C08281E8
:1012A000882349F0CE010E94EA17F82E682FCE015C
:1012B0000E948F1704C0CE010E94BE17F82EBE01F7
:1012C0008F2D04C0CE010E94EA17BE010E94C40AFD
:1012D000EC01B8010E942909882309F44DC1C63DDB
:1012E000FCE5DF0709F4AFC0B0F4C531ECE5DE077B
:1012F00068F4C230FCE5DF0708F053C0C1158CE587
:10130000D80701F1C130DC4529F129C1C631DC45DE
:1013100009F4FEC024C1CB3D8CE5D80791F150F40F
:10132000C73DFCE5DF0709F4B1C0C83DDC4509F461
:10133000D4C015C1CC3DECE5DE0751F1CD3DDC4517
:10134000C1F00DC1F8018281882309F415C10E9402
:10135000330912C1F8018281882309F40DC18091FB
:10136000D20181608093D20185E693E00E944A0712
:1013700003C1F8018281882309F4FEC00E948A1902
:10138000FBC0F8018281882309F4F6C080E006C022
:10139000F8018281882309F4EFC082E00E942E27A1
:1013A000EBC0F8018281882309F4DEC00E94121983
:1013B000811102C00E948A190E942F1990E0909317
:1013C000F5018093F401FE01E350FC45E231F105A3
:1013D00030F4EA5AFF4F8091F4010C94162C80915E
:1013E000F401816027C0826025C0846023C08061D1
:1013F00021C080621FC080641DC080681BC08460E3
:10140000886018C08E7F16C08D7F14C08B7F12C07D
:101410008F7E10C08F7D0EC08F7B0CC08F770AC06F
:101420008B7F877F07C087FB222720F991E09227D7
:1014300090FB87F98093F4018091F4010E943319A5
:101440000E94B81299C0F8018281882351F010924D
:101450004B010E944D1A909348018093470182E00E
:1014600022C080914B0181110FC080914701909162
:1014700048010E94651A883C910530F486E20E947A
:10148000DE0E86E20E94C30F82E024C0F801828152
:10149000882361F010924C010E944D1A90934A01EA
:1014A0008093490180E20E94F70F66C080914C0151
:1014B00081110FC08091490190914A010E94651AE3
:1014C000883C910530F487E20E94DE0E87E20E949C
:1014D000C30F80E20E94FE0F4FC0F801828181118C
:1014E000D9CF80914C018111F4CF80914901909125
:1014F0004A010E94651A883C910558F780E20E94D3
:10150000FE0F88E20E94DE0E88E20E94C30F34C004
:101510000E94BB18282FF801828140910001509150
:101520000101882379F02A7A91E009F490E0909300
:101530004601911102C069E201C065E3CA010E943F
:10154000BE190AC080914601811102C069E201C042
:1015500065E3CA010E94C0190E9488180DC081E08D
:1015600080934B0180934C01C801DF91CF911F9173
:101570000F91FF900C94250980E0DF91CF911F918E
:101580000F91FF9008950895E72FF0E098E0899F6C
:10159000E00DF11D112483E0EE0FFF1F8A95E1F7A6
:1015A000E60FF11DEE0FFF1FEB59FE4F8591949151
:1015B0000895880F991FFC01EB59FE4F8591949176
:1015C0000895CF93DF930E94C40A0E94920CEC010D
:1015D000811520E59207F0F5811530E4930708F0B6
:1015E00020C1883E910500F5803E910508F096C126
:1015F000883A910570F4853A910508F09AC08130D7
:10160000910509F48BC108F43CC1049708F086C128
:1016100038C18F3B910508F497C0803C910508F4D0
:1016200030C1805C9109EFC08115904258F4C1151A
:1016300081E0D80708F072C1C03FD10508F421C18C
:10164000D0656CC1C11590E3D90708F0E0C0CE01A8
:101650009F70D9C0811525E5920708F043C0811518
:1016600034E5930708F0F4C0811542E5940708F5C6
:10167000C11581E5D80708F0D7C02C2F237081E071
:1016800090E002C0880F991F2A95E2F79C689E019E
:1016900074E0369527957A95E1F72370922BCF70F9
:1016A000C695C69530E2C39FE0011124C82BD92B03
:1016B00035C1869586959E0123703327C115D34584
:1016C00008F0B7C040E2849FC0011124C1E0D0E01F
:1016D00002C0CC0FDD1F2A95E2F78C2B9D2BEC016D
:1016E000DC681CC1811529E5920778F4811538E57D
:1016F000930708F0B2C08115964508F0C2C0CF71BB
:10170000DD27DC2FCC27D06209C1C1158AE5D807B7
:1017100008F4A8C0CE0190568115904208F0B1C0DF
:101720008D2F8F710E940F0DDD27D0628F71D82B06
:10173000F5C0853A910509F4A7C0863A910509F0EC
:10174000A6C0C2E8D0E4EAC0883A910509F4A2C074
:10175000893A910509F4A1C08A3A910509F4A0C01B
:101760008B3A910509F49FC08C3A910509F49EC00B
:101770008B3B910509F49DC08C3B910509F49CC0FD
:101780008D3A910509F49BC0803B910509F49AC0FC
:101790008E3A910509F499C08F3A910509F498C0E1
:1017A000813B910509F497C0823B910509F496C0ED
:1017B000833B910509F495C0843B910509F494C0DD
:1017C000853B910509F493C0863B910509F492C0CD
:1017D000873B910509F491C0883B910509F490C0BD
:1017E000893B910509F48FC08D3B910509F48EC0AA
:1017F0008E3B910509F48DC08A3B910509F48CC09C
:10180000C0E0D4E48BC00E94D90AEC0187C0CE01AD
:101810009927D3FF03C0EC01D86C80C0EC01D06CD9
:101820007DC0DF70D06A7AC0DC2FCC27C16FD06A50
:1018300075C040E2849FC0011124C1E0D0E002C025
:10184000CC0FDD1F2A95E2F7C82BD92BDA6866C0CA
:10185000D82FCC27C46FD06A61C0D82FCC27C06FD7
:10186000D06A5CC08C2F8F70806E90E0906A24E00C
:10187000D695C7952A95E1F7CF709C013C2BE901DD
:101880004DC0C0E0D0E04AC0C1E8D0E447C0C3E8E2
:10189000D0E444C0C2EED4E441C0C9EED4E43EC0BA
:1018A000CAEED4E43BC0C5EBD4E438C0C6EBD4E404
:1018B00035C0C3EBD4E432C0C4EBD4E42FC0C7EBD3
:1018C000D4E42CC0CCECD4E429C0CDECD4E426C0C4
:1018D000C3E8D5E423C0CAE8D5E420C0C2E9D5E412
:1018E0001DC0C4E9D5E41AC0C1E2D6E417C0C3E202
:1018F000D6E414C0C4E2D6E411C0C5E2D6E40EC0FA
:10190000C6E2D6E40BC0C7E2D6E408C0CFE6D4E412
:1019100005C0C0E7D4E402C0CAE2D6E4CE01DF913C
:10192000CF9108958238910549F1B0F48133910542
:1019300009F458C048F48932910509F44EC08A323E
:10194000910509F454C008958533910509F440C008
:101950008933910599F00895833E910529F138F472
:10196000803E910591F0823E9105A1F00895863E5A
:101970009105F9F0873E910531F108952091F40128
:1019800020FD3AC021FD38C008958091F40180FD0A
:1019900035C032C08091F40182FF32C08091F401E1
:1019A00084FD30C083EE39C08091F40182FD28C0EF
:1019B000F5CF8091F40183FF27C08091F40184FD6D
:1019C00021C087EE2AC08091F40183FD1DC0F5CFB0
:1019D0008091F40185FD1AC01BC08091F40185FD42
:1019E00017C014C08091F40186FD14C015C0809109
:1019F000F40186FD11C00EC080EE0FC089E30DC05A
:101A000082EE0BC080E009C086EE07C089E205C007
:101A100085E303C08AE201C081E390E008959091DC
:101A2000F40192FF0DC0282F2871283019F4877F08
:101A3000846006C0282F2471243011F48B7F8860C5
:101A400093FF0DC0282F2871283119F4877E8461F7
:101A500006C0282F2471243111F48B7E886194FDF7
:101A6000877E089590935201809351010895E091EB
:101A70005101F0915201309721F00190F081E02D59
:101A8000099480E00895EF92FF920F931F93CF93F4
:101A9000DF93E0915101F09152013097B1F18C0147
:101AA0000280F381E02D09958091D20182FF2DC043
:101AB00080FF04C08EE793E00E944A07E80118E027
:101AC00088E7E82E83E0F82E8091D20180FF0BC0DA
:101AD00088811F928F93FF92EF920E94E3070F90ED
:101AE0000F900F900F90115021961111EDCF809112
:101AF000D20180FF0AC086E793E0DF91CF911F916A
:101B00000F91FF90EF900C944A07DF91CF911F91B6
:101B10000F91FF90EF900895E0915101F0915201E3
:101B2000309739F022E0DC012C930480F581E02D20
:101B30000994089520914F01309150018217930725
:101B400071F09093500180934F01E0915101F09119
:101B50005201309721F00680F781E02D0994089515
:101B600020914D0130914E018217930771F09093AF
:101B70004E0180934D01E0915101F0915201309757
:101B800021F00084F185E02D0994089585B78068DF
:101B900085BF85B7806885BF089508950E94C60DEA
:101BA0000C94CD0D81E008950E94441A0E94EC0728
:101BB0000C94491BCF93C82F8091D20182FF1EC085
:101BC00080FF04C087E993E00E944A078091D20118
:101BD00080FF0CC01F92CF9382E993E09F938F9375
:101BE0000E94E3070F900F900F900F908091D20109
:101BF00080FF04C080E993E00E944A078C2FCF91B8
:101C00000C943009CF92DF92EF92FF920F931F93C3
:101C1000CF93DF93CDB7DEB72B970FB6F894DEBF27
:101C20000FBECDBF0E9412080E94D20D811111C0BB
:101C30008FEF89838A831B820E944D1A8160782FDF
:101C40009D838C8349815A816B818D810E94AA0E6C
:101C500056C084E5C82E81E0D82E00E010E0E02ECA
:101C6000802F0E94DE08F60141916F01F42EF826C4
:101C700031F40F5F1F4F0830110589F7D9CF9091CC
:101C8000D20191FF04C08B870E94E7088B8520E07A
:101C900030E04F2D50E0922FBA01022E02C0759510
:101CA00067950A94E2F760FF24C02E83EF8221E05B
:101CB00030E0690102C0CC0CDD1C9A95E2F790E09F
:101CC0008C219D21892B09F420E028870E944D1A40
:101CD0008160782F9A8789874E815F8168858A85A0
:101CE0000E94AA0EF801EC5AFE4F8081C826C082DD
:101CF00006C02F5F3F4F2830310569F6BACF0E94EA
:101D0000761E109153010E94370D1817A1F00E9402
:101D1000370D809353012B960FB6F894DEBF0FBE9C
:101D2000CDBFDF91CF911F910F91FF90EF90DF908A
:101D3000CF900C94DA0D2B960FB6F894DEBF0FBE41
:101D4000CDBFDF91CF911F910F91FF90EF90DF906A
:101D5000CF900895CF93DF93CDB7DEB72B970FB613
:101D6000F894DEBF0FBECDBF4F83588769877A874F
:101D70008B87DE01119686E0FD0111928A95E9F7C5
:101D800085E0FE01379601900D928A95E1F7498131
:101D90005A816B817C818D819E810E945F152B967B
:101DA0000FB6F894DEBF0FBECDBFDF91CF9108957F
:101DB000FC01808191810E9429180895CF93DF93BF
:101DC0001F92CDB7DEB7882309F4D9C0682F8CEFF6
:101DD000860F813A70F4862F69830E94D822698128
:101DE0008111CDC080910001909101010E94BE1926
:101DF0000CC080E2860F883068F4677081E001C013
:101E0000880F6A95EAF70E94BE180F90DF91CF9174
:101E10000C9488188BE5860F833088F4653A29F096
:101E2000663A31F083E890E005C081E890E002C0B6
:101E300082E890E00F90DF91CF910C949A0D88E5A5
:101E4000860F873108F091C0683A09F445C0693AB5
:101E500009F445C06A3A09F445C06B3A09F445C033
:101E60006C3A09F445C06B3B09F445C06C3B09F47E
:101E700045C06D3A09F445C0603B09F445C06E3A6F
:101E800009F445C06F3A09F445C0613B09F445C007
:101E9000623B09F445C0633B09F445C0643B09F467
:101EA00045C0653B09F445C0663B09F445C0673B46
:101EB00009F445C0683B09F445C0693B09F445C0D5
:101EC0006D3B09F445C06E3B09F445C06A3B09F41B
:101ED00045C080E090E044C082EE90E041C089EED1
:101EE00090E03EC08AEE90E03BC085EB90E038C0C9
:101EF00086EB90E035C083EB90E032C084EB90E05D
:101F00002FC087EB90E02CC08CEC90E029C08DECCA
:101F100090E026C083E891E023C08AE891E020C0E9
:101F200082E991E01DC084E991E01AC081E292E06B
:101F300017C083E292E014C084E292E011C085E20F
:101F400092E00EC086E292E00BC087E292E008C009
:101F50008FE690E005C080E790E002C08AE292E060
:101F60000F90DF91CF910C94B00D603F40F0862F21
:101F70000E94FC1C0F90DF91CF910C94E91D0F90F3
:101F8000DF91CF910895882389F19CEF980F913AC2
:101F900040F4682F80910001909101010E94C019C6
:101FA0000DC090E2980F983058F4877091E001C00E
:101FB000990F8A95EAF7892F0E94C4180C94881803
:101FC0009BE5980F933020F480E090E00C949A0DFC
:101FD00098E5980F973120F480E090E00C94B00DD4
:101FE000803F20F00E94641D0C94E91D0895882311
:101FF00021F00E94BE180C9488180895882321F0BF
:102000000E94C4180C94881808954F925F926F92A2
:102010007F92BF92CF92DF92EF92FF920F931F9326
:10202000CF93DF937C01D62FC72FFC01058102954A
:102030000F70128111110E94DB180E9481188823F1
:1020400079F0112369F080E28D0F883048F082E04A
:102050000E946A180E94811891E0B82EB92601C02A
:10206000B12CCC2EC2948FE0C822D12CF601E859B5
:10207000FF4F0C94162C8C2F807FCF70882311F08B
:10208000C295C07F112399F0CC2309F4CFC180E21F
:102090008D0F883010F0D11104C08C2F0E94BE1813
:1020A00003C08C2F0E94CE180E948818BFC18D2FAC
:1020B0000E94C30FCC2309F4DEC180E28D0F88306B
:1020C00010F0D11104C08C2F0E94C41803C08C2FB3
:1020D0000E94D4180E948818CEC18C2F807FCF70A8
:1020E000803211F0C295C07FDD2319F0D130C9F0E4
:1020F00022C0112371F0002341F0013031F40E941D
:10210000F4188C2B0E94EE18B6C10E94F4188C2B88
:1021100046C1002319F0013009F4ADC10E94F11845
:1021200018C0112321F0063008F0A5C10EC00530FB
:1021300008F0A1C10EC0112351F0002331F0F701C6
:10214000858180FF73C18F7085838C2F28C1011119
:102150007EC18C2F2AC18C2F86958695837090E046
:10216000009719F0019761F086C1112321F08D2F9E
:102170009C2F937002C080E090E00E949A0D8BC16A
:10218000112321F08D2F9C2F937002C080E090E0EE
:102190000E94B00D80C11123F9F0D53F51F0D63F18
:1021A00071F0D43FA9F48091EE019091EF0181602C
:1021B0000BC08091EE019091EF01826005C080918B
:1021C000EE019091EF0184609093EF018093EE0116
:1021D0008D2F0E94FC1C1EC0D53F51F0D63F71F0E0
:1021E000D43FA9F48091EE019091EF018E7F0BC056
:1021F0008091EE019091EF018D7F05C08091EE01FD
:102200009091EF018B7F9093EF018093EE018D2FE2
:102210000E94641D0E94E91D3EC18C2F837009F04D
:1022200050C0111134C18D2F829586958770880F0B
:10223000880F9D2F9F70492E512C612C712C082ED8
:1022400004C0440C551C661C771C0A94D2F7D4FFBA
:1022500014C00FE010E020E030E0B901A80104C094
:10226000440F551F661F771F8A95D2F7CB01BA011D
:10227000609570958095909503C060E070E0CB010B
:10228000C695C695C370D0E0C230D10561F0C330A9
:10229000D10581F06429752986299729219771F044
:1022A0000E94A416F4C064297529862997290E94E2
:1022B000B616EDC00E94A416C301B2010E94921688
:1022C000E6C0112319F08C2F817001C086958823F8
:1022D00009F4DDC08D2F829586958770880F880F51
:1022E0009D2F9F70492E512C612C712C082E04C0FB
:1022F000440C551C661C771C0A94D2F7D4FF14C0FA
:102300000FE010E020E030E0B901A80104C0440F64
:10231000551F661F771F8A95D2F7CB01BA016095CA
:1023200070958095909503C060E070E0CB01C695F4
:10233000C695C3704C2F50E04230510569F04330D0
:10234000510589F06429752986299729413051055D
:1023500071F00E946A179BC0642975298629972904
:102360000E947C1794C00E946A17C301B2010E94A8
:1023700058178DC08D2F90E0FC01E05EF109E5312A
:10238000F10508F04FC0E858FF4F0C94162CDF7091
:102390008C2F8F71112331F00E94F1168D2F0E9426
:1023A000F70F69C00E9412178D2F0E94FE0F63C0A5
:1023B000112341F0053008F05EC08C2F8F710E9410
:1023C000371759C0063008F056C0F7CF112339F03F
:1023D0008C2F8F710E94F1164EC01123C9F38C2FE0
:1023E0008F710E94121747C0112329F08C2F8F7113
:1023F0000E94DC1640C00E94D7163DC0112349F050
:10240000CF718C2F0E94F11663E08C2F0E9461180F
:1024100032C081E00E946A18023068F182E00E94B6
:102420006A1829C0112331F0002391F28D2F0E94E8
:10243000DE0E21C0002399F2D93349F45FEF67EE35
:1024400073E0515060407040E1F700C000008D2FF4
:102450000E94C30F10C04C2F4F706D2FC7010E94F8
:1024600015090E94031617C04C2F4F706D2FC7011E
:102470000E94C30A10C088E0C816D10441F05CF085
:10248000EAE0CE1AD108F2E0CF16D10420F40E947F
:10249000370D0E943009BB20F1F00E945D1880FDCD
:1024A0001AC0F70112820E9457180E94F116C70144
:1024B0000E9479120E945718DF91CF911F910F91BE
:1024C000FF90EF90DF90CF90BF907F906F905F90E4
:1024D0004F900C941217DF91CF911F910F91FF90A5
:1024E000EF90DF90CF90BF907F906F905F904F9074
:1024F00008950F931F93CF93DF93EC018881998107
:102500002B813C81232BB9F09F3F11F48F3F99F031
:10251000CE010E944209882371F0688179818A8105
:102520000E9434188C010E948E170E948F16B801E9
:10253000CE010E940510DF91CF911F910F91089558
:102540000E94DB180E94EB1880910001909101011C
:102550000E94C2190E9488180E94111F0E94E91D42
:1025600080E090E00E949A0D80E090E00C94B00D25
:102570000E94CB180C94A0120E942918E92FE29512
:10258000EF70F0E03297EE30F105B0F4E357FF4F13
:102590000C94162C803F91F018F4803E68F40EC025
:1025A000843F51F40BC0803E48F0813F29F406C0BF
:1025B00093FB882780F9089580E0089581E00895CD
:1025C000CF93DF9300D000D01F92CDB7DEB70F902E
:1025D0000F900F900F900F90DF91CF910895CF93B0
:1025E000DF9300D000D000D0CDB7DEB726960FB66F
:1025F000F894DEBF0FBECDBFDF91CF9108951F933A
:10260000CF93DF93C0915D0116E080915E01C81702
:1026100099F0D0E01C9FF0011D9FF00D1124E15AAC
:10262000FE4F4081518162817381848195810E9436
:10263000EF122196C770E9CFDF91CF911F910895D6
:1026400040918F01509190016091910170919201A0
:1026500080919301909194010C94EF1280919401D8
:1026600082958F7009F054C080919101882309F4FC
:102670004FC080915D01A0915E0160918F017091CA
:1026800090014091920150919301B6E08A1709F4AC
:102690003FC090E041155105C1F17F3F11F46F3FFC
:1026A000A1F1B89FF001B99FF00D1124E15AFE4F3E
:1026B000218172132AC02081621327C02281211137
:1026C00024C0238134812417350710F421503109A7
:1026D000241B350B283C3105C0F4209194012F7048
:1026E00020612093940126E0289FF001299FF00D9E
:1026F0001124EC59FE4F80818F70806180838FE8B8
:1027000091E00E9479120C94FF1201968770BECF5F
:102710000895CF92DF92EF92FF920F931F93CF9382
:10272000DF93CDB7DEB762970FB6F894DEBF0FBE6A
:10273000CDBF8C0185E0F801DE011D9601900D9260
:102740008A95E1F7D8014C9111965C9111971296F8
:102750006C9112971396CD90DC90149730918F0165
:10276000709190018091920190919301009709F4EA
:102770006BC17F3F19F43F3F09F466C1E0909101BE
:10278000EE2009F4C0C020919401C816D90628F0A3
:10279000F601E81BF90BCF0104C0809590958C0DD4
:1027A0009D1DFF24F394883C910578F0F12C207F47
:1027B00009F0C6C07C2DD98AC88A89890E94E01296
:1027C0008FE891E00E947912B1C0822F807F09F0DA
:1027D00046C0751314C0341312C0611110C02F709D
:1027E0002061209394010E9420138FE891E00E94C1
:1027F000791280919401D80115968C932EC0CD2822
:1028000019F15F3F11F44F3FF9F0F62E61111CC032
:1028100080915D0120915E0136E0821709F45AC073
:1028200090E0389FF001399FF00D1124E15AFE4FDE
:102830007181571306C07081471303C072817111F3
:1028400003C001968770E9CFF62E662309F427C1ED
:1028500080919401816080939401F12C20C17513C3
:1028600008C0341306C0611104C080919401D801DE
:10287000C3C04D875E878D859E856A8B0E94BC1282
:102880006A898823E1F16623D1F120919401822F96
:1028900082958F7090E0029774F080918F019091F3
:1028A000900198878F831986DB86CA862C87CE0194
:1028B00007960E94791286E0F801AFE8B1E0019036
:1028C0000D928A95E1F70E942E130E942013FF2497
:1028D000F394E5C04D875E878D859E850E942918FB
:1028E000292F22952F7030E0223031050CF0CBC01B
:1028F0009F7009F0C5C0805E883008F4D0C0C80160
:102900000E947912E4CFC816D90608F453C0F60124
:10291000E81BF90BCF01883C910508F450C0F12C5D
:102920007C2DD98AC88A89890E94E012EFE8F1E0FB
:1029300086E0DF011D928A95E9F70E942013AFC05F
:10294000751314C0341312C0611110C0809194012A
:10295000F8018583C8010E94791286E0EFE8F1E072
:10296000DF011D928A95E9F7FE2C99C04D875E879D
:102970008D859E856A8B0E94BC126A89882309F422
:10298000BECF662309F4BBCF20919401822F82959C
:102990008F7090E002970CF48ECF80918F01909110
:1029A00090019A8389831B82DD82CC822E83CE01A3
:1029B00001967FCF809590958C0D9D1DACCFF62E06
:1029C000662309F49CCF75132EC034132CC02091BC
:1029D000940120FD1FC0822F82958F70D9F0D801FD
:1029E00015962C9315978F3049F08F5F982F9295FD
:1029F000907F822F8F70892B15968C93C8010E942F
:102A0000791286E0F801AFE8B1E001900D928A9565
:102A1000E1F793CF86E0F801AFE8B1E001900D92C5
:102A20008A95E1F73CC04D875E878D859E850E9423
:102A3000BC12811140CF80919401816080939401F8
:102A4000C8010E9479122BC0662309F458CF4D8724
:102A50005E878D859E850E94BC12F82E882309F41E
:102A60004ECF86E0F801AFE8B1E001900D928A9573
:102A7000E1F78FE891E00E94D80E0E942E135DCFFF
:102A8000811139CF0CC0243031050CF038CF9F7044
:102A900009F431CFF8019581907F09F02CCF8F2D6B
:102AA00062960FB6F894DEBF0FBECDBFDF91CF9117
:102AB0001F910F91FF90EF90DF90CF9008951F939B
:102AC000CF93DF93CDB7DEB72C970FB6F894DEBF68
:102AD0000FBECDBF4F83588769877A878B879C87C6
:102AE000CE0107960E948913882369F08F8198850B
:102AF0002A853B85232BF1F19F3F09F063C08F3F6F
:102B000009F060C037C086E0FE013796DE011196FD
:102B100001900D928A95E1F76F817885EA85FB85B2
:102B2000309741F17F3F11F46F3F21F120915E0119
:102B300030E0C90101968770992740915D0150E00E
:102B40008417950709F447C069837A83FD83EC8372
:102B500096E0929FD001939FB00D1124A15ABE4FD1
:102B6000FE01319601900D929A95E1F780935E01F6
:102B70000E94FF1216E080915D0190915E0189171D
:102B8000C1F1189FC0011124815A9E4F0E948913E0
:102B9000882379F1E0915D011E9FF0011124E15A33
:102BA000FE4F4081518162817381848195810E94B1
:102BB000EF1280915D0190E00196877099278093D4
:102BC0005D01D9CF4F81588569857A858B859C8534
:102BD0000E94EF12CFCF0E94B81210925E011092A5
:102BE0005D01EFE8F1E086E0DF011D928A95E9F7EB
:102BF000C1CF2C960FB6F894DEBF0FBECDBFDF91CC
:102C0000CF911F910895EF92FF920F931F93CF934F
:102C1000DF938C01892B09F46CC0F12CEE24E39432
:102C2000E8012196F8018491843740F4843008F05B
:102C300051C0813081F0823019F15BC0853709F4D1
:102C400044C0A8F19CE7980F903708F052C08F77E6
:102C50000E94C30F41C00E5F1F4FFE01C49180E26E
:102C60008C0F883048F4C7708E2D01C0880FCA952C
:102C7000EAF70E94DE1814C08C2F0E94DE0E2DC0D1
:102C80000E5F1F4FFE01C49180E28C0F883058F414
:102C9000C7708E2D01C0880FCA95EAF70E94E4180C
:102CA0000E9488181AC08C2F0E94C30F16C00E5F96
:102CB0001F4FFE01C491CC2381F08FE99FE0019763
:102CC000F1F700C00000C150F6CF0E5F1F4FFE01AC
:102CD000F49003C00E94DE0E8E018F2D882309F42C
:102CE0009FCFEFE9FFE03197F1F700C0000081507E
:102CF000F5CFDF91CF911F910F91FF90EF90089545
:102D000008950C9480160E9481166093C1017093FF
:102D1000C2018093C3019093C4010C94A012089542
:102D20000C9483160F931F930091C1011091C2015F
:102D30002091C3013091C401602B712B822B932B06
:102D40001F910F910C9483160F931F930091C10153
:102D50001091C2012091C3013091C40160237123FD
:102D6000822393231F910F910C9483160F931F932B
:102D70000091C1011091C2012091C3013091C401A1
:102D800060277127822793271F910F910C94831638
:102D900008950C94C8160E94C9166093BD017093E3
:102DA000BE018093BF019093C0010C94A01260E01B
:102DB00070E0CB010C94CB160F931F9341E050E0D1
:102DC00060E070E08A019B0104C0000F111F221F08
:102DD000331F8A95D2F7C901B8011F910F910C9446
:102DE000CB160F931F9341E050E060E070E004C009
:102DF000440F551F661F771F8A95D2F78091BD013A
:102E00009091BE01A091BF01B091C0018A019B01C8
:102E1000082B192B2A2B3B2BC901B8011F910F91AD
:102E20000C94CB160F931F9341E050E060E070E0EC
:102E300004C0440F551F661F771F8A95D2F740952F
:102E40005095609570958091BD019091BE01A091C3
:102E5000BF01B091C0018A019B01082319232A23D5
:102E60003B23C901B8011F910F910C94CB160F930E
:102E70001F9341E050E060E070E004C0440F551F34
:102E8000661F771F8A95D2F78091BD019091BE0190
:102E9000A091BF01B091C0018A019B0108271927A9
:102EA0002A273B27C901B8011F910F910C94CB161B
:102EB0000F931F930091BD011091BE012091BF019E
:102EC0003091C001602B712B822B932B1F910F919E
:102ED0000C94CB160F931F930091BD011091BE016E
:102EE0002091BF013091C00160237123822393237D
:102EF0001F910F910C94CB160F931F930091BD015E
:102F00001091BE012091BF013091C001602771274F
:102F1000822793271F910F910C94CB16089528E0D8
:102F2000929F800D1124A82FA695A695A69587702F
:102F300051E001C0550F8A95EAF785E0A89FD001BE
:102F4000112420E030E070E0F901EA0FFB1FEB569E
:102F5000FE4F4081CB01022E02C0969587950A94C0
:102F6000E2F78170992781958427852384278083C0
:102F70002F5F3F4F2530310539F7089528E0929FA4
:102F8000800D1124682F669566956695982F977029
:102F900085E0689FB001112440E050E080E0FA0134
:102FA000E60FF71FEB56FE4F208130E0092E02C0DE
:102FB000369527950A94E2F721703327042E01C035
:102FC000220F0A94EAF7822B4F5F5F4F453051057D
:102FD00031F70895CF92DF92EF92FF920F931F93F4
:102FE000CF93DF938C01C090C101D090C201E090DB
:102FF000C301F090C4018091BD019091BE01A091E8
:10300000BF01B091C001C82AD92AEA2AFB2ACFE120
:10301000D0E0D701C6010C2E04C0B695A7959795B0
:1030200087950A94D2F780FF06C0B8018C2F0E94C2
:10303000E10A019721F4219760F780E001C08C2F0D
:10304000DF91CF911F910F91FF90EF90DF90CF9084
:103050000895CF93DF93EC010E94EA17BE010E940E
:10306000E10ADF91CF9108951F93CF93DF93EB0196
:1030700090915C01992321F0CB010E94291813C083
:10308000882349F0CB010E94EA17182F682FCE0140
:103090000E948F1704C0CB010E94BE17182FBE01DB
:1030A000812F0E94E10ADF91CF911F9108958091B5
:1030B000C50185958595859508958091C501877091
:1030C000089598E0899F90011124262B2093C50133
:1030D0000C94F1162091C501809582238093C5013F
:1030E000982F977069F430E0482F082E000C550B8C
:1030F0002417350729F08595859585950C94121729
:1031000008959091C501977081E009F480E00895D9
:10311000E0910001F09101018091D1018083E09163
:103120000001F091010190818091D001892B808371
:10313000E0910001F091010190818091CF01892BF4
:1031400080838091C601882381F0E0910001F09195
:1031500001019081892B8083809100019091010170
:103160000E948C1981111092C601809100019091EA
:1031700001010C94430D8091D10108959091D101EA
:10318000892B8093D101089580959091D101892355
:103190008093D10108951092D10108959091D001AA
:1031A000892B8093D001089580959091D001892337
:1031B0008093D00108951092D00108959091CF018D
:1031C000892B8093CF01089580959091CF01892319
:1031D0008093CF0108951092CF0108958093C60186
:1031E00008951092C60108958091C60108959093A4
:1031F0002D0180932C0108958295982F9C7C392F66
:1032000036953695282F237344E0249FC00111245E
:10321000932F982B292F2A7A2695892F8575880F29
:10322000822B089580E090E00E94382C21E08D3EB2
:103230009E4F09F020E0822F089582E090E00C94E8
:10324000302C682F82E090E00C943E2C83E090E0DC
:103250000C94302C682F83E090E00C943E2C84E09A
:1032600090E00C94302C682F84E090E00C943E2C7D
:10327000AB01BC018FE090E00C94502CAB01BC0181
:1032800083E190E00C94502C60E070E0CB010C9452
:103290003E1960E070E0CB010E9438190C9444198B
:1032A0006DEE7EEF80E090E00E945C2C60E082E0BA
:1032B00090E00E943E2C60E083E090E00E943E2C73
:1032C0001092C1011092C2011092C3011092C40168
:1032D00060E084E090E00E943E2C60E085E090E0B9
:1032E0000E943E2C60E086E090E00E943E2C6FEF52
:1032F00087E090E00E943E2C40E050E0BA0188E078
:1033000090E00E94502C60E08DE090E00E943E2C06
:103310000C9449190C945019FC01329697E080E006
:10332000915029F021912223D9F38F5FF9CF08958D
:103330009C01FC0132969FEF80E04191461789F095
:103340009F3F19F4411101C0982F8F5F8630A9F774
:103350009F3F39F0F901E90FF11D97FDFA9562835E
:1033600008950895FC01329608962081261301C025
:1033700010823196E817F907C1F708950C9498194F
:103380000C94B219029626E0FC0111922A95E9F7F5
:10339000089508950C94C9190E94CA198091FA01E0
:1033A000843049F11092D30120E488E190E00FB617
:1033B000F894A895809360000FBE2093600080E091
:1033C0000E9430090E94CA1983B7817F846083BF3D
:1033D00083B7816083BF7894889583B78E7F83BFDE
:1033E0000FB6F894A8958091600088618093600082
:1033F000109260000FBE0895CF930E9413090E949F
:1034000012080E941409C0E08C2F0E94DE0881116E
:1034100004C0CF5FC830C1F701C081E0CF910895EB
:1034200008950C94101A0E94B8120E94370D0E9441
:1034300030090C94111A1F920F920FB60F9211249B
:103440008F939F93AF93BF938091D301811113C04A
:103450008091F0019091F101A091F201B091F301FE
:103460004196A11DB11D8093F0019093F101A093AD
:10347000F201B093F301BF91AF919F918F910F90A3
:103480000FBE0F901F90189582E084BD93E095BD0C
:103490009AEF97BD80936E0008952FB7F8948091AE
:1034A000F0019091F101A091F201B091F3012FBFD1
:1034B00008952FB7F8946091F0017091F101809117
:1034C000F2019091F3012FBF0895CF92DF92EF9216
:1034D000FF920F931F932FB7F8944091F0015091F2
:1034E000F1016091F2017091F3012FBF6A017B013C
:1034F000EE24FF248C0120E030E0C016D106E20665
:10350000F30610F4415051099A01281B390BC901E7
:103510001F910F91FF90EF90DF90CF900895CF9281
:10352000DF92EF92FF920F931F932FB7F894C09002
:10353000F001D090F101E090F201F090F3012FBF83
:1035400097018601061B170B280B390BC616D706E9
:10355000E806F90618F0C901B80106C0C901B801AA
:1035600061507109810991091F910F91FF90EF90AE
:10357000DF90CF90089578941F920F920FB60F921C
:1035800011248F939F93AF93BF938091F0019091FB
:10359000F101A091F201B091F3010196A11DB11DBD
:1035A0008093F0019093F101A093F201B093F301A5
:1035B000BF91AF919F918F910F900FBE0F901F9071
:1035C000189581E08093E00080E28093D80010920B
:1035D000C9008FE19EE40197F1F700C0000087E089
:1035E00090EBDC018093030290930402A093050208
:1035F000B09306029CE088E10FB6F894A8958093FA
:1036000060000FBE90936000FFCFCF92DF92EF92E9
:10361000FF920F931F93CF93C0E0E82EF12C8C2FD5
:103620000E94DE0800E010E0C82ED12CC601002E5A
:1036300002C0959587950A94E2F780FD06C00F5F5A
:103640001F4F0830110591F70AC0602F7C2F80E0D2
:103650000E94C40AE816F90691F781E004C0CF5F22
:10366000C830E9F680E0CF911F910F91FF90EF9065
:10367000DF90CF900895CF93C82F8CE20E94051B56
:10368000882321F08C2FCF910C94051B80E0CF91E3
:103690000895CF930E941219811102C00E948A19C5
:1036A00081EB93E00E944A07C5E6C15049F00E94B1
:1036B00012088FE39CE90197F1F700C00000F5CFF5
:1036C0008AEA93E00E944A0789E20E943B1B81112B
:1036D0000FC18AE20E943B1B81110E948A1985E07A
:1036E0000E943B1B81110E94E11A0E941D198093C8
:1036F000D20187E00E943B1B8823A9F18BE10E9445
:103700003B1B882351F08091D20181FB222720F9B5
:1037100091E0922790FB81F90EC08EE00E943B1B46
:10372000882361F08091D20182FB222720F991E069
:10373000922790FB82F98093D20115C080E10E940C
:103740003B1B9091D201882341F093FB222720F963
:1037500081E0822780FB93F904C0892F809580FB4C
:1037600090F99093D2018091D2010E9421190E9478
:103770002F1990E09093F5018093F40180EE0E9460
:103780003B1B882341F08091F401982F909590FB8A
:1037900080F98093F40189E30E943B1B882359F050
:1037A0008091F40181FB222720F991E0922790FB80
:1037B00081F98093F40182EE0E943B1B882359F02B
:1037C0008091F40182FB222720F991E0922790FB5F
:1037D00082F98093F40186EE0E943B1B882359F006
:1037E0008091F40183FB222720F991E0922790FB3E
:1037F00083F98093F40183EE0E943B1B882359F0E8
:103800008091F40184FB222720F991E0922790FB1C
:1038100084F98093F40185E30E943B1B882359F0CF
:103820008091F40185FB222720F991E0922790FBFB
:1038300085F98093F40181E30E943B1B882359F0B2
:103840008091F40186FB222720F991E0922790FBDA
:1038500086F98093F40181E10E943B1B882359F093
:103860008091F40187FB222720F991E0922790FBB9
:1038700087F98093F4018091F4010E94331987E263
:103880000E943B1BC82F8EE10E943B1B8111C2602E
:103890008FE10E943B1B8111C46080E20E943B1BB0
:1038A0008111C86081E20E943B1B8111C06182E2EC
:1038B0000E943B1B8111C06283E20E943B1B81116D
:1038C000C06484E20E943B1B882311F0C06802C0E0
:1038D000CC2329F08C2F0E942A196C2F03C00E9440
:1038E0002619682F70E080E090E0CF910C9490163C
:1038F000CF9108958091D60180FF0BC060910501A2
:1039000085E0689FB0011124759567957595679559
:103910002BC081FF09C06091050185E0689FB0015F
:1039200011247595679520C082FF07C0609105013D
:1039300085E0689FB001112417C09091D7019923A9
:10394000D1F060910401961788F72091050185E078
:10395000289F90011124929FA001939F500D112444
:1039600070E0CA010E94022C6038710540F46115B4
:10397000710539F002C065E070E0862F08958FE789
:10398000089581E008958091D60180FF08C060917C
:10399000030170E0759567957595679521C081FF66
:1039A00006C06091030170E07595679519C082FFAC
:1039B00004C06091030170E010C09091D701992379
:1039C000C1F0609102019617A0F780910301899FD1
:1039D000C001112470E00E94022C6038710528F4A7
:1039E0006115710521F0862F08958FE7089581E014
:1039F000089561E070E0F4CF803F21F40E947A1CCA
:103A0000819504C0813F29F40E947A1C8093DB01D8
:103A10000895823F21F40E947A1C819504C0833F5F
:103A200029F40E947A1C8093DA010895893F19F4E1
:103A30000E94C31C05C08A3F31F40E94C31C8195BB
:103A40008093DC0108958B3F21F40E94C31C819573
:103A500004C08C3F29F40E94C31C8093DD010895AB
:103A6000843F21F48091D901816017C0853F21F402
:103A70008091D901826011C0863F21F48091D901E3
:103A800084600BC0873F21F48091D901886005C014
:103A9000883F31F48091D90180618093D9010895E4
:103AA0008D3F21F48091D60181600BC08E3F21F4BF
:103AB0008091D601826005C08F3F29F48091D601A4
:103AC00084608093D6010895803F39F48091DB01B2
:103AD00087FF6CC01092DB0169C0813F29F480919F
:103AE000DB011816BCF362C09091DA01823F29F421
:103AF00097FF5CC01092DA0159C0833F19F4191680
:103B0000CCF354C0893F41F48091DC0118160CF0CD
:103B10004DC01092DC014AC08A3F29F48091DC013B
:103B200087FF44C0F6CF8B3F39F48091DD0187FFDA
:103B30003DC01092DD013AC08C3F29F48091DD0137
:103B40001816BCF333C0843F21F48091D9018E7FD5
:103B500017C0853F21F48091D9018D7F11C0863F28
:103B600021F48091D9018B7F0BC0873F21F4809194
:103B7000D901877F05C0883F31F48091D9018F7EBC
:103B80008093D90113C08D3F21F48091D6018E7F9F
:103B90000BC08E3F21F48091D6018D7F05C08F3FF1
:103BA00029F48091D6018B7F8093D6018091DA0130
:103BB00081110EC08091DB0181110AC08091DC016E
:103BC000811106C08091DD01811102C01092D701E0
:103BD00008958091D20183FF7EC08DEE93E00E9414
:103BE0004A078091D9011F928F9388EE93E09F93AB
:103BF0008F930E94E30786EE93E00E944A0780912C
:103C0000DA01282F082E000C330B3F938F9383EE9D
:103C100093E09F938F930E94E30781EE93E00E94CD
:103C20004A078091DB01282F082E000C330B3F93AD
:103C30008F938EED93E09F938F930E94E3078CED1B
:103C400093E00E944A078091DC01282F082E000C87
:103C5000330B3F938F9389ED93E09F938F930E9453
:103C6000E30787ED93E00E944A078091DD01282F4A
:103C7000082E000C330B3F938F9384ED93E09F93BA
:103C80008F930E94E30781ED93E00E944A078091A1
:103C9000D7011F928F938EEC93E09F938F930E9496
:103CA000E3078CEC93E00E944A078091D6011F92B3
:103CB0008F9389EC93E09F938F930E94E30786ECA8
:103CC00093E00E944A078DB79EB74C960FB6F894C2
:103CD0009EBF0FBE8DBF88ED91E00E948C0D0E94AB
:103CE0004D1A9093D5018093D40108951F93CF93DB
:103CF000DF938091D4019091D5010E94651AAC01A7
:103D00009091D701992321F02091060130E006C05F
:103D1000209107018AE0289F900111244217530740
:103D200008F47BC08091DA01C091DB01D091DC0105
:103D30001091DD01811107C0C1116BC0D11169C0A3
:103D4000111167C06AC09F3F19F09F5F9093D70120
:103D5000181624F40E947A1C8093DA018091DA010B
:103D600087FF05C00E947A1C81958093DA011C169A
:103D700024F40E947A1C8093DB018091DB0187FF91
:103D800005C00E947A1C81958093DB013091DA0195
:103D90003323E1F02091DB012223C1F045EB340312
:103DA000C0011124892F990F990B009709F481E024
:103DB0008093DA0135EB2303C0011124892F990F79
:103DC000990B009709F481E08093DB011D1624F420
:103DD0000E94C31C8093DC018091DC0187FF05C039
:103DE0000E94C31C81958093DC01111624F40E946B
:103DF000C31C8093DD018091DD0187FF05C00E9417
:103E0000C31C81958093DD01DF91CF911F910C94AC
:103E1000E91D9F3F09F099CFA1CFDF91CF911F916D
:103E20000895E8EDF1E086E0DF011D928A95E9F75B
:103E30001092D7011092D601089580E196E00E9479
:103E40004A071F9281E08F931F9285E08F9382EC47
:103E500095E09F938F930E94E3070F900F900F9030
:103E60000F900F900F9008958330E9F128F481307E
:103E700061F0823009F10895853009F462C008F4D8
:103E800049C0863009F474C0089580910701262F37
:103E900030E0280F311D2F3F310524F4680F609367
:103EA000070103C08FEF80930701809107011F92E4
:103EB0008F938BEF94E072C080910601262F30E043
:103EC000280F311D2F3F310524F4680F6093060140
:103ED00003C08FEF80930601809106011F928F939C
:103EE00089EE94E05BC080910501262F30E0280F19
:103EF000311D2F3F310524F4680F6093050103C085
:103F00008FEF80930501809105011F928F9386EDBD
:103F100094E044C080910401262F30E0280F311D29
:103F20002F3F310524F4680F6093040103C08FEF25
:103F300080930401809104011F928F9381EC94E09F
:103F40002DC080910301262F30E0280F311D2F3F17
:103F5000310524F4680F6093030103C08FEF809351
:103F60000301809103011F928F9388EA94E016C0A9
:103F700080910201262F30E0280F311D2F3F31059F
:103F800024F4680F6093020103C08FEF8093020155
:103F9000809102011F928F938DE894E09F938F93FD
:103FA0000E94E3070F900F900F900F9008958330B9
:103FB00081F128F4813059F08230D1F008958530B4
:103FC00009F449C0B8F1863009F456C008958091CB
:103FD0000701681720F4861B8093070102C0109226
:103FE0000701809107011F928F938EE794E054C0E0
:103FF00080910601681720F4861B8093060102C099
:1040000010920601809106011F928F938CE694E036
:1040100043C080910501681720F4861B8093050139
:1040200002C010920501809105011F928F9389E5CE
:1040300094E032C080910401681720F4861B8093BD
:10404000040102C010920401809104011F928F9319
:1040500084E494E021C080910301681720F4861B5A
:104060008093030102C010920301809103011F920B
:104070008F938BE294E010C080910201681720F4C6
:10408000861B8093020102C01092020180910201FE
:104090001F928F9380E194E09F938F930E94E30798
:1040A0000F900F900F900F900895CF93C82F1F92ED
:1040B0008F9385E197E09F938F930E94E30781E0C0
:1040C00090E0A0E0B0E0BC01CD0104C0660F771F16
:1040D000881F991FCA95D2F70E9490160F900F90D3
:1040E0000F900F90CF910C94B812CF938732B0F508
:1040F0008E3108F040C28E3009F4C0C100F587301F
:1041000009F48DC1A8F4863009F03BC28091D20138
:10411000817F8E7F8093D20189E998E00E944A07CF
:1041200082E39CE00E944A0781E08093DF0175C131
:10413000883009F43FC08B3009F46BC122C286314C
:1041400009F4E2C120F4803109F4ACC11AC289310A
:1041500009F4C3C18B3109F47DC113C2883309F45A
:1041600058C150F4893209F408C2853309F405C2F4
:10417000873209F402C205C2833409F4FEC128F46F
:104180008A3308F4FEC18953F9C1883409F0F9C1B2
:104190000E94B81286E19CE00E944A079FEF23ED3F
:1041A00080E3915020408040E1F700C000000E9471
:1041B000E11A33C186E39CE00E944A0788E99BE04C
:1041C0000E944A070E9426191F928F9385E99BE05F
:1041D0009F938F930E94E30783E99BE00E944A0725
:1041E0000E941D19C82F80E89BE00E944A071F9279
:1041F000CF938BE79BE09F938F930E94E30789E720
:104200009BE00E944A078FE69BE00E944A078C2FA2
:1042100081701F928F938CE69BE09F938F930E94F7
:10422000E3078AE69BE00E944A0780E69BE00E9443
:104230004A07C1FB882780F91F928F938DE59BE089
:104240009F938F930E94E3078BE59BE00E944A07B0
:104250008FE49BE00E944A07C2FB882780F91F92E7
:104260008F938CE49BE09F938F930E94E3078AE4F3
:104270009BE00E944A0781E49BE00E944A07C3FB3F
:10428000CC27C0F91F92CF938EE39BE09F938F932F
:104290000E94E3078CE39BE00E944A070E942F19CB
:1042A000C82F88E29BE00E944A071F92CF9383E2C7
:1042B0009BE09F938F930E94E30781E29BE00E9423
:1042C0004A0788E09BE00E944A078C2F81701F926A
:1042D0008F9385E09BE09F938F930E94E3078DB7B8
:1042E0009EB780960FB6F8949EBF0FBE8DBF83E039
:1042F0009BE00E944A078CEE9AE00E944A07C1FBAD
:10430000882780F91F928F9389EE9AE09F938F936D
:104310000E94E30787EE9AE00E944A0785ED9AE043
:104320000E944A07C2FB882780F91F928F9382ED73
:104330009AE09F938F930E94E30780ED9AE00E949A
:104340004A078EEB9AE00E944A07C3FB882780F950
:104350001F928F938BEB9AE09F938F930E94E307BA
:1043600089EB9AE00E944A078FEA9AE00E944A0786
:10437000C4FB882780F91F928F938CEA9AE09F9361
:104380008F930E94E3078AEA9AE00E944A0788E92D
:104390009AE00E944A07C5FB882780F91F928F93F5
:1043A00085E99AE09F938F930E94E30783E99AE05F
:1043B0000E944A0787E79AE00E944A07C6FB8827BF
:1043C00080F91F928F9384E79AE09F938F930E94C6
:1043D000E30782E79AE00E944A078AE69AE00E9491
:1043E0004A07C7FBCC27C0F91F92CF9387E69AE014
:1043F0009F938F930E94E30785E69AE00E944A0705
:104400008DB79EB74C960FB6F8949EBF0FBE8DBF6A
:1044100004C080EC98E00E944A07C1E0B7C08091D8
:10442000D201C82FC095C170C0FB80F98093D20122
:10443000CC2329F08AE09CE00E944A07A7C08DEFB8
:104440009BE00E944A078091D201897F877F8093F9
:10445000D201E3CF9091D20191FBCC27C0F981E04A
:10446000C827892FC0FB81F98093D201CC2319F092
:1044700080EF9BE027C082EE9BE0CDCF9091D201F0
:1044800092FBCC27C0F981E0C827892FC0FB82F9B5
:104490008093D201CC2319F083ED9BE013C083EC11
:1044A0009BE0B9CF9091D20193FBCC27C0F981E07A
:1044B000C827892FC0FB83F98093D201CC2351F008
:1044C00087EB9BE00E944A078091D2018160809334
:1044D000D2015CC08AEA9BE09ECF8AE898E00E9405
:1044E0004A0782E698E00E944A078CE298E00E9420
:1044F0004A0781EF97E00E944A0781EB97E00E940C
:104500004A0783E897E087CF85E797E00E944A074C
:104510000E94370D1F928F938BE597E09F938F93A7
:104520000E94E307809112011F928F9384E497E029
:104530009F938F930E94E3078091EC011F928F93CA
:1045400081E397E09F938F930E94E3070E94591A9B
:104550009F938F937F936F938AE197E09F938F93BD
:104560000E94E3078DB79EB742960FB6F8949EBFA0
:104570000FBE8DBF52CF8D5101C080E00E945520EB
:104580004CCF88EA9BE00E944A07C0E08C2FCF9175
:10459000089580E0089580E008958E518A3030F4C7
:1045A000E82FF0E0ED5EFE4F8081089580E00895F1
:1045B000CF93C82F8091DF01813071F020F08230DD
:1045C00009F44BC03FC1E0910001F09101018081ED
:1045D000823209F039C107C0E0910001F091010178
:1045E0008081823261F48C2F0E94C922811104C023
:1045F0008C2F0E9475202FC081E090E02CC08C2F62
:104600000E94CB22811126C0C431E1F070F4CB307E
:1046100081F0C031D1F40E941D1F8DE097E00E940F
:104620004A0782E08093DF0115C0C93259F0C833D0
:1046300061F489E998E00E944A0781E197E00E94CD
:104640004A0708C01092DF0101C18BE097E00E9489
:104650004A07FCC081E08170FBC0C43228F5CE312E
:1046600008F0C1C0CB30A1F1D0F4C73009F0D0C000
:104670008EE18093070182E3809306018AE08093B4
:10468000050184E18093040188E08093030188E2BE
:104690008093020181EB95E00E944A07BCC0C331C0
:1046A00049F1C431C1F0B4C0CB3409F4A6C028F438
:1046B000C93289F0C83361F0ABC0C13509F49BC081
:1046C000C23509F496C0CE3409F0A2C06AE09BC09E
:1046D0000E941D1FA0C08091DE01882319F0109256
:1046E000DE0199C08EEB95E00E944A0781E080933D
:1046F000DF01AEC088E995E00E944A0786E895E0B0
:104700000E944A07809107011F928F9383E895E0EA
:104710009F938F930E94E30781E895E00E944A07E8
:104720008FE695E00E944A07809106011F928F93C1
:104730008CE695E09F938F930E94E3078AE695E0CD
:104740000E944A078BE595E00E944A078091050187
:104750001F928F9388E595E09F938F930E94E307C4
:1047600086E595E00E944A0785E495E00E944A07A5
:10477000809104011F928F9382E495E09F938F9321
:104780000E94E30780E495E00E944A078BE295E0EF
:104790000E944A07809103011F928F9388E295E05F
:1047A0009F938F930E94E30786E295E00E944A0759
:1047B0008FE095E00E944A07809102011F928F933B
:1047C0008CE095E09F938F930E94E3078AE095E049
:1047D0000E944A078DB79EB748960FB6F8949EBFC1
:1047E0000FBE8DBF18C08C2F0E94CD228093DE019A
:1047F00012C061E003C061E006C06AE08091DE01A2
:104800000E94341F08C08091DE010E94D71F03C0A0
:104810008FEA95E013C08091DE01882369F01F9232
:104820008F9389EA95E09F938F930E94E3070F90FF
:104830000F900F900F9004C086EA95E00E944A07FF
:1048400081E006C01092DF0180E002C080E003CF6B
:10485000CF9108958091EB0108959FB7F89410923D
:10486000E2019FBF9091FA01943009F057C09091F6
:10487000E9009F703091EC00232F217030FD20E87B
:10488000922B23E02093E9002091EB0020FF43C00E
:104890002091EE0027FF3FC02091E001222321F06C
:1048A0002091E80025FF37C01092E00126E030910A
:1048B000E80035FD15C03091FA01343061F53091D2
:1048C000EB0035FD28C0215021F481E08093E00108
:1048D00022C0EFE9FFE03197F1F700C00000E7CF19
:1048E0008093F1008091E80085FD0AC08091E80086
:1048F00080FFFCCF8091E8008E778093E80006C0AF
:104900008FB7F89421E02093E2018FBF9F709093BE
:10491000E90080E008959F709093E9008FEF08957B
:104920000F931F93CF93DF9300D01F92CDB7DEB7C5
:104930008C010E943E27823011F0843021F584E002
:1049400089831B830A8382E08093E9008FEF909133
:10495000E800815095FD06C095ED9A95F1F70000AD
:104960008111F5CF8091E80085FF0DC040E050E057
:1049700063E070E0CE0101960E945B278091E80021
:104980008E778093E8000F900F900F90DF91CF917A
:104990001F910F910895CF93DF9300D01F92CDB751
:1049A000DEB72091FA01243031F523E029838058C5
:1049B00091099B838A8382E08093E9008FEF909135
:1049C000E800815095FD06C095ED9A95F1F700003D
:1049D0008111F5CF8091E80085FF0DC040E050E0E7
:1049E00063E070E0CE0101960E945B278091E800B1
:1049F0008E778093E8000F900F900F90DF91CF910A
:104A00000895CF93DF93EC010E943E27823011F08E
:104A10008430F9F482E08093E9009FEF8091E80010
:104A2000915085FD06C085ED8A95F1F70000911142
:104A3000F5CF8091E80085FF0CC040E050E066E0D3
:104A400070E0CE010E945B278091E8008E77809312
:104A5000E800DF91CF910895CF93DF93EC010E949E
:104A60003E27823011F0843039F581E08093E900EF
:104A70008FEF9091E800815095FD06C095ED9A95D5
:104A8000F1F700008111F5CF8091E80085FF14C097
:104A900040E050E068E070E0CE010E945B2780912A
:104AA000E8008E778093E80088E0FE01A3EEB1E095
:104AB00001900D928A95E1F7DF91CF91089586E6F6
:104AC0009CE00E944A078091F901811109C00E946F
:104AD000F0280E944D298091E20084608093E200DA
:104AE000089582E69CE00E944A071092F901089519
:104AF0008EE59CE00C944A078AE59CE00C944A07FA
:104B000086E59CE00E944A070C94131A2091E1016B
:104B10002F5F822F62E30E94F62B992319F02093D6
:104B2000E10108951092E1018091E201882371F181
:104B30008091FA01843041F58091E9008F702091D5
:104B4000EC00922F917020FD90E8892B93E09093D8
:104B5000E9009091EB0090FF14C09091EE0097FF58
:104B600010C09091E80095FF03C01092F100F9CFBA
:104B70009091E80090FF05C09091E8009E77909397
:104B8000E8008F708093E9001092E201089542E0FE
:104B900061EC81E00E946A2842E261EC82E00E94BE
:104BA0006A2842E261EC83E00C946A288091FC015F
:104BB000833009F453C030F4813071F0823009F44D
:104BC0008CC008958A3009F478C08B3009F45EC037
:104BD000893009F09AC020C08091FB01813A09F028
:104BE00094C08091E800877F8093E8008091FF0166
:104BF00090910002892B21F468E083EE91E003C0DC
:104C000060E080E090E070E00E94A6278091E800DC
:104C10008B778093E80008958091FB01813209F041
:104C200074C08091FF0190910002029708F06DC05E
:104C30008091E800877F8093E8008091E80082FD02
:104C400005C08091FA018111F8CF5FC08091F10019
:104C50008093EB018091E8008B7753C08091FB013A
:104C6000813A09F052C08091FF0190910002892B96
:104C700009F04BC08091E800877F8093E800809125
:104C8000E80080FFFCCF8091120136C08091FB01CB
:104C90008132D9F58091FF0190910002892BA9F50D
:104CA0008091E800877F8093E8000E949F28809190
:104CB000FD01809312010C94B8128091FB018132A6
:104CC00021F58091E800877F8093E8000E949F286B
:104CD0008091FE018093EC0108958091FB01813A5F
:104CE000A1F48091E800877F8093E8008091E8003C
:104CF00080FFFCCF8091EC018093F1008091E8006F
:104D00008E778093E8000C949F28089584B7877F5E
:104D100084BF0FB6F894A895809160008861809355
:104D20006000109260000FBE80E8809361001092D6
:104D300061000E94CE0D0E94F0280E944D298091B2
:104D4000E20084608093E2008DE294E20E94F71812
:104D500078940E94DB2B0E94D40D88E091E00E94A1
:104D6000320D85E49CE00E944A078091FA0185306B
:104D700089F481E49CE00E944A070E94CC1980914A
:104D8000F801882391F30E94FC19882371F30E9493
:104D90004527EBCF0E94020EE8CF0C94CF26292F97
:104DA000332723303105C9F064F42130310581F017
:104DB0002230310509F049C08BE590E026E93CE05E
:104DC00048C02132310521F12232310571F13DC057
:104DD00082E190E021EF3CE03CC0992781309105D1
:104DE00071F02CF4892B89F5E2E9FCE00DC08230EA
:104DF000910541F0039749F5EAE6FCE005C0E4E8D7
:104E0000FCE002C0E0E7FCE0849190E09F0121C05B
:104E100063307105D0F4660F771FFB01EA5DFE4F2A
:104E20002081318189E090E014C06330710568F41D
:104E3000FB01EE0FFF1FE05EFE4F20813181FB0181
:104E4000E35EFE4F808190E004C080E090E020E0CF
:104E500030E0FA013183208308950895CF93C82F5D
:104E60000E942D27C093ED01CF9108958091FA0102
:104E7000843011F081E0089582E008958091ED0181
:104E8000811102C00C943627089580E189BD82E12A
:104E900089BD09B400FEFDCF8091D8008F7D80933D
:104EA000D8008091E00082608093E0008091E00073
:104EB00081FDFCCF0895CF92DF92EF92FF920F9386
:104EC0001F93CF93DF93EC018B016A010E94BE28F0
:104ED000811133C0C114D10439F0F6018081918170
:104EE000081B190BC80FD91FE12CF12C0115110556
:104EF00019F18091E80085FD16C08091E8008E7759
:104F00008093E800C114D10449F0F60180819181B9
:104F1000E80EF91EF182E08285E00FC00E94BE28F3
:104F2000882321F30AC089918093F100015011096F
:104F3000FFEFEF1AFF0ADACF80E0DF91CF911F91E8
:104F40000F91FF90EF90DF90CF9008952091010294
:104F5000309102022617370748F06115710539F4C0
:104F60002091E8002E772093E80001C0B90140E0CD
:104F700061157105A9F12091FA01222309F443C0BA
:104F8000253009F442C02091E80023FD40C0209163
:104F9000E80022FD32C02091E80020FFE9CF4091D7
:104FA000F3002091F20030E0342BFC01CF016115B9
:104FB000710559F02830310540F481918093F1005A
:104FC000615071092F5F3F4FF1CF41E0283031052B
:104FD00009F040E02091E8002E772093E800C8CF48
:104FE0004111C9CF0AC08091FA01882361F0853050
:104FF00061F08091E80083FD0AC08091E80082FFA3
:10500000F2CF80E0089582E0089583E0089581E082
:10501000089520910102309102022617370748F0C7
:105020006115710539F42091E8002E772093E8008E
:1050300001C0B901FC0120E06115710591F1809179
:10504000FA01882309F440C0853009F43FC08091FB
:10505000E80083FD3DC08091E80082FD2FC0809173
:10506000E80080FFE9CF2091F3008091F20090E00A
:10507000922B6115710559F08830910540F4249107
:105080002093F1003196615071090196F2CF21E031
:10509000089709F020E08091E8008E778093E8007F
:1050A000CBCF2111CCCF0AC08091FA01882361F0C7
:1050B000853061F08091E80083FD0AC08091E800AE
:1050C00082FFF2CF80E0089582E0089583E00895A2
:1050D00081E00895982F973058F59093E90098173C
:1050E00039F07091EC002091ED005091F00003C078
:1050F000242F762F50E021FF19C03091EB003E7F26
:105100003093EB003091ED003D7F3093ED00309116
:10511000EB0031603093EB007093EC002093ED00D6
:105120005093F0002091EE0027FF07C09F5FD3CF80
:105130008F708093E90081E0089580E00895809168
:10514000FB0187FF11C08091E80082FD05C08091BE
:10515000FA018111F8CF11C08091E8008B770BC064
:105160008091FA01882349F08091E80080FFF8CF10
:105170008091E8008E778093E80008952091E40004
:105180003091E50095E64091EC00842F817040FF5E
:1051900022C08091E80080FD1CC08091FA01882324
:1051A00091F0853091F08091EB0085FD10C0409129
:1051B000E4005091E5004217530729F39A019150FA
:1051C00011F784E0089582E0089583E0089581E076
:1051D000089580E008954091E80042FFDECF0895F1
:1051E0000E945E290E946629E0EEF0E080818160E5
:1051F0008083E8EDF0E080818F77808319BCA7ED94
:10520000B0E08C918E7F8C9380818F7E8083109212
:10521000F90108950F931F93CF93DF930E945E29A6
:105220000E946629C8EDD0E088818F7788838881C5
:105230008068888388818F7D888319BC1092FA01E9
:105240001092F6011092F8011092F70100EE10E0B2
:10525000F80180818B7F808388818160888342E030
:1052600060E080E00E946A28E1EEF0E080818E7FBD
:105270008083E2EEF0E080818160808380818860BD
:105280008083F80180818E7F80838881806188831C
:10529000DF91CF911F910F910895E8EDF0E08081AB
:1052A0008F7E8083E7EDF0E080818160808384E001
:1052B00082BF81E08093F9010C940A29E8EDF0E0C7
:1052C00080818E7F80831092E20008951092DA0030
:1052D0001092E10008951F920F920FB60F921124C1
:1052E0002F933F934F935F936F937F938F939F93EE
:1052F000AF93BF93EF93FF938091E10082FF0BC0C8
:105300008091E20082FF07C08091E1008B7F809353
:10531000E1000E9486258091DA0080FF1FC0809105
:10532000D80080FF1BC08091DA008E7F8093DA0066
:105330008091D90080FF0DC080E189BD82E189BDE7
:1053400009B400FEFDCF81E08093FA010E945F2541
:1053500005C019BC1092FA010E9471258091E100EC
:1053600080FF19C08091E20080FF15C08091E200AB
:105370008E7F8093E2008091E20080618093E20062
:105380008091D80080628093D80019BC85E080931A
:10539000FA010E947C258091E10084FF30C0809159
:1053A000E20084FF2CC080E189BD82E189BD09B49F
:1053B00000FEFDCF8091D8008F7D8093D800809132
:1053C000E1008F7E8093E1008091E2008F7E8093E8
:1053D000E2008091E20081608093E2008091F6011A
:1053E000882311F084E007C08091E30087FD02C0AC
:1053F00081E001C083E08093FA010E9480258091C2
:10540000E10083FF29C08091E20083FF25C08091E5
:10541000E100877F8093E10082E08093FA0110929F
:10542000F6018091E1008E7F8093E1008091E2009F
:105430008E7F8093E2008091E20080618093E200A1
:1054400042E060E080E00E946A288091F00088607D
:105450008093F0000E947825FF91EF91BF91AF916A
:105460009F918F917F916F915F914F913F912F917C
:105470000F900FBE0F901F9018951F920F920FB6AE
:105480000F9211242F933F934F935F936F937F93CA
:105490008F939F93AF93BF93CF93DF93EF93FF933C
:1054A000C091E900CF708091EC00D82FD17080FDC1
:1054B000D0E81092E9008091F000877F8093F0009F
:1054C00078940E94812A1092E9008091F00088600F
:1054D0008093F000CD2BCF70C093E900FF91EF9146
:1054E000DF91CF91BF91AF919F918F917F916F91FC
:1054F0005F914F913F912F910F900FBE0F901F9092
:1055000018951F93CF93DF93CDB7DEB7AA970FB649
:10551000F894DEBF0FBECDBFEBEFF1E088E08E0F59
:105520009091F10091938E13FBCF0E94D62580912C
:10553000E80083FF28C18091FB019091FC01492F75
:1055400050E04A30510508F01EC1FA01E556FF4F00
:105550000C94162C803821F0823809F014C108C050
:105560008091F7019091F801992389F082600FC032
:105570008091FF018F70873008F005C18093E900AA
:105580008091EB0085FB882780F91092E9009091CB
:10559000E800977F9093E8008093F1001092F1006B
:1055A000D0C0282F2D7F09F0EEC0882319F082305B
:1055B00061F0E9C08091FD01813009F0E4C09330D1
:1055C00009F080E08093F8012EC08091FD018111E7
:1055D0002AC08091FF018F702FEF280F263008F02E
:1055E000D2C08093E9002091EB0020FF1CC09330D3
:1055F00021F48091EB00806214C09091EB009061E7
:105600009093EB0021E030E0A90102C0440F551F48
:105610008A95E2F74093EA001092EA008091EB004D
:1056200088608093EB001092E9008091E800877F0A
:105630008093E8000E949F28A6C08111A4C0109109
:10564000FD011F778091E3008078812B8093E30038
:105650008091E800877F8093E8000E949F288091D6
:10566000E80080FFFCCF8091E30080688093E30036
:10567000111102C082E001C083E08093FA0183C06F
:105680008058823008F07FC08091FD019091FE012A
:105690008C3D53E0950779F583E08A838AE289831C
:1056A0004FB7F894DE01139620E03EE051E2E32F7D
:1056B000F0E050935700E49120FF03C0E295EF70B3
:1056C0003F5FEF708E2F90E0EA3010F0C79601C078
:1056D000C0968D939D932F5F243149F74FBF8091E2
:1056E000E800877F8093E8006AE270E0CE010196CF
:1056F0000E94A62715C06091FF0170910002AE01C3
:105700004F5F5F4F0E94CD26BC01892BE1F1909144
:10571000E800977F9093E80089819A810E94092888
:105720008091E8008B778093E8002DC0803859F590
:105730008091E800877F8093E8008091F601809354
:10574000F1008091E8008E7773CF81111CC0909199
:10575000FD019230C0F48091E800877F8093E800DB
:105760009093F6010E949F288091F601811106C056
:105770008091E30087FD02C081E001C084E0809356
:10578000FA010E94C7258091E80083FF0AC080913A
:10579000E800877F8093E8008091EB00806280932F
:1057A000EB00AA960FB6F894DEBF0FBECDBFDF9117
:1057B000CF911F910895CF938091FA018823A1F092
:1057C000C091E900CF709091EC00892F817090FD1D
:1057D00080E8C82B1092E9008091E80083FD0E94C8
:1057E000812ACF70C093E900CF910895991B79E089
:1057F00004C0991F961708F0961B881F7A95C9F761
:105800008095089597FB072E16F4009407D077FD36
:1058100009D00E941C2C07FC05D03EF49095819580
:105820009F4F0895709561957F4F0895EE0FFF1F6C
:105830000590F491E02D0994AA1BBB1B51E107C010
:10584000AA1FBB1FA617B70710F0A61BB70B881F10
:10585000991F5A95A9F780959095BC01CD0108959F
:10586000F999FECF92BD81BDF89A992780B5089528
:10587000A8E1B0E042E050E00C94642C262FF999A6
:10588000FECF92BD81BDF89A019700B4021639F09F
:105890001FBA20BD0FB6F894FA9AF99A0FBE089570
:1058A0000396272F0E943F2C0E943E2C252F0E94FA
:1058B0003F2C242F0C943F2C0196272F0E943F2C25
:1058C0000C943E2CDC01CB01FC01F999FECF06C003
:1058D000F2BDE1BDF89A319600B40D9241505040AE
:0858E000B8F70895F894FFCF1A
:1058E800C7012808140A321E2A242C250125CB2496
:1058F80090240101020304050607080900408522D7
:0C590800AA0D250D030DA80CC10CDA0C33
:00000001FF
