:100000000C94F6060C943D070C943D070C943D07A8
:100010000C943D070C943D070C943D070C943D0750
:100020000C943D070C943D070C94E92A0C94BC2BCE
:100030000C94A81B0C943D070C943D070C943D07B1
:100040000C943D070C943D070C943D070C943D0720
:100050000C943D070C945F1C0C943D070C943D07D9
:100060000C943D070C943D070C943D070C943D0700
:100070000C943D070C943D070C943D070C943D07F0
:100080000C943D070C943D070C943D070C943D07E0
:100090000C943D070C943D070C943D070C943D07D0
:1000A0000C943D070C943D070C943D0725303258C5
:1000B0003A20253038620A000A722F63203031322C
:1000C00033343536370A001F0014001A00160004B6
:1000D000001D001B0006002000210015000800077D
:1000E00000090019000500220023001C0017000A67
:1000F000000B00110000001E0029002B000351D747
:100100005CE000E2002C002400250018000C000E2A
:10011000000D001000000031003500300028000103
:1001200053D85C0253E3002600270012001300336B
:10013000000F00360000002D002E0034002F002A92
:10014000003800370000000100010001000100013B
:100150000001000100010001000100010001000197
:100160000001000100010001000100010001000187
:1001700000010001000000010001000100E000E1B9
:10018000000100E200010001000100010001000186
:100190000001000100000001000100010001000158
:1001A0000001000100E20001000100010001000166
:1001B0000001000100000001000100010001000138
:1001C0000001000100000001000100010001000128
:1001D0000001000100010001000100010001000117
:1001E0000001000100010001000100010001000107
:1001F000000100010000000100010001000100D722
:100200005C0100E3000100010001000100010001A8
:1002100000010001000000010001000100010001D7
:100220000001000100E200010001000100010001E5
:1002300000010001000000010001000100010001B7
:10024000000100010000003B0001000100A900AA1C
:10025000000100010001003C003D0001000100A878
:10026000000100010001003E003F0001000100010B
:10027000005000570000003A00005C390001000106
:100280000001000100010040004100010046005251
:1002900000510056000000490035002A005800A90E
:1002A000000100AA0001004200430047004800018D
:1002B000004F004D00000044004500F40052004C87
:1002C0000051004E0000000100010001000100018A
:1002D0000001000100010001000100010001000116
:1002E0000001000100010001000100010001000106
:1002F00000010001000000010001000100010001F7
:1003000000010001000100010001000100010001E5
:1003100000010001000000010035000100010001A2
:1003200000010001000100010001000100010001C5
:1003300000010001000000010001000100010001B6
:100340000001000100000044454255473A2064691D
:100350007361626C65642E0A0044454255473A2039
:10036000656E61626C65642E0A000A0025303258A1
:1003700020006B6579626F6172645F7265706F7285
:10038000743A20000A0025303258006B6579626F9C
:100390006172645F7365745F6C65643A2000646FBA
:1003A0006E652E0A00626F6F746D616769632073FA
:1003B00063616E3A202E2E2E2000290A002575003A
:1003C0002F002575005D28002564002000256400AD
:1003D000200025640020002564007C002530325870
:1003E000006D6F7573656B6579205B62746E7C78E8
:1003F0002079207620685D287265702F61636C29F2
:100400003A205B006D6B5F776865656C5F74696D42
:10041000655F746F5F6D6178203D2025640A006D13
:100420006B5F776865656C5F6D61785F737065653C
:1004300064203D2025640A006D6B5F74696D655F03
:10044000746F5F6D6178203D2025640A006D6B5FDD
:100450006D61785F7370656564203D2025640A00D6
:100460006D6B5F696E74657276616C203D202564EA
:100470000A006D6B5F64656C6179203D2025640A1C
:10048000006D6B5F776865656C5F74696D655F743F
:100490006F5F6D6178203D2025640A006D6B5F778A
:1004A0006865656C5F6D61785F7370656564203D3C
:1004B0002025640A006D6B5F74696D655F746F5F02
:1004C0006D6178203D2025640A006D6B5F6D617859
:1004D0005F7370656564203D2025640A006D6B5F65
:1004E000696E74657276616C203D2025640A006D2A
:1004F0006B5F64656C6179203D2025640A000A0009
:10050000257500363A20776865656C5F74696D659E
:100510005F746F5F6D61783A20000A0025750035C1
:100520003A20776865656C5F6D61785F73706565AB
:10053000643A20000A00257500343A2074696D651C
:100540005F746F5F6D61783A20000A002575003393
:100550003A206D61785F73706565643A20000A0027
:10056000257500323A20696E74657276616C286D6B
:1005700073293A20000A00257500313A2064656C21
:100580006179282A31306D73293A20000A092D201B
:1005900056616C756573202D0A004D3E004D256433
:1005A0003E20003F007365742064656661756C745D
:1005B0000A00433E200077686572652064656C74AC
:1005C000613A20637572736F723D25642C207768E1
:1005D00065656C3D25640A53656520687474703ADE
:1005E0002F2F656E2E77696B6970656469612E6F58
:1005F00072672F77696B692F4D6F7573655F6B65D8
:1006000079730A000A092D204D6F7573656B657942
:10061000202D0A4553432F713A09717569740A31C7
:100620003A0964656C6179282A31306D73290A3280
:100630003A09696E74657276616C286D73290A33A4
:100640003A096D61785F73706565640A343A0974BC
:10065000696D655F746F5F6D61780A353A09776817
:1006600065656C5F6D61785F73706565640A363AC5
:1006700009776865656C5F74696D655F746F5F6D40
:1006800061780A0A703A097072696E742076616C3A
:100690007565730A643A09736574206465666175EB
:1006A0006C74730A75703A092B310A646F776E3A6D
:1006B000092D310A706775703A092B31300A70675D
:1006C000646F776E3A092D31300A0A73706565647C
:1006D000203D2064656C7461202A206D61785F7311
:1006E00070656564202A2028726570656174202F0A
:1006F0002074696D655F746F5F6D6178290A003FD2
:10070000004D3E2000433E20004C25640A007469E1
:100710006D65725F72656164333228293A20253035
:10072000346C580A006B6579626F6172645F69644A
:100730006C653A2025580A006B6579626F617264B6
:100740005F70726F746F636F6C3A2025580A00688F
:100750006F73745F6B6579626F6172645F6C6564FF
:100760007328293A2025580A000A092D205374615C
:10077000747573202D0A004743433A20392E312ED9
:1007800030204156522D4C4942433A20322E302ED1
:1007900030204156525F415243483A2061767235CB
:1007A0000A004F5054494F4E533A204C5546412071
:1007B000424F4F544D41474943204D4F5553454BB0
:1007C00045592045585452414B455920434F4E53AB
:1007D0004F4C4520434F4D4D414E44203430393627
:1007E0000A004255494C443A2022302E362E3135EB
:1007F000332D313638372D673033366531632D640C
:100800006972747922202830393A30353A333320EE
:100810004A756C2020342032303139290A0056497B
:10082000443A2030784645454428712E6D2E6B2978
:10083000205049443A203078434146452848484BA7
:1008400042206D6F6429205645523A20307830316D
:1008500030340A00444553433A20712E6D2E6B20EC
:100860006B6579626F617264206669726D7761721F
:100870006520666F722048484B420A000A092D2005
:1008800056657273696F6E202D0A000A092D204388
:100890006F6E736F6C65202D0A4553432F713A09B3
:1008A000717569740A6D3A096D6F7573656B657959
:1008B0000A000A092D204D61676963202D0A443A18
:1008C000094465627567204D6573736167652054DF
:1008D0006F67676C650A583A094D617472697820D0
:1008E0004465627567204D6F646520546F67676C5F
:1008F00065202D2053686F77206B65797072657362
:1009000073657320696E206D6174726978206772F7
:1009100069640A4B3A094B6579626F6172642044DD
:100920006562756720546F67676C65202D2053687A
:100930006F77206B65797072657373207265706F65
:1009400072740A4D3A094465627567204D6F75737C
:100950006520546F67676C650A563A09566572736D
:10096000696F6E0A533A095374617475730A433A96
:1009700009416374697661746520436F6E736F6CAF
:1009800065204D6F64650A46312D4631303A095372
:10099000776974636820746F204C617965722030C8
:1009A0002D392028463130203D204C30290A302D69
:1009B000393A0953776974636820746F204C617900
:1009C000657220302D390A47524156453A0953770E
:1009D0006974636820746F204C61796572203020DF
:1009E00028616C7465726E617465290A423A094A1D
:1009F000756D7020746F20426F6F746C6F616465E9
:100A0000720A4553433A094A756D7020746F20424B
:100A10006F6F746C6F616465722028616C746572AD
:100A20006E617465290A453A095072696E742045F1
:100A30004550524F4D2053657474696E67730A4276
:100A400053504143453A09436C6561722045455016
:100A5000524F4D0A000A002575002E6E6B726F3AD8
:100A600020000A002575002E737761705F62616354
:100A70006B736C6173685F6261636B7370616365F4
:100A80003A20000A002575002E737761705F677247
:100A90006176655F6573633A20000A002575002E54
:100AA0006E6F5F6775693A20000A002575002E7326
:100AB0007761705F72616C745F726775693A20006C
:100AC0000A002575002E737761705F6C616C745F2E
:100AD0006C6775693A20000A002575002E63617005
:100AE000736C6F636B5F746F5F636F6E74726F6C48
:100AF0003A20000A002575002E737761705F636FDE
:100B00006E74726F6C5F636170736C6F636B3A20AD
:100B1000000A0025303258006B65796D61705F63A3
:100B20006F6E6669672E7261773A20000A0025753C
:100B3000002E6D6F7573653A20000A002575002E32
:100B40006B6579626F6172643A20000A0025750056
:100B50002E6D61747269783A20000A002575002EA6
:100B6000656E61626C653A20000A002530325800DB
:100B700064656275675F636F6E6669672E72617721
:100B80003A20000A0025750064656661756C745F23
:100B90006C617965723A20003F000A6D6F7573656C
:100BA0003A206F66660A000A6D6F7573653A206FAA
:100BB0006E0A000A6B6579626F6172643A206F6633
:100BC000660A000A6B6579626F6172643A206F6E23
:100BD0000A000A6D61747269783A206F66660A00CD
:100BE0000A6D61747269783A206F6E0A000A646552
:100BF0006275673A206F66660A000A646562756707
:100C00003A206F6E0A000A0A4A756D70696E672095
:100C1000746F20626F6F746C6F616465722E2E2E1C
:100C20002000433E2000436C656172696E67204579
:100C30004550524F4D0A006565636F6E6669673AAD
:100C40000A005B735D004B6579626F6172642073AB
:100C5000746172742E0A005B575D005B535D005B2C
:100C6000525D005B445D005B435D000403300000A7
:100C7000001203480048004B00420020006D006F46
:100C800000640000000C0371002E006D002E006B4C
:100C90000000000403090409025B00030100A0FA3C
:100CA00009040000010301010009211101000122D2
:100CB00040000705810308000A0904010001030040
:100CC000000009211101000122850007058203208F
:100CD000000A0904020002030000000921110100BA
:100CE00001222200070583032000010705030320DA
:100CF00000011201100100000008EDFEFECA04010F
:100D0000010203010631FF0974A1010975150026CE
:100D1000FF009520750881020976150026FF0095D1
:100D20002075089102C005010902A101850209018F
:100D3000A100050919012905150025019505750171
:100D40008102950175038101050109300931158181
:100D5000257F95027508810609381581257F950143
:100D600075088106050C0A38021581257F950175E5
:100D7000088106C0C005010980A101850316010094
:100D80002603001A81002A8300751095018100C096
:100D9000050C0901A1018504160100269C021A0117
:100DA000002A9C02751095018100C005010906A169
:100DB00001050719E029E71500250195087501814E
:100DC0000295017508810105081901290595057528
:100DD0000191029501750391010507190029FF157D
:100DE0000026FF00950675088100C00011241FBE73
:100DF000CFEFDAE0DEBFCDBF04B603FE27C080919F
:100E0000000290910102A0910202B091030287308A
:100E1000904BA740B04BD1F4109200021092010207
:100E2000109202021092030214BE84B7877F84BF1F
:100E30000FB6F894A8958091600088618093600057
:100E4000109260000FBEE0E0F8E3099511E0A0E029
:100E5000B1E0EAE7FCE502C005900D92AC32B107C3
:100E6000D9F722E0ACE2B1E001C01D92A030B20798
:100E7000E1F70E940F280C94E92D0C940000FF93D9
:100E8000EF93E0912C01F0912D01309709F0099535
:100E9000EF91FF910895FC018591803011F0EFDF13
:100EA000FBCF0895FF27E0E230E247FF0CC04195F9
:100EB00097FF09C0EDE26095709580959095611D52
:100EC000711D811D911D27FF02C0219530E350E265
:100ED000AA27660F771F881F991FAA1FA41710F053
:100EE000A41B63955A95A9F7AA3008F0A95FA05DE5
:100EF000AF93F395611571058105910541F7ED32C9
:100F000011F4EF93F395F21718F43F93F395FBCF99
:100F10008F91B5DFFA95E1F70895E991F9918591FF
:100F2000803021F0853219F0AADFF9CF089520E052
:100F3000E89455915532C1F3503311F468945591AA
:100F40005A3348F4505390F3220F022E220F220FEF
:100F5000200D250FF4CF0EF42195899199915336E8
:100F600019F3533729F1533559F1BC0188279927D3
:100F7000E8945C3621F4899199916894559154369E
:100F800039F446EF7EF077FF0DC08FEF9FEF0AC078
:100F900055374AE039F0583540E121F0523642E009
:100FA00009F00895FF93EF937DDFEF91FF91B7CFA5
:100FB000FF93EF93FC0181918030B9F360DFFBCFA9
:100FC000FF93EF9368DFF1CFDF93CF93CDB7DEB719
:100FD0002596A3DFCF91DF9108958FEF84B980E448
:100FE00085B957985F9A2E9A2F98A6E3B1E01C9284
:100FF00011961C92119712961C92129713961C929E
:10100000139714961C92149715961C921597169682
:101010001C92169717961C921797EEE2F1E0108239
:101020001182128213821482158216821782B09363
:101030004101A0934001F0933F01E0933E010895E8
:1010400008950C942008EF92FF920F931F93CF9373
:10105000DF9300D000D0CDB7DEB780913E019091F4
:101060003F01209140013091410130933F01209395
:101070003E0190934101809340011A82198201E060
:1010800010E0EE24EA94F12C60E030E020E085B13D
:10109000422F807C9981892B862B85B9AAE1AA955C
:1010A000F1F700C0E0913E01F0913F0189819A8102
:1010B000E80FF91F808190E0022E02C09595879578
:1010C0000A94E2F780FD2F9A95E39A95F1F70000D4
:1010D00076B52E98AAE1AA95F1F700C0C80101C023
:1010E000880F4A95EAF740914001509141014F9B8A
:1010F00085C0E981FA81E40FF51F809590818923ED
:10110000808386B5E72FF0E0871708F47EC086B5A8
:1011100090E08E1B9F0B069778F0E0913E01F091D6
:101120003F0189819A81E80FF91F8081A981BA81E5
:101130004A0F5B1FFA018083FAE1FA95F1F700C0CC
:101140002F982E9A8BE291E00197F1F700C00000F2
:101150002F5F3F4F685F2830310509F098CFA0918D
:101160004001B0914101E981FA81AE0FBF1FE091CA
:101170003E01F0913F0189819A81E80FF91F9C910E
:101180008081981751F00E94E41B60934201709394
:1011900043018093440190934501A981BA8111963E
:1011A000BA83A983189709F06FCF8091F701853032
:1011B00021F08091F701811113C08091420190913B
:1011C0004301A0914401B0914501BC01CD010E94B1
:1011D000291C613177428105910510F00E94591B4D
:1011E0000E94920981E00F900F900F900F90DF9175
:1011F000CF911F910F91FF90EF900895E981FA81AF
:10120000E40FF51F9081892B7BCF86B5D701AE1BEC
:10121000BF0B8A0F9B2F911D7ECFE0914001F09173
:101220004101E80FF11D808108950F931F93CF9323
:10123000DF9388EB90E00E944B07D0E0C0E00CEA1F
:1012400010E0E0914001F0914101EC0FFD1F808121
:101250000E94751A1F928F93DF93CF931F930F9362
:101260000E94E40721960F900F900F900F900F901F
:101270000F90C830D10529F7DF91CF911F910F91C1
:10128000089508950895FC01611106C082818823A4
:1012900031F085EE0E94890F90E080E0089585EEA0
:1012A0000E943210F9CF81E0089581E008950C94F6
:1012B00055091F93CF93DF9300D000D00F92CDB785
:1012C000DEB749835A836B832091590189819A81C2
:1012D00021111BC06623A9F00E942119182F682F25
:1012E00089819A810E94CB1869817A81812F0F9020
:1012F0000F900F900F900F90DF91CF911F910C9452
:10130000AC0A0E94F818182FEFCF0E9421196981AA
:101310007A81EDCFFC0140815181628173818481AA
:101320000C9459090C94210808950C9494090C9478
:10133000950908950E9448130E9499092FEF84E3AC
:101340009CE0215080409040E1F700C000000C94E8
:10135000831C0F931F93CF93DF938C010E948A0904
:10136000EC01B8010E945709882309F458C0B8015C
:10137000CE010E94920D882309F451C0C6318CE53C
:10138000D80709F4C8C098F5C130FCE5DF0709F4B7
:101390004CC050F4C115DC45E9F1C801DF91CF9193
:1013A0001F910F910C945309C531FCE5DF07A9F398
:1013B000F8018281882389F30E94891A811102C071
:1013C0000E940D1B0E94A61A90E09093F201809358
:1013D000F101FE01E350FC458091F1018160E231B1
:1013E000F10508F048C0E551F24D0C948D2DCD3D2E
:1013F0008CE5D807B9F1CE3DECE5DE0761F1CC3DD7
:10140000DC4559F6F8018281882349F080E00E948A
:10141000B92805C0F801828181110E949A0980E0F3
:10142000DF91CF911F910F910895F8018281882358
:10143000B1F39091CF01892F8E7F90FF81608093CF
:10144000CF0180FF05C089E593E00E944B07E7CFFD
:1014500087E493E0FACFF8018281882301F30E94A8
:101460000D1BDDCFF80182818823C9F282E0CFCF46
:101470008091F10182608093F1018091F1010E94DD
:10148000AA1A0E944813CBCF8091F1018460F3CF58
:101490008091F1018860EFCF8091F1018061EBCF05
:1014A0008091F1018062E7CF8091F1018064E3CF08
:1014B0008091F1018068DFCF8091F1018C60DBCFFA
:1014C0008091F1018E7FD7CF8091F1018D7FD3CFB5
:1014D0008091F1018B7FCFCF8091F101877FCBCFBE
:1014E0008091F1018F7EC7CF8091F1018F7DC3CFB5
:1014F0008091F1018F7BBFCF8091F1018F77BBCFBE
:101500008091F101837FB7CF9091F101892F97FBF3
:1015100087F98058B0CF0E94BE19F80192819923B3
:1015200081F08A7A91E009F490E09093460181116C
:1015300006C089E20E9499190E940D1A70CF85E3B6
:10154000F9CF80914601811104C089E20E94A0195F
:10155000F3CF85E3FBCF089598E0899FF001112434
:10156000E70FF11D83E0EE0FFF1F8A95E1F7E60F0D
:10157000F11DEE0FFF1FE953FF4F859194910895E0
:10158000FC01EE0FFF1FE953FF4F859194910895E1
:10159000CF93DF930E94AC0A0E94870CEC01811567
:1015A00020E5920708F0A3C0811530E4930708F006
:1015B00012C1803E910508F079C0803C910508F089
:1015C000F3C0883A910580F4853A910508F0F2C09D
:1015D0008130910509F47BC00497813A910508F4A4
:1015E00076C0D0E0C0E073C08F3B9105D1F3883A5C
:1015F000910509F447C1893A910509F446C18A3A2F
:10160000910509F445C18B3A910509F444C18C3A1E
:10161000910509F443C18B3B910509F442C18C3B10
:10162000910509F441C18D3A910509F440C1803B0F
:10163000910509F43FC18E3A910509F43EC18F3AF4
:10164000910509F43DC1813B910509F43CC1823B00
:10165000910509F43BC1833B910509F43AC1843BF0
:10166000910509F439C1853B910509F438C1863BE0
:10167000910509F437C1873B910509F436C1883BD0
:10168000910509F435C1893B910509F434C18D3BBD
:10169000910509F433C18E3B910509F432C18A3BAF
:1016A000910509F431C1C0E0D4E411C0811540E2D4
:1016B000940788F48F3F910509F048F4883E91051E
:1016C00030F0805F9109D065409708F08ACFCE0155
:1016D000DF91CF910895C11580E3D80708F475C054
:1016E000CE019927D3FD74C0EC01D06CF0CFC115A9
:1016F00095E5D90760F5C11524E5D20708F09CC02F
:10170000C11533E5D30778F4C11542E5D40708F0D5
:1017100082C0C11581E5D80708F460C0DC2FCC2752
:10172000C16FD06AD4CFCE018370992721E030E019
:1017300002C0220F331F8A95E2F7C695C69590E244
:10174000C99FE0011124C22BD32BDA68C0CFC11589
:101750002AE5D207B0F4C11539E5D30708F07CC0FB
:10176000C11546E5D40708F46CC0CE0198558F3FEB
:10177000910511F008F035CFDC2FCC27C06FD06A6F
:10178000A6CFCE0190568115904208F02ACF8D2F1A
:101790008F710E94020D90E0982F882788279F71F3
:1017A0009C012C2BE90156C0805C91090E94C00A63
:1017B000EC018DCF853A910509F45EC0863A91051A
:1017C00009F05DC0C2E8D0E482CFCE019F70EECFB9
:1017D000EC01D86C7CCFDF70D06A79CFCE0174E099
:1017E000969587957A95E1F783702C2F2695269507
:1017F000237040E2249F90011124382B8C2F83709A
:10180000C1E0D0E002C0CC0FDD1F8A95E2F7C22B09
:10181000D32BDC685CCFCE018370992721E030E0C8
:1018200002C0220F331F8A95E2F7C695C69580E263
:10183000C89FE0011124EBCFDC2FCC27C46FD06A06
:1018400046CF8C2F0E94020DC82FD0E0DC2FCC2772
:10185000CC27DF71D0623BCF8C2F8F700E94020D9E
:1018600034E0D695C7953A95E1F79C2F9F70C82F25
:10187000CF70C06ED92FB0CFC1E8D0E428CFC3E875
:10188000D0E425CFC2EED4E422CFC9EED4E41FCFFA
:10189000CAEED4E41CCFC5EBD4E419CFC6EBD4E434
:1018A00016CFC3EBD4E413CFC4EBD4E410CFC7EB13
:1018B000D4E40DCFCCECD4E40ACFCDECD4E407CF04
:1018C000C3E8D5E404CFCAE8D5E401CFC2E9D5E442
:1018D000FECEC4E9D5E4FBCEC1E2D6E4F8CEC3E245
:1018E000D6E4F5CEC4E2D6E4F2CEC5E2D6E4EFCE3D
:1018F000C6E2D6E4ECCEC7E2D6E4E9CECFE6D4E445
:10190000E6CEC0E7D4E4E3CECAE2D6E4E0CE803E41
:10191000910581F1C8F48133910509F462C048F45E
:101920008932910509F456C08A32910509F460C0E4
:10193000089589339105B9F082389105A1F0853376
:10194000910509F440C00895863E910561F138F48F
:10195000823E9105B1F0833E9105E1F00895873E06
:10196000910551F108952091F1012370D9F080EE95
:1019700090E008952091F10120FF14C089E390E0E8
:1019800008952091F10122FF0DC024FD09C083EECE
:1019900090E008952091F10122FD31C024FF02C0A2
:1019A00090E080E008952091F10123FFFBCF24FD1A
:1019B000F7CF87EE90E008952091F10123FFEECF5D
:1019C00086EE90E008952091F10125FFEBCF89E2AA
:1019D00090E008952091F10125FFE4CF85E390E0A8
:1019E00008952091F10126FFDDCF8AE290E008956D
:1019F0002091F10126FFD6CF81E390E0089582EE99
:101A000090E008959091F10192FF06C0282F28716F
:101A1000283069F4877F846093FF06C0282F2871DF
:101A2000283161F4877E846194FD877E0895282F94
:101A30002471243089F78B7F8860EECF282F2471A2
:101A4000243191F78B7E8861EFCF0F931F93CF9353
:101A5000DF93C62FD42F022FFC0182818823C9F087
:101A6000609349010E94D81B9093480180934701DD
:101A700080E28C0F883008F050C0C77081E001C050
:101A8000880FCA95EAF7DF91CF911F910F910C94BF
:101A9000741010914901161335C08091470190913F
:101AA00048010E94041C883C910560F5C0E2CD0FFE
:101AB0001D17B9F080E2810F883040F4177081E083
:101AC00001C0880F1A95EAF70E947B10C83048F4CD
:101AD00081E09D2F977001C0880F9A95EAF70E94C8
:101AE0007410802F0E946110C830B8F4D77081E064
:101AF00001C0880FDA95EAF7DF91CF911F910F911E
:101B00000C947B1080E28C0F883038F4C77081E031
:101B100001C0880FCA95EAF7EFCFDF91CF911F91EF
:101B20000F9108959C01CB01203F4CE5340769F1EA
:101B300090F4283DFCE53F0721F1293D4CE53407B1
:101B400081F1273D3C45B1F0FC018281882361F1A0
:101B5000109249010895223FFCE53F07D1F0233F51
:101B60004CE53407D1F0213F3C4571F727E245EEC3
:101B700064EE03C026E241EE61EE0E94250D80E096
:101B8000089527E245EE65EEF8CF26E241EE60EEDD
:101B9000F4CF26E241EE62EEF0CF27E245EE66EEAC
:101BA000ECCF28E241E0EFCF81E0089590934F0120
:101BB00080934E010895E0914E01F0914F013097CE
:101BC00021F00190F081E02D099480E00895EF92DA
:101BD000FF920F931F93CF93DF938C01E0914E01FF
:101BE000F0914F013097C1F10280F381E02D09950A
:101BF0008091CF0182FF30C080FF04C082E793E074
:101C00000E944B07D0E0C0E08CE6E82E83E0F82E7F
:101C10008091CF0180FF0EC0F801EC0FFD1F808185
:101C20001F928F93FF92EF920E94E4070F900F9004
:101C30000F900F902196C830D10551F78091CF01B8
:101C400080FF0AC08AE693E0DF91CF911F910F9148
:101C5000FF90EF900C944B07DF91CF911F910F9164
:101C6000FF90EF900895DC01E0914E01F0914F015B
:101C7000309739F082E08C930480F581E02DCD011E
:101C80000994089520914C0130914D01281739078E
:101C900071F090934D0180934C01E0914E01F091D1
:101CA0004F01309721F00680F781E02D09940895C7
:101CB00020914A0130914B012817390771F0909318
:101CC0004B0180934A01E0914E01F0914F01309712
:101CD00021F00084F185E02D0994089585B780688E
:101CE00085BF85B7806885BF0895089508950C94D1
:101CF000750E08950C94790E0E946E0E0E94760E59
:101D00000C94770E81E008950E94CF1B0E94ED078E
:101D10000E94EA1C0C947A0ECF93C82F8091CF01B9
:101D200082FF1EC080FF1CC08BE893E00E944B071F
:101D30008091CF0180FF14C01F92CF9386E893E07B
:101D40009F938F930E94E4078091CF010F900F9093
:101D50000F900F9080FF04C084E893E00E944B072F
:101D60008C2FCF910C949709BF92CF92DF92EF9274
:101D7000FF920F931F93CF93DF9300D000D00F9269
:101D8000CDB7DEB70E9423080E94820E882309F493
:101D900072C081E5C82E81E0D82E10E000E0E02E70
:101DA000802F0E940D09B82EF601F1906F01F816F0
:101DB00009F45BC08091CF0181FD0E94150930E0DC
:101DC00020E0FB244F2D50E0922FBA01022E02C0DA
:101DD000759567950A94E2F760FF41C02983EA820E
:101DE00021E030E0790102C0EE0CFF1C9A95E2F789
:101DF0002B2D30E02E213F2181E0232B09F480E0C0
:101E00008B830E94D81B8160782F9D838C834981AE
:101E10005A816B818D810E945B0FF801EF5AFE4F52
:101E200080818E2580830E9422200E94DB0D90916C
:101E30005001891789F10E94DB0D809350010F90AA
:101E40000F900F900F900F90DF91CF911F910F91F6
:101E5000FF90EF90DF90CF90BF900C948C0E2F5F8F
:101E60003F4F2830310509F0AFCF0F5F1F4F0830CB
:101E7000110509F094CF8FEF89838A831B820E941A
:101E8000D81B8160782F9D838C8349815A816B8117
:101E90008D810E945B0FC7CF0F900F900F900F9016
:101EA0000F90DF91CF911F910F91FF90EF90DF90F6
:101EB000CF90BF900895CF93DF93CDB7DEB72B9728
:101EC0000FB6F894DEBF0FBECDBF4F83588769872A
:101ED0007A878B871E8285E0FE013796DE01119698
:101EE00001900D928A95E1F749815A816B817C813D
:101EF0008D819E812B960FB6F894DEBF0FBECDBFAD
:101F0000DF91CF910C94E115FC01808191810C94BB
:101F10006319CF93C82F882309F4A2C08CEF8C0FCC
:101F2000813A58F48C2F0E946324811199C08C2F20
:101F30000E949919CF910C940D1A80E28C0F883071
:101F400048F4C77081E001C0880FCA95EAF70E9483
:101F5000C119F0CF8BE58C0F833068F481E890E0F5
:101F6000C53A31F083E890E0C63A11F482E890E097
:101F7000CF910C94420E88E58C0F873108F068C031
:101F800082EE90E0C83A09F460C089EE90E0C93A68
:101F900009F45BC08AEE90E0CA3A09F456C085EBBA
:101FA00090E0CB3A09F451C086EB90E0CC3A09F4CA
:101FB0004CC083EB90E0CB3B09F447C084EB90E04E
:101FC000CC3B09F442C087EB90E0CD3AF1F18CECC8
:101FD00090E0C03BD1F18DEC90E0CE3AB1F183E8D6
:101FE00091E0CF3A91F18AE891E0C13B71F182E949
:101FF00091E0C23B51F184E991E0C33B31F181E2D0
:1020000092E0C43B11F183E292E0C53BF1F084E23F
:1020100092E0C63BD1F085E292E0C73BB1F086E2A8
:1020200092E0C83B91F087E292E0C93B71F08FE605
:1020300090E0CD3B51F080E790E0CE3B31F090E076
:1020400080E0CA3B11F48AE292E0CF910C94580EE2
:10205000C03F30F08C2F0E94AE1ECF910C94951F84
:10206000CF910895882361F19CEF980F913A20F465
:102070000E94A0190C940D1A90E2980F983050F419
:10208000877091E001C0990F8A95EAF7892F0E9425
:10209000C719F0CF9BE5980F933020F490E080E0D3
:1020A0000C94420E98E5980F973120F490E080E070
:1020B0000C94580E803F20F00E94161F0C94951F20
:1020C0000895CF93C82F0E94890FC93349F42FEF89
:1020D00083EC99E0215080409040E1F700C000007F
:1020E0008C2FCF910C943210882321F00E94C119BB
:1020F0000C940D1A0895882321F00E94C7190C949E
:102100000D1A0895BF92CF92DF92EF92FF920F9334
:102110001F93CF93DF9300D000D00F92CDB7DEB7DF
:102120006C016D837983FC01058102950F7012812A
:1021300011110E94E0190E94B719E82E882371F04E
:102140001123B1F08D81805E883090F082E00E9492
:10215000581A0E94B71991E0E82EE926B980B29486
:102160009FE0B922EB2DF0E0E350F24D0C948D2D61
:10217000E12CF4CF09810F70F981F07F11F0029505
:10218000007F1123B1F0002361F08D81805E8830E3
:1021900018F02D81211109C0802F0E94C1190E94C1
:1021A0000D1A8D810E94890F15C0802F0E94D219AF
:1021B000F6CF8D810E943210002361F08D81805E08
:1021C000883018F04D81411133C0802F0E94C7190B
:1021D0000E940D1A58E0B51629F086E08B0D8F701D
:1021E000823020F40E94DB0D0E949709EE2009F452
:1021F00000C20E94B31980FDFCC1F60112820E9448
:10220000AD190E94BB17C6010E9408130E94AD19A8
:102210000F900F900F900F900F90DF91CF911F9123
:102220000F91FF90EF90DF90CF90BF900C94EC1740
:10223000802F0E94D819CCCF59815F70F52E69810B
:10224000607F603219F0F29480EFF8227D8177236D
:1022500069F0713049F1112391F1002351F1F60138
:10226000858180FF9ECF8F70858323C0112381F0ED
:10227000011106C00E94F4198F290E947410AACF80
:102280000130C1F70E94F4198F290E94FA19A2CFD8
:10229000011106C00E94031A8F2D0E947B109ACF55
:1022A000013009F497CFF6CF112329F0063008F05A
:1022B00091CF8F2DE2CF053008F08CCFEDCF0023EA
:1022C00059F38D810E94321085CF8981869586953C
:1022D000837069F0813009F07DCF8D819981937091
:1022E000111102C090E080E00E94580E73CF8D81E2
:1022F00099819370111102C090E080E00E94420E1B
:1023000069CF112311F1FD81F53F99F0F63FB9F046
:10231000F43F49F48091EB019091EC01816090933E
:10232000EC018093EB018D810E94AE1E0E94951FEF
:1023300051CF8091EB019091EC018260F0CF8091C0
:10234000EB019091EC018460EACF2D81253F89F06B
:10235000263FA9F0243F49F48091EB019091EC01D4
:102360008E7F9093EC018093EB018D810E94161F6C
:10237000DDCF8091EB019091EC018D7FF2CF8091C8
:10238000EB019091EC018B7FECCF8981837009F098
:1023900050C011111FCF4D81429546954770440F93
:1023A000440F8D818F7090E0B0E0A0E0042E04C057
:1023B000880F991FAA1FBB1F0A94D2F75D8100E006
:1023C00010E0980154FF0FC00FE010E020E030E073
:1023D00004C0000F111F221F331F4A95D2F700952A
:1023E00010952095309569816695669563706D832B
:1023F000B901A801482B592B6A2B7B2B49835A839F
:102400006B837C835D8169817A818B819C81523071
:1024100051F0533059F0513019F00E943117DACE93
:102420000E940917D7CE0E945917D4CE0E940717D1
:10243000D1CE8695112311F089818170882309F40A
:10244000C9CE4D81429546954770440F440F8D810A
:102450008F7090E0B0E0A0E0042E04C0880F991FB8
:10246000AA1FBB1F0A94D2F76D8100E010E098010B
:1024700064FF0FC00FE010E020E030E004C0000F68
:10248000111F221F331F4A95D2F7009510952095F2
:10249000309579817695769573707D83B901A80121
:1024A000482B592B6A2B7B2B49835A836B837C8364
:1024B0005D8169817A818B819C81523051F05330EA
:1024C00059F0513019F00E947A1884CE0E945218A7
:1024D00081CE0E94A2187ECE0E9485177BCE6D8190
:1024E000623F09F448C080F4603F81F1613FE1F14F
:1024F000862F805E8031D8F0112309F457C0011176
:1025000050CE89818F7134C07D81733FD9F1743F82
:1025100099F7112309F440C099819F719983892FFC
:102520000E94BB1763E089810E94431A53CE8D81BC
:102530008F708D8389818F71112321F00E94BB17C9
:102540008D819BCE0E94EC178D81A7CE112341F087
:10255000053008F03FCE89818F710E9421183ACE54
:10256000063008F037CEF7CF89818F71112339F00B
:102570000E94BB172FCE89818F711123C9F30E944E
:10258000EC1728CE112329F089818F710E949617AC
:1025900021CE0E9491171ECE81E00E94581A02306F
:1025A00008F418CE82E00E94581A14CE002371F06D
:1025B000ED81E93309F085CEFFEF23EC49E0F150DE
:1025C00020404040E1F700C000007BCE89818F7140
:1025D000D6CF49814F706D81C6010E9443090E9488
:1025E0007B16F8CD49814F706D81C6010E94AB0A00
:1025F000F1CD0F900F900F900F900F90DF91CF9132
:102600001F910F91FF90EF90DF90CF90BF900895B2
:102610000F931F93CF93DF93EC018B819C81892BC8
:1026200029F08881998189238F3F29F4DF91CF9107
:102630001F910F910895CE010E94A9098823B1F33B
:10264000688179818A810E946F198C010E94CA1861
:102650000E940617B801CE01DF91CF911F910F9113
:102660000C9482100E94E0190E94F1190E940D1A28
:102670000E94B9200E94951F90E080E00E94420EC7
:1026800090E080E00C94580E0E94A7190C9432132D
:102690000E94CF190C944413282F892F82958F7094
:1026A000903C80F48A30B0F4843020F4823090F48E
:1026B00080E008958630E1F781E0203E88F0213FF8
:1026C000B9F70EC08C3011F08F3091F793FB88274B
:1026D00080F9089581E0203F39F018F4203E40F75A
:1026E0000895243F29F7FCCF08950E9463190C94A4
:1026F0004C13CF93DF9300D000D00F92CDB7DEB74D
:102700000F900F900F900F900F90DF91CF91089541
:10271000CF93DF9300D000D000D0CDB7DEB72696A0
:102720000FB6F894DEBF0FBECDBFDF91CF910895F5
:102730001F93CF93DF93E0915A0116E080915B01E4
:102740008E1304C0DF91CF911F910895CE2FD0E05A
:102750001E9FF0011124E45AFE4F40815181628195
:102760007381848195810E948813FE013196E77000
:10277000E5CF40918C0150918D0160918E01709157
:102780008F0180919001909191010C9488131F9377
:10279000CF93DF9380919101807FC1F480918E016E
:1027A0008823A1F080915A01C0915B0160918C0156
:1027B00070918D0140918F0150919001D62FD723B8
:1027C000DA01A095B09516E0C81304C0DF91CF914F
:1027D0001F91089590E04115510511F0DF3F31F44C
:1027E00001968770F1CF2A0F3B1F17C0189FF00189
:1027F000199FF00D1124E45AFE4F21812713F0CFC9
:1028000020812613EDCF22812111EACF238134814B
:102810002417350740F3241B350B283C310500F7FE
:10282000209191012F7020612093910126E0289F33
:10283000F001299FF00D1124EF59FE4F80818F7018
:10284000806180838CE891E00E940813DF91CF9132
:102850001F910C9498139F92AF92BF92CF92DF92E8
:10286000EF92FF920F931F93CF93DF93CDB7DEB715
:102870002B970FB6F894DEBF0FBECDBF8C0185E05D
:10288000F801DE01179601900D928A95E1F7D801C3
:102890004C9111965C9111971296EC901297809141
:1028A0008F0190919001009709F46CC120918C01E7
:1028B00030918D01632F62236F3F09F463C113963A
:1028C000CD90DC9090908E01992009F4FAC0C81642
:1028D000D90608F43FC0F601E81BF90BCF01FF242D
:1028E000F394883C910508F0F12C8CE8A82E81E047
:1028F000B82E80919101982F907FFF2009F4B9C0E4
:10290000911180C0FE2C35132AC0241328C0E11079
:1029100026C08F708061809391010E94B913C50118
:102920000E94081380919101D80115968C938F2DE8
:102930002B960FB6F894DEBF0FBECDBFDF91CF91BF
:102940001F910F91FF90EF90DF90CF90BF90AF90CD
:102950009F900895809590958C0D9D1DC0CFCD289A
:1029600029F0842F85238F3F09F028C180E0B82FFC
:10297000B170DB2EE0915A0120915B0136E080FDC1
:102980001CC0EE20A1F280919101816080939101A1
:10299000F12CCDCF8E2F90E03E9FF0011124E45A10
:1029A000FE4F6181651306C06081641303C06281BC
:1029B0006E11E7CFFC013196E770E213EBCF4F8346
:1029C00058878F8198850E946319292F22952F702F
:1029D000903260F0225F2F70223078F49F7051F0B7
:1029E000F8019581907F31F4D12C0AC09F7011F0CD
:1029F0008823D1F3805E8830B8F3C8010E940813A1
:102A0000FD2C95CF351306C0241304C0D801EE2049
:102A100009F47CC04F8358878F8198850E94751375
:102A2000882319F1EE2009F180919101803270F034
:102A300020918C0130918D013A8329831B82DD82A4
:102A4000CC828E83CE0101960E94081386E0F801A5
:102A5000ACE8B1E001900D928A95E1F70E94C713AE
:102A60000E94B913FF24F39462CFC8010E94081397
:102A7000F9CF911113C07C2DDB86CA866E2D8B8514
:102A80000E9479138CE891E00E94081386E0F5011A
:102A900011928A95E9F70E94B91349CF3513BACF3D
:102AA0002413B8CFE110B6CFD80115968C93C80186
:102AB0000E94081386E0F50111928A95E9F7F92C36
:102AC00036CFC816D90680F1B601681B790BCB0149
:102AD000F12C883C910508F046C0FE2CEE2029F22E
:102AE000351330C024132EC08091910180FD21C088
:102AF000982F907FF1F0D80115968C931597903F01
:102B000039F0982F907F905F8F70892B15968C935A
:102B1000C8010E94081386E0F801ACE8B1E001901A
:102B20000D928A95E1F7B7CF809590958C0D9D1DFC
:102B3000CFCF86E0F801ACE8B1E001900D928A9524
:102B4000E1F7F5CE4F8358878F8198850E947513E2
:102B500081117CCF80919101816080939101C801A6
:102B60000E940813E4CE7C2DDB86CA866E2D8B85F1
:102B70000E94791386E0ECE8F1E0DF011D928A956E
:102B8000E9F789CFEE2009F470CF4F8358878F8102
:102B900098850E947513F82E882309F466CF86E085
:102BA000F801ACE8B1E001900D928A95E1F78CE86C
:102BB00091E00E94840F0E94C7136DCF81E08E25A3
:102BC000D6CE1F93CF93DF93CDB7DEB72C970FB63A
:102BD000F894DEBF0FBECDBF4F83588769877A87D1
:102BE0008B879C87CE0107960E942B14882369F05F
:102BF0008A859B85892B39F04F815885842F8523C1
:102C00008F3F09F071C016E05FC086E0FE01379685
:102C1000DE01119601900D928A95E1F78A859B85D8
:102C2000892B89F388859F8189238F3F61F32091C8
:102C30005B0130E0C90101968770992740915A01E4
:102C40004817190671F40E94481310925B01109204
:102C50005A0186E0ECE8F1E0DF011D928A95E9F780
:102C6000D2CF96E0929FD001939FB00D1124A45A29
:102C7000BE4FFE01319601900D929A95E1F7809337
:102C80005B010E949813BFCF819FC0011124845A19
:102C90009E4F0E942B148823E9F0E0915A011E9F59
:102CA000F0011124E45AFE4F408151816281738109
:102CB000848195810E94881380915A0190E0019649
:102CC0008770992780935A0180915A0190915B01F6
:102CD0008913DACF2C960FB6F894DEBF0FBECDBFA6
:102CE000DF91CF911F91089569857A858B859C85A9
:102CF0000E94881388CFEF92FF920F931F93CF9378
:102D0000DF938C01892B89F0F12CEE24E394E80108
:102D10002196F8018491843709F457C0A0F48230D9
:102D200009F43EC048F48130D1F0DF91CF911F917A
:102D30000F91FF90EF9008959CEF980F9037A8F7B0
:102D40000E94890F0AC0853709F44CC09CE7980F90
:102D5000903758F78F770E9432108E0116C00E5FA1
:102D60001F4FFE01849190E2980F983060F48770B5
:102D7000FE2D01C0FF0F8A95EAF78F2F0E94E319FD
:102D80000E940D1A02C00E94890F8F2D815008F4F5
:102D9000BECFEFE9FFE03197F1F700C00000F6CFBA
:102DA0000E5F1F4FFE01849190E2980F983050F40F
:102DB0008770FE2D01C0FF0F8A95EAF78F2F0E94C2
:102DC000E919DECF0E943210E0CF0E5F1F4FFE01E7
:102DD000C491C150D0F28FE99FE00197F1F700C094
:102DE0000000F7CF0E5F1F4FFE01F490CECF089585
:102DF0000C94F7160E94F8166093BE017093BF0101
:102E00008093C0019093C1010C94321308950C94E7
:102E1000FA16CF93DF9300D000D0CDB7DEB7698329
:102E20007A838B839C838091BE019091BF01A09196
:102E3000C001B091C10129813A814B815C81282B6D
:102E4000392B4A2B5B2B29833A834B835C83CA0142
:102E5000B9010F900F900F900F90DF91CF910C94CC
:102E6000FA16CF93DF9300D000D0CDB7DEB76983D9
:102E70007A838B839C838091BE019091BF01A09146
:102E8000C001B091C10129813A814B815C81282325
:102E900039234A235B2329833A834B835C83CA010A
:102EA000B9010F900F900F900F90DF91CF910C947C
:102EB000FA16CF93DF9300D000D0CDB7DEB7698389
:102EC0007A838B839C838091BE019091BF01A091F6
:102ED000C001B091C10129813A814B815C812827D1
:102EE00039274A275B2729833A834B835C83CA01AE
:102EF000B9010F900F900F900F90DF91CF910C942C
:102F0000FA160C94F7160C9481170E94831760939D
:102F1000BA017093BB018093BC019093BD010C94E6
:102F2000321360E070E0CB010C9485170F931F9370
:102F3000CF93DF9300D000D0CDB7DEB741E050E0B3
:102F400060E070E08A019B0104C0000F111F221F86
:102F5000331F8A95D2F709831A832B833C83C901D7
:102F6000B8010F900F900F900F90DF91CF911F91AC
:102F70000F910C9485170F931F93CF93DF9300D07D
:102F800000D0CDB7DEB741E050E060E070E004C0B3
:102F9000440F551F661F771F8A95D2F78091BA019B
:102FA0009091BB01A091BC01B091BD018A019B0130
:102FB000082B192B2A2B3B2B09831A832B833C8349
:102FC000C901B8010F900F900F900F90DF91CF9132
:102FD0001F910F910C9485170F931F93CF93DF933D
:102FE00000D000D0CDB7DEB741E050E060E070E047
:102FF00004C0440F551F661F771F8A95D2F740956E
:103000005095609570958091BA019091BB01A09107
:10301000BC01B091BD018A019B01082319232A2319
:103020003B2309831A832B833C83C901B8010F908A
:103030000F900F900F90DF91CF911F910F910C94F3
:1030400085170F931F93CF93DF9300D000D0CDB798
:10305000DEB741E050E060E070E004C0440F551F6F
:10306000661F771F8A95D2F78091BA019091BB01B4
:10307000A091BC01B091BD018A019B0108271927CD
:103080002A273B2709831A832B833C83C901B80174
:103090000F900F900F900F90DF91CF911F910F9194
:1030A0000C948517CF93DF9300D000D0CDB7DEB757
:1030B00069837A838B839C838091BA019091BB0151
:1030C000A091BC01B091BD0129813A814B815C8105
:1030D000282B392B4A2B5B2B29833A834B835C8328
:1030E000CA01B9010F900F900F900F90DF91CF910F
:1030F0000C948517CF93DF9300D000D0CDB7DEB707
:1031000069837A838B839C838091BA019091BB0100
:10311000A091BC01B091BD0129813A814B815C81B4
:10312000282339234A235B2329833A834B835C83F7
:10313000CA01B9010F900F900F900F90DF91CF91BE
:103140000C948517CF93DF9300D000D0CDB7DEB7B6
:1031500069837A838B839C838091BA019091BB01B0
:10316000A091BC01B091BD0129813A814B815C8164
:10317000282739274A275B2729833A834B835C8397
:10318000CA01B9010F900F900F900F90DF91CF916E
:103190000C9485170895990F990F990FE92FE80F4F
:1031A000877041E001C0440F8A95EAF7E695E695FD
:1031B000E69585E0E89FF0011124EE56FE4F30E0E1
:1031C00020E070E05191DF011197CB01022E02C087
:1031D000969587950A94E2F78170819585278423D7
:1031E00085278C932F5F3F4F2530310559F7089580
:1031F000E92FEE0FEE0FEE0FE80F982F9770E69580
:10320000E695E69585E0E89FF0011124EE56FE4F25
:1032100050E040E080E0219130E0092E02C0369578
:1032200027950A94E2F721703327042E01C0220F5C
:103230000A94EAF7822B4F5F5F4F4530510559F7EB
:103240000895BF92CF92DF92EF92FF920F931F9358
:10325000CF93DF938C01C090BA01D090BB01E09076
:10326000BC01F090BD018091BE019091BF01A09181
:10327000C001B091C101C82AD92AEA2AFB2ACFE1AC
:10328000D0E0BC2ED701C6010C2E04C0B695A79580
:10329000979587950A94D2F780FD0EC0219788F7FD
:1032A000B12C8B2DDF91CF911F910F91FF90EF905B
:1032B000DF90CF90BF900895B8018C2F0E94C80A6C
:1032C000019761F3EECFCF93DF93D82FC92F0E94E0
:1032D00021196D2F7C2FDF91CF910C94C80A1F9379
:1032E000CF93DF93162FD72F90915901992339F05F
:1032F000862F972FDF91CF911F910C94631988230C
:1033000091F0862F972F0E942119C82F682F812FA7
:103310009D2F0E94CB18612F7D2F8C2FDF91CF9195
:103320001F910C94C80A862F972F0E94F818C82F57
:10333000F2CF682F80910001909101010C944A1BFB
:10334000682F80910001909101010C944C1B809199
:103350000001909101010C944E1B8091C201859552
:103360008595859508958091C20187700895909103
:10337000C201977081E009F480E008958091CE0148
:1033800008959091CE01982B9093CE010895982F97
:1033900090958091CE0189238093CE01089510925B
:1033A000CE0108959091CD01982B9093CD01089571
:1033B000982F90958091CD0189238093CD01089518
:1033C0001092CD0108959091CC01982B9093CC014F
:1033D0000895982F90958091CC0189238093CC01FA
:1033E00008951092CC0108958091C3010895089525
:1033F0000C94F7199091C301981721F08093C301A1
:103400000C94F81908958091C301882329F0109233
:10341000C30180E00C94F8190895E0910001F09147
:1034200001018091CE018083E0910001F0910101C2
:1034300080819091CD01892B8083E0910001F091F2
:10344000010180819091CC01892B80839091C301EF
:10345000992381F0E0910001F09101018081892B95
:10346000808380910001909101010E940F1B8111C6
:103470000E94031A80910001909101010C94E70DC4
:1034800008950C94401A98E0899F90011124622BB2
:103490006093C2010E94BB178091C20185958595FA
:1034A00085950C94411A1092C20180E00C94411A47
:1034B0009091C201809589238093C201282F2770A3
:1034C00071F4282F082E000C330B9217130639F0D5
:1034D0008595859585950E94EC170C94531A08954F
:1034E00090932D0180932C010895829594E0899FFB
:1034F000900111242C7C869586958373282B30E0CF
:10350000C901880F991F8A7A359527952575822BD1
:10351000089590E080E00E94AF2D9C0181E02D3E57
:103520003E4F09F080E0089582E090E00C94A72DD2
:10353000682F82E090E00C94B52D83E090E00C942D
:10354000A72D682F83E090E00C94B52D84E090E0E7
:103550000C94A72D682F84E090E00C94B52DAB015E
:10356000BC018FE090E00C94C72DAB01BC0183E15E
:1035700090E00C94C72D60E070E0CB010C94B51A7C
:1035800060E070E0CB010E94AF1A0C94BB1A6DEEA4
:103590007EEF90E080E00E94D32D60E082E090E03A
:1035A0000E94B52D60E083E090E00E94B52D10925E
:1035B000BE011092BF011092C0011092C10160E0E3
:1035C00084E090E00E94B52D60E085E090E00E94EC
:1035D000B52D60E086E090E00E94B52D6FEF87E0AA
:1035E00090E00E94B52D40E050E0BA0188E090E004
:1035F0000E94C72D60E08DE090E00E94B52D40E074
:1036000050E0BA0188E190E00E94C72D60E087E1B8
:1036100090E00E94B52D0C94C01A0C94C71AAC010E
:103620009C012E5F3F4F485F5F4F80E024173507B6
:1036300009F40895F90191919F019923B9F38F5FDE
:10364000F5CF9C01FC0132968FEF90E04191461737
:1036500051F08F3F19F4411101C0892F9F5F9630BF
:10366000A9F78F3F09F40895280F311D87FD3A957A
:10367000F901628308959C01FC013296285F3F4F57
:103680008191861303C0DF0111971C92E217F307A3
:10369000B9F708950C94211B0C943B1BFC01329646
:1036A00086E0DF011D928A95E9F7089508950C944C
:1036B000561B0E94571B8091F701843049F11092EC
:1036C000D00188E190E020E40FB6F894A8958093AB
:1036D00060000FBE2093600080E00E9497090E9466
:1036E000571B83B7817F846083BF83B7816083BFAB
:1036F0007894889583B78E7F83BF0FB6F894A8958A
:1037000080916000886180936000109260000FBE1D
:103710000895CF930E9441090E9423080E94420904
:10372000C0E08C2F0E940D09811105C0CF5FC83009
:10373000C1F7CF91089581E0FCCF08950C949D1BB3
:103740000E9448130E94DB0D0E9497090C949E1B57
:103750001F921FB61F9211248F939F93AF93BF9315
:103760008091D001811113C08091ED019091EE0103
:10377000A091EF01B091F0014196A11DB11D809380
:10378000ED019093EE01A093EF01B093F001BF9192
:10379000AF919F918F911F901FBE1F90189582E04F
:1037A00084BD93E095BD9AEF97BD80936E00089518
:1037B0002FB7F8948091ED019091EE01A091EF0167
:1037C000B091F0012FBF0895CF93DF9300D000D0C8
:1037D000CDB7DEB78FB7F8942091ED013091EE01AF
:1037E0004091EF015091F00129833A834B835C8330
:1037F0008FBF69817A818B819C810F900F900F9090
:103800000F90DF91CF910895CF92DF92EF92FF92C8
:103810009C014FB7F8948091ED019091EE01A09139
:10382000EF01B091F0014FBF6C017D01EE24FF2448
:10383000A90170E060E0C416D506E606F70638F088
:10384000821B930BFF90EF90DF90CF90089501972C
:10385000F7CF0F931F93CF93DF9300D000D0CDB756
:10386000DEB7462F572FBC012FB7F8948091ED019A
:103870009091EE01A091EF01B091F0012FBF84175C
:103880009507A607B707B8F08C019D01041B150B1F
:10389000260B370B09831A832B833C8369817A813A
:1038A0008B819C810F900F900F900F90DF91CF91A3
:1038B0001F910F9108950197A109B109E5CF78945F
:1038C0001F921FB61F9211248F939F93AF93BF93A4
:1038D0008091ED019091EE01A091EF01B091F00186
:1038E0000196A11DB11D8093ED019093EE01A0936F
:1038F000EF01B093F001BF91AF919F918F911F9015
:103900001FBE1F90189581E08093E00080E28093B5
:10391000D8001092C9008FE19EE40197F1F700C032
:10392000000087E090EBDC0180930002909301029D
:10393000A0930202B093030288E19CE00FB6F894D2
:10394000A895809360000FBE90936000FFCFCF9248
:10395000DF92EF92FF920F931F93CF93C0E0E82E78
:10396000F12C8C2F0E940D0910E000E0C82ED12C04
:10397000C601002E02C0959587950A94E2F780FF54
:1039800011C0602F7C2F80E00E94AC0AE816F90677
:1039900049F481E0CF911F910F91FF90EF90DF905C
:1039A000CF9008950F5F1F4F0830110509F7CF5FC3
:1039B000C830B9F680E0EECFCF93C82F8CE20E94DA
:1039C000A71C882321F08C2FCF910C94A71C80E09A
:1039D000CF910895CF93DF9300D000D0CDB7DEB75D
:1039E0000E94891A811102C00E940D1B85EA93E092
:1039F0000E944B0725E62983998191509983911163
:103A0000F6C08EE993E00E944B0789E20E94DC1C1D
:103A100081111AC18AE20E94DC1C81110E940D1BD7
:103A200085E00E94DC1C81110E94831C0E94941A74
:103A30008093CF0187E00E94DC1C882371F08BE12A
:103A40000E94DC1C882309F4DBC09091CF01892FF0
:103A50008D7F91FF82608093CF018091CF010E9482
:103A6000981A0E94A61A90E09093F2018093F101B7
:103A700080EE0E94DC1C882341F09091F101892F97
:103A80008E7F90FF81608093F10189E30E94DC1CAE
:103A9000882341F09091F101892F8D7F91FF826001
:103AA0008093F10182EE0E94DC1C882341F090910A
:103AB000F101892F8B7F92FF84608093F10186EE64
:103AC0000E94DC1C882341F09091F101892F877FAF
:103AD00093FF88608093F10183EE0E94DC1C8823B1
:103AE00041F09091F101892F8F7E94FF8061809346
:103AF000F10185E30E94DC1C882341F09091F101E3
:103B0000892F8F7D95FF80628093F10181E30E9470
:103B1000DC1C882341F09091F101892F8F7B96FF67
:103B200080648093F10181E10E94DC1C882341F0D4
:103B30009091F101892F97FB87F980588093F101CB
:103B40008091F1010E94AA1A87E20E94DC1C8983FD
:103B50008EE10E94DC1C882319F0A981A260A98350
:103B60008FE10E94DC1C882319F0B981B460B9830D
:103B700080E20E94DC1C882319F0298128602983B7
:103B800081E20E94DC1C882319F03981306139837D
:103B900082E20E94DC1C882319F04981406249833B
:103BA00083E20E94DC1C882319F0598150645983F8
:103BB00084E20E94DC1C882309F43FC0898180686C
:103BC000898389810E94A11A3981232F30E050E036
:103BD00040E029833A834B835C83CA01B9010F908B
:103BE0000F900F900F90DF91CF910C9407170E94C8
:103BF00023088FE39CE90197F1F700C00000FCCE99
:103C00008EE00E94DC1C882339F09091CF01892F2F
:103C10008B7F92FF84601FCF80E10E94DC1C90911B
:103C2000CF01882329F0892F877F93FF886013CFE6
:103C3000892F8E7F90FF81600ECF99819111C1CF26
:103C40000E949D1A282FC2CF0F900F900F900F90B7
:103C5000DF91CF9108958091D40180FF12C06091CF
:103C6000050185E0689FB0011124759567957595EC
:103C7000679560387105A8F561157105A1F1862F6A
:103C8000089581FF09C06091050185E0689FB0013A
:103C9000112475956795EDCF6091050182FD0AC0ED
:103CA0008091D3018823D1F09091040160910501A6
:103CB000891728F085E0689FB0011124DACF869F2C
:103CC000B001112485E0869F9001879F300D11245B
:103CD000692F70E0C9010E94792DCBCF65E070E0BB
:103CE000CECF8FE7089581E008958091D40180FFC1
:103CF0000CC06091030170E07595679575956795A7
:103D00006115710549F1862F089581FF06C0609104
:103D1000030170E075956795F3CF6091030182FD13
:103D20000BC09091D3019923A1F060910201809181
:103D30000301961738F0682F70E06038710500F3C2
:103D40008FE70895899FC001112470E00E94792DAA
:103D5000F4CF61E070E0D7CF81E00895803F31F487
:103D60000E942B1E81958093D8010895813F19F4FC
:103D70000E942B1EF8CF823F31F40E942B1E8195AA
:103D80008093D7010895833F19F40E942B1EF8CF2A
:103D9000893F29F40E94751E8093D90108958A3FB6
:103DA00021F40E94751E8195F7CF8B3F31F40E945C
:103DB000751E81958093DA0108958C3F19F40E9455
:103DC000751EF8CF843F31F48091D60181608093D5
:103DD000D6010895853F21F48091D6018260F7CF06
:103DE000863F21F48091D6018460F1CF873F21F492
:103DF0008091D6018860EBCF883F21F48091D60175
:103E00008061E5CF8D3F31F48091D4018160809352
:103E1000D40108958E3F21F48091D4018260F7CFC0
:103E20008F3FB9F78091D4018460F1CF9091D70191
:103E3000803F41F48091D80187FD1092D8019923E9
:103E400071F00895813F29F48091D8011816ACF3E0
:103E5000F6CF823F81F497FFF2CF1092D701809185
:103E6000D8019091D901892B9091DA01892B49F7DA
:103E70001092D3010895833F19F4191674F3DFCF1C
:103E8000893F39F48091D9011816CCF61092D901E6
:103E9000D6CF8A3F29F48091D90187FFD0CFF6CFC2
:103EA0008B3F39F48091DA0187FFC9CF1092DA0194
:103EB000C6CF8C3F29F48091DA011816BCF3BFCF2E
:103EC000843F31F48091D6018E7F8093D601B7CFA5
:103ED000853F21F48091D6018D7FF7CF863F21F475
:103EE0008091D6018B7FF1CF873F21F48091D6015D
:103EF000877FEBCF883F21F48091D6018F7EE5CF7D
:103F00008D3F31F48091D4018E7F8093D40197CF7F
:103F10008E3F21F48091D4018D7FF7CF8F3F09F040
:103F20008ECF8091D4018B7FF0CF8091CF0183FF22
:103F30007EC081EE93E00E944B078091D6011F92D4
:103F40008F938CED93E09F938F930E94E4078AED0B
:103F500093E00E944B078091D701282F082E000C78
:103F6000330B3F938F9387ED93E09F938F930E9442
:103F7000E40785ED93E00E944B078091D801282F3C
:103F8000082E000C330B3F938F9382ED93E09F93A9
:103F90008F930E94E40780ED93E00E944B0780918D
:103FA000D901282F082E000C330B3F938F938DECF3
:103FB00093E09F938F930E94E4078BEC93E00E9421
:103FC0004B078091DA01282F082E000C330B3F930A
:103FD0008F9388EC93E09F938F930E94E40785EC86
:103FE00093E00E944B078091D3011F928F9382EC44
:103FF00093E09F938F930E94E40780EC93E00E94EC
:104000004B078091D4011F928F938DEB93E09F9388
:104010008F930E94E4078AEB93E00E944B078DB7D1
:104020009EB74C960FB6F8949EBF0FBE8DBF85ED20
:1040300091E00E94330E0E94D81B9093D20180938E
:10404000D10108951F93CF93DF938091D101909177
:10405000D2010E94041CAC018091D3012091060181
:1040600030E0811106C0209107019AE0299F90015C
:1040700011244217530778F02091D701C091D8013D
:104080001091D901D091DA01211109C09C2F912BF7
:104090009D2B09F06AC0DF91CF911F9108958F3F4A
:1040A00019F08F5F8093D301121624F40E942B1E07
:1040B0008093D7018091D70187FF05C00E942B1EF6
:1040C00081958093D7011C1624F40E942B1E8093A7
:1040D000D8018091D80187FF05C00E942B1E8195D1
:1040E0008093D8013091D7013323A1F02091D801DA
:1040F000222381F045EB3403C0011124992369F197
:104100009093D70145EB240390011124332349F107
:104110003093D801111624F40E94751E8093D901A2
:104120008091D90187FF05C00E94751E81958093FB
:10413000D9011D1624F40E94751E8093DA01809126
:10414000DA0187FF05C00E94751E81958093DA0110
:10415000DF91CF911F910C94951F81E08093D7013F
:10416000D1CF81E08093D801D5CF8F3F09F099CF8F
:10417000AACF86E0E5EDF1E0DF011D928A95E9F72F
:104180001092D3011092D401089584E096E00E9429
:104190004B071F9281E08F931F9285E08F9386EBF0
:1041A00095E09F938F930E94E4070F900F900F90DC
:1041B0000F900F900F900895843009F45DC040F483
:1041C000823061F1833009F440C0813041F00895BC
:1041D000853009F468C0863009F47CC00895809168
:1041E0000701482F460F5527551F4F3F510594F49F
:1041F000680F60930701809107011F928F938FEEE4
:1042000094E09F938F930E94E4070F900F900F907C
:104210000F9008958FEF80930701EDCF80910601F5
:10422000482F460F5527551F4F3F510554F4680F2F
:1042300060930601809106011F928F938DED94E0AB
:10424000E0CF8FEF80930601F5CF80910501482FD5
:10425000460F5527551F4F3F510554F4680F609383
:104260000501809105011F928F938AEC94E0C9CFDC
:104270008FEF80930501F5CF80910401482F460F01
:104280005527551F4F3F510554F4680F60930401A3
:10429000809104011F928F9385EB94E0B2CF8FEF52
:1042A00080930401F5CF80910301482F460F5527D5
:1042B000551F4F3F510554F4680F609303018091DF
:1042C00003011F928F938CE994E09BCF8FEF809333
:1042D0000301F5CF80910201482F460F5527551F46
:1042E0004F3F510554F4680F609302018091020121
:1042F0001F928F9381E894E084CF8FEF8093020127
:10430000F5CF843009F44AC038F4823029F1833083
:10431000A1F1813041F00895853009F450C0863014
:1043200009F45EC0089580910701681790F4861B18
:1043300080930701809107011F928F9382E794E099
:104340009F938F930E94E4070F900F900F900F9010
:10435000089510920701EECF80910601681750F47E
:10436000861B80930601809106011F928F9380E641
:1043700094E0E6CF10920601F6CF80910501681710
:1043800050F4861B80930501809105011F928F9345
:104390008DE494E0D5CF10920501F6CF8091040111
:1043A000681750F4861B80930401809104011F92CA
:1043B0008F9388E394E0C4CF10920401F6CF8091EC
:1043C0000301681750F4861B809303018091030159
:1043D0001F928F938FE194E0B3CF10920301F6CF39
:1043E00080910201681750F4861B8093020180912E
:1043F00002011F928F9384E094E0A2CF10920201F9
:10440000F6CFCF93DF9300D000D0CDB7DEB789834E
:104410001F928F9389E097E09F938F930E94E40708
:1044200081E090E0A0E0B0E09C01AD01098004C013
:10443000220F331F441F551F0A94D2F729833A8352
:104440004B835C83CA01B9010E9407170F900F903C
:104450000F900F900F900F900F900F90DF91CF91D2
:104460000C944813CF938B3258F4853098F0EBEFCF
:10447000E80FE63278F4F0E0E35FF14D0C948D2D17
:10448000833470F48A3308F00BC2853359F08833D3
:1044900009F443C188E99BE00E944B0780E052C1C8
:1044A0008334C1F780E00E9401222EC187E39CE0A3
:1044B0000E944B0788E89BE00E944B070E949D1AD0
:1044C0001F928F9385E89BE09F938F930E94E40750
:1044D00083E89BE00E944B070E94941AC82F80E754
:1044E0009BE00E944B071F92CF938BE69BE09F932C
:1044F0008F930E94E40789E69BE00E944B078FE5BB
:104500009BE00E944B078C2F81701F928F938CE54C
:104510009BE09F938F930E94E4078AE59BE00E94B3
:104520004B0780E59BE00E944B07C1FB882780F981
:104530001F928F938DE49BE09F938F930E94E407DB
:104540008BE49BE00E944B078FE39BE00E944B07AC
:10455000C2FB882780F91F928F938CE39BE09F9387
:104560008F930E94E4078AE39BE00E944B0781E35C
:104570009BE00E944B07C3FBCC27C0F91F92CF934F
:104580008EE29BE09F938F930E94E4078CE29BE076
:104590000E944B070E94A61AC82F88E19BE00E9448
:1045A0004B071F92CF9383E19BE09F938F930E94D1
:1045B000E40781E19BE00E944B0788EF9AE00E94AC
:1045C0004B078C2F81701F928F9385EF9AE09F93FA
:1045D0008F930E94E4078DB79EB780960FB6F8942C
:1045E0009EBF0FBE8DBF83EF9AE00E944B078CEDFC
:1045F0009AE00E944B07C1FB882780F91F928F9396
:1046000089ED9AE09F938F930E94E40787ED9AE0EB
:104610000E944B0785EC9AE00E944B07C2FB88275B
:1046200080F91F928F9382EC9AE09F938F930E9460
:10463000E40780EC9AE00E944B078EEA9AE00E9421
:104640004B07C3FB882780F91F928F938BEA9AE070
:104650009F938F930E94E40789EA9AE00E944B0798
:104660008FE99AE00E944B07C4FB882780F91F92CC
:104670008F938CE99AE09F938F930E94E4078AE9D5
:104680009AE00E944B0788E89AE00E944B07C5FB1E
:10469000882780F91F928F9385E89AE09F938F93E4
:1046A0000E94E40783E89AE00E944B0787E69AE0BD
:1046B0000E944B07C6FB882780F91F928F9384E6E0
:1046C0009AE09F938F930E94E40782E69AE00E940B
:1046D0004B078AE59AE00E944B07C7FBCC27C0F93D
:1046E0001F92CF9387E59AE09F938F930E94E407F0
:1046F00085E59AE00E944B078DB79EB74C960FB6A2
:10470000F8949EBF0FBE8DBF81E01CC086E29CE086
:104710000E944B070E940D1BF7CF82EB98E00E948E
:104720004B07F2CF8091CF01807F8093CF018BE840
:1047300098E00E944B0782E29CE00E944B0781E0D8
:104740008093DC01CF9108950E94481386E09CE09D
:104750000E944B079FEF23ED80E391502040804063
:10476000E1F700C000000E94831CCECF9091CF01E2
:10477000892F8E7F90FF81608093CF0180FF03C0DF
:104780008AEF9BE0CCCF8DEE9BE00E944B0780919F
:10479000CF01817F8093CF01B7CF9091CF01892F37
:1047A0008D7F91FF82608093CF0181FF08C080EEF2
:1047B0009BE00E944B078091CF018160EBCF82ED9F
:1047C0009BE0ADCF9091CF01892F8B7F92FF8460CA
:1047D0008093CF0182FF03C083EC9BE0EACF83EBA1
:1047E0009BE09DCF9091CF01892F877F93FF8860B9
:1047F0008093CF0183FF03C087EA9BE0DACF8AE989
:104800009BE08DCF8CE798E00E944B0784E598E011
:104810000E944B078EE198E00E944B0782EE97E0E2
:104820000E944B0782EA97E00E944B0787E797E0D8
:1048300076CF89E697E00E944B070E94DB0D1F921E
:104840008F938FE497E09F938F930E94E40780916A
:1048500012011F928F9388E397E09F938F930E949A
:10486000E4078091E9011F928F9385E297E09F937F
:104870008F930E94E4070E94E41B9F938F937F9382
:104880006F938EE097E09F938F930E94E4078DB71C
:104890009EB742960FB6F8949EBF0FBE8DBF34CF21
:1048A000895301CE8D51FFCD80E008950C9454249E
:1048B0008E518A3030F4E82FF0E0ED5EFE4F8081BB
:1048C000089580E00895CF93C82F8091DC01813056
:1048D000A9F0823009F446C0811136C10E94BE1988
:1048E000823209F033C18C2F0E94542481111BC0E5
:1048F0008C2F0E9432228170CF9108950E94BE19A0
:10490000823289F38C2F0E94562481111BC0C4313E
:10491000D9F060F4CB3071F0C031D1F08FEF96E078
:104920000E944B0713C081E090E0E5CFC93261F0EF
:10493000C833A1F78BE898E00E944B0785E097E029
:104940000E944B0781E0D7CF1092DC0180E0D3CFEB
:104950000E94C52081E097E00E944B0782E080938F
:10496000DC01F0CFC93209F445C060F5C33109F468
:1049700050C050F4C73009F4CDC0CB30C1F183EA48
:1049800095E00E944B071CC0C431A1F182EE8C0F50
:104990008630A8F78C2F0E9458248093DB018091E9
:1049A000DB01882309F4CDC01F928F938DE995E038
:1049B0009F938F930E94E4070F900F900F900F909A
:1049C00081E09ACFCE3409F4A3C050F4C83379F013
:1049D0006AE0CB34A1F68091DB010E94DC20DFCFBE
:1049E000C13509F48FC061E0C235A9F3C8CF0E9478
:1049F000C520D5CF8091DB01882319F01092DB010F
:104A0000CECF82EB95E00E944B0781E08093DC01E2
:104A100073CF8CE895E00E944B078AE795E00E94EF
:104A20004B07809107011F928F9387E795E09F9333
:104A30008F930E94E40785E795E00E944B0783E689
:104A400095E00E944B07809106011F928F9380E6AC
:104A500095E09F938F930E94E4078EE595E00E9476
:104A60004B078FE495E00E944B07809105011F9250
:104A70008F938CE495E09F938F930E94E4078AE4E0
:104A800095E00E944B0789E395E00E944B078091D7
:104A900004011F928F9386E395E09F938F930E946A
:104AA000E40784E395E00E944B078FE195E00E94C4
:104AB0004B07809103011F928F938CE195E09F93A8
:104AC0008F930E94E4078AE195E00E944B0783E000
:104AD00095E00E944B07809102011F928F9380E026
:104AE00095E09F938F930E94E4078EEF94E00E94DD
:104AF0004B078DB79EB748960FB6F8949EBF0FBE72
:104B00008DBF4DCF61E08091DB010E94812147CFB5
:104B10006AE0F9CF8EE18093070182E3809306017A
:104B20008AE08093050184E18093040188E080930A
:104B3000030188E28093020185EA95E00E944B0719
:104B40002ECF8AE995E01DCF1092DC0180E0D4CE13
:104B50008091E80108959FB7F8941092DF019FBFFC
:104B60009091F701943009F048C02091E9002F702E
:104B70003091EC00932F917030FD90E8922B23E060
:104B80002093E9002091EB0020FF34C02091EE003B
:104B900027FF30C02091DD01222321F02091E80081
:104BA00025FF28C01092DD0126E03091E80035FF96
:104BB00014C08093F1008091E80085FD27C08091AA
:104BC000E80080FFFCCF8091E8008E778093E800BA
:104BD0009F709093E90080E008953091F7013430A0
:104BE00049F43091EB0035FD05C0215041F481E0DE
:104BF0008093DD019F709093E9008FEF0895EFE9B6
:104C0000FFE03197F1F700C00000CFCF8FB7F894E5
:104C100021E02093DF018FBFDBCF0F931F93CF9352
:104C2000DF9300D00F92CDB7DEB78C010E94C92868
:104C3000823011F0843021F584E089830A831B835C
:104C400082E08093E9008FEF9091E800815095FD1C
:104C500006C095ED9A95F1F700008111F5CF80918E
:104C6000E80085FF0DC050E040E063E070E0CE0159
:104C700001960E94E6288091E8008E778093E800F4
:104C80000F900F900F90DF91CF911F910F9108958A
:104C9000CF93DF9300D00F92CDB7DEB79C01809108
:104CA000F701843031F583E08983205831093B8353
:104CB0002A8382E08093E9008FEF9091E800815091
:104CC00095FD06C095ED9A95F1F700008111F5CF9D
:104CD0008091E80085FF0DC050E040E063E070E0A7
:104CE000CE0101960E94E6288091E8008E7780939D
:104CF000E8000F900F900F90DF91CF910895CF9320
:104D0000DF93D82FC92F0E94C928823011F0843038
:104D100001F582E08093E9008FEF9091E8008150E7
:104D200095FD06C095ED9A95F1F700008111F5CF3C
:104D30008091E80085FF0DC050E040E066E070E043
:104D40008D2F9C2F0E94E6288091E8008E7780931B
:104D5000E800DF91CF910895CF93DF93D82FC92F2B
:104D60000E94C928823011F0843049F581E0809397
:104D7000E9008FEF9091E800815095FD06C095ED18
:104D80009A95F1F700008111F5CF8091E80085FF39
:104D900016C050E040E068E070E08D2F9C2F0E942C
:104DA000E6288091E8008E778093E80088E0ED2F78
:104DB000FC2FA0EEB1E001900D928A95E1F7DF9112
:104DC000CF91089587E69CE00E944B078091F60101
:104DD000811109C00E946E2A0E94CB2A8091E200B4
:104DE00084608093E200089583E69CE00E944B0774
:104DF0001092F60108958FE59CE00C944B078BE52B
:104E00009CE00C944B0787E59CE00E944B070C94B8
:104E1000A01B2091DE012F5F822F62E30E946D2D87
:104E2000992319F02093DE0108951092DE018091FC
:104E3000DF018823F1F08091F7018430C1F4909173
:104E4000E9009F702091EC00822F817020FD80E8A6
:104E5000892B93E09093E9009091EB0090FF04C0C0
:104E60009091EE0097FD08C08F708093E90010923A
:104E7000DF0108951092F1009091E80095FDFACFBE
:104E80009091E80090FFF0CF9091E8009E7790938A
:104E9000E800EACF42E061EC81E00E94EA2942E2C8
:104EA00061EC82E00E94EA2942E261EC83E00C942A
:104EB000EA298091F901893089F148F4823009F4B6
:104EC0009DC0833009F458C0813041F008958A3084
:104ED00009F484C08B3009F46AC008958091F80108
:104EE000813A09F048C08091E800877F8093E8000C
:104EF0008091FC019091FD01892B61F468E080EEC6
:104F000091E070E00E9435298091E8008B778093D2
:104F1000E800089560E090E080E0F3CF8091F80130
:104F2000813249F58091FC019091FD01029718F5BD
:104F30008091E800877F8093E8008091E80082FFFD
:104F400016C09091F3008091F200029729F48091AD
:104F5000F1008B7F813021F48091F1008093E80192
:104F60008091E8008B778093E8000C941E2A809152
:104F7000F7018111E2CF08958091F801813AD9F7C4
:104F80008091FC019091FD01892BA9F78091E800A7
:104F9000877F8093E8008091E80080FFFCCF8091BC
:104FA00012018093F1008091E8008E77DCCF809130
:104FB000F801813201F78091FC019091FD01892B6C
:104FC000D1F68091E800877F8093E8000E941E2A36
:104FD0008091FA01809312010C9448138091F8019A
:104FE000813249F68091E800877F8093E8000E9433
:104FF0001E2A8091FB018093E90108958091F801B8
:10500000813A09F0B8CF8091E800877F8093E8006B
:105010008091E80080FFFCCF8091E901C2CF84B786
:10502000877F84BF0FB6F894A8958091600088614F
:1050300080936000109260000FBE80E88093610052
:10504000109261000E947C0E0E946E2A0E94CB2A60
:105050008091E20084608093E2008BEA95E20E94F6
:10506000701A78940E94522D0E94840E88E091E07C
:105070000E94D60D86E49CE00E944B078091F701C8
:10508000853019F00E94B40EF9CF82E49CE00E94B2
:105090004B070E94591B8091F501882379F30E94E8
:1050A000891B882359F30E94D028E8CF0C945828F4
:1050B000FC01CB01DA012F2F332723303105D1F04A
:1050C00070F42130310509F44EC02230310569F405
:1050D0008BE590E027E93CE02D933C930895213245
:1050E000310521F12232310571F190E080E030E0AC
:1050F00020E0F2CFCF019927E230A9F0833091056B
:1051000050F4009769F0E5E8FCE0019771F78491AD
:1051100090E09F01E1CFEBE6FCE00397C1F3E5CF20
:10512000E3E9FCE0F4CFE1E7FCE0F1CF63307105A7
:10513000E0F6880F991FFC01EA5DFE4F2081318166
:1051400089E090E0C9CF6330710578F6FB01EE0F7E
:10515000FF1FE05EFE4F20813181835E9E4FFC0188
:10516000808190E0B9CF82E190E022EF3CE0B4CFC3
:105170000895CF93C82F0E94B828C093EA01CF9119
:1051800008958091F701843011F482E0089581E060
:1051900008958091EA01811102C00C94C1280895FC
:1051A00080E189BD82E189BD09B400FEFDCF809117
:1051B000D8008F7D8093D8008091E000826080933A
:1051C000E0008091E00081FDFCCF0895AF92BF9296
:1051D000CF92DF92FF920F931F93CF93DF936C01D7
:1051E000EB018A010E943D2AF82E811123C001158E
:1051F000110539F0F80180819181C81BD90BC80EC7
:10520000D91EB12CA12C2097A9F08091E80085FD32
:1052100022C08091E8008E778093E8000115110587
:10522000A1F0F80180819181A80EB91EB182A082FF
:1052300085E0F82E8F2DDF91CF911F910F91FF9078
:10524000DF90CF90BF90AF9008950E943D2A8823B1
:10525000D1F2F82EEFCFF60181916F018093F1002A
:105260002197FFEFAF1ABF0ACECFFC01CB012091EF
:10527000FE013091FF012617370790F0009729F4BF
:105280002091E8002E772093E80040E0009751F449
:10529000411108C08091E80082FF31C080E008958C
:1052A000C901F3CF2091F7012223A9F12530A9F1FB
:1052B0002091E80023FD2DC02091E80022FDEACFD7
:1052C0002091E80020FFE2CF3091F3002091F2001E
:1052D000009719F02830310558F041E028303105A9
:1052E00009F040E02091E8002E772093E800CECF2F
:1052F00041914093F10001972F5F3F4FE9CF80919B
:10530000F701882341F0853041F08091E80083FF68
:10531000C1CF81E0089582E0089583E00895FC0103
:10532000CB012091FE013091FF012617370790F045
:10533000009729F42091E8002E772093E80040E0C0
:10534000009751F4411108C08091E80082FF32C0FB
:1053500080E00895C901F3CF2091F7012223B1F134
:105360002530B1F12091E80023FD2EC02091E80006
:1053700022FDEACF2091E80020FFE2CF3091F30038
:105380002091F200009719F02830310558F041E0E3
:105390002830310509F040E02091E8002E77209375
:1053A000E800CECF44914093F100319601972F5FF2
:1053B0003F4FE8CF8091F701882341F0853041F0DD
:1053C0008091E80083FFC0CF81E0089582E00895D6
:1053D00083E00895982F973028F08F708093E9002C
:1053E00081E008959093E900242F762F50E09817DC
:1053F00031F07091EC002091ED005091F00021FD12
:1054000002C09F5FE8CF3091EB003E7F3093EB000E
:105410003091ED003D7F3093ED003091EB00316035
:105420003093EB007093EC002093ED005093F0006C
:105430002091EE0027FDE5CF80E008958091F801EE
:1054400087FF13C08091E80082FF06C08091E800CA
:105450008B778093E80004C08091F7018111F2CF2F
:1054600008958091F7018823D9F38091E80080FFA7
:10547000F8CF8091E8008E77ECCF2091E400309156
:10548000E50095E6A9012091EC00822F817020FFB4
:1054900006C08091E80080FF06C080E0089520915A
:1054A000E80022FD1AC08091F701882389F0853039
:1054B00089F08091EB0085FD0FC02091E4003091D0
:1054C000E50042175307F9F29150E1F684E00895A0
:1054D00082E0089583E0089581E008950E94DC2A27
:1054E0000E94E42AE0EEF0E0808181608083E8EDB4
:1054F000F0E080818F77808319BCA7EDB0E08C91BC
:105500008E7F8C9380818F7E80831092F601089528
:105510000F931F93CF93DF930E94DC2A0E94E42A0B
:10552000C8EDD0E088818F77888388818068888300
:1055300088818F7D888319BC1092F7011092F30146
:105540001092F5011092F40100EE10E0F801808154
:105550008B7F808388818160888342E060E080E087
:105560000E94EA29E1EEF0E080818E7F8083E2EE06
:10557000F0E0808181608083808188608083F80191
:1055800080818E7F8083888180618883DF91CF9145
:105590001F910F910895E8EDF0E080818F7E808368
:1055A000E7EDF0E080818160808384E082BF81E06C
:1055B0008093F6010C94882AE8EDF0E080818E7FDC
:1055C00080831092E20008951092DA001092E100B8
:1055D00008951F920F920FB60F9211242F933F93AD
:1055E0004F935F936F937F938F939F93AF93BF93EB
:1055F000EF93FF938091E10082FF0BC08091E20066
:1056000082FF07C08091E1008B7F8093E1000E94C0
:1056100009278091DA0080FF19C08091D80080FFAF
:1056200015C08091DA008E7F8093DA008091D900D6
:1056300080FF94C080E189BD82E189BD09B400FE8C
:10564000FDCF81E08093F7010E94E2268091E10086
:1056500080FF19C08091E20080FF15C08091E200B8
:105660008E7F8093E2008091E20080618093E2006F
:105670008091D80080628093D80019BC85E0809327
:10568000F7010E94FF268091E10084FF29C08091EC
:10569000E20084FF25C080E189BD82E189BD09B4B3
:1056A00000FEFDCF8091D8008F7D8093D80080913F
:1056B000E1008F7E8093E1008091E2008F7E8093F5
:1056C000E2008091E20081608093E2008091F3012A
:1056D000882309F449C084E08093F7010E940327DE
:1056E0008091E10083FF29C08091E20083FF25C003
:1056F0008091E100877F8093E10082E08093F70151
:105700001092F3018091E1008E7F8093E1008091FF
:10571000E2008E7F8093E2008091E20080618093BE
:10572000E20042E060E080E00E94EA298091F0001F
:1057300088608093F0000E94FB26FF91EF91BF915B
:10574000AF919F918F917F916F915F914F913F9119
:105750002F910F900FBE0F901F90189519BC1092AB
:10576000F7010E94F42672CF8091E30087FD02C00A
:1057700081E0B2CF83E0B0CF1F920F920FB60F92AD
:1057800011242F933F934F935F936F937F938F9346
:105790009F93AF93BF93CF93DF93EF93FF93D091FA
:1057A000E900DF708091EC00C82FC17080FDC0E877
:1057B0001092E9008091F000877F8093F000789448
:1057C0000E94002C1092E9008091F0008860809384
:1057D000F000CD2BCF70C093E900FF91EF91DF91E6
:1057E000CF91BF91AF919F918F917F916F915F9179
:1057F0004F913F912F910F900FBE0F901F901895D2
:105800001F93CF93DF93CDB7DEB7AA970FB6F89467
:10581000DEBF0FBECDBF88EF91E0FC010196209165
:10582000F100208322E080309207B9F70E945927C7
:105830008091E80083FF1EC18091F8019091F901E9
:105840009A3008F017C1E92FF0E0ED5CF14D0C94AF
:105850008D2D803899F0823809F00CC18091FC01BF
:105860008F70873008F006C18093E9008091EB00CB
:1058700085FB882780F91092E90006C08091F40129
:105880009091F501911182609091E800977F90933B
:10589000E8008093F1001092F1008091E8008E778B
:1058A000E5C0882309F4D3C0823009F0E3C08091B9
:1058B000FA018111D6C08091FC018F702FEF280F63
:1058C000263008F0D7C08093E9002091EB0020FF3C
:1058D000C8C0933031F48091EB0080628093EB007C
:1058E000C0C09091EB0090619093EB0021E030E01C
:1058F00001C0220F8A95EAF72093EA001092EA008D
:105900008091EB008860EACF8111B4C01091FA0158
:105910001F778091E3008078812B8093E300809152
:10592000E800877F8093E8000E941E2A8091E800AB
:1059300080FFFCCF8091E30080688093E30082E0E9
:10594000111183E08093F70195C08058823008F0F0
:1059500091C08091FA019091FB018C3D23E0920768
:10596000A1F583E08A838AE289834FB7F894DE0148
:10597000139620E03EE051E2E32FF0E05093570011
:10598000E49120FF03C0E295EF703F5FEF708E2F30
:1059900090E0EA30C0F0C7968D939D932F5F24313D
:1059A00059F74FBF8091E800877F8093E8006AE253
:1059B00070E0CE0101960E9435298091E8008B7736
:1059C0008093E80057C0C096E7CF6091FC017091CA
:1059D000FD01AE014F5F5F4F0E945628BC01892B2D
:1059E00009F448C08091E800877F8093E8008981AE
:1059F0009A810E948F29E1CF8038E1F58091E800FB
:105A0000877F8093E8008091F3018093F10045CF78
:105A1000811130C09091FA01923060F58091E800D8
:105A2000877F8093E8009093F3010E941E2A809163
:105A3000F301882311F084E005C08091E30087FD25
:105A4000FACF81E08093F7010E944A2713C080912A
:105A5000FA01813079F481E0933009F080E080939D
:105A6000F5011092E9008091E800877F8093E800BB
:105A70000E941E2A8091E80083FF0AC08091E800FE
:105A8000877F8093E8008091EB0080628093EB0039
:105A9000AA960FB6F894DEBF0FBECDBFDF91CF91AF
:105AA0001F910895CF938091F7018823A1F0C091B1
:105AB000E900CF709091EC00892F817090FD80E813
:105AC000C82B1092E9008091E80083FD0E94002C11
:105AD000CF70C093E900CF910895991B79E004C07D
