:100000000C94A5060C94EC060C94EC060C94EC06EF
:100010000C94EC060C94EC060C94EC060C94EC0698
:100020000C94EC060C94EC060C946B280C943E2972
:100030000C948F190C94EC060C94EC060C94EC06C2
:100040000C94EC060C94EC060C94EC060C94EC0668
:100050000C94EC060C941E1A0C94EC060C94EC0612
:100060000C94EC060C94EC060C94EC060C94EC0648
:100070000C94EC060C94EC060C94EC060C94EC0638
:100080000C94EC060C94EC060C94EC060C94EC0628
:100090000C94EC060C94EC060C94EC060C94EC0618
:1000A0000C94EC060C94EC060C94EC0625303258BB
:1000B0003A20253038620A000A722F63203031322C
:1000C00033343536370A001F0014001A00160004B6
:1000D000001D001B0006002000210015000800077D
:1000E00000090019000500220023001C0017000A67
:1000F000000B00110000001E0029002B000251D649
:100100005CE000E2002C002400250018000C000E2A
:10011000000D0010000000310035003000340001F7
:1001200053D75CE600E300260027001200130033DB
:10013000000F00360000002D002E0028002F002A9E
:10014000003800370000001F0014001A00160004D9
:10015000001D001B000600200021001500080007FC
:1001600000090019000500220023001C0017000AE6
:10017000000B00110000001E0029002B000251D6C8
:100180005CE200E3002C002400250018000C000EA7
:10019000000D001000000031003500300034000177
:1001A00053D75CE600E0002600270012001300335E
:1001B000000F00360000002D002E0028002F002A1E
:1001C000003800370000003B0001000100A900AA30
:1001D000000100010001003C003D0001000100A8F9
:1001E000000100010001003E003F0001000100018C
:1001F000005000570000003A00A50039000100013E
:1002000000010001000100400041000100460052D1
:10021000005100560000004900005C2A005800010F
:1002200000010001000100420043004700480001B6
:10023000004F004D00000044004500010052004CFA
:100240000051004E0000003B0001000100A900AA7F
:10025000000100010001003C003D0001000100A878
:10026000000100010001003E003F0001000100010B
:10027000005000570000003A00A5003900010001BD
:100280000001000100010040004100010046005251
:100290000051005600000049004C002A005800019F
:1002A0000001000100010042004300470048000136
:1002B000004F004D00000044004500010052004C7A
:1002C0000051004E00000044454255473A20656EFB
:1002D00061626C65642E0A000A00253032582000E5
:1002E0006B6579626F6172645F7265706F72743A88
:1002F00020000A0025303258006B6579626F617208
:10030000645F7365745F6C65643A2000646F6E654A
:100310002E0A00626F6F746D616769632073636199
:100320006E3A202E2E2E2000290A002575002F005F
:100330002575005D2800256400200025640020004C
:1003400025640020002564007C0025303258006DB3
:100350006F7573656B6579205B62746E7C7820794C
:10036000207620685D287265702F61636C293A20C1
:100370005B006D6B5F776865656C5F74696D655F69
:10038000746F5F6D6178203D2025640A006D6B5F9E
:10039000776865656C5F6D61785F73706565642013
:1003A0003D2025640A006D6B5F74696D655F746F35
:1003B0005F6D6178203D2025640A006D6B5F6D6183
:1003C000785F7370656564203D2025640A006D6B5D
:1003D0005F696E74657276616C203D2025640A0049
:1003E0006D6B5F64656C6179203D2025640A006D4A
:1003F0006B5F776865656C5F74696D655F746F5F6F
:100400006D6178203D2025640A006D6B5F7768651B
:10041000656C5F6D61785F7370656564203D202554
:10042000640A006D6B5F74696D655F746F5F6D6109
:1004300078203D2025640A006D6B5F6D61785F73E5
:1004400070656564203D2025640A006D6B5F696EF0
:1004500074657276616C203D2025640A006D6B5FC7
:1004600064656C6179203D2025640A000A002575C9
:1004700000363A20776865656C5F74696D655F74F6
:100480006F5F6D61783A20000A00257500353A20CB
:10049000776865656C5F6D61785F73706565643AF8
:1004A00020000A00257500343A2074696D655F7478
:1004B0006F5F6D61783A20000A00257500333A209D
:1004C0006D61785F73706565643A20000A00257578
:1004D00000323A20696E74657276616C286D7329FA
:1004E0003A20000A00257500313A2064656C617974
:1004F000282A31306D73293A20000A092D205661CF
:100500006C756573202D0A004D3E004D25643E201C
:10051000003F007365742064656661756C740A0041
:10052000433E200077686572652064656C74613AAB
:1005300020637572736F723D25642C207768656542
:100540006C3D25640A53656520687474703A2F2FDA
:10055000656E2E77696B6970656469612E6F72676D
:100560002F77696B692F4D6F7573655F6B65797355
:100570000A000A092D204D6F7573656B6579202D72
:100580000A4553432F713A09717569740A313A0962
:1005900064656C6179282A31306D73290A323A0911
:1005A000696E74657276616C286D73290A333A0935
:1005B0006D61785F73706565640A343A0974696DBA
:1005C000655F746F5F6D61780A353A0977686565B4
:1005D0006C5F6D61785F73706565640A363A0977A0
:1005E0006865656C5F74696D655F746F5F6D617878
:1005F0000A0A703A097072696E742076616C7565CA
:10060000730A643A097365742064656661756C7475
:10061000730A75703A092B310A646F776E3A092DA7
:10062000310A706775703A092B31300A7067646F50
:10063000776E3A092D31300A0A7370656564203D82
:100640002064656C7461202A206D61785F73706529
:100650006564202A2028726570656174202F2074DB
:10066000696D655F746F5F6D6178290A003F004DA9
:100670003E2000433E20004C25640A0074696D65ED
:10068000725F72656164333228293A202530346CF8
:10069000580A006B6579626F6172645F69646C65AA
:1006A0003A2025580A006B6579626F6172645F7049
:1006B000726F746F636F6C3A2025580A00686F730D
:1006C000745F6B6579626F6172645F6C65647328D7
:1006D000293A2025580A000A092D2053746174759F
:1006E00073202D0A004743433A20382E322E302003
:1006F0004156522D4C4942433A20322E302E302062
:100700004156525F415243483A20617672350A00A1
:100710004F5054494F4E533A204C55464120424F7A
:100720004F544D41474943204D4F5553454B455933
:100730002045585452414B455920434F4E534F4C3E
:100740004520434F4D4D414E4420343039360A0048
:100750004255494C443A2022302E362E3135332D25
:100760003333382D676666653331332D64697274AF
:100770007922202831343A30363A323820446563C1
:100780002031312032303138290A005649443A208C
:1007900030784645454428712E6D2E6B29205049EE
:1007A000443A203078434146452848484B42206D22
:1007B0006F6429205645523A203078303130340A5F
:1007C00000444553433A20712E6D2E6B206B6579A2
:1007D000626F617264206669726D7761726520660E
:1007E0006F722048484B420A000A092D2056657254
:1007F00073696F6E202D0A000A092D20436F6E73F6
:100800006F6C65202D0A4553432F713A0971756944
:10081000740A6D3A096D6F7573656B65790A000A24
:10082000092D204D61676963202D0A443A0944650A
:10083000627567204D65737361676520546F6767E4
:100840006C650A583A094D61747269782044656292
:100850007567204D6F646520546F67676C65202D48
:100860002053686F77206B65797072657373657359
:1008700020696E206D617472697820677269640AFC
:100880004B3A094B6579626F617264204465627509
:100890006720546F67676C65202D2053686F772041
:1008A0006B65797072657373207265706F72740A0C
:1008B0004D3A094465627567204D6F757365205424
:1008C0006F67676C650A563A0956657273696F6E91
:1008D0000A533A095374617475730A433A094163C0
:1008E00074697661746520436F6E736F6C65204D1B
:1008F0006F64650A46312D4631303A095377697481
:10090000636820746F204C6179657220302D392026
:1009100028463130203D204C30290A302D393A0903
:1009200053776974636820746F204C617965722015
:10093000302D390A4553433A095377697463682067
:10094000746F204C6179657220302028616C746569
:10095000726E617465206B65792031290A475241B6
:1009600056453A0953776974636820746F204C6167
:1009700079657220302028616C7465726E617465CF
:10098000206B65792032290A50415553453A094A6E
:10099000756D7020746F20426F6F746C6F61646549
:1009A0007220285265736574290A453A09507269A4
:1009B0006E7420454550524F4D2053657474696ED6
:1009C00067730A000A002575002E6E6B726F3A205D
:1009D000000A002575002E737761705F6261636B9A
:1009E000736C6173685F6261636B73706163653AB6
:1009F00020000A002575002E737761705F677261B1
:100A000076655F6573633A20000A002575002E6ED7
:100A10006F5F6775693A20000A002575002E7377AD
:100A200061705F72616C745F726775693A20000A69
:100A3000002575002E737761705F6C616C745F6C5C
:100A40006775693A20000A002575002E636170738E
:100A50006C6F636B5F746F5F636F6E74726F6C3A11
:100A600020000A002575002E737761705F636F6E3A
:100A700074726F6C5F636170736C6F636B3A2000AC
:100A80000A0025303258006B65796D61705F636FC5
:100A90006E6669672E7261773A20000A002575003C
:100AA0002E6D6F7573653A20000A002575002E6B58
:100AB0006579626F6172643A20000A002575002E24
:100AC0006D61747269783A20000A002575002E6500
:100AD0006E61626C653A20000A002530325800646D
:100AE000656275675F636F6E6669672E7261773ADC
:100AF00020000A0025750064656661756C745F6C82
:100B0000617965723A20003F000A6D6F7573653A2E
:100B1000206F66660A000A6D6F7573653A206F6E06
:100B20000A000A6B6579626F6172643A206F6666CB
:100B30000A000A6B6579626F6172643A206F6E0A0F
:100B4000000A6D61747269783A206F66660A000A5D
:100B50006D61747269783A206F6E0A000A6465628A
:100B600075673A206F66660A000A64656275673ABF
:100B7000206F6E0A000A0A4A756D70696E672074EC
:100B80006F20626F6F746C6F616465722E2E2E2001
:100B900000433E20006565636F6E6669673A0A0030
:100BA0005B735D004B6579626F6172642073746181
:100BB00072742E0A005B575D005B535D005B525DF3
:100BC000005B445D005B435D0004033000000012E5
:100BD00003480048004B00420020006D006F006495
:100BE0000000000C0371002E006D002E006B000051
:100BF000000403090409025B00030100A0FA0904D0
:100C0000000001030101000921110100012240003F
:100C10000705810308000A09040100010300000020
:100C20000921110100012285000705820320000A25
:100C30000904020002030000000921110100012241
:100C4000220007058303200001070503032000019C
:100C50001201100100000008EDFEFECA04010102AD
:100C600003010631FF0974A1010975150026FF0073
:100C70009520750881020976150026FF00952075DC
:100C8000089102C005010902A10185020901A10024
:100C90000509190129051500250195057501810230
:100CA0009501750381010501093009311581257F01
:100CB00095027508810609381581257F950175080B
:100CC0008106050C0A38021581257F95017508817A
:100CD00006C0C005010980A1018503160100260395
:100CE000001A81002A8300751095018100C0050C4F
:100CF0000901A1018504160100269C021A01002A9F
:100D00009C02751095018100C005010906A101052D
:100D10000719E029E715002501950875018102955D
:100D200001750881010508190129059505750191CD
:100D3000029501750391010507190029FF15002689
:100D4000FF00950675088100C00011241FBECFEF7B
:100D5000DAE0DEBFCDBF04B603FE27C080910302F8
:100D600090910402A0910502B09106028730904B49
:100D7000A740B04BD1F410920302109204021092DB
:100D800005021092060214BE84B7877F84BF0FB697
:100D9000F894A8958091600088618093600010921B
:100DA00060000FBEE0E0F8E3099511E0A0E0B1E0DB
:100DB000EAE6F7E502C005900D92AC32B107D9F72B
:100DC00022E0ACE2B1E001C01D92A330B207E1F72E
:100DD0000E948E250C94642B0C940000FF93EF93DB
:100DE000E0912C01F0912D01309709F00995EF91D8
:100DF000FF910895FC018591803011F0EFDFFBCF6A
:100E00000895FF27E0E230E247FF0CC0419597FFCD
:100E100009C0EDE26095709580959095611D711DFA
:100E2000811D911D27FF02C0219530E350E2AA27C2
:100E3000660F771F881F991FAA1FA41710F0A41B05
:100E400063955A95A9F7AA3008F0A95FA05DAF9302
:100E5000F395611571058105910541F7ED3211F4A6
:100E6000EF93F395F21718F43F93F395FBCF8F911F
:100E7000B5DFFA95E1F70895E991F9918591803010
:100E800021F0853219F0AADFF9CF089520E0E89427
:100E900055915532C1F3503311F4689455915A333A
:100EA00048F4505390F3220F022E220F220F200DF0
:100EB000250FF4CF0EF4219589919991533619F3AA
:100EC000533729F1533559F1BC0188279927E89404
:100ED0005C3621F48991999168945591543639F48E
:100EE00046EF7EF077FF0DC08FEF9FEF0AC05537BA
:100EF0004AE039F0583540E121F0523642E009F03D
:100F00000895FF93EF937DDFEF91FF91B7CFFF93AC
:100F1000EF93FC0181918030B9F360DFFBCFFF9349
:100F2000EF9368DFF1CFDF93CF93CDB7DEB7259690
:100F3000A3DFCF91DF9108958FEF84B980E485B965
:100F400057985F9A2E9A2F98A6E3B1E01C921196BB
:100F50001C92119712961C92129713961C9213973B
:100F600014961C92149715961C92159716961C921F
:100F7000169717961C921797EEE2F1E010821182F5
:100F8000128213821482158216821782B093410155
:100F9000A0934001F0933F01E0933E01089508952E
:100FA0000C94CF07EF92FF920F931F93CF93DF9391
:100FB00080913E0190913F0120914001309141018B
:100FC00030933F0120933E01909341018093400173
:100FD000D0E0C0E001E010E0EE24EA94F12C60E003
:100FE00030E020E085B1422F807C8C2B862B85B9A8
:100FF000AAE1AA95F1F700C0E0913E01F0913F010E
:10100000EC0FFD1F808190E0022E02C09595879520
:101010000A94E2F780FD2F9AB5E3BA95F1F7000044
:1010200076B52E98EAE1EA95F1F700C0C80101C053
:10103000880F4A95EAF74091400150914101FA0129
:10104000EC0FFD1F4F9B70C080959081892380839A
:1010500086B5E72FF0E0871708F469C086B590E001
:101060008E1B9F0B069758F0E0913E01F0913F01D7
:10107000EC0FFD1F80814C0F5D1FFA018083FAE1A8
:10108000FA95F1F700C02F982E9A8BE291E0019724
:10109000F1F700C000002F5F3F4F685F2830310537
:1010A00009F0A0CFA0914001B0914101AC0FBD1F4C
:1010B000E0913E01F0913F01EC0FFD1F9C9180817A
:1010C000981751F00E94CB1960934201709343012D
:1010D00080934401909345012196C830D10509F0D1
:1010E0007ECF8091FA01853021F08091FA01811143
:1010F00011C060914201709143018091440190912F
:1011000045010E94011A613177428105910510F075
:101110000E9440190E94ED0881E0DF91CF911F915C
:101120000F91FF90EF9008959081892B90CF86B515
:10113000D701AE1BBF0B8A0F9B2F911D93CF209120
:10114000400130914101820F932F911DFC0180815C
:1011500008950F931F93CF93DF9388EB90E00E9445
:10116000FA06D0E0C0E00CEA10E0E0914001F09116
:101170004101EC0FFD1F80810E9467181F928F9321
:10118000DF93CF931F930F930E94930721960F90A5
:101190000F900F900F900F900F90C830D10529F746
:1011A000DF91CF911F910F910895089508956111D6
:1011B00007C0FC018281882331F085EE0E94AE0ECB
:1011C00090E080E0089585EE0E94570FF9CF81E00E
:1011D000089581E008950C94E9080C94D0070895CF
:1011E0000C94EF080C94F00808950E942C120E94B1
:1011F000F4082FEF84E39CE0215080409040E1F719
:1012000000C000000C94421AFF920F931F93CF93DB
:10121000DF938C01FC01C081D18180915C0181113F
:1012200041C082818823C9F1CE010E943F17F82E68
:10123000682FCE010E94EA16BE018F2D0E94990AE6
:10124000EC01B8010E94EB08882309F486C0C63D72
:10125000FCE5DF0709F416C108F041C0C531ECE533
:10126000DE0728F5C230FCE5DF0708F099C0C1159C
:101270008CE5D80709F46CC0C130DC4509F474C0B2
:1012800081E080934B0180934C01C801DF91CF91A5
:101290001F910F91FF900C94E708CE010E94171741
:1012A000F82ECACFCE010E943F17BE01C7CFC6316C
:1012B000DC4531F70E942618F8019281992309F440
:1012C0002DC18A7A91E009F490E090934601811152
:1012D00023C189E20E94AF170E94F3173EC0CB3DA5
:1012E0008CE5D80709F44EC020F5C73DFCE5DF07C3
:1012F00009F4EFC0C83DDC4519F6F801828181117F
:10130000ECC080914C01811105C1809149019091FF
:101310004A010E94D719883C910508F0FBC080E281
:101320000E948D0F88E20E94AE0E88E20E94570F45
:1013300014C0CC3DECE5DE0769F1CD3DDC4509F09C
:101340009FCFF8018281882341F00E94F71805C0E1
:10135000F801828181110E94F50880E0DF91CF9130
:101360001F910F91FF900895F80182818823A9F3BE
:101370008091D20181608093D20187EC92E00E943B
:10138000FA06EBCFF8018281882339F380E00E94CE
:101390003526E3CFF80182818823F9F282E0F7CF86
:1013A000F8018281882309F470CF0E947F1881118F
:1013B00002C00E94F7180E949C1890E09093F501DB
:1013C0008093F401FE01E350FC458091F4018160BB
:1013D000E231F10538F4EA59F44D0C94082B809170
:1013E000F40182608093F4018091F4010E94A018BE
:1013F0000E942C12B2CF8091F4018460F3CF8091CF
:10140000F4018860EFCF8091F4018061EBCF80918F
:10141000F4018062E7CF8091F4018064E3CF809192
:10142000F4018068DFCF8091F4018C60DBCF809184
:10143000F4018E7FD7CF8091F4018D7FD3CF80913F
:10144000F4018B7FCFCF8091F401877FCBCF809148
:10145000F4018F7EC7CF8091F4018F7DC3CF80913F
:10146000F4018F7BBFCF8091F4018F77BBCF809148
:10147000F401837FB7CF9091F401892F97FB87F90F
:101480008058B0CFF8018281882361F010924B011F
:101490000E94BF19909348018093470182E00E9407
:1014A000860F5BCF80914B0181110FC08091470166
:1014B000909148010E94D719883C910530F486E24A
:1014C0000E94AE0E86E20E94570F82E00E948D0FAE
:1014D00044CFF8018281882351F010924C010E9480
:1014E000BF1990934A018093490180E2D8CF80913F
:1014F0004C0181110FC08091490190914A010E94D5
:10150000D719883C910530F487E20E94AE0E87E23D
:101510000E94570F80E2DACF85E3DCCE809146014E
:10152000811104C089E20E94B617D6CE85E3FBCFB5
:10153000089528E0829FC0011124FC01E70FF11DEE
:1015400083E0EE0FFF1F8A95E1F7E60FF11DEE0F26
:10155000FF1FE953FF4F859194910895FC01EE0F11
:10156000FF1FE953FF4F859194910895CF93DF9327
:101570000E94990A0E94640CEC01811520E59207F3
:1015800008F042C0811530E4930708F00FC1883E8F
:10159000910528F5803E910508F09BC0883A910599
:1015A00088F4853A910508F08AC08130910509F4E4
:1015B00090C0009709F48DC0049708F08AC0D0E06D
:1015C000C0E087C08F3B910508F487C0805C91091B
:1015D000C03CD105A0F30E94AE0AEC017AC081158F
:1015E000904250F4C11581E0D80708F072C0C03FA6
:1015F000D10528F3D0656DC0C11590E3D90708F077
:10160000CBC0CE019F70E7CF811525E5920758F535
:10161000811534E5930708F0F8C0811542E5940779
:1016200050F4C11581E5D80708F4C3C0DC2FCC27DE
:10163000C16FD06A4EC0982F969596959E012370E3
:101640003327C115D34508F0D1C0C1E0D0E002C0B6
:10165000CC0FDD1F2A95E2F720E2929FC0011124F2
:10166000C82BD92BC1C0C11589E5D80780F4C11595
:1016700098E5D90708F0CEC0C11526E5D20708F0D5
:101680009ECFDC2FCC27CC27DF71D06222C0CE01C9
:10169000C1153AE5D30708F4C2C0905681159042AF
:1016A00008F08DCF8D2F8F710E94DF0C90E0982F66
:1016B000882788279F719C012C2BE901E6CF853A6A
:1016C000910509F4B6C0863A910509F0B5C0C2E8A3
:1016D000D0E4CE01DF91CF910895883A910509F4C5
:1016E000AEC0893A910509F4ADC08A3A910509F472
:1016F000ACC08B3A910509F4ABC08C3A910509F462
:10170000AAC08B3B910509F4A9C08C3B910509F453
:10171000A8C08D3A910509F4A7C0803B910509F452
:10172000A6C08E3A910509F4A5C08F3A910509F437
:10173000A4C0813B910509F4A3C0823B910509F443
:10174000A2C0833B910509F4A1C0843B910509F433
:10175000A0C0853B910509F49FC0863B910509F423
:101760009EC0873B910509F49DC0883B910509F413
:101770009CC0893B910509F49BC08D3B910509F400
:101780009AC08E3B910509F499C08A3B910509F4F2
:1017900098C0C0E0D4E49DCFCE019927D3FF03C009
:1017A000EC01D86C96CFEC01D06C93CFDF70D06A8F
:1017B00090CFCE01E4E096958795EA95E1F78370A6
:1017C0002C2F26952695237090E2299F90011124B5
:1017D000382B8C2F8370C1E0D0E002C0CC0FDD1F0E
:1017E0008A95E2F7C22BD32BDC6873CFC1E0D0E03F
:1017F00002C0CC0FDD1F2A95E2F730E2939FC001B3
:101800001124C82BD92BDA6864CFD82FCC27C46F0A
:10181000D06A5FCFDC2FCC27C06FD06A5ACF34E0BC
:10182000969587953A95E1F78F70CF70C06ED82F57
:10183000BECFC1E8D0E44DCFC3E8D0E44ACFC2EE7A
:10184000D4E447CFC9EED4E444CFCAEED4E441CFC8
:10185000C5EBD4E43ECFC6EBD4E43BCFC3EBD4E43A
:1018600038CFC4EBD4E435CFC7EBD4E432CFCCECE3
:10187000D4E42FCFCDECD4E42CCFC3E8D5E429CFEA
:10188000CAE8D5E426CFC2E9D5E423CFC4E9D5E43C
:1018900020CFC1E2D6E41DCFC3E2D6E41ACFC4E222
:1018A000D6E417CFC5E2D6E414CFC6E2D6E411CF12
:1018B000C7E2D6E40ECFCFE6D4E40BCFC0E7D4E442
:1018C00008CFCAE2D6E405CF8238910549F1B0F4D9
:1018D0008133910509F462C048F48932910509F415
:1018E00056C08A32910509F460C008958533910588
:1018F00009F446C08933910599F00895833E910516
:1019000031F138F4803E910591F0823E9105B1F0BD
:101910000895863E910521F1873E910551F1089584
:101920002091F4012370D9F080EE90E00895209189
:10193000F40120FF14C089E390E008952091F401A0
:1019400022FF0DC024FD09C083EE90E00895209190
:10195000F40122FD31C024FF02C090E080E0089530
:101960002091F40123FFFBCF24FDF7CF87EE90E019
:1019700008952091F40123FFEECF86EE90E00895C4
:101980002091F40125FFEBCF89E290E008952091AA
:10199000F40125FFE4CF85E390E008952091F40160
:1019A00026FFDDCF8AE290E008952091F40126FF22
:1019B000D6CF81E390E0089582EE90E00895909173
:1019C000F40192FF06C0282F2871283069F4877F20
:1019D000846093FF06C0282F2871283161F4877E28
:1019E000846194FD877E0895282F2471243089F71F
:1019F0008B7F8860EECF282F2471243191F78B7E66
:101A00008861EFCF90935201809351010895E09146
:101A10005101F0915201309721F00190F081E02DB9
:101A2000099480E00895EF92FF920F931F93CF9354
:101A3000DF938C01E0915101F09152013097C1F197
:101A40000280F381E02D09958091D20182FF30C0A0
:101A500080FF04C080EE92E00E94FA06D0E0C0E071
:101A60008AEDE82E82E0F82E8091D20180FF0EC030
:101A7000F801EC0FFD1F80811F928F93FF92EF9270
:101A80000E9493070F900F900F900F902196C830EF
:101A9000D10551F78091D20180FF0AC088ED92E014
:101AA000DF91CF911F910F91FF90EF900C94FA0668
:101AB000DF91CF911F910F91FF90EF900895E091EA
:101AC0005101F0915201309739F022E0DC012C9362
:101AD0000480F581E02D0994089520914F01309103
:101AE00050012817390771F09093500180934F01EE
:101AF000E0915101F0915201309721F00680F78179
:101B0000E02D0994089520914D0130914E01281740
:101B1000390771F090934E0180934D01E09151018E
:101B2000F0915201309721F00084F185E02D099465
:101B3000089585B7806885BF85B7806885BF08959B
:101B400008950E94990D0C94A00D81E008950E94C3
:101B5000B6190E949C070C94A91ACF93C82F8091A4
:101B6000D20182FF1EC080FF1CC089EF92E00E945C
:101B7000FA068091D20180FF14C01F92CF9384EFA8
:101B800092E09F938F930E9493078091D2010F90D0
:101B90000F900F900F9080FF04C082EF92E00E94A0
:101BA000FA068C2FCF910C94F208BF92CF92DF925D
:101BB000EF92FF920F931F93CF93DF93CDB7DEB7D2
:101BC0002A970FB6F894DEBF0FBECDBF0E94D20792
:101BD0000E94A50D882309F471C084E5C82E81E018
:101BE000D82E10E000E0B02E802F0E949F08E82E33
:101BF000F601F1906F01F81609F45AC08091D201F4
:101C000081FD0E94A90890E080E0FE242F2D30E0A5
:101C1000482FB901082E02C0759567950A94E2F71E
:101C200060FF41C08E83BF8281E090E06C0102C002
:101C3000CC0CDD1C4A95E2F72E2D30E02C213D2105
:101C4000232B09F480E088870E94BF198160782FD8
:101C50009A8789874E815F8168858A850E947F0E79
:101C6000F801EC5AFE4F80818C2580830E94B21DC2
:101C70000E94070D90915301891789F10E94070D69
:101C8000809353012A960FB6F894DEBF0FBECDBFE6
:101C9000DF91CF911F910F91FF90EF90DF90CF9048
:101CA000BF900C94AD0D01968830910509F0B0CF2E
:101CB0000F5F1F4F0830110509F095CF8FEF898313
:101CC0008A831B820E94BF198160782F9D838C8339
:101CD00049815A816B818D810E947F0EC7CF2A96E0
:101CE0000FB6F894DEBF0FBECDBFDF91CF911F912D
:101CF0000F91FF90EF90DF90CF90BF900895CF931A
:101D0000DF93CDB7DEB72B970FB6F894DEBF0FBECB
:101D1000CDBF4F83588769877A878B871E821D8244
:101D200085E0FE013796DE01119601900D928A95AD
:101D3000E1F749815A816B817C818D819E812B964F
:101D40000FB6F894DEBF0FBECDBFDF91CF910C94DC
:101D5000CA14FC01808191810C948117CF93C82F04
:101D6000882309F4A2C08CEF8C0F813A58F48C2F91
:101D70000E94EE21811199C08C2F0E94AF17CF9144
:101D80000C94F31780E28C0F883048F4C77081E020
:101D900001C0880FCA95EAF70E942918F0CF8BE599
:101DA0008C0F833068F481E890E0C53A31F083E825
:101DB00090E0C63A11F482E890E0CF910C946D0D5A
:101DC00088E58C0F873108F068C082EE90E0C83A51
:101DD00009F460C089EE90E0C93A09F45BC08AEE6C
:101DE00090E0CA3A09F456C085EB90E0CB3A09F48A
:101DF00051C086EB90E0CC3A09F44CC083EB90E004
:101E0000CB3B09F447C084EB90E0CC3B09F442C0E3
:101E100087EB90E0CD3AF1F18CEC90E0C03BD1F152
:101E20008DEC90E0CE3AB1F183E891E0CF3A91F1B8
:101E30008AE891E0C13B71F182E991E0C23B51F146
:101E400084E991E0C33B31F181E292E0C43B11F1BE
:101E500083E292E0C53BF1F084E292E0C63BD1F030
:101E600085E292E0C73BB1F086E292E0C83B91F098
:101E700087E292E0C93B71F08FE690E0CD3B51F0F4
:101E800080E790E0CE3B31F090E080E0CA3B11F477
:101E90008AE292E0CF910C94830DC03F30F08C2FFA
:101EA0000E943E1CCF910C94251DCF91089588234C
:101EB00061F19CEF980F913A20F40E94B6170C94B0
:101EC000F31790E2980F983050F4877091E001C0BA
:101ED000990F8A95EAF7892F0E942F18F0CF9BE57A
:101EE000980F933020F490E080E00C946D0D98E50D
:101EF000980F973120F490E080E00C94830D803FA0
:101F000020F00E94A61C0C94251D0895882321F022
:101F10000E9429180C94F3170895882321F00E9439
:101F20002F180C94F31708958F929F92AF92BF923F
:101F3000CF92DF92EF92FF920F931F93CF93DF9395
:101F40007C01D62FC72FFC01058102950F701281ED
:101F500011110E9446180E94EC17C82E882371F0B8
:101F60001123B1F080E28D0F883090F082E00E9462
:101F7000D6170E94EC1791E0C82EC926DC2ED29409
:101F80009FE0D922ED2DF0E0E858F44D0C94082B99
:101F9000C12CF4CF0C2F0F70C07F11F00295007F81
:101FA0001123A9F0002359F080E28D0F883010F042
:101FB000D11109C0802F0E9429180E94F3178D2F7C
:101FC0000E94AE0E14C0802F0E943918F6CF8D2FBC
:101FD0000E94570F002359F080E28D0F883010F0D7
:101FE000D11133C0802F0E942F180E94F31798E060
:101FF000D91639F0D91648F086EF8D0D8F708230E2
:1020000020F40E94070D0E94F208CC2009F4D9C1E7
:102010000E94C91780FDD5C1F70112820E94C31723
:102020000E944E16C7010E94EE110E94C317DF9155
:10203000CF911F910F91FF90EF90DF90CF90BF90C5
:10204000AF909F908F900C946F16802F0E943F1836
:10205000CCCFFC2FFF70BF2EC07FC03219F0B294DE
:1020600080EFB822DD2369F0D13049F1112391F1DD
:10207000002351F1F701858180FFA1CF8F70858307
:1020800023C0112381F0011106C00E945F188B2923
:102090000E94860FACCF0130C1F70E945F188B29D8
:1020A0000E945918A4CF011106C00E945C188B2D04
:1020B0000E948D0F9CCF013009F499CFF6CF1123E8
:1020C00029F0063008F093CF8B2DE2CF053008F0D1
:1020D0008ECFEDCF002359F38D2F0E94570F87CF5E
:1020E0008C2F86958695837069F0813009F07FCFBB
:1020F0008D2F9C2F9370111102C090E080E00E9400
:10210000830D75CF8D2F9C2F9370111102C090E01D
:1021100080E00E946D0D6BCF112309F1D53F99F03E
:10212000D63FB9F0D43F49F48091EE019091EF0190
:1021300081609093EF018093EE018D2F0E943E1CF1
:102140000E94251D54CF8091EE019091EF01826095
:10215000F0CF8091EE019091EF018460EACFD53FFE
:1021600089F0D63FA9F0D43F49F48091EE019091D7
:10217000EF018E7F9093EF018093EE018D2F0E94EF
:10218000A61CDECF8091EE019091EF018D7FF2CF02
:102190008091EE019091EF018B7FECCF8C2F8370BB
:1021A00009F047C0111123CF2D2F229526952770B6
:1021B000220F220F6D2F6F70862E912CB12CA12C27
:1021C000022E04C0880C991CAA1CBB1C0A94D2F7CE
:1021D00060E070E0CB01D4FF0FC06FE070E080E002
:1021E00090E004C0660F771F881F991F2A95D2F7C9
:1021F0006095709580959095C695C695C370C230D0
:1022000051F080F4682979298A299B29C13071F01D
:102210000E940016ECCE682979298A299B290E9400
:102220001216E5CE0E940016C501B4010E94EE15FB
:10223000DECE8695112311F08C2F8170882309F44E
:10224000D6CE2D2F229526952770220F220F6D2F87
:102250006F70862E912CB12CA12C022E04C0880CFC
:10226000991CAA1CBB1C0A94D2F760E070E0CB0159
:10227000D4FF0FC06FE070E080E090E004C0660F14
:10228000771F881F991F2A95D2F7609570958095C2
:102290009095C695C695C370C23051F080F46829F8
:1022A00079298A299B29C13071F00E94C5169FCED9
:1022B000682979298A299B290E94D71698CE0E94DD
:1022C000C516C501B4010E94B31691CEE0E2ED0F30
:1022D000E53108F04DC0F0E0E857F44D0C94082BC0
:1022E000DF708C2F8F71112321F00E944E168D2FDD
:1022F000CFCE0E946F168D2FDBCE112341F005301B
:1023000008F075CE8C2F8F710E94921670CE063019
:1023100008F06DCEF7CF8C2F8F71112339F00E940A
:102320004E1665CE8C2F8F711123C9F30E946F1644
:102330005ECE112329F08C2F8F710E94391657CE53
:102340000E94341654CE112349F0CF718C2F0E9475
:102350004E1663E08C2F0E94CD1749CE81E00E947B
:10236000D617023008F443CE82E00E94D6173FCE43
:10237000112329F0011123CE8C2F8F71D0CF002390
:1023800069F0D93309F0A8CEFFEF27EE83E0F150D2
:1023900020408040E1F700C000009ECE8C2F8F715E
:1023A000C5CF4C2F4F706D2FC7010E94D7080E94D8
:1023B00064151DCE4C2F4F706D2FC7010E94980AD7
:1023C00016CEDF91CF911F910F91FF90EF90DF908C
:1023D000CF90BF90AF909F908F9008950F931F93D1
:1023E000CF93DF93EC018B819C81892B29F088812D
:1023F000998189238F3F29F4DF91CF911F910F910C
:102400000895CE010E9404098823B1F3688179817F
:102410008A810E948B178C010E94E9160E94EB159D
:10242000B801CE01DF91CF911F910F910C94940FC1
:102430000E9446180E9456180E94BD170E94F3176A
:102440000E94451E0E94251D90E080E00E946D0DB7
:1024500090E080E00C94830D0E9436180C941812C2
:102460000E948117E92FE295EF70E250EE3070F490
:10247000F0E0E356F44D0C94082B803F19F020F463
:10248000803E20F481E00895843FE1F380E00895E8
:10249000803EC0F3813FD1F7F5CF93FB882780F9C9
:1024A0000895CF93DF9300D000D00F92CDB7DEB761
:1024B0000F900F900F900F900F90DF91CF91089594
:1024C000CF93DF9300D000D000D0CDB7DEB72696F3
:1024D0000FB6F894DEBF0FBECDBFDF91CF91089548
:1024E0001F93CF93DF93C0915D0116E080915E0151
:1024F0008C1304C0DF91CF911F910895D0E01C9FF1
:10250000F0011D9FF00D1124E15AFE4F40815181D1
:1025100062817381848195810E9460122196C770C7
:10252000E5CF40918F0150919001609191017091A0
:10253000920180919301909194010C9460121F93E9
:10254000CF93DF9380919401807FC1F480919101BA
:102550008823A1F080915D01C0915E0160918F019F
:10256000709190014091920150919301D62FD72301
:10257000DA01A095B09516E0C81304C0DF91CF91A1
:102580001F91089590E04115510511F0DF3F31F49E
:1025900001968770F1CF2A0F3B1F17C0189FF001DB
:1025A000199FF00D1124E15AFE4F21812713F0CF1E
:1025B00020812613EDCF22812111EACF238134819E
:1025C0002417350740F3241B350B283C310500F751
:1025D000209194012F7020612093940126E0289F80
:1025E000F001299FF00D1124EC59FE4F80818F706E
:1025F000806180838FE891E00E94EE11DF91CF919E
:102600001F910C947012BF92CF92DF92EF92FF92C3
:102610000F931F93CF93DF93CDB7DEB761970FB6BC
:10262000F894DEBF0FBECDBF8C0185E0F801DE015E
:102630001D9601900D928A95E1F7D8014C91119663
:102640005C9111971296EC90129780919201909163
:102650009301009709F47FC120918F01309190017F
:10266000622F63236F3F09F476C11396CD90DC90FF
:10267000B0909101BB2009F411C1C816D906D0F160
:10268000F601E81BF90BCF01FF24F394883C910578
:1026900008F0F12C80919401982F907FFF2009F48D
:1026A000B8C091117FC0FE2C351329C0241327C058
:1026B000E11025C08F708061809394010E94911277
:1026C0008FE891E00E94EE1180919401D801159657
:1026D0008C938F2D61960FB6F894DEBF0FBECDBFE1
:1026E000DF91CF911F910F91FF90EF90DF90CF90EE
:1026F000BF900895809590958C0D9D1DC5CFCD28D8
:1027000029F0852F84238F3F09F041C180E0B82F45
:10271000B170DB2E80FF3CC080915D0120915E0195
:1027200036E0821315C04D875E878D859E850E9499
:102730008117292F22952F702230F0F0243018F5C0
:102740009F70F1F0F8019581907FD1F4D12C1EC0DB
:1027500090E0389FF001399FF00D1124E15AFE4FAF
:102760006181651306C06081641303C06281E61253
:102770000FC001968770D5CF9F7011F0882331F379
:10278000805E883018F3C8010E94EE11FD2CA1CFA5
:10279000EE2009F49ECF8091940181608093940192
:1027A000F12C97CF351306C0241304C0D801EE20B6
:1027B00009F49AC04D875E878D859E850E943012F0
:1027C000882319F1EE2009F180919401803270F094
:1027D00020918F013091900138872F831986DB86F5
:1027E000CA868C87CE0107960E94EE1186E0F8011A
:1027F000AFE8B1E001900D928A95E1F70E949F1237
:102800000E949112FF24F39464CFC8010E94EE113C
:10281000F9CF911113C07C2DD98AC88A6E2D898970
:102820000E9451128FE891E00E94EE1186E0EFE8DD
:10283000F1E0DF011D928A95E9F763C0351312C0FC
:10284000241310C0E1100EC0F8018583C8010E9456
:10285000EE11EFE8F1E086E0DF011D928A95E9F7DD
:10286000FB2C37CF4D875E878D859E850E94301269
:10287000882359F2EE2049F280919401803208F4C5
:10288000B5CF20918F01309190013A8329831B822B
:10289000DD82CC828E83CE010196A6CFC816D906E2
:1028A00098F1F601E81BF90BCF01F12C883C91055A
:1028B00008F049C0FE2CEE2009F4A7CF351332C032
:1028C000241330C08091940180FD23C0982F907F05
:1028D00001F1D80115968C931597903F39F0982FF8
:1028E000907F905F8F70892B15968C93C8010E9402
:1028F000EE1186E0F801AFE8B1E001900D928A9503
:10290000E1F70E949112E5CE809590958C0D9D1D6A
:10291000CCCF86E0F801AFE8B1E001900D928A9546
:10292000E1F7D7CE4D875E878D859E850E94301258
:1029300081115CCF80919401816080939401C801E2
:102940000E94EE11C6CE7C2DD98AC88A6E2D898947
:102950000E9451126BCFEE2009F457CF4D875E874E
:102960008D859E850E943012F82E882309F44DCF64
:1029700086E0F801AFE8B1E001900D928A95E1F7A9
:102980008FE891E00E94A90E0E949F12BACF81E0C9
:102990008E25BDCE1F93CF93DF93CDB7DEB72C9797
:1029A0000FB6F894DEBF0FBECDBF4F83588769873F
:1029B0007A878B879C87CE0107960E940313882312
:1029C00069F08A859B85892B39F04F815885842F42
:1029D00085238F3F09F071C016E05FC086E0FE01DD
:1029E0003796DE01119601900D928A95E1F78A855E
:1029F0009B85892B89F388859F8189238F3F61F38C
:102A000020915E0130E0C9010196877099274091BD
:102A10005D014817190671F40E942C1210925E0194
:102A200010925D0186E0EFE8F1E0DF011D928A95EA
:102A3000E9F7D2CF96E0929FD001939FB00D112479
:102A4000A15ABE4FFE01319601900D929A95E1F781
:102A500080935E010E947012BFCF819FC00111243C
:102A6000815A9E4F0E9403138823E9F0E0915D0193
:102A70001E9FF0011124E15AFE4F40815181628175
:102A80007381848195810E94601280915D0190E044
:102A900001968770992780935D0180915D019091E7
:102AA0005E018913DACF2C960FB6F894DEBF0FBE05
:102AB000CDBFDF91CF911F91089569857A858B8570
:102AC0009C850E94601288CFEF92FF920F931F9314
:102AD000CF93DF938C01892B81F0F12CEE24E394CA
:102AE000E8012196F8018491843770F4843008F06D
:102AF0005FC08130B1F08230A1F1DF91CF911F91A1
:102B00000F91FF90EF900895853709F44CC008F4B9
:102B10003DC09CE7980F903780F78F770E94570F42
:102B200049C00E5F1F4FFE01849190E2980F9830CC
:102B300060F48770FE2D01C0FF0F8A95EAF78F2F92
:102B40000E9449180E94F31702C00E94AE0E8F2DFA
:102B5000815030F2EFE9FFE03197F1F700C000005B
:102B6000F7CF0E5F1F4FFE01849190E2980F9830CF
:102B700050F48770FE2D01C0FF0F8A95EAF78F2F62
:102B80000E944F18DFCF0E94570FE1CF0E5F1F4FFB
:102B9000FE01C491C150D8F28FE99FE00197F1F78F
:102BA00000C00000F7CF0E5F1F4FFE01F490CFCFA3
:102BB0000E94AE0E8E01CBCF08950C94DC150E94BE
:102BC000DD156093C1017093C2018093C30190939E
:102BD000C4010C94181208950C94DF150F931F93E1
:102BE0000091C1011091C2012091C3013091C40133
:102BF000602B712B822B932B1F910F910C94DF155F
:102C00000F931F930091C1011091C2012091C30144
:102C10003091C40160237123822393231F910F916C
:102C20000C94DF150F931F930091C1011091C20105
:102C30002091C3013091C401602771278227932717
:102C40001F910F910C94DF150C94DC150C94241635
:102C50000E9426166093BD017093BE018093BF0150
:102C60009093C0010C94181260E070E0CB010C94BA
:102C700028160F931F9341E050E060E070E08A0156
:102C80009B0104C0000F111F221F331F8A95D2F72A
:102C9000C901B8011F910F910C9428160F931F932F
:102CA00041E050E060E070E004C0440F551F661F33
:102CB000771F8A95D2F78091BD019091BE01A091B6
:102CC000BF01B091C0018A019B01082B192B2A2B4F
:102CD0003B2BC901B8011F910F910C9428160F933B
:102CE0001F9341E050E060E070E004C0440F551FC6
:102CF000661F771F8A95D2F7CB01BA016095709550
:102D0000809590950091BD011091BE012091BF0169
:102D10003091C00160237123822393231F910F916F
:102D20000C9428160F931F9341E050E060E070E090
:102D300004C0440F551F661F771F8A95D2F78091F4
:102D4000BD019091BE01A091BF01B091C0018A0167
:102D50009B01082719272A273B27C901B8011F9182
:102D60000F910C9428160F931F930091BD011091A1
:102D7000BE012091BF013091C001602B712B822BCD
:102D8000932B1F910F910C9428160F931F93009172
:102D9000BD011091BE012091BF013091C00160239F
:102DA0007123822393231F910F910C9428160F9364
:102DB0001F930091BD011091BE012091BF01309180
:102DC000C00160277127822793271F910F910C94D0
:102DD00028160895990F990F990F890F982F9770BA
:102DE00041E001C0440F9A95EAF78695869586954D
:102DF00095E0899FF0011124EB56FE4F30E020E072
:102E000070E05191DF011197CB01022E02C096951F
:102E100087950A94E2F78170819585278423852719
:102E20008C932F5F3F4F2530310559F70895990F47
:102E3000990F990F890F982F97708695869586958B
:102E400025E0829FF0011124EB56FE4F50E040E058
:102E500080E0219130E0092E02C0369527950A9432
:102E6000E2F721703327042E01C0220F0A94EAF7FB
:102E7000822B4F5F5F4F4530510559F70895BF9240
:102E8000CF92DF92EF92FF920F931F93CF93DF9336
:102E90008C01C090BD01D090BE01E090BF01F090C8
:102EA000C0018091C1019091C201A091C301B09174
:102EB000C401C82AD92AEA2AFB2ACFE1D0E0BC2ED5
:102EC000D701C6010C2E04C0B695A7959795879596
:102ED0000A94D2F780FD0EC0219788F7B12C8B2D74
:102EE000DF91CF911F910F91FF90EF90DF90CF90E6
:102EF000BF900895B8018C2F0E94B60A019761F324
:102F0000EECFCF93DF93EC010E943F17BE01DF911C
:102F1000CF910C94B60A1F93CF93DF93EB0190915E
:102F20005C01992331F0CB01DF91CF911F910C947B
:102F30008117882379F0CB010E943F17182F682F43
:102F4000CE010E94EA16BE01812FDF91CF911F9121
:102F50000C94B60ACB010E941717182FF4CF682FD4
:102F600080910001909101010C943219682F809199
:102F70000001909101010C9434198091000190910D
:102F800001010C9436198091C5018595859585952B
:102F900008958091C5018770089598E0899F9001F8
:102FA0001124622B6093C5010C944E169091C501BB
:102FB000809589238093C501282F277061F4282FDD
:102FC000082E000C330B9217130629F08595859572
:102FD00085950C946F1608959091C501977081E0C6
:102FE00009F480E00895E0910001F09101018091E1
:102FF000D1018083E0910001F091010180819091E5
:10300000D001892B8083E0910001F0910101808142
:103010009091CF01892B80839091C601992381F0F3
:10302000E0910001F09101018081892B80838091E2
:103030000001909101010E94F91881111092C601BE
:1030400080910001909101010C94130D8091D101A8
:1030500008959091D101892B8093D1010895809595
:103060009091D10198239093D10108951092D101AC
:1030700008959091D001892B8093D0010895809577
:103080009091D00198239093D00108951092D0018F
:1030900008959091CF01892B8093CF010895809559
:1030A0009091CF0198239093CF0108951092CF0172
:1030B00008958093C60108951092C60108958091E5
:1030C000C601089590932D0180932C010895829557
:1030D00090E09C01220F331F220F331F2C7C95950B
:1030E0008795959587958373282B30E0C901880FC4
:1030F000991F8A7A359527952575822B089590E03A
:1031000080E00E942A2B21E08D3E9E4F09F020E0B6
:10311000822F089582E090E00C94222B682F82E0A9
:1031200090E00C94302B83E090E00C94222B682FDD
:1031300083E090E00C94302B84E090E00C94222B00
:10314000682F84E090E00C94302BAB01BC018FE041
:1031500090E00C94422BAB01BC0183E190E00C9415
:10316000422B60E070E0CB010C94AB1860E070E0A3
:10317000CB010E94A5180C94B1186DEE7EEF90E083
:1031800080E00E944E2B60E082E090E00E94302BB5
:1031900060E083E090E00E94302B1092C101109219
:1031A000C2011092C3011092C40160E084E090E07B
:1031B0000E94302B60E085E090E00E94302B60E0C0
:1031C00086E090E00E94302B6FEF87E090E00E9455
:1031D000302B40E050E0BA0188E090E00E94422BA2
:1031E00060E08DE090E00E94302B0C94B6180C94B7
:1031F000BD189C012E5F3F4FAC01485F5F4F80E0E0
:103200002417350709F40895F90191919F01992335
:10321000B9F38F5FF5CF9C01FC0132969FEF80E000
:103220004191461751F09F3F19F4411101C0982F69
:103230008F5F8630A9F79F3F09F40895290F311D4C
:1032400097FD3A95F90162830895FC01329608963C
:103250002191261303C0DF0111971C92E817F9078B
:10326000B9F708950C940B190C942519029626E0D1
:10327000FC0111922A95E9F7089508950C943D19DF
:103280000E943E198091FA01843049F11092D301D5
:1032900088E190E020E40FB6F894A8958093600050
:1032A0000FBE2093600080E00E94F2080E943E1949
:1032B00083B7817F846083BF83B7816083BF789445
:1032C000889583B78E7F83BF0FB6F894A8958091B9
:1032D0006000886180936000109260000FBE0895C6
:1032E000CF930E94D5080E94D2070E94D608C0E062
:1032F0008C2F0E949F08811105C0CF5FC830C1F795
:10330000CF91089581E0FCCF08950C9484190E9418
:103310002C120E94070D0E94F2080C9485191F922E
:103320001FB61F9211248F939F93AF93BF938091E9
:10333000D301811113C08091F0019091F101A0910E
:10334000F201B091F3014196A11DB11D8093F001EE
:103350009093F101A093F201B093F301BF91AF916B
:103360009F918F911F901FBE1F90189582E084BD82
:1033700093E095BD9AEF97BD80936E0008952FB7A7
:10338000F8948091F0019091F101A091F201B09137
:10339000F3012FBF08952FB7F8946091F001709159
:1033A000F1018091F2019091F3012FBF0895CF9226
:1033B000DF92EF92FF920F931F932FB7F8944091F3
:1033C000F0015091F1016091F2017091F3012FBF72
:1033D0006A017B01EE24FF248C0130E020E0C0165E
:1033E000D106E206F30650F0481B590BCA011F91A3
:1033F0000F91FF90EF90DF90CF90089541505109C9
:10340000F3CFAB01BC012FB7F8948091F0019091FC
:10341000F101A091F201B091F3012FBF841795073C
:10342000A607B70738F0841B950BA60BB70BBC019A
:10343000CD0108950197A109B109F5CF78941F92A4
:103440001FB61F9211248F939F93AF93BF938091C8
:10345000F0019091F101A091F201B091F301019678
:10346000A11DB11D8093F0019093F101A093F20191
:10347000B093F301BF91AF919F918F911F901FBEA9
:103480001F90189581E08093E00080E28093D8003F
:103490001092C9008FE19EE40197F1F700C000008F
:1034A00087E090EBDC018093030290930402A093E9
:1034B0000502B093060288E19CE00FB6F894A89547
:1034C000809360000FBE90936000FFCFCF92DF9299
:1034D000EF92FF920F931F93CF93C0E0E82EF12C51
:1034E0008C2F0E949F0810E000E0C82ED12CC6014E
:1034F000002E02C0959587950A94E2F780FD11C0D1
:103500000F5F1F4F0830110591F7CF5FC83041F7AB
:1035100080E0CF911F910F91FF90EF90DF90CF90BF
:103520000895602F7C2F80E00E94990AE816F90622
:1035300039F781E0EECFCF93C82F8CE20E94661A54
:10354000882321F08C2FCF910C94661A80E0CF91C4
:103550000895CF930E947F18811102C00E94F7182E
:1035600083E193E00E94FA06C5E6C15009F0D5C098
:103570008CE093E00E94FA0689E20E949B1A811176
:10358000F8C08AE20E949B1A81110E94F71885E018
:103590000E949B1A81110E94421A0E948A188093ED
:1035A000D20187E00E949B1A882371F08BE10E9470
:1035B0009B1A882309F4BAC09091D201892F8D7F7C
:1035C00091FF82608093D2018091D2010E948E1877
:1035D0000E949C1890E09093F5018093F40180EE96
:1035E0000E949B1A882341F09091F401892F8E7FCD
:1035F00090FF81608093F40189E30E949B1A8823E5
:1036000041F09091F401892F8D7F91FF826080932A
:10361000F40182EE0E949B1A882341F09091F401FC
:10362000892F8B7F92FF84608093F40186EE0E9445
:103630009B1A882341F09091F401892F877F93FF93
:1036400088608093F40183EE0E949B1A882341F0E6
:103650009091F401892F8F7E94FF80618093F40113
:1036600085E30E949B1A882341F09091F401892FF1
:103670008F7D95FF80628093F40181E30E949B1A05
:10368000882341F09091F401892F8F7B96FF80640D
:103690008093F40181E10E949B1A882341F090916C
:1036A000F401892F97FB87F980588093F40180916A
:1036B000F4010E94A01887E20E949B1AC82F8EE195
:1036C0000E949B1A8111C2608FE10E949B1A811196
:1036D000C46080E20E949B1A8111C86081E20E944E
:1036E0009B1A8111C06182E20E949B1A8111C06203
:1036F00083E20E949B1A8111C06484E20E949B1A9B
:10370000882389F1C0688C2F0E9497186C2F70E075
:1037100090E080E0CF910C94EC150E94D2078FE3EB
:103720009CE90197F1F700C000001FCF8EE00E94D6
:103730009B1A882339F09091D201892F8B7F92FFB9
:10374000846040CF80E10E949B1A9091D20188232F
:1037500029F0892F877F93FF886034CF892F8E7F50
:1037600090FF81602FCFC111CECF0E949318682F98
:10377000CECFCF9108958091D60180FF12C0609185
:10378000050185E0689FB0011124759567957595D1
:10379000679560387105A8F561157105A1F1862F4F
:1037A000089581FF09C06091050185E0689FB0011F
:1037B000112475956795EDCF6091050182FD0AC0D2
:1037C0008091D7018823D1F0909104016091050187
:1037D000891728F085E0689FB0011124DACF869F11
:1037E000B001112485E0869F9001879F300D112440
:1037F000692F70E0C9010E94F42ACBCF65E070E028
:10380000CECF8FE7089581E008958091D60180FFA3
:103810000CC06091030170E075956795759567958B
:103820006115710549F1862F089581FF06C06091E9
:10383000030170E075956795F3CF6091030182FDF8
:103840000BC09091D7019923A1F060910201809162
:103850000301961738F0682F70E06038710500F3A7
:103860008FE70895899FC001112470E00E94F42A17
:10387000F4CF61E070E0D7CF81E00895803F31F46C
:103880000E94BB1B81958093DB010895813F19F451
:103890000E94BB1BF8CF823F31F40E94BB1B819575
:1038A0008093DA010895833F19F40E94BB1BF8CF7F
:1038B000893F29F40E94051C8093DC0108958A3F0A
:1038C00021F40E94051C8195F7CF8B3F31F40E94B3
:1038D000051C81958093DD0108958C3F19F40E94A9
:1038E000051CF8CF843F31F48091D9018160809329
:1038F000D9010895853F21F48091D9018260F7CFE5
:10390000863F21F48091D9018460F1CF873F21F473
:103910008091D9018860EBCF883F21F48091D90153
:103920008061E5CF8D3F31F48091D6018160809335
:10393000D60108958E3F21F48091D6018260F7CFA1
:103940008F3FB9F78091D6018460F1CF9091DA0171
:10395000803F41F48091DB0187FD1092DB019923C8
:1039600071F00895813F29F48091DB011816ACF3C2
:10397000F6CF823F81F497FFF2CF1092DA01809167
:10398000DB019091DC01892B9091DD01892B49F7B6
:103990001092D7010895833F19F4191674F3DFCFFD
:1039A000893F39F48091DC011816CCF61092DC01C5
:1039B000D6CF8A3F29F48091DC0187FFD0CFF6CFA4
:1039C0008B3F39F48091DD0187FFC9CF1092DD0173
:1039D000C6CF8C3F29F48091DD011816BCF3BFCF10
:1039E000843F31F48091D9018E7F8093D901B7CF84
:1039F000853F21F48091D9018D7FF7CF863F21F457
:103A00008091D9018B7FF1CF873F21F48091D9013B
:103A1000877FEBCF883F21F48091D9018F7EE5CF5E
:103A20008D3F31F48091D6018E7F8093D60197CF60
:103A30008E3F21F48091D6018D7FF7CF8F3F09F023
:103A40008ECF8091D6018B7FF0CF8091D20183FF02
:103A50007EC08FE493E00E94FA068091D9011F9204
:103A60008F938AE493E09F938F930E94930788E457
:103A700093E00E94FA068091DA01282F082E000CAC
:103A8000330B3F938F9385E493E09F938F930E9432
:103A9000930783E493E00E94FA068091DB01282FCC
:103AA000082E000C330B3F938F9380E493E09F9399
:103AB0008F930E9493078EE393E00E94FA06809111
:103AC000DC01282F082E000C330B3F938F938BE3E0
:103AD00093E09F938F930E94930789E393E00E9462
:103AE000FA068091DD01282F082E000C330B3F933E
:103AF0008F9386E393E09F938F930E94930783E3D2
:103B000093E00E94FA068091D7011F928F9380E381
:103B100093E09F938F930E9493078EE293E00E941D
:103B2000FA068091D6011F928F938BE293E09F93C8
:103B30008F930E94930788E293E00E94FA068DB764
:103B40009EB74C960FB6F8949EBF0FBE8DBF88ED02
:103B500091E00E945F0D0E94BF199093D501809360
:103B6000D40108951F93CF93DF938091D401909156
:103B7000D5010E94D719AC019091D701209106017F
:103B800030E0911106C0209107018AE0289F900142
:103B900011244217530778F02091DA01D091DB010C
:103BA0001091DC01C091DD01211109C08D2F812B05
:103BB0008C2B09F066C0DF91CF911F9108959F3F34
:103BC00019F09F5F9093D701121624F40E94BB1B3B
:103BD0008093DA018091DA0187FF05C00E94BB1B48
:103BE00081958093DA011D1624F40E94BB1B8093FB
:103BF000DB018091DB0187FF05C00E94BB1B819523
:103C00008093DB013091DA013323C1F02091DB0195
:103C10002223A1F045EB3403C0011124892F911117
:103C200001C081E08093DA0145EB24039001112467
:103C3000832F311101C081E08093DB01111624F440
:103C40000E94051C8093DC018091DC0187FF05C088
:103C50000E94051C81958093DC011C1624F40E94AF
:103C6000051C8093DD018091DD0187FF05C00E9466
:103C7000051C81958093DD01DF91CF911F910C94FC
:103C8000251D9F3F09F09DCFAECF86E0E8EDF1E026
:103C9000DF011D928A95E9F71092D7011092D601A3
:103CA000089582E795E00E94FA061F9281E08F93C3
:103CB0001F9285E08F9384E295E09F938F930E94FB
:103CC00093070F900F900F900F900F900F90089503
:103CD000833009F445C028F4813061F0823049F125
:103CE0000895853009F46AC008F451C0863009F49B
:103CF0007CC0089580910701482F460F5527551F16
:103D00004F3F510594F4680F6093070180910701BC
:103D10001F928F938DE594E09F938F930E9493075A
:103D20000F900F900F900F9008958FEF80930701E1
:103D3000EDCF80910601482F460F5527551F4F3F65
:103D4000510554F4680F60930601809106011F929B
:103D50008F938BE494E0E0CF8FEF80930601F5CF53
:103D600080910501482F460F5527551F4F3F51059C
:103D700054F4680F60930501809105011F928F93A1
:103D800088E394E0C9CF8FEF80930501F5CF809150
:103D90000401482F460F5527551F4F3F510554F436
:103DA000680F60930401809104011F928F9383E256
:103DB00094E0B2CF8FEF80930401F5CF809103019F
:103DC000482F460F5527551F4F3F510554F4680F94
:103DD00060930301809103011F928F938AE094E026
:103DE0009BCF8FEF80930301F5CF80910201482F85
:103DF000460F5527551F4F3F510554F4680F6093E8
:103E00000201809102011F928F938FEE93E084CF85
:103E10008FEF80930201F5CF8330C9F128F4813010
:103E200061F0823019F10895853009F452C008F428
:103E30003FC0863009F45EC008958091070168177D
:103E400090F4861B80930701809107011F928F9346
:103E500080EE93E09F938F930E9493070F900F90B3
:103E60000F900F90089510920701EECF80910601F8
:103E7000681750F4861B80930601809106011F92FB
:103E80008F938EEC93E0E6CF10920601F6CF8091EF
:103E90000501681750F4861B809305018091050188
:103EA0001F928F938BEB93E0D5CF10920501F6CF45
:103EB00080910401681750F4861B8093040180915F
:103EC00004011F928F9386EA93E0C4CF10920401FD
:103ED000F6CF80910301681750F4861B809303018D
:103EE000809103011F928F938DE893E0B3CF1092DE
:103EF0000301F6CF80910201681750F4861B80936E
:103F00000201809102011F928F9382E793E0A2CF7A
:103F100010920201F6CFCF93C82F1F928F9387E79D
:103F200096E09F938F930E94930761E070E080E09A
:103F300090E004C0660F771F881F991FCA95D2F7BB
:103F40000E94EC150F900F900F900F90CF910C9452
:103F50002C12CF93873208F048C08E3108F02DC262
:103F60008E3009F4C9C1B8F4873009F4ABC148F404
:103F7000863009F495C187E09BE00E94FA0680E054
:103F80009FC1883009F45CC08B30A9F78FE198E0BD
:103F90000E94FA0683C1863109F4D8C178F48031D1
:103FA00051F79091D201892F877F93FF886080938A
:103FB000D20183FFB1C186E19BE011C0893109F4D0
:103FC000AEC18B31C1F69091D201892F8D7F91FFC7
:103FD00082608093D20181FF8CC18FE49BE00E94BC
:103FE000FA068091D201816081C1883379F258F458
:103FF000893229F0853319F0873209F0BCCF80E08F
:104000000E948B1F4BC18334D1F328F48A3308F408
:10401000B2CF8953F5CF883409F0ADCF0E942C126E
:1040200085E79BE00E94FA069FEF23ED80E3915025
:1040300020408040E1F700C000000E94421A2EC1DB
:1040400085E99BE00E94FA0687EF9AE00E94FA0653
:104050000E9493181F928F9384EF9AE09F938F93FF
:104060000E94930782EF9AE00E94FA060E948A1843
:10407000C82F8FED9AE00E94FA061F92CF938AED27
:104080009AE09F938F930E94930788ED9AE00E9495
:10409000FA068EEC9AE00E94FA068C2F81701F922D
:1040A0008F938BEC9AE09F938F930E94930789ECF8
:1040B0009AE00E94FA068FEB9AE00E94FA06C1FB92
:1040C000882780F91F928F938CEB9AE09F938F93B0
:1040D0000E9493078AEB9AE00E94FA068EEA9AE021
:1040E0000E94FA06C2FB882780F91F928F938BEA01
:1040F0009AE09F938F930E94930789EA9AE00E9427
:10410000FA0680EA9AE00E94FA06C3FBCC27C0F9BF
:104110001F92CF938DE99AE09F938F930E9493070C
:104120008BE99AE00E94FA060E949C18C82F87E843
:104130009AE00E94FA061F92CF9382E89AE09F933A
:104140008F930E94930780E89AE00E94FA0687E620
:104150009AE00E94FA068C2F81701F928F9384E65A
:104160009AE09F938F930E9493078DB79EB7809696
:104170000FB6F8949EBF0FBE8DBF82E69AE00E94F4
:10418000FA068BE49AE00E94FA06C1FB882780F9C0
:104190001F928F9388E49AE09F938F930E949307D6
:1041A00086E49AE00E94FA0684E39AE00E94FA0606
:1041B000C2FB882780F91F928F9381E39AE09F9337
:1041C0008F930E9493078FE29AE00E94FA068DE196
:1041D0009AE00E94FA06C3FB882780F91F928F930A
:1041E0008AE19AE09F938F930E94930788E19AE077
:1041F0000E94FA068EE09AE00E94FA06C4FB882725
:1042000080F91F928F938BE09AE09F938F930E9487
:10421000930789E09AE00E94FA0687EF99E00E94EE
:10422000FA06C5FB882780F91F928F9384EF99E0E7
:104230009F938F930E94930782EF99E00E94FA0662
:1042400086ED99E00E94FA06C6FB882780F91F9246
:104250008F9383ED99E09F938F930E94930781ED55
:1042600099E00E94FA0689EC99E00E94FA06C7FBE1
:10427000CC27C0F91F92CF9386EC99E09F938F9340
:104280000E94930784EC99E00E94FA068DB79EB7CE
:104290004C960FB6F8949EBF0FBE8DBF81E010C044
:1042A0008091D201807F8093D20188EF97E00E94B5
:1042B000FA0681E99BE00E94FA0681E08093DF0123
:1042C000CF9108959091D201892F8E7F90FF8160C8
:1042D0008093D20180FF03C089E69BE059CE8CE534
:1042E0009BE00E94FA068091D201817F8093D201E7
:1042F000D5CF81E49BE04CCE9091D201892F8B7F6A
:1043000092FF84608093D20182FF03C082E39BE02E
:1043100066CE82E29BE03CCE89E09BE039CE89EE1E
:1043200097E00E94FA0681EC97E00E94FA068BE87B
:1043300097E00E94FA0680E597E00E94FA0680E185
:1043400097E00E94FA0685EE96E022CE87ED96E091
:104350000E94FA060E94070D1F928F938DEB96E044
:104360009F938F930E949307809112011F928F93C6
:1043700086EA96E09F938F930E9493078091EC01C9
:104380001F928F9383E996E09F938F930E949307E8
:104390000E94CB199F938F937F936F938CE796E046
:1043A0009F938F930E9493078DB79EB742960FB647
:1043B000F8949EBF0FBE8DBF71CF8D5121CE80E08E
:1043C00008950C94DF218E518A3030F4E82FF0E00C
:1043D000ED5EFE4F8081089580E00895CF93C82F51
:1043E0008091DF018130D9F0882339F0823009F4DF
:1043F0004DC01092DF0180E010C0E0910001F0910B
:10440000010180818232B9F78C2F0E94DF21811156
:104410001EC08C2F0E94A91F8170CF910895E0913A
:104420000001F09101018081823271F38C2F0E9492
:10443000E12181111BC0C431D9F060F4CB3071F09F
:10444000C031D1F08DE696E00E94FA0613C081E0FB
:1044500090E0E2CFC93261F0C833A1F788EF97E06E
:104460000E94FA0683E796E00E94FA0681E0D4CF24
:104470001092DF0180E0D0CF0E94511E8FE696E0BF
:104480000E94FA0682E08093DF01F0CFC432C8F4C4
:10449000CE3108F0BEC0CB30E1F040F4C73009F4B3
:1044A000CCC081E195E00E94FA0626C0C331C1F17B
:1044B000C431B9F78091DE01882351F11092DE01F9
:1044C0000AC0CB3409F4B7C0C8F4C93299F3C83371
:1044D00041F70E94511E8091DE01882309F4C4C077
:1044E0001F928F938BE095E09F938F930E94930789
:1044F0000F900F900F900F9081E08FCFC13509F48E
:1045000094C0C23509F48BC0CE3459F66AE08EC02F
:1045100080E295E00E94FA0681E08093DF017DCF82
:104520008AEF94E00E94FA0688EE94E00E94FA0670
:10453000809107011F928F9385EE94E09F938F9354
:104540000E94930783EE94E00E94FA0681ED94E0C6
:104550000E94FA06809106011F928F938EEC94E0E0
:104560009F938F930E9493078CEC94E00E94FA062D
:104570008DEB94E00E94FA06809105011F928F93C3
:104580008AEB94E09F938F930E94930788EB94E0CB
:104590000E94FA0687EA94E00E94FA0680910401DC
:1045A0001F928F9384EA94E09F938F930E949307C6
:1045B00082EA94E00E94FA068DE894E00E94FA06EE
:1045C000809103011F928F938AE894E09F938F93C9
:1045D0000E94930788E894E00E94FA0681E794E03D
:1045E0000E94FA06809102011F928F938EE694E05A
:1045F0009F938F930E9493078CE694E00E94FA06A3
:104600008DB79EB748960FB6F8949EBF0FBE8DBF6C
:1046100062CF8C2F0E94E3218093DE015CCF61E0AA
:104620008091DE010E94681E56CF61E08091DE011C
:104630000E940C1F50CF6AE0F3CF8EE180930701F8
:1046400082E3809306018AE08093050184E18093F0
:10465000040188E08093030188E28093020183E1F2
:1046600095E00E94FA0637CF88E095E01CCF809154
:10467000EB0108959FB7F8941092E2019FBF9091CB
:10468000FA01943009F049C02091E9002F7090910F
:10469000EC0090FD30C090E0922B23E02093E900E5
:1046A0002091EB0020FF36C02091EE0027FF32C0A2
:1046B0002091E001222321F02091E80025FF2AC06B
:1046C0001092E00126E03091E80035FF16C080939B
:1046D000F1008091E80085FD29C08091E80080FF0D
:1046E000FCCF8091E8008E778093E8009F709093D4
:1046F000E90080E0089590E8CFCF3091FA0134309E
:1047000049F43091EB0035FD05C0215041F481E0C2
:104710008093E0019F709093E9008FEF0895EFE997
:10472000FFE03197F1F700C00000CDCF8FB7F894CC
:1047300021E02093E2018FBFD9CF0F931F93CF9336
:10474000DF9300D00F92CDB7DEB78C010E944526D3
:10475000823011F0843021F584E089831B830A8341
:1047600082E08093E9008FEF9091E800815095FD01
:1047700006C095ED9A95F1F700008111F5CF809173
:10478000E80085FF0DC050E040E063E070E0CE013E
:1047900001960E9462268091E8008E778093E8005F
:1047A0000F900F900F90DF91CF911F910F9108956F
:1047B000CF93DF9300D00F92CDB7DEB72091FA01EF
:1047C000243031F523E02983805891099B838A8323
:1047D00082E08093E9008FEF9091E800815095FD91
:1047E00006C095ED9A95F1F700008111F5CF809103
:1047F000E80085FF0DC050E040E063E070E0CE01CE
:1048000001960E9462268091E8008E778093E800EE
:104810000F900F900F90DF91CF910895CF93DF937A
:10482000EC010E944526823011F08430F9F482E0D8
:104830008093E9008FEF9091E800815095FD06C0CC
:1048400095ED9A95F1F700008111F5CF8091E80080
:1048500085FF0CC050E040E066E070E0CE010E94B1
:1048600062268091E8008E778093E800DF91CF91F7
:104870000895CF93DF93EC010E944526823011F01A
:10488000843039F581E08093E9008FEF9091E80062
:10489000815095FD06C095ED9A95F1F700008111C4
:1048A000F5CF8091E80085FF14C050E040E068E05B
:1048B00070E0CE010E9462268091E8008E7780939E
:1048C000E80088E0FE01A3EEB1E001900D928A9528
:1048D000E1F7DF91CF91089585EC9BE00E94FA0605
:1048E0008091F901811109C00E94F0270E944D2892
:1048F0008091E20084608093E200089581EC9BE067
:104900000E94FA061092F90108958DEB9BE00C9439
:10491000FA0689EB9BE00C94FA0685EB9BE00E947B
:10492000FA060C9487192091E1012F5F822F62E330
:104930000E94E82A992319F02093E101089510922A
:10494000E1018091E2018823E9F08091FA0184304D
:10495000B9F49091E9009F708091EC0080FD13C044
:1049600080E0892B93E09093E9009091EB0090FF19
:1049700004C09091EE0097FD0AC08F708093E9000B
:104980001092E201089580E8ECCF1092F10090912E
:10499000E80095FDFACF9091E80090FFEECF90915E
:1049A000E8009E779093E800E8CF42E061EC81E078
:1049B0000E946E2742E261EC82E00E946E2742E292
:1049C00061EC83E00C946E278091FC01833009F444
:1049D00052C030F4813059F1823009F48EC008950C
:1049E0008A3009F47AC08B3009F460C0893009F04C
:1049F00041C08091FB018132E9F58091FF019091E6
:104A000000020297B8F58091E800877F8093E80064
:104A10008091E80082FF2AC08091F1008093EB0131
:104A20008091E8008B778093E8000C94A227809116
:104A3000FB01813AF9F48091E800877F8093E800D8
:104A40008091FF0190910002892B61F468E083EE70
:104A500091E070E00E94B1268091E8008B7780930E
:104A6000E800089560E090E080E0F3CF8091FA01E3
:104A70008111CECF08958091FB01813AD9F78091C1
:104A8000FF0190910002892BA9F78091E800877FB0
:104A90008093E8008091E80080FFFCCF80911201B4
:104AA0008093F1008091E8008E77BDCF8091FB016B
:104AB000813201F78091FF0190910002892BD1F69C
:104AC0008091E800877F8093E8000E94A227809170
:104AD000FD01809312010C942C128091FB01813214
:104AE00049F68091E800877F8093E8000E94A22722
:104AF0008091FE018093EC0108958091FB01813A41
:104B000009F0B8CF8091E800877F8093E80080911A
:104B1000E80080FFFCCF8091EC01C2CF84B7877F93
:104B200084BF0FB6F894A895809160008861809347
:104B30006000109260000FBE80E8809361001092C8
:104B400061000E94A10D0E94F0270E944D288091D3
:104B5000E20084608093E2008AE393E20E9462189C
:104B600078940E94CC2A0E94A70D88E091E00E94D0
:104B7000020D84EA9BE00E94FA068091FA018530DA
:104B800019F00E94D50DF9CF80EA9BE00E94FA0649
:104B90000E9440198091F801882379F30E947019CE
:104BA000882359F30E944C26E8CF0C94D725292F4F
:104BB00033272330310521F168F42130310509F420
:104BC00049C02230310509F44AC090E080E030E06D
:104BD00020E029C02132310581F122323105A9F7C7
:104BE0006330710590F7FB01EE0FFF1FE05EFE4F93
:104BF00020813181635E7E4FFB01808190E013C094
:104C000099278130910599F0009741F08230910504
:104C100089F00397D1F6E9ECFBE002C0E1EFFBE09D
:104C2000849190E09F01FA01318320830895E3EE9F
:104C3000FBE0F6CFEFECFBE0F3CF6330710528F635
:104C4000660F771FFB01EA5DFE4F2081318189E00D
:104C500090E0E9CF82E190E020E53CE0E4CF8BE515
:104C600090E025EF3BE0DFCF0895CF93C82F0E945F
:104C70003426C093ED01CF9108958091FA018430DC
:104C800011F482E0089581E008958091ED01811191
:104C900002C00C943D26089580E189BD82E189BD62
:104CA00009B400FEFDCF8091D8008F7D8093D8009D
:104CB0008091E00082608093E0008091E00081FDBF
:104CC000FCCF0895AF92BF92CF92DF92FF920F93E5
:104CD0001F93CF93DF936C01EB018A010E94C127E0
:104CE000F82E811123C00115110539F0F8018081DA
:104CF0009181C81BD90BC80ED91EB12CA12C2097AD
:104D0000A9F08091E80085FD22C08091E8008E77AF
:104D10008093E80001151105A1F0F80180819181CF
:104D2000A80EB91EB182A08285E0F82E8F2DDF91EA
:104D3000CF911F910F91FF90DF90CF90BF90AF90D8
:104D400008950E94C1278823D1F2F82EEFCFF601F3
:104D500081916F018093F1002197FFEFAF1ABF0A95
:104D6000CECFFC0180910102909102028617970735
:104D7000A0F06115710529F49091E8009E77909359
:104D8000E80090E06115710551F4911108C080911F
:104D9000E80082FF34C080E00895BC01F2CF80912A
:104DA000FA018823C1F18530C1F18091E80083FDCB
:104DB00030C08091E80082FDEACF8091E80080FF5A
:104DC000E1CF8091F3002091F200382F6115710539
:104DD00019F02830310558F091E02830310509F0FC
:104DE00090E02091E8002E772093E800CBCF8191CE
:104DF0008093F100615071092F5F3F4FE7CF8091A1
:104E0000FA01882341F0853041F08091E80083FF6A
:104E1000BECF81E0089582E0089583E00895FC010B
:104E2000809101029091020286179707A0F0611508
:104E3000710529F48091E8008E778093E80090E076
:104E40006115710551F4911108C08091E80082FF4D
:104E500035C080E00895BC01F2CF8091FA0188232B
:104E6000C9F18530C9F18091E80083FD31C080919E
:104E7000E80082FDEACF8091E80080FFE1CF8091D9
:104E8000F3002091F200382F6115710519F02830D8
:104E9000310558F091E02830310509F090E080911B
:104EA000E8008E778093E800CBCF84918093F10067
:104EB0003196615071092F5F3F4FE6CF8091FA0123
:104EC000882341F0853041F08091E80083FFBDCF19
:104ED00081E0089582E0089583E00895982F973047
:104EE00028F08F708093E90081E008959093E900A5
:104EF000242F762F50E0981731F07091EC0020911C
:104F0000ED005091F00021FD02C09F5FE8CF30918D
:104F1000EB003E7F3093EB003091ED003D7F30930E
:104F2000ED003091EB0031603093EB007093EC00BA
:104F30002093ED005093F0002091EE0027FDE5CF87
:104F400080E008958091FB0187FF13C08091E80005
:104F500082FF06C08091E8008B778093E80004C050
:104F60008091FA018111F2CF08958091FA0188238E
:104F7000D9F38091E80080FFF8CF8091E8008E7728
:104F8000ECCF2091E4003091E50085E6A9019091F5
:104F9000EC0090FF06C09091E80090FF06C080E012
:104FA00008959091E80092FDFACF9091FA0199232B
:104FB00089F0953089F09091EB0095FD0FC020911C
:104FC000E4003091E5004217530709F38150F1F6F0
:104FD00084E0089582E0089583E0089581E00895D3
:104FE0000E945E280E946628E0EEF0E080818160E9
:104FF0008083E8EDF0E080818F77808319BCA7ED96
:10500000B0E08C918E7F8C9380818F7E8083109214
:10501000F90108950F931F93CF93DF930E945E28A9
:105020000E946628C8EDD0E088818F7788838881C8
:105030008068888388818F7D888319BC1092FA01EB
:105040001092F6011092F8011092F70100EE10E0B4
:10505000F80180818B7F808388818160888342E032
:1050600060E080E00E946E27E1EEF0E080818E7FBC
:105070008083E2EEF0E080818160808380818860BF
:105080008083F80180818E7F80838881806188831E
:10509000DF91CF911F910F910895E8EDF0E08081AD
:1050A0008F7E8083E7EDF0E080818160808384E003
:1050B00082BF81E08093F9010C940A28E8EDF0E0CA
:1050C00080818E7F80831092E20008951092DA0032
:1050D0001092E10008951F920F920FB60F921124C3
:1050E0002F933F934F935F936F937F938F939F93F0
:1050F000AF93BF93EF93FF938091E10082FF0BC0CA
:105100008091E20082FF07C08091E1008B7F809355
:10511000E1000E9493248091DA0080FF19C0809101
:10512000D80080FF15C08091DA008E7F8093DA006E
:105130008091D90080FF94C080E189BD82E189BD62
:1051400009B400FEFDCF81E08093FA010E946C2437
:105150008091E10080FF19C08091E20080FF15C0BE
:105160008091E2008E7F8093E2008091E200806176
:105170008093E2008091D80080628093D80019BCAF
:1051800085E08093FA010E9489248091E10084FFE8
:1051900029C08091E20084FF25C080E189BD82E1C1
:1051A00089BD09B400FEFDCF8091D8008F7D80932A
:1051B000D8008091E1008F7E8093E1008091E20031
:1051C0008F7E8093E2008091E20081608093E20014
:1051D0008091F601882309F449C084E08093FA01A4
:1051E0000E948D248091E10083FF29C08091E2001C
:1051F00083FF25C08091E100877F8093E10082E0FA
:105200008093FA011092F6018091E1008E7F8093E5
:10521000E1008091E2008E7F8093E2008091E200C5
:1052200080618093E20042E060E080E00E946E27AF
:105230008091F00088608093F0000E948524FF91A7
:10524000EF91BF91AF919F918F917F916F915F91FE
:105250004F913F912F910F900FBE0F901F90189577
:1052600019BC1092FA010E947E2472CF8091E30053
:1052700087FD02C081E0B2CF83E0B0CF1F920F92D2
:105280000FB60F9211242F933F934F935F936F9319
:105290007F938F939F93AF93BF93CF93EF93FF939E
:1052A000C091E900CF708091EC001092E9008091EC
:1052B000F000877F8093F00078940E947A29109202
:1052C000E9008091F00088608093F000C093E900CD
:1052D000FF91EF91CF91BF91AF919F918F917F916E
:1052E0006F915F914F913F912F910F900FBE0F9053
:1052F0001F9018951F93CF93DF93CDB7DEB7AA9772
:105300000FB6F894DEBF0FBECDBF8BEF91E02091BA
:10531000F100FC012193CF01F2E083309F07B9F740
:105320000E94E4248091E80083FF1EC18091FB016C
:105330009091FC019A3008F017C1E92FF0E0E55593
:10534000F44D0C94082B803899F0823809F00CC188
:105350008091FF018F70873008F006C18093E900CB
:105360008091EB0085FB882780F91092E90006C048
:105370008091F7019091F801911182609091E8007D
:10538000977F9093E8008093F1001092F100809154
:10539000E8008E77E5C0882309F4D3C0823009F095
:1053A000E3C08091FD018111D6C08091FF018F7013
:1053B0002FEF280F263008F0D7C08093E900209106
:1053C000EB0020FFC8C0933031F48091EB00806285
:1053D0008093EB00C0C09091EB0090619093EB0044
:1053E00021E030E001C0220F8A95EAF72093EA001D
:1053F0001092EA008091EB008860EACF8111B4C07E
:105400001091FD011F778091E3008078812B8093BC
:10541000E3008091E800877F8093E8000E94A22744
:105420008091E80080FFFCCF8091E300806880934A
:10543000E30082E0111183E08093FA0195C0805867
:10544000823008F091C08091FD019091FE018C3D69
:1054500023E09207A1F583E08A838AE289834FB72C
:10546000F894DE01139620E03EE051E2E32FF0E0F5
:1054700050935700E49120FF03C0E295EF703F5F27
:10548000EF708E2F90E0EA30C0F0C7968D939D9319
:105490002F5F243159F74FBF8091E800877F8093B9
:1054A000E8006AE270E0CE0101960E94B126809188
:1054B000E8008B778093E80057C0C096E7CF6091F3
:1054C000FF0170910002AE014F5F5F4F0E94D52532
:1054D000BC01892B09F448C09091E800977F909314
:1054E000E80089819A810E940F27E1CF8038E1F599
:1054F0008091E800877F8093E8008091F601809397
:10550000F10045CF811130C09091FD01923060F5DE
:105510008091E800877F8093E8009093F6010E94D5
:10552000A2278091F601882311F084E005C08091C4
:10553000E30087FDFACF81E08093FA010E94D52431
:1055400013C08091FD01813079F481E0933009F03E
:1055500080E08093F8011092E9008091E800877F55
:105560008093E8000E94A2278091E80083FF0AC090
:105570008091E800877F8093E8008091EB00806253
:105580008093EB00AA960FB6F894DEBF0FBECDBF96
:10559000DF91CF911F910895CF938091FA018823D5
:1055A00099F0C091E900CF708091EC0080FD0EC0B1
:1055B00080E0C82B1092E9008091E80083FD0E94F2
:1055C0007A29CF70C093E900CF91089580E8F1CF98
:1055D000991B79E004C0991F961708F0961B881F45
:1055E0007A95C9F78095089597FB072E16F40094D5
:1055F00007D077FD09D00E940E2B07FC05D03EF4A2
:10560000909581959F4F0895709561957F4F08956E
:10561000EE0FFF1F0590F491E02D0994AA1BBB1B10
:1056200051E107C0AA1FBB1FA617B70710F0A61BA2
:10563000B70B881F991F5A95A9F780959095BC01C3
:10564000CD010895F999FECF92BD81BDF89A9927B1
:1056500080B50895A8E1B0E042E050E00C94562BEC
:10566000262FF999FECF92BD81BDF89A019700B41B
:10567000021639F01FBA20BD0FB6F894FA9AF99ABB
:105680000FBE08950396272F0E94312B0E94302BC6
:10569000252F0E94312B242F0C94312B0196272F7C
:1056A0000E94312B0C94302BDC01CB01FC01F999C9
:1056B000FECF06C0F2BDE1BDF89A319600B40D925E
:1056C00041505040B8F70895F894FFCFEF09FB0917
:1056D000FF09030A070A0B0A0F0A130A170A1B0A13
:1056E0001F0A230A270A2B0A2F0A330A370A3B0A02
:1056F000CA0FCA0F2910291070108C10F70FF70F5E
:10570000CE10F70F66116611D111F70FF70FDA11EE
:105710007011701170117011701170117011701181
:105720007011701170117011701170117011701171
:105730007D118B1192119911A3113D123D12461248
:10574000461248124612461246123D123D124D12A2
:10575000461246124D12A329CB29B42ACB29B42ACA
:0A576000FE291F2AB42A762A822AA5
:10576A00C7012808140A321E372339240E24D823E5
:10577A009D2301010203040506070809004085224A
:0C578A00090D840C620C070C200C390C7B
:0200000400807A
:0402030000000000F7
:00000001FF
