:100000000C94B6060C94FD060C94FD060C94FD06AB
:100010000C94FD060C94FD060C94FD060C94FD0654
:100020000C94FD060C94FD060C94A92A0C947C2BD0
:100030000C94681B0C94FD060C94FD060C94FD06B4
:100040000C94FD060C94FD060C94FD060C94FD0624
:100050000C94FD060C941F1C0C94FD060C94FD06DC
:100060000C94FD060C94FD060C94FD060C94FD0604
:100070000C94FD060C94FD060C94FD060C94FD06F4
:100080000C94FD060C94FD060C94FD060C94FD06E4
:100090000C94FD060C94FD060C94FD060C94FD06D4
:1000A0000C94FD060C94FD060C94FD062530325888
:1000B0003A20253038620A000A722F63203031322C
:1000C00033343536370A001F0014001A00160004B6
:1000D000001D001B0006002000210015000800077D
:1000E00000090019000500220023001C0017000A67
:1000F000000B00110000001E0029002B000251D748
:100100005CE000E2002C002400250018000C000E2A
:10011000000D00100000003100015330002800A93C
:1001200000D85CAA00E30026002700120013003369
:10013000000F00360000002D002E0034002F002A92
:10014000003800370000000100010001000100013B
:100150000001000100010001000100010001000197
:100160000001000100010001000100010001000187
:10017000000100010000000100010001000100E198
:10018000000100E300010001000100010001000185
:100190000001000100000001000100010001000158
:1001A0000001000100E20001000100010001000166
:1001B0000001000100000001000100010001000138
:1001C000000100010000003B0001000100A900AA9D
:1001D000000100010001003C003D0001000100A8F9
:1001E000000100010001003E003F0001000100018C
:1001F000005000570000003A00005C390001000187
:1002000000010001000100400041000100460052D1
:1002100000510056000000490035002A0058000136
:1002200000010001000100420043004700480001B6
:10023000004F004D00000044004500F40052004C07
:100240000051004E0000000100010001000100010A
:100250000001000100010001000100010001000196
:100260000001000100010001000100010001000186
:100270000001000100000001000100010001000177
:100280000001000100010001000100010001000166
:100290000001000100000001003500010001000123
:1002A0000001000100010001000100010001000146
:1002B0000001000100000001000100010001000137
:1002C0000001000100000044454255473A2064699E
:1002D0007361626C65642E0A0044454255473A20BA
:1002E000656E61626C65642E0A000A002530325822
:1002F00020006B6579626F6172645F7265706F7206
:10030000743A20000A0025303258006B6579626F1C
:100310006172645F7365745F6C65643A2000646F3A
:100320006E652E0A00626F6F746D6167696320737A
:1003300063616E3A202E2E2E2000290A00257500BA
:100340002F002575005D280025640020002564002D
:10035000200025640020002564007C0025303258F0
:10036000006D6F7573656B6579205B62746E7C7868
:100370002079207620685D287265702F61636C2972
:100380003A205B006D6B5F776865656C5F74696DC3
:10039000655F746F5F6D6178203D2025640A006D94
:1003A0006B5F776865656C5F6D61785F73706565BD
:1003B00064203D2025640A006D6B5F74696D655F84
:1003C000746F5F6D6178203D2025640A006D6B5F5E
:1003D0006D61785F7370656564203D2025640A0057
:1003E0006D6B5F696E74657276616C203D2025646B
:1003F0000A006D6B5F64656C6179203D2025640A9D
:10040000006D6B5F776865656C5F74696D655F74BF
:100410006F5F6D6178203D2025640A006D6B5F770A
:100420006865656C5F6D61785F7370656564203DBC
:100430002025640A006D6B5F74696D655F746F5F82
:100440006D6178203D2025640A006D6B5F6D6178D9
:100450005F7370656564203D2025640A006D6B5FE5
:10046000696E74657276616C203D2025640A006DAA
:100470006B5F64656C6179203D2025640A000A0089
:10048000257500363A20776865656C5F74696D651F
:100490005F746F5F6D61783A20000A002575003542
:1004A0003A20776865656C5F6D61785F737065652C
:1004B000643A20000A00257500343A2074696D659D
:1004C0005F746F5F6D61783A20000A002575003314
:1004D0003A206D61785F73706565643A20000A00A8
:1004E000257500323A20696E74657276616C286DEC
:1004F00073293A20000A00257500313A2064656CA2
:100500006179282A31306D73293A20000A092D209B
:1005100056616C756573202D0A004D3E004D2564B3
:100520003E20003F007365742064656661756C74DD
:100530000A00433E200077686572652064656C742C
:10054000613A20637572736F723D25642C20776861
:1005500065656C3D25640A53656520687474703A5E
:100560002F2F656E2E77696B6970656469612E6FD8
:1005700072672F77696B692F4D6F7573655F6B6558
:1005800079730A000A092D204D6F7573656B6579C3
:10059000202D0A4553432F713A09717569740A3148
:1005A0003A0964656C6179282A31306D73290A3201
:1005B0003A09696E74657276616C286D73290A3325
:1005C0003A096D61785F73706565640A343A09743D
:1005D000696D655F746F5F6D61780A353A09776898
:1005E00065656C5F6D61785F73706565640A363A46
:1005F00009776865656C5F74696D655F746F5F6DC1
:1006000061780A0A703A097072696E742076616CBA
:100610007565730A643A097365742064656661756B
:100620006C74730A75703A092B310A646F776E3AED
:10063000092D310A706775703A092B31300A7067DD
:10064000646F776E3A092D31300A0A7370656564FC
:10065000203D2064656C7461202A206D61785F7391
:1006600070656564202A2028726570656174202F8A
:100670002074696D655F746F5F6D6178290A003F52
:10068000004D3E2000433E20004C25640A00746962
:100690006D65725F72656164333228293A202530B6
:1006A000346C580A006B6579626F6172645F6964CB
:1006B0006C653A2025580A006B6579626F61726437
:1006C0005F70726F746F636F6C3A2025580A006810
:1006D0006F73745F6B6579626F6172645F6C656480
:1006E0007328293A2025580A000A092D20537461DD
:1006F000747573202D0A004743433A20392E312E5A
:1007000030204156522D4C4942433A20322E302E51
:1007100030204156525F415243483A20617672354B
:100720000A004F5054494F4E533A204C55464120F1
:10073000424F4F544D41474943204D4F5553454B30
:1007400045592045585452414B455920434F4E532B
:100750004F4C4520434F4D4D414E442034303936A7
:100760000A004255494C443A2022302E362E31356B
:10077000332D313634392D673466643330612D645E
:100780006972747922202831333A35393A32382067
:100790004A756E2020362032303139290A005649F8
:1007A000443A2030784645454428712E6D2E6B29F9
:1007B000205049443A203078434146452848484B28
:1007C00042206D6F6429205645523A2030783031EE
:1007D00030340A00444553433A20712E6D2E6B206D
:1007E0006B6579626F617264206669726D776172A0
:1007F0006520666F722048484B420A000A092D2086
:1008000056657273696F6E202D0A000A092D204308
:100810006F6E736F6C65202D0A4553432F713A0933
:10082000717569740A6D3A096D6F7573656B6579D9
:100830000A000A092D204D61676963202D0A443A98
:10084000094465627567204D65737361676520545F
:100850006F67676C650A583A094D61747269782050
:100860004465627567204D6F646520546F67676CDF
:1008700065202D2053686F77206B657970726573E2
:1008800073657320696E206D617472697820677278
:1008900069640A4B3A094B6579626F61726420445E
:1008A0006562756720546F67676C65202D205368FB
:1008B0006F77206B65797072657373207265706FE6
:1008C00072740A4D3A094465627567204D6F7573FD
:1008D0006520546F67676C650A563A0956657273EE
:1008E000696F6E0A533A095374617475730A433A17
:1008F00009416374697661746520436F6E736F6C30
:1009000065204D6F64650A46312D4631303A0953F2
:10091000776974636820746F204C61796572203048
:100920002D392028463130203D204C30290A302DE9
:10093000393A0953776974636820746F204C617980
:10094000657220302D390A47524156453A0953778E
:100950006974636820746F204C617965722030205F
:1009600028616C7465726E617465290A423A094A9D
:10097000756D7020746F20426F6F746C6F61646569
:10098000720A4553433A094A756D7020746F2042CC
:100990006F6F746C6F616465722028616C7465722E
:1009A0006E617465290A453A095072696E74204572
:1009B0004550524F4D2053657474696E67730A42F7
:1009C00053504143453A09436C6561722045455097
:1009D000524F4D0A000A002575002E6E6B726F3A59
:1009E00020000A002575002E737761705F626163D5
:1009F0006B736C6173685F6261636B737061636575
:100A00003A20000A002575002E737761705F6772C7
:100A10006176655F6573633A20000A002575002ED4
:100A20006E6F5F6775693A20000A002575002E73A6
:100A30007761705F72616C745F726775693A2000EC
:100A40000A002575002E737761705F6C616C745FAE
:100A50006C6775693A20000A002575002E63617085
:100A6000736C6F636B5F746F5F636F6E74726F6CC8
:100A70003A20000A002575002E737761705F636F5E
:100A80006E74726F6C5F636170736C6F636B3A202E
:100A9000000A0025303258006B65796D61705F6324
:100AA0006F6E6669672E7261773A20000A002575BD
:100AB000002E6D6F7573653A20000A002575002EB3
:100AC0006B6579626F6172643A20000A00257500D7
:100AD0002E6D61747269783A20000A002575002E27
:100AE000656E61626C653A20000A0025303258005C
:100AF00064656275675F636F6E6669672E726177A2
:100B00003A20000A0025750064656661756C745FA3
:100B10006C617965723A20003F000A6D6F757365EC
:100B20003A206F66660A000A6D6F7573653A206F2A
:100B30006E0A000A6B6579626F6172643A206F66B3
:100B4000660A000A6B6579626F6172643A206F6EA3
:100B50000A000A6D61747269783A206F66660A004D
:100B60000A6D61747269783A206F6E0A000A6465D2
:100B70006275673A206F66660A000A646562756787
:100B80003A206F6E0A000A0A4A756D70696E672016
:100B9000746F20626F6F746C6F616465722E2E2E9D
:100BA0002000433E2000436C656172696E672045FA
:100BB0004550524F4D0A006565636F6E6669673A2E
:100BC0000A005B735D004B6579626F61726420732C
:100BD000746172742E0A005B575D005B535D005BAD
:100BE000525D005B445D005B435D00040330000028
:100BF000001203480048004B00420020006D006FC7
:100C000000640000000C0371002E006D002E006BCC
:100C10000000000403090409025B00030100A0FABC
:100C20000904000001030101000921110100012252
:100C300040000705810308000A09040100010300C0
:100C4000000009211101000122850007058203200F
:100C5000000A09040200020300000009211101003A
:100C6000012222000705830320000107050303205A
:100C700000011201100100000008EDFEFECA04018F
:100C8000010203010631FF0974A10109751500264F
:100C9000FF009520750881020976150026FF009552
:100CA0002075089102C005010902A1018502090110
:100CB000A1000509190129051500250195057501F2
:100CC0008102950175038101050109300931158102
:100CD000257F95027508810609381581257F9501C4
:100CE00075088106050C0A38021581257F95017566
:100CF000088106C0C005010980A101850316010015
:100D00002603001A81002A8300751095018100C016
:100D1000050C0901A1018504160100269C021A0197
:100D2000002A9C02751095018100C005010906A1E9
:100D300001050719E029E7150025019508750181CE
:100D400002950175088101050819012905950575A8
:100D50000191029501750391010507190029FF15FD
:100D60000026FF00950675088100C00011241FBEF3
:100D7000CFEFDAE0DEBFCDBF04B603FE27C080911F
:100D8000000290910102A0910202B091030287300B
:100D9000904BA740B04BD1F4109200021092010288
:100DA000109202021092030214BE84B7877F84BFA0
:100DB0000FB6F894A89580916000886180936000D8
:100DC000109260000FBEE0E0F8E3099511E0A0E0AA
:100DD000B1E0EAEFFBE502C005900D92AC32B1073D
:100DE000D9F722E0ACE2B1E001C01D92A030B20719
:100DF000E1F70E94CF270C94A92D0C940000FF93DB
:100E0000EF93E0912C01F0912D01309709F00995B5
:100E1000EF91FF910895FC018591803011F0EFDF93
:100E2000FBCF0895FF27E0E230E247FF0CC0419579
:100E300097FF09C0EDE26095709580959095611DD2
:100E4000711D811D911D27FF02C0219530E350E2E5
:100E5000AA27660F771F881F991FAA1FA41710F0D3
:100E6000A41B63955A95A9F7AA3008F0A95FA05D65
:100E7000AF93F395611571058105910541F7ED3249
:100E800011F4EF93F395F21718F43F93F395FBCF1A
:100E90008F91B5DFFA95E1F70895E991F991859180
:100EA000803021F0853219F0AADFF9CF089520E0D3
:100EB000E89455915532C1F3503311F4689455912B
:100EC0005A3348F4505390F3220F022E220F220F70
:100ED000200D250FF4CF0EF4219589919991533669
:100EE00019F3533729F1533559F1BC018827992754
:100EF000E8945C3621F4899199916894559154361F
:100F000039F446EF7EF077FF0DC08FEF9FEF0AC0F8
:100F100055374AE039F0583540E121F0523642E089
:100F200009F00895FF93EF937DDFEF91FF91B7CF25
:100F3000FF93EF93FC0181918030B9F360DFFBCF29
:100F4000FF93EF9368DFF1CFDF93CF93CDB7DEB799
:100F50002596A3DFCF91DF9108958FEF84B980E4C8
:100F600085B957985F9A2E9A2F98A6E3B1E01C9204
:100F700011961C92119712961C92129713961C921E
:100F8000139714961C92149715961C921597169603
:100F90001C92169717961C921797EEE2F1E01082BA
:100FA0001182128213821482158216821782B093E4
:100FB0004101A0934001F0933F01E0933E01089569
:100FC00008950C94E007EF92FF920F931F93CF9335
:100FD000DF9300D000D0CDB7DEB780913E01909175
:100FE0003F01209140013091410130933F01209316
:100FF0003E0190934101809340011A82198201E0E1
:1010000010E0EE24EA94F12C60E030E020E085B1BD
:10101000422F807C9981892B862B85B9AAE1AA95DC
:10102000F1F700C0E0913E01F0913F0189819A8182
:10103000E80FF91F808190E0022E02C095958795F8
:101040000A94E2F780FD2F9A95E39A95F1F7000054
:1010500076B52E98AAE1AA95F1F700C0C80101C0A3
:10106000880F4A95EAF740914001509141014F9B0A
:1010700085C0E981FA81E40FF51F8095908189236D
:10108000808386B5E72FF0E0871708F47EC086B529
:1010900090E08E1B9F0B069778F0E0913E01F09157
:1010A0003F0189819A81E80FF91F8081A981BA8166
:1010B0004A0F5B1FFA018083FAE1FA95F1F700C04D
:1010C0002F982E9A8BE291E00197F1F700C0000073
:1010D0002F5F3F4F685F2830310509F098CFA0910E
:1010E0004001B0914101E981FA81AE0FBF1FE0914B
:1010F0003E01F0913F0189819A81E80FF91F9C918F
:101100008081981751F00E94A41B60934201709354
:1011100043018093440190934501A981BA811196BE
:10112000BA83A983189709F06FCF8091F7018530B2
:1011300021F08091F701811113C0809142019091BB
:101140004301A0914401B0914501BC01CD010E9431
:10115000E91B613177428105910510F00E94191B4E
:101160000E94520981E00F900F900F900F90DF9135
:10117000CF911F910F91FF90EF900895E981FA812F
:10118000E40FF51F9081892B7BCF86B5D701AE1B6D
:10119000BF0B8A0F9B2F911D7ECFE0914001F091F4
:1011A0004101E80FF11D808108950F931F93CF93A4
:1011B000DF9388EB90E00E940B07D0E0C0E00CEAE0
:1011C00010E0E0914001F0914101EC0FFD1F8081A2
:1011D0000E94351A1F928F93DF93CF931F930F9323
:1011E0000E94A40721960F900F900F900F900F90E0
:1011F0000F90C830D10529F7DF91CF911F910F9142
:10120000089508950895FC01611106C08281882324
:1012100031F085EE0E94490F90E080E0089585EE60
:101220000E94F20FF9CF81E0089581E008950C94B7
:1012300015091F93CF93DF9300D000D00F92CDB745
:10124000DEB749835A836B832091590189819A8142
:1012500021111BC06623A9F00E94E118182F682FE6
:1012600089819A810E948B1869817A81812F0F90E0
:101270000F900F900F900F90DF91CF911F910C94D2
:101280006C0A0E94B818182FEFCF0E94E1186981EC
:101290007A81EDCFFC01408151816281738184812B
:1012A0000C9419090C94E10708950C9454090C94BA
:1012B000550908950E9408130E9459092FEF84E3ED
:1012C0009CE0215080409040E1F700C000000C9469
:1012D000431C0F931F93CF93DF938C010E944A0905
:1012E000EC01B8010E941709882309F458C0B8011D
:1012F000CE010E94520D882309F451C0C6318CE5FD
:10130000D80709F4C8C098F5C130FCE5DF0709F437
:101310004CC050F4C115DC45E9F1C801DF91CF9113
:101320001F910F910C941309C531FCE5DF07A9F358
:10133000F8018281882389F30E94491A811102C031
:101340000E94CD1A0E94661A90E09093F201809359
:10135000F101FE01E350FC458091F1018160E23131
:10136000F10508F048C0E555F24D0C944D2DCD3DEA
:101370008CE5D807B9F1CE3DECE5DE0761F1CC3D57
:10138000DC4559F6F8018281882349F080E00E940B
:10139000792805C0F801828181110E945A0980E0F4
:1013A000DF91CF911F910F910895F80182818823D9
:1013B000B1F39091CF01892F8E7F90FF8160809350
:1013C000CF0180FF05C089ED92E00E940B07E7CFB7
:1013D00087EC92E0FACFF8018281882301F30E9422
:1013E000CD1ADDCFF80182818823C9F282E0CFCF08
:1013F0008091F10182608093F1018091F1010E945E
:101400006A1A0E940813CBCF8091F1018460F3CF58
:101410008091F1018860EFCF8091F1018061EBCF85
:101420008091F1018062E7CF8091F1018064E3CF88
:101430008091F1018068DFCF8091F1018C60DBCF7A
:101440008091F1018E7FD7CF8091F1018D7FD3CF35
:101450008091F1018B7FCFCF8091F101877FCBCF3E
:101460008091F1018F7EC7CF8091F1018F7DC3CF35
:101470008091F1018F7BBFCF8091F1018F77BBCF3E
:101480008091F101837FB7CF9091F101892F97FB74
:1014900087F98058B0CF0E947E19F8019281992374
:1014A00081F08A7A91E009F490E0909346018111ED
:1014B00006C089E20E9459190E94CD1970CF85E3B8
:1014C000F9CF80914601811104C089E20E94601920
:1014D000F3CF85E3FBCF089598E0899FF0011124B5
:1014E000E70FF11D83E0EE0FFF1F8A95E1F7E60F8E
:1014F000F11DEE0FFF1FE953FF4F85919491089561
:10150000FC01EE0FFF1FE953FF4F85919491089561
:10151000CF93DF930E946C0A0E94470CEC01811567
:1015200020E5920708F0A3C0811530E4930708F086
:1015300012C1803E910508F079C0803C910508F009
:10154000F3C0883A910580F4853A910508F0F2C01D
:101550008130910509F47BC00497813A910508F424
:1015600076C0D0E0C0E073C08F3B9105D1F3883ADC
:10157000910509F447C1893A910509F446C18A3AAF
:10158000910509F445C18B3A910509F444C18C3A9F
:10159000910509F443C18B3B910509F442C18C3B91
:1015A000910509F441C18D3A910509F440C1803B90
:1015B000910509F43FC18E3A910509F43EC18F3A75
:1015C000910509F43DC1813B910509F43CC1823B81
:1015D000910509F43BC1833B910509F43AC1843B71
:1015E000910509F439C1853B910509F438C1863B61
:1015F000910509F437C1873B910509F436C1883B51
:10160000910509F435C1893B910509F434C18D3B3D
:10161000910509F433C18E3B910509F432C18A3B2F
:10162000910509F431C1C0E0D4E411C0811540E254
:10163000940788F48F3F910509F048F4883E91059E
:1016400030F0805F9109D065409708F08ACFCE01D5
:10165000DF91CF910895C11580E3D80708F475C0D4
:10166000CE019927D3FD74C0EC01D06CF0CFC11529
:1016700095E5D90760F5C11524E5D20708F09CC0AF
:10168000C11533E5D30778F4C11542E5D40708F056
:1016900082C0C11581E5D80708F460C0DC2FCC27D3
:1016A000C16FD06AD4CFCE018370992721E030E09A
:1016B00002C0220F331F8A95E2F7C695C69590E2C5
:1016C000C99FE0011124C22BD32BDA68C0CFC1150A
:1016D0002AE5D207B0F4C11539E5D30708F07CC07C
:1016E000C11546E5D40708F46CC0CE0198558F3F6C
:1016F000910511F008F035CFDC2FCC27C06FD06AF0
:10170000A6CFCE0190568115904208F02ACF8D2F9A
:101710008F710E94C20C90E0982F882788279F71B4
:101720009C012C2BE90156C0805C91090E94800A23
:10173000EC018DCF853A910509F45EC0863A91059A
:1017400009F05DC0C2E8D0E482CFCE019F70EECF39
:10175000EC01D86C7CCFDF70D06A79CFCE0174E019
:10176000969587957A95E1F783702C2F2695269587
:10177000237040E2249F90011124382B8C2F83701A
:10178000C1E0D0E002C0CC0FDD1F8A95E2F7C22B8A
:10179000D32BDC685CCFCE018370992721E030E049
:1017A00002C0220F331F8A95E2F7C695C69580E2E4
:1017B000C89FE0011124EBCFDC2FCC27C46FD06A87
:1017C00046CF8C2F0E94C20CC82FD0E0DC2FCC2734
:1017D000CC27DF71D0623BCF8C2F8F700E94C20C60
:1017E00034E0D695C7953A95E1F79C2F9F70C82FA6
:1017F000CF70C06ED92FB0CFC1E8D0E428CFC3E8F6
:10180000D0E425CFC2EED4E422CFC9EED4E41FCF7A
:10181000CAEED4E41CCFC5EBD4E419CFC6EBD4E4B4
:1018200016CFC3EBD4E413CFC4EBD4E410CFC7EB93
:10183000D4E40DCFCCECD4E40ACFCDECD4E407CF84
:10184000C3E8D5E404CFCAE8D5E401CFC2E9D5E4C2
:10185000FECEC4E9D5E4FBCEC1E2D6E4F8CEC3E2C5
:10186000D6E4F5CEC4E2D6E4F2CEC5E2D6E4EFCEBD
:10187000C6E2D6E4ECCEC7E2D6E4E9CECFE6D4E4C5
:10188000E6CEC0E7D4E4E3CECAE2D6E4E0CE803EC2
:10189000910581F1C8F48133910509F462C048F4DF
:1018A0008932910509F456C08A32910509F460C065
:1018B000089589339105B9F082389105A1F08533F7
:1018C000910509F440C00895863E910561F138F410
:1018D000823E9105B1F0833E9105E1F00895873E87
:1018E000910551F108952091F1012370D9F080EE16
:1018F00090E008952091F10120FF14C089E390E069
:1019000008952091F10122FF0DC024FD09C083EE4E
:1019100090E008952091F10122FD31C024FF02C022
:1019200090E080E008952091F10123FFFBCF24FD9A
:10193000F7CF87EE90E008952091F10123FFEECFDD
:1019400086EE90E008952091F10125FFEBCF89E22A
:1019500090E008952091F10125FFE4CF85E390E028
:1019600008952091F10126FFDDCF8AE290E00895ED
:101970002091F10126FFD6CF81E390E0089582EE19
:1019800090E008959091F10192FF06C0282F2871F0
:10199000283069F4877F846093FF06C0282F287160
:1019A000283161F4877E846194FD877E0895282F15
:1019B0002471243089F78B7F8860EECF282F247123
:1019C000243191F78B7E8861EFCF0F931F93CF93D4
:1019D000DF93C62FD42F022FFC0182818823C9F008
:1019E000609349010E94981B90934801809347019E
:1019F00080E28C0F883008F050C0C77081E001C0D1
:101A0000880FCA95EAF7DF91CF911F910F910C943F
:101A1000341010914901161335C0809147019091FF
:101A200048010E94C41B883C910560F5C0E2CD0FBF
:101A30001D17B9F080E2810F883040F4177081E003
:101A400001C0880F1A95EAF70E943B10C83048F48D
:101A500081E09D2F977001C0880F9A95EAF70E9448
:101A60003410802F0E942110C830B8F4D77081E064
:101A700001C0880FDA95EAF7DF91CF911F910F919E
:101A80000C943B1080E28C0F883038F4C77081E0F2
:101A900001C0880FCA95EAF7EFCFDF91CF911F9170
:101AA0000F9108959C01CB01203F4CE5340769F16B
:101AB00090F4283DFCE53F0721F1293D4CE5340732
:101AC00081F1273D3C45B1F0FC018281882361F121
:101AD000109249010895223FFCE53F07D1F0233FD2
:101AE0004CE53407D1F0213F3C4571F727E245EE44
:101AF00064EE03C026E241EE61EE0E94E50C80E058
:101B0000089527E245EE65EEF8CF26E241EE60EE5D
:101B1000F4CF26E241EE62EEF0CF27E245EE66EE2C
:101B2000ECCF28E241E0EFCF81E0089590934F01A0
:101B300080934E010895E0914E01F0914F0130974E
:101B400021F00190F081E02D099480E00895EF925A
:101B5000FF920F931F93CF93DF938C01E0914E017F
:101B6000F0914F013097C1F10280F381E02D09958A
:101B70008091CF0182FF30C080FF04C082EF92E0ED
:101B80000E940B07D0E0C0E08CEEE82E82E0F82E39
:101B90008091CF0180FF0EC0F801EC0FFD1F808106
:101BA0001F928F93FF92EF920E94A4070F900F90C5
:101BB0000F900F902196C830D10551F78091CF0139
:101BC00080FF0AC08AEE92E0DF91CF911F910F91C2
:101BD000FF90EF900C940B07DF91CF911F910F9125
:101BE000FF90EF900895DC01E0914E01F0914F01DC
:101BF000309739F082E08C930480F581E02DCD019F
:101C00000994089520914C0130914D01281739070E
:101C100071F090934D0180934C01E0914E01F09151
:101C20004F01309721F00680F781E02D0994089547
:101C300020914A0130914B012817390771F0909398
:101C40004B0180934A01E0914E01F0914F01309792
:101C500021F00084F185E02D0994089585B780680E
:101C600085BF85B7806885BF0895089508950C9451
:101C7000350E08950C94390E0E942E0E0E94360ED9
:101C80000C94370E81E008950E948F1B0E94AD07CF
:101C90000E94AA1C0C943A0ECF93C82F8091CF01BA
:101CA00082FF1EC080FF1CC08BE093E00E940B07E8
:101CB0008091CF0180FF14C01F92CF9386E093E004
:101CC0009F938F930E94A4078091CF010F900F9054
:101CD0000F900F9080FF04C084E093E00E940B07F8
:101CE0008C2FCF910C945709BF92CF92DF92EF9235
:101CF000FF920F931F93CF93DF9300D000D00F92EA
:101D0000CDB7DEB70E94E3070E94420E882309F494
:101D100072C081E5C82E81E0D82E10E000E0E02EF0
:101D2000802F0E94CD08B82EF601F1906F01F816B1
:101D300009F45BC08091CF0181FD0E94D50830E09D
:101D400020E0FB244F2D50E0922FBA01022E02C05A
:101D5000759567950A94E2F760FF41C02983EA828E
:101D600021E030E0790102C0EE0CFF1C9A95E2F709
:101D70002B2D30E02E213F2181E0232B09F480E040
:101D80008B830E94981B8160782F9D838C8349816F
:101D90005A816B818D810E941B0FF801EF5AFE4F13
:101DA00080818E2580830E94E21F0E949B0D90916E
:101DB0005001891789F10E949B0D809350010F906B
:101DC0000F900F900F900F90DF91CF911F910F9177
:101DD000FF90EF90DF90CF90BF900C944C0E2F5F50
:101DE0003F4F2830310509F0AFCF0F5F1F4F08304C
:101DF000110509F094CF8FEF89838A831B820E949B
:101E0000981B8160782F9D838C8349815A816B81D7
:101E10008D810E941B0FC7CF0F900F900F900F90D6
:101E20000F90DF91CF911F910F91FF90EF90DF9076
:101E3000CF90BF900895CF93DF93CDB7DEB72B97A8
:101E40000FB6F894DEBF0FBECDBF4F8358876987AA
:101E50007A878B871E8285E0FE013796DE01119618
:101E600001900D928A95E1F749815A816B817C81BD
:101E70008D819E812B960FB6F894DEBF0FBECDBF2D
:101E8000DF91CF910C94A115FC01808191810C947C
:101E90002319CF93C82F882309F4A2C08CEF8C0F8D
:101EA000813A58F48C2F0E942324811199C08C2FE1
:101EB0000E945919CF910C94CD1980E28C0F883073
:101EC00048F4C77081E001C0880FCA95EAF70E9404
:101ED0008119F0CF8BE58C0F833068F481E890E0B6
:101EE000C53A31F083E890E0C63A11F482E890E018
:101EF000CF910C94020E88E58C0F873108F068C0F2
:101F000082EE90E0C83A09F460C089EE90E0C93AE8
:101F100009F45BC08AEE90E0CA3A09F456C085EB3A
:101F200090E0CB3A09F451C086EB90E0CC3A09F44A
:101F30004CC083EB90E0CB3B09F447C084EB90E0CE
:101F4000CC3B09F442C087EB90E0CD3AF1F18CEC48
:101F500090E0C03BD1F18DEC90E0CE3AB1F183E856
:101F600091E0CF3A91F18AE891E0C13B71F182E9C9
:101F700091E0C23B51F184E991E0C33B31F181E250
:101F800092E0C43B11F183E292E0C53BF1F084E2C0
:101F900092E0C63BD1F085E292E0C73BB1F086E229
:101FA00092E0C83B91F087E292E0C93B71F08FE686
:101FB00090E0CD3B51F080E790E0CE3B31F090E0F7
:101FC00080E0CA3B11F48AE292E0CF910C94180EA3
:101FD000C03F30F08C2F0E946E1ECF910C94551F85
:101FE000CF910895882361F19CEF980F913A20F4E6
:101FF0000E9460190C94CD1990E2980F983050F41B
:10200000877091E001C0990F8A95EAF7892F0E94A5
:102010008719F0CF9BE5980F933020F490E080E093
:102020000C94020E98E5980F973120F490E080E030
:102030000C94180E803F20F00E94D61E0C94551F61
:102040000895CF93C82F0E94490FC93349F42FEF49
:1020500083EC99E0215080409040E1F700C00000FF
:102060008C2FCF910C94F20F882321F00E948119BC
:102070000C94CD190895882321F00E9487190C949F
:10208000CD190895BF92CF92DF92EF92FF920F93F6
:102090001F93CF93DF9300D000D00F92CDB7DEB760
:1020A0006C016D837983FC01058102950F701281AB
:1020B00011110E94A0190E947719E82E882371F04F
:1020C0001123B1F08D81805E883090F082E00E9413
:1020D000181A0E94771991E0E82EE926B980B29487
:1020E0009FE0B922EB2DF0E0E354F24D0C944D2D1E
:1020F000E12CF4CF09810F70F981F07F11F0029586
:10210000007F1123B1F0002361F08D81805E883063
:1021100018F02D81211109C0802F0E9481190E9481
:10212000CD198D810E94490F15C0802F0E949219F0
:10213000F6CF8D810E94F20F002361F08D81805EC9
:10214000883018F04D81411133C0802F0E948719CB
:102150000E94CD1958E0B51629F086E08B0D8F70DE
:10216000823020F40E949B0D0E945709EE2009F452
:1021700000C20E94731980FDFCC1F60112820E9408
:102180006D190E947B17C6010E94C8120E946D192A
:102190000F900F900F900F900F90DF91CF911F91A4
:1021A0000F91FF90EF90DF90CF90BF900C94AC1701
:1021B000802F0E949819CCCF59815F70F52E6981CC
:1021C000607F603219F0F29480EFF8227D817723EE
:1021D00069F0713049F1112391F1002351F1F601B9
:1021E000858180FF9ECF8F70858323C0112381F06E
:1021F000011106C00E94B4198F290E943410AACF81
:102200000130C1F70E94B4198F290E94BA19A2CFD8
:10221000011106C00E94C3198F2D0E943B109ACF56
:10222000013009F497CFF6CF112329F0063008F0DA
:1022300091CF8F2DE2CF053008F08CCFEDCF00236A
:1022400059F38D810E94F20F85CF898186958695FD
:10225000837069F0813009F07DCF8D819981937011
:10226000111102C090E080E00E94180E73CF8D81A2
:1022700099819370111102C090E080E00E94020EDB
:1022800069CF112311F1FD81F53F99F0F63FB9F0C7
:10229000F43F49F48091EB019091EC0181609093BF
:1022A000EC018093EB018D810E946E1E0E94551FF0
:1022B00051CF8091EB019091EC018260F0CF809141
:1022C000EB019091EC018460EACF2D81253F89F0EC
:1022D000263FA9F0243F49F48091EB019091EC0155
:1022E0008E7F9093EC018093EB018D810E94D61E2E
:1022F000DDCF8091EB019091EC018D7FF2CF809149
:10230000EB019091EC018B7FECCF8981837009F018
:1023100050C011111FCF4D81429546954770440F13
:10232000440F8D818F7090E0B0E0A0E0042E04C0D7
:10233000880F991FAA1FBB1F0A94D2F75D8100E086
:1023400010E0980154FF0FC00FE010E020E030E0F3
:1023500004C0000F111F221F331F4A95D2F70095AA
:1023600010952095309569816695669563706D83AB
:10237000B901A801482B592B6A2B7B2B49835A831F
:102380006B837C835D8169817A818B819C815230F2
:1023900051F0533059F0513019F00E94F116DACE55
:1023A0000E94C916D7CE0E941917D4CE0E94C71614
:1023B000D1CE8695112311F089818170882309F48B
:1023C000C9CE4D81429546954770440F440F8D818B
:1023D0008F7090E0B0E0A0E0042E04C0880F991F39
:1023E000AA1FBB1F0A94D2F76D8100E010E098018C
:1023F00064FF0FC00FE010E020E030E004C0000FE9
:10240000111F221F331F4A95D2F700951095209572
:10241000309579817695769573707D83B901A801A1
:10242000482B592B6A2B7B2B49835A836B837C83E4
:102430005D8169817A818B819C81523051F053306A
:1024400059F0513019F00E943A1884CE0E941218A7
:1024500081CE0E9462187ECE0E9445177BCE6D8190
:10246000623F09F448C080F4603F81F1613FE1F1CF
:10247000862F805E8031D8F0112309F457C00111F6
:1024800050CE89818F7134C07D81733FD9F1743F03
:1024900099F7112309F440C099819F719983892F7D
:1024A0000E947B1763E089810E94031A53CE8D81BD
:1024B0008F708D8389818F71112321F00E947B178A
:1024C0008D819BCE0E94AC178D81A7CE112341F048
:1024D000053008F03FCE89818F710E94E1173ACE16
:1024E000063008F037CEF7CF89818F71112339F08C
:1024F0000E947B172FCE89818F711123C9F30E940F
:10250000AC1728CE112329F089818F710E945617AC
:1025100021CE0E9451171ECE81E00E94181A02306F
:1025200008F418CE82E00E94181A14CE002371F02D
:10253000ED81E93309F085CEFFEF23EC49E0F1505E
:1025400020404040E1F700C000007BCE89818F71C0
:10255000D6CF49814F706D81C6010E9403090E9448
:102560003B16F8CD49814F706D81C6010E946B0A00
:10257000F1CD0F900F900F900F900F90DF91CF91B2
:102580001F910F91FF90EF90DF90CF90BF90089533
:102590000F931F93CF93DF93EC018B819C81892B49
:1025A00029F08881998189238F3F29F4DF91CF9188
:1025B0001F910F910895CE010E9469098823B1F3FC
:1025C000688179818A810E942F198C010E948A1862
:1025D0000E94C616B801CE01DF91CF911F910F91D5
:1025E0000C9442100E94A0190E94B1190E94CD19AA
:1025F0000E9479200E94551F90E080E00E94020E08
:1026000090E080E00C94180E0E9467190C94F2126E
:102610000E948F190C940413282F892F82958F7094
:10262000903C80F48A30B0F4843020F4823090F40E
:1026300080E008958630E1F781E0203E88F0213F78
:10264000B9F70EC08C3011F08F3091F793FB8827CB
:1026500080F9089581E0203F39F018F4203E40F7DA
:102660000895243F29F7FCCF08950E9423190C9464
:102670000C13CF93DF9300D000D00F92CDB7DEB70D
:102680000F900F900F900F900F90DF91CF910895C2
:10269000CF93DF9300D000D000D0CDB7DEB7269621
:1026A0000FB6F894DEBF0FBECDBFDF91CF91089576
:1026B0001F93CF93DF93E0915A0116E080915B0165
:1026C0008E1304C0DF91CF911F910895CE2FD0E0DB
:1026D0001E9FF0011124E45AFE4F40815181628116
:1026E0007381848195810E944813FE013196E770C1
:1026F000E5CF40918C0150918D0160918E017091D8
:102700008F0180919001909191010C9448131F9337
:10271000CF93DF9380919101807FC1F480918E01EE
:102720008823A1F080915A01C0915B0160918C01D6
:1027300070918D0140918F0150919001D62FD72338
:10274000DA01A095B09516E0C81304C0DF91CF91CF
:102750001F91089590E04115510511F0DF3F31F4CC
:1027600001968770F1CF2A0F3B1F17C0189FF00109
:10277000199FF00D1124E45AFE4F21812713F0CF49
:1027800020812613EDCF22812111EACF23813481CC
:102790002417350740F3241B350B283C310500F77F
:1027A000209191012F7020612093910126E0289FB4
:1027B000F001299FF00D1124EF59FE4F80818F7099
:1027C000806180838CE891E00E94C812DF91CF91F4
:1027D0001F910C9458139F92AF92BF92CF92DF92A9
:1027E000EF92FF920F931F93CF93DF93CDB7DEB796
:1027F0002B970FB6F894DEBF0FBECDBF8C0185E0DE
:10280000F801DE01179601900D928A95E1F7D80143
:102810004C9111965C9111971296EC9012978091C1
:102820008F0190919001009709F46CC120918C0167
:1028300030918D01632F62236F3F09F463C11396BA
:10284000CD90DC9090908E01992009F4FAC0C816C2
:10285000D90608F43FC0F601E81BF90BCF01FF24AD
:10286000F394883C910508F0F12C8CE8A82E81E0C7
:10287000B82E80919101982F907FFF2009F4B9C064
:10288000911180C0FE2C35132AC0241328C0E110FA
:1028900026C08F708061809391010E947913C501D9
:1028A0000E94C81280919101D80115968C938F2DAA
:1028B0002B960FB6F894DEBF0FBECDBFDF91CF9140
:1028C0001F910F91FF90EF90DF90CF90BF90AF904E
:1028D0009F900895809590958C0D9D1DC0CFCD281B
:1028E00029F0842F85238F3F09F028C180E0B82F7D
:1028F000B170DB2EE0915A0120915B0136E080FD42
:102900001CC0EE20A1F28091910181608093910121
:10291000F12CCDCF8E2F90E03E9FF0011124E45A90
:10292000FE4F6181651306C06081641303C062813C
:102930006E11E7CFFC013196E770E213EBCF4F83C6
:1029400058878F8198850E942319292F22952F70EF
:10295000903260F0225F2F70223078F49F7051F037
:10296000F8019581907F31F4D12C0AC09F7011F04D
:102970008823D1F3805E8830B8F3C8010E94C81262
:10298000FD2C95CF351306C0241304C0D801EE20CA
:1029900009F47CC04F8358878F8198850E94351336
:1029A000882319F1EE2009F180919101803270F0B5
:1029B00020918C0130918D013A8329831B82DD8225
:1029C000CC828E83CE0101960E94C81286E0F80167
:1029D000ACE8B1E001900D928A95E1F70E9487136F
:1029E0000E947913FF24F39462CFC8010E94C81299
:1029F000F9CF911113C07C2DDB86CA866E2D8B8595
:102A00000E9439138CE891E00E94C81286E0F5011B
:102A100011928A95E9F70E94791349CF3513BACFFD
:102A20002413B8CFE110B6CFD80115968C93C80106
:102A30000E94C81286E0F50111928A95E9F7F92CF7
:102A400036CFC816D90680F1B601681B790BCB01C9
:102A5000F12C883C910508F046C0FE2CEE2029F2AE
:102A6000351330C024132EC08091910180FD21C008
:102A7000982F907FF1F0D80115968C931597903F81
:102A800039F0982F907F905F8F70892B15968C93DB
:102A9000C8010E94C81286E0F801ACE8B1E00190DC
:102AA0000D928A95E1F7B7CF809590958C0D9D1D7D
:102AB000CFCF86E0F801ACE8B1E001900D928A95A5
:102AC000E1F7F5CE4F8358878F8198850E943513A3
:102AD00081117CCF80919101816080939101C80127
:102AE0000E94C812E4CE7C2DDB86CA866E2D8B85B3
:102AF0000E94391386E0ECE8F1E0DF011D928A952F
:102B0000E9F789CFEE2009F470CF4F8358878F8182
:102B100098850E943513F82E882309F466CF86E045
:102B2000F801ACE8B1E001900D928A95E1F78CE8EC
:102B300091E00E94440F0E9487136DCF81E08E25A3
:102B4000D6CE1F93CF93DF93CDB7DEB72C970FB6BA
:102B5000F894DEBF0FBECDBF4F83588769877A8751
:102B60008B879C87CE0107960E94EB13882369F020
:102B70008A859B85892B39F04F815885842F852341
:102B80008F3F09F071C016E05FC086E0FE01379606
:102B9000DE01119601900D928A95E1F78A859B8559
:102BA000892B89F388859F8189238F3F61F3209149
:102BB0005B0130E0C90101968770992740915A0165
:102BC0004817190671F40E94081310925B011092C5
:102BD0005A0186E0ECE8F1E0DF011D928A95E9F701
:102BE000D2CF96E0929FD001939FB00D1124A45AAA
:102BF000BE4FFE01319601900D929A95E1F78093B8
:102C00005B010E945813BFCF819FC0011124845AD9
:102C10009E4F0E94EB138823E9F0E0915A011E9F1A
:102C2000F0011124E45AFE4F408151816281738189
:102C3000848195810E94481380915A0190E0019609
:102C40008770992780935A0180915A0190915B0176
:102C50008913DACF2C960FB6F894DEBF0FBECDBF26
:102C6000DF91CF911F91089569857A858B859C8529
:102C70000E94481388CFEF92FF920F931F93CF9338
:102C8000DF938C01892B89F0F12CEE24E394E80189
:102C90002196F8018491843709F457C0A0F482305A
:102CA00009F43EC048F48130D1F0DF91CF911F91FB
:102CB0000F91FF90EF9008959CEF980F9037A8F731
:102CC0000E94490F0AC0853709F44CC09CE7980F51
:102CD000903758F78F770E94F20F8E0116C00E5F63
:102CE0001F4FFE01849190E2980F983060F4877036
:102CF000FE2D01C0FF0F8A95EAF78F2F0E94A319BE
:102D00000E94CD1902C00E94490F8F2D815008F4F6
:102D1000BECFEFE9FFE03197F1F700C00000F6CF3A
:102D20000E5F1F4FFE01849190E2980F983050F48F
:102D30008770FE2D01C0FF0F8A95EAF78F2F0E9442
:102D4000A919DECF0E94F20FE0CF0E5F1F4FFE01E8
:102D5000C491C150D0F28FE99FE00197F1F700C014
:102D60000000F7CF0E5F1F4FFE01F490CECF089505
:102D70000C94B7160E94B8166093BE017093BF0101
:102D80008093C0019093C1010C94F21208950C94A9
:102D9000BA16CF93DF9300D000D0CDB7DEB76983EA
:102DA0007A838B839C838091BE019091BF01A09117
:102DB000C001B091C10129813A814B815C81282BEE
:102DC000392B4A2B5B2B29833A834B835C83CA01C3
:102DD000B9010F900F900F900F90DF91CF910C944D
:102DE000BA16CF93DF9300D000D0CDB7DEB769839A
:102DF0007A838B839C838091BE019091BF01A091C7
:102E0000C001B091C10129813A814B815C812823A5
:102E100039234A235B2329833A834B835C83CA018A
:102E2000B9010F900F900F900F90DF91CF910C94FC
:102E3000BA16CF93DF9300D000D0CDB7DEB7698349
:102E40007A838B839C838091BE019091BF01A09176
:102E5000C001B091C10129813A814B815C81282751
:102E600039274A275B2729833A834B835C83CA012E
:102E7000B9010F900F900F900F90DF91CF910C94AC
:102E8000BA160C94B7160C9441170E94431760931E
:102E9000BA017093BB018093BC019093BD010C9467
:102EA000F21260E070E0CB010C9445170F931F9372
:102EB000CF93DF9300D000D0CDB7DEB741E050E034
:102EC00060E070E08A019B0104C0000F111F221F07
:102ED000331F8A95D2F709831A832B833C83C90158
:102EE000B8010F900F900F900F90DF91CF911F912D
:102EF0000F910C9445170F931F93CF93DF9300D03E
:102F000000D0CDB7DEB741E050E060E070E004C033
:102F1000440F551F661F771F8A95D2F78091BA011B
:102F20009091BB01A091BC01B091BD018A019B01B0
:102F3000082B192B2A2B3B2B09831A832B833C83C9
:102F4000C901B8010F900F900F900F90DF91CF91B2
:102F50001F910F910C9445170F931F93CF93DF93FD
:102F600000D000D0CDB7DEB741E050E060E070E0C7
:102F700004C0440F551F661F771F8A95D2F74095EE
:102F80005095609570958091BA019091BB01A09188
:102F9000BC01B091BD018A019B01082319232A239A
:102FA0003B2309831A832B833C83C901B8010F900B
:102FB0000F900F900F90DF91CF911F910F910C9474
:102FC00045170F931F93CF93DF9300D000D0CDB759
:102FD000DEB741E050E060E070E004C0440F551FF0
:102FE000661F771F8A95D2F78091BA019091BB0135
:102FF000A091BC01B091BD018A019B01082719274E
:103000002A273B2709831A832B833C83C901B801F4
:103010000F900F900F900F90DF91CF911F910F9114
:103020000C944517CF93DF9300D000D0CDB7DEB717
:1030300069837A838B839C838091BA019091BB01D1
:10304000A091BC01B091BD0129813A814B815C8185
:10305000282B392B4A2B5B2B29833A834B835C83A8
:10306000CA01B9010F900F900F900F90DF91CF918F
:103070000C944517CF93DF9300D000D0CDB7DEB7C7
:1030800069837A838B839C838091BA019091BB0181
:10309000A091BC01B091BD0129813A814B815C8135
:1030A000282339234A235B2329833A834B835C8378
:1030B000CA01B9010F900F900F900F90DF91CF913F
:1030C0000C944517CF93DF9300D000D0CDB7DEB777
:1030D00069837A838B839C838091BA019091BB0131
:1030E000A091BC01B091BD0129813A814B815C81E5
:1030F000282739274A275B2729833A834B835C8318
:10310000CA01B9010F900F900F900F90DF91CF91EE
:103110000C9445170895990F990F990FE92FE80F0F
:10312000877041E001C0440F8A95EAF7E695E6957D
:10313000E69585E0E89FF0011124EE56FE4F30E061
:1031400020E070E05191DF011197CB01022E02C007
:10315000969587950A94E2F7817081958527842357
:1031600085278C932F5F3F4F2530310559F7089500
:10317000E92FEE0FEE0FEE0FE80F982F9770E69500
:10318000E695E69585E0E89FF0011124EE56FE4FA6
:1031900050E040E080E0219130E0092E02C03695F9
:1031A00027950A94E2F721703327042E01C0220FDD
:1031B0000A94EAF7822B4F5F5F4F4530510559F76C
:1031C0000895BF92CF92DF92EF92FF920F931F93D9
:1031D000CF93DF938C01C090BA01D090BB01E090F7
:1031E000BC01F090BD018091BE019091BF01A09102
:1031F000C001B091C101C82AD92AEA2AFB2ACFE12D
:10320000D0E0BC2ED701C6010C2E04C0B695A79500
:10321000979587950A94D2F780FD0EC0219788F77D
:10322000B12C8B2DDF91CF911F910F91FF90EF90DB
:10323000DF90CF90BF900895B8018C2F0E94880A2C
:10324000019761F3EECFCF93DF93D82FC92F0E9460
:10325000E1186D2F7C2FDF91CF910C94880A1F937A
:10326000CF93DF93162FD72F90915901992339F0DF
:10327000862F972FDF91CF911F910C9423198823CC
:1032800091F0862F972F0E94E118C82F682F812F69
:103290009D2F0E948B18612F7D2F8C2FDF91CF9156
:1032A0001F910C94880A862F972F0E94B818C82F58
:1032B000F2CF682F80910001909101010C940A1BBC
:1032C000682F80910001909101010C940C1B80915A
:1032D0000001909101010C940E1B8091C201859513
:1032E0008595859508958091C20187700895909184
:1032F000C201977081E009F480E008958091CE01C9
:1033000008959091CE01982B9093CE010895982F17
:1033100090958091CE0189238093CE0108951092DB
:10332000CE0108959091CD01982B9093CD010895F1
:10333000982F90958091CD0189238093CD01089598
:103340001092CD0108959091CC01982B9093CC01CF
:103350000895982F90958091CC0189238093CC017A
:1033600008951092CC0108958091C30108950895A5
:103370000C94B7199091C301981721F08093C30161
:103380000C94B81908958091C301882329F01092F4
:10339000C30180E00C94B8190895E0910001F09108
:1033A00001018091CE018083E0910001F091010143
:1033B00080819091CD01892B8083E0910001F09173
:1033C000010180819091CC01892B80839091C30170
:1033D000992381F0E0910001F09101018081892B16
:1033E000808380910001909101010E94CF1A811188
:1033F0000E94C31980910001909101010C94A70DC6
:1034000008950C94001A98E0899F90011124622B72
:103410006093C2010E947B178091C20185958595BA
:1034200085950C94011A1092C20180E00C94011A47
:103430009091C201809589238093C201282F277023
:1034400071F4282F082E000C330B9217130639F055
:103450008595859585950E94AC170C94131A08954F
:1034600090932D0180932C010895829594E0899F7B
:10347000900111242C7C869586958373282B30E04F
:10348000C901880F991F8A7A359527952575822B52
:10349000089590E080E00E946F2D9C0181E02D3E18
:1034A0003E4F09F080E0089582E090E00C94672D93
:1034B000682F82E090E00C94752D83E090E00C94EE
:1034C000672D682F83E090E00C94752D84E090E0E8
:1034D0000C94672D682F84E090E00C94752DAB015F
:1034E000BC018FE090E00C94872DAB01BC0183E11F
:1034F00090E00C94872D60E070E0CB010C94751A7D
:1035000060E070E0CB010E946F1A0C947B1A6DEEA4
:103510007EEF90E080E00E94932D60E082E090E0FA
:103520000E94752D60E083E090E00E94752D10925E
:10353000BE011092BF011092C0011092C10160E063
:1035400084E090E00E94752D60E085E090E00E94AC
:10355000752D60E086E090E00E94752D6FEF87E0AA
:1035600090E00E94752D40E050E0BA0188E090E0C4
:103570000E94872D60E08DE090E00E94752D40E074
:1035800050E0BA0188E190E00E94872D60E087E179
:1035900090E00E94752D0C94801A0C94871AAC014F
:1035A0009C012E5F3F4F485F5F4F80E02417350737
:1035B00009F40895F90191919F019923B9F38F5F5F
:1035C000F5CF9C01FC0132968FEF90E041914617B8
:1035D00051F08F3F19F4411101C0892F9F5F963040
:1035E000A9F78F3F09F40895280F311D87FD3A95FB
:1035F000F901628308959C01FC013296285F3F4FD8
:103600008191861303C0DF0111971C92E217F30723
:10361000B9F708950C94E11A0C94FB1AFC01329648
:1036200086E0DF011D928A95E9F7089508950C94CC
:10363000161B0E94171B8091F701843049F11092EC
:10364000D00188E190E020E40FB6F894A89580932B
:1036500060000FBE2093600080E00E9457090E9426
:10366000171B83B7817F846083BF83B7816083BF6B
:103670007894889583B78E7F83BF0FB6F894A8950A
:1036800080916000886180936000109260000FBE9E
:103690000895CF930E9401090E94E3070E94020946
:1036A000C0E08C2F0E94CD08811105C0CF5FC830CB
:1036B000C1F7CF91089581E0FCCF08950C945D1B74
:1036C0000E9408130E949B0D0E9457090C945E1BD8
:1036D0001F921FB61F9211248F939F93AF93BF9396
:1036E0008091D001811113C08091ED019091EE0184
:1036F000A091EF01B091F0014196A11DB11D809301
:10370000ED019093EE01A093EF01B093F001BF9112
:10371000AF919F918F911F901FBE1F90189582E0CF
:1037200084BD93E095BD9AEF97BD80936E00089598
:103730002FB7F8948091ED019091EE01A091EF01E7
:10374000B091F0012FBF0895CF93DF9300D000D048
:10375000CDB7DEB78FB7F8942091ED013091EE012F
:103760004091EF015091F00129833A834B835C83B0
:103770008FBF69817A818B819C810F900F900F9010
:103780000F90DF91CF910895CF92DF92EF92FF9249
:103790009C014FB7F8948091ED019091EE01A091BA
:1037A000EF01B091F0014FBF6C017D01EE24FF24C9
:1037B000A90170E060E0C416D506E606F70638F009
:1037C000821B930BFF90EF90DF90CF9008950197AD
:1037D000F7CF0F931F93CF93DF9300D000D0CDB7D7
:1037E000DEB7462F572FBC012FB7F8948091ED011B
:1037F0009091EE01A091EF01B091F0012FBF8417DD
:103800009507A607B707B8F08C019D01041B150B9F
:10381000260B370B09831A832B833C8369817A81BA
:103820008B819C810F900F900F900F90DF91CF9123
:103830001F910F9108950197A109B109E5CF7894DF
:103840001F921FB61F9211248F939F93AF93BF9324
:103850008091ED019091EE01A091EF01B091F00106
:103860000196A11DB11D8093ED019093EE01A093EF
:10387000EF01B093F001BF91AF919F918F911F9095
:103880001FBE1F90189581E08093E00080E2809336
:10389000D8001092C9008FE19EE40197F1F700C0B3
:1038A000000087E090EBDC0180930002909301021E
:1038B000A0930202B093030288E19CE00FB6F89453
:1038C000A895809360000FBE90936000FFCFCF92C9
:1038D000DF92EF92FF920F931F93CF93C0E0E82EF9
:1038E000F12C8C2F0E94CD0810E000E0C82ED12CC6
:1038F000C601002E02C0959587950A94E2F780FFD5
:1039000011C0602F7C2F80E00E946C0AE816F90637
:1039100049F481E0CF911F910F91FF90EF90DF90DC
:10392000CF9008950F5F1F4F0830110509F7CF5F43
:10393000C830B9F680E0EECFCF93C82F8CE20E945A
:10394000671C882321F08C2FCF910C94671C80E09A
:10395000CF910895CF93DF9300D000D0CDB7DEB7DD
:103960000E94491A811102C00E94CD1A85E293E09B
:103970000E940B0725E62983998191509983911123
:10398000F6C08EE193E00E940B0789E20E949C1C26
:1039900081111AC18AE20E949C1C81110E94CD1AD9
:1039A00085E00E949C1C81110E94431C0E94541AB5
:1039B0008093CF0187E00E949C1C882371F08BE1EB
:1039C0000E949C1C882309F4DBC09091CF01892FB1
:1039D0008D7F91FF82608093CF018091CF010E9403
:1039E000581A0E94661A90E09093F2018093F101B8
:1039F00080EE0E949C1C882341F09091F101892F58
:103A00008E7F90FF81608093F10189E30E949C1C6E
:103A1000882341F09091F101892F8D7F91FF826081
:103A20008093F10182EE0E949C1C882341F09091CA
:103A3000F101892F8B7F92FF84608093F10186EEE4
:103A40000E949C1C882341F09091F101892F877F6F
:103A500093FF88608093F10183EE0E949C1C882371
:103A600041F09091F101892F8F7E94FF80618093C6
:103A7000F10185E30E949C1C882341F09091F101A3
:103A8000892F8F7D95FF80628093F10181E30E94F1
:103A90009C1C882341F09091F101892F8F7B96FF28
:103AA00080648093F10181E10E949C1C882341F095
:103AB0009091F101892F97FB87F980588093F1014C
:103AC0008091F1010E946A1A87E20E949C1C8983FE
:103AD0008EE10E949C1C882319F0A981A260A98311
:103AE0008FE10E949C1C882319F0B981B460B983CE
:103AF00080E20E949C1C882319F029812860298378
:103B000081E20E949C1C882319F03981306139833D
:103B100082E20E949C1C882319F0498140624983FB
:103B200083E20E949C1C882319F0598150645983B8
:103B300084E20E949C1C882309F43FC0898180682C
:103B4000898389810E94611A3981232F30E050E0F6
:103B500040E029833A834B835C83CA01B9010F900B
:103B60000F900F900F90DF91CF910C94C7160E9489
:103B7000E3078FE39CE90197F1F700C00000FCCE5A
:103B80008EE00E949C1C882339F09091CF01892FF0
:103B90008B7F92FF84601FCF80E10E949C1C9091DC
:103BA000CF01882329F0892F877F93FF886013CF67
:103BB000892F8E7F90FF81600ECF99819111C1CFA7
:103BC0000E945D1A282FC2CF0F900F900F900F9078
:103BD000DF91CF9108958091D40180FF12C0609150
:103BE000050185E0689FB00111247595679575956D
:103BF000679560387105A8F561157105A1F1862FEB
:103C0000089581FF09C06091050185E0689FB001BA
:103C1000112475956795EDCF6091050182FD0AC06D
:103C20008091D3018823D1F0909104016091050126
:103C3000891728F085E0689FB0011124DACF869FAC
:103C4000B001112485E0869F9001879F300D1124DB
:103C5000692F70E0C9010E94392DCBCF65E070E07B
:103C6000CECF8FE7089581E008958091D40180FF41
:103C70000CC06091030170E0759567957595679527
:103C80006115710549F1862F089581FF06C0609185
:103C9000030170E075956795F3CF6091030182FD94
:103CA0000BC09091D3019923A1F060910201809102
:103CB0000301961738F0682F70E06038710500F343
:103CC0008FE70895899FC001112470E00E94392D6B
:103CD000F4CF61E070E0D7CF81E00895803F31F408
:103CE0000E94EB1D81958093D8010895813F19F4BE
:103CF0000E94EB1DF8CF823F31F40E94EB1D8195AD
:103D00008093D7010895833F19F40E94EB1DF8CFEB
:103D1000893F29F40E94351E8093D90108958A3F76
:103D200021F40E94351E8195F7CF8B3F31F40E941C
:103D3000351E81958093DA0108958C3F19F40E9415
:103D4000351EF8CF843F31F48091D6018160809395
:103D5000D6010895853F21F48091D6018260F7CF86
:103D6000863F21F48091D6018460F1CF873F21F412
:103D70008091D6018860EBCF883F21F48091D601F5
:103D80008061E5CF8D3F31F48091D40181608093D3
:103D9000D40108958E3F21F48091D4018260F7CF41
:103DA0008F3FB9F78091D4018460F1CF9091D70112
:103DB000803F41F48091D80187FD1092D80199236A
:103DC00071F00895813F29F48091D8011816ACF361
:103DD000F6CF823F81F497FFF2CF1092D701809106
:103DE000D8019091D901892B9091DA01892B49F75B
:103DF0001092D3010895833F19F4191674F3DFCF9D
:103E0000893F39F48091D9011816CCF61092D90166
:103E1000D6CF8A3F29F48091D90187FFD0CFF6CF42
:103E20008B3F39F48091DA0187FFC9CF1092DA0114
:103E3000C6CF8C3F29F48091DA011816BCF3BFCFAE
:103E4000843F31F48091D6018E7F8093D601B7CF25
:103E5000853F21F48091D6018D7FF7CF863F21F4F5
:103E60008091D6018B7FF1CF873F21F48091D601DD
:103E7000877FEBCF883F21F48091D6018F7EE5CFFD
:103E80008D3F31F48091D4018E7F8093D40197CF00
:103E90008E3F21F48091D4018D7FF7CF8F3F09F0C1
:103EA0008ECF8091D4018B7FF0CF8091CF0183FFA3
:103EB0007EC081E693E00E940B078091D6011F929D
:103EC0008F938CE593E09F938F930E94A4078AE5DC
:103ED00093E00E940B078091D701282F082E000C39
:103EE000330B3F938F9387E593E09F938F930E94CB
:103EF000A40785E593E00E940B078091D801282F45
:103F0000082E000C330B3F938F9382E593E09F9331
:103F10008F930E94A40780E593E00E940B07809195
:103F2000D901282F082E000C330B3F938F938DE47B
:103F300093E09F938F930E94A4078BE493E00E94E9
:103F40000B078091DA01282F082E000C330B3F93CA
:103F50008F9388E493E09F938F930E94A40785E456
:103F600093E00E940B078091D3011F928F9382E40C
:103F700093E09F938F930E94A40780E493E00E94B4
:103F80000B078091D4011F928F938DE393E09F9351
:103F90008F930E94A4078AE393E00E940B078DB7DA
:103FA0009EB74C960FB6F8949EBF0FBE8DBF85EDA1
:103FB00091E00E94F30D0E94981B9093D201809390
:103FC000D10108951F93CF93DF938091D1019091F8
:103FD000D2010E94C41BAC018091D3012091060143
:103FE00030E0811106C0209107019AE0299F9001DD
:103FF00011244217530778F02091D701C091D801BE
:104000001091D901D091DA01211109C09C2F912B77
:104010009D2B09F06AC0DF91CF911F9108958F3FCA
:1040200019F08F5F8093D301121624F40E94EB1DC8
:104030008093D7018091D70187FF05C00E94EB1DB7
:1040400081958093D7011C1624F40E94EB1D809368
:10405000D8018091D80187FF05C00E94EB1D819592
:104060008093D8013091D7013323A1F02091D8015A
:10407000222381F045EB3403C0011124992369F117
:104080009093D70145EB240390011124332349F188
:104090003093D801111624F40E94351E8093D90163
:1040A0008091D90187FF05C00E94351E81958093BC
:1040B000D9011D1624F40E94351E8093DA018091E7
:1040C000DA0187FF05C00E94351E81958093DA01D1
:1040D000DF91CF911F910C94551F81E08093D70100
:1040E000D1CF81E08093D801D5CF8F3F09F099CF10
:1040F000AACF86E0E5EDF1E0DF011D928A95E9F7B0
:104100001092D3011092D401089584E895E00E94A2
:104110000B071F9281E08F931F9285E08F9386E3B8
:1041200095E09F938F930E94A4070F900F900F909C
:104130000F900F900F900895843009F45DC040F403
:10414000823061F1833009F440C0813041F008953C
:10415000853009F468C0863009F47CC008958091E8
:104160000701482F460F5527551F4F3F510594F41F
:10417000680F60930701809107011F928F938FE66C
:1041800094E09F938F930E94A4070F900F900F903D
:104190000F9008958FEF80930701EDCF8091060176
:1041A000482F460F5527551F4F3F510554F4680FB0
:1041B00060930601809106011F928F938DE594E034
:1041C000E0CF8FEF80930601F5CF80910501482F56
:1041D000460F5527551F4F3F510554F4680F609304
:1041E0000501809105011F928F938AE494E0C9CF65
:1041F0008FEF80930501F5CF80910401482F460F82
:104200005527551F4F3F510554F4680F6093040123
:10421000809104011F928F9385E394E0B2CF8FEFDA
:1042200080930401F5CF80910301482F460F552755
:10423000551F4F3F510554F4680F6093030180915F
:1042400003011F928F938CE194E09BCF8FEF8093BB
:104250000301F5CF80910201482F460F5527551FC6
:104260004F3F510554F4680F6093020180910201A1
:104270001F928F9381E094E084CF8FEF80930201AF
:10428000F5CF843009F44AC038F4823029F1833004
:10429000A1F1813041F00895853009F450C0863095
:1042A00009F45EC0089580910701681790F4861B99
:1042B00080930701809107011F928F9382EF93E013
:1042C0009F938F930E94A4070F900F900F900F90D1
:1042D000089510920701EECF80910601681750F4FF
:1042E000861B80930601809106011F928F9380EEBA
:1042F00093E0E6CF10920601F6CF80910501681792
:1043000050F4861B80930501809105011F928F93C5
:104310008DEC93E0D5CF10920501F6CF809104018A
:10432000681750F4861B80930401809104011F924A
:104330008F9388EB93E0C4CF10920401F6CF809165
:104340000301681750F4861B8093030180910301D9
:104350001F928F938FE993E0B3CF10920301F6CFB2
:1043600080910201681750F4861B809302018091AE
:1043700002011F928F9384E893E0A2CF1092020172
:10438000F6CFCF93DF9300D000D0CDB7DEB78983CF
:104390001F928F9389E896E09F938F930E94A407C2
:1043A00081E090E0A0E0B0E09C01AD01098004C094
:1043B000220F331F441F551F0A94D2F729833A83D3
:1043C0004B835C83CA01B9010E94C7160F900F90FE
:1043D0000F900F900F900F900F900F90DF91CF9153
:1043E0000C940813CF938B3258F4853098F0EBEF90
:1043F000E80FE63278F4F0E0E353F24D0C944D2DE3
:10440000833470F48A3308F00BC2853359F0883353
:1044100009F443C188E19BE00E940B0780E052C190
:104420008334C1F780E00E94C1212EC187EB9BE05D
:104430000E940B0788E09BE00E940B070E945D1A18
:104440001F928F9385E09BE09F938F930E94A40718
:1044500083E09BE00E940B070E94541AC82F80EF54
:104460009AE00E940B071F92CF938BEE9AE09F93E6
:104470008F930E94A40789EE9AE00E940B078FEDAC
:104480009AE00E940B078C2F81701F928F938CED06
:104490009AE09F938F930E94A4078AED9AE00E946E
:1044A0000B0780ED9AE00E940B07C1FB882780F97B
:1044B0001F928F938DEC9AE09F938F930E94A40795
:1044C0008BEC9AE00E940B078FEB9AE00E940B079F
:1044D000C2FB882780F91F928F938CEB9AE09F9301
:1044E0008F930E94A4078AEB9AE00E940B0781EB4E
:1044F0009AE00E940B07C3FBCC27C0F91F92CF9311
:104500008EEA9AE09F938F930E94A4078CEA9AE028
:104510000E940B070E94661AC82F88E99AE00E9441
:104520000B071F92CF9383E99AE09F938F930E948A
:10453000A40781E99AE00E940B0788E79AE00E94AD
:104540000B078C2F81701F928F9385E79AE09F93C2
:104550008F930E94A4078DB79EB780960FB6F894EC
:104560009EBF0FBE8DBF83E79AE00E940B078CE5CC
:104570009AE00E940B07C1FB882780F91F928F9356
:1045800089E59AE09F938F930E94A40787E59AE0BC
:104590000E940B0785E49AE00E940B07C2FB882764
:1045A00080F91F928F9382E49AE09F938F930E94E9
:1045B000A40780E49AE00E940B078EE29AE00E9432
:1045C0000B07C3FB882780F91F928F938BE29AE039
:1045D0009F938F930E94A40789E29AE00E940B07A1
:1045E0008FE19AE00E940B07C4FB882780F91F9295
:1045F0008F938CE19AE09F938F930E94A4078AE1A6
:104600009AE00E940B0788E09AE00E940B07C5FB26
:10461000882780F91F928F9385E09AE09F938F936C
:104620000E94A40783E09AE00E940B0787EE99E0BE
:104630000E940B07C6FB882780F91F928F9384EE98
:1046400099E09F938F930E94A40782EE99E00E94C5
:104650000B078AED99E00E940B07C7FBCC27C0F936
:104660001F92CF9387ED99E09F938F930E94A407A9
:1046700085ED99E00E940B078DB79EB74C960FB65B
:10468000F8949EBF0FBE8DBF81E01CC086EA9BE000
:104690000E940B070E94CD1AF7CF82E398E00E9498
:1046A0000B07F2CF8091CF01807F8093CF018BE009
:1046B00098E00E940B0782EA9BE00E940B0781E0D2
:1046C0008093DC01CF9108950E94081386E89BE057
:1046D0000E940B079FEF23ED80E391502040804024
:1046E000E1F700C000000E94431CCECF9091CF01A3
:1046F000892F8E7F90FF81608093CF0180FF03C060
:104700008AE79BE0CCCF8DE69BE00E940B0780916F
:10471000CF01817F8093CF01B7CF9091CF01892FB7
:104720008D7F91FF82608093CF0181FF08C080E67A
:104730009BE00E940B078091CF018160EBCF82E567
:104740009BE0ADCF9091CF01892F8B7F92FF84604A
:104750008093CF0182FF03C083E49BE0EACF83E331
:104760009BE09DCF9091CF01892F877F93FF886039
:104770008093CF0183FF03C087E29BE0DACF8AE119
:104780009BE08DCF8CEF97E00E940B0784ED97E0C4
:104790000E940B078EE997E00E940B0782E697E0E4
:1047A0000E940B0782E297E00E940B0787EF96E0DA
:1047B00076CF89EE96E00E940B070E949B0D1F9218
:1047C0008F938FEC96E09F938F930E94A407809124
:1047D00012011F928F9388EB96E09F938F930E9414
:1047E000A4078091E9011F928F9385EA96E09F9339
:1047F0008F930E94A4070E94A41B9F938F937F9383
:104800006F938EE896E09F938F930E94A4078DB7D5
:104810009EB742960FB6F8949EBF0FBE8DBF34CFA1
:10482000895301CE8D51FFCD80E008950C9414245E
:104830008E518A3030F4E82FF0E0ED5EFE4F80813B
:10484000089580E00895CF93C82F8091DC018130D6
:10485000A9F0823009F446C0811136C10E947E1948
:10486000823209F033C18C2F0E94142481111BC0A5
:104870008C2F0E94F2218170CF9108950E947E19A1
:10488000823289F38C2F0E94162481111BC0C431FF
:10489000D9F060F4CB3071F0C031D1F08FE796E001
:1048A0000E940B0713C081E090E0E5CFC93261F0B0
:1048B000C833A1F78BE098E00E940B0785E896E0EB
:1048C0000E940B0781E0D7CF1092DC0180E0D3CFAC
:1048D0000E94852081E896E00E940B0782E0809389
:1048E000DC01F0CFC93209F445C060F5C33109F4E9
:1048F00050C050F4C73009F4CDC0CB30C1F183E2D1
:1049000095E00E940B071CC0C431A1F182EE8C0F10
:104910008630A8F78C2F0E9418248093DB018091A9
:10492000DB01882309F4CDC01F928F938DE195E0C0
:104930009F938F930E94A4070F900F900F900F905A
:1049400081E09ACFCE3409F4A3C050F4C83379F093
:104950006AE0CB34A1F68091DB010E949C20DFCF7E
:10496000C13509F48FC061E0C235A9F3C8CF0E94F8
:104970008520D5CF8091DB01882319F01092DB01CF
:10498000CECF82E395E00E940B0781E08093DC01AB
:1049900073CF8CE095E00E940B078AEF94E00E94B1
:1049A0000B07809107011F928F9387EF94E09F93ED
:1049B0008F930E94A40785EF94E00E940B0783EE7B
:1049C00094E00E940B07809106011F928F9380EE66
:1049D00094E09F938F930E94A4078EED94E00E9431
:1049E0000B078FEC94E00E940B07809105011F924A
:1049F0008F938CEC94E09F938F930E94A4078AEC92
:104A000094E00E940B0789EB94E00E940B078091D1
:104A100004011F928F9386EB94E09F938F930E94E3
:104A2000A40784EB94E00E940B078FE994E00E94B6
:104A30000B07809103011F928F938CE994E09F9361
:104A40008F930E94A4078AE994E00E940B0783E8F1
:104A500094E00E940B07809102011F928F9380E8DF
:104A600094E09F938F930E94A4078EE794E00E94A6
:104A70000B078DB79EB748960FB6F8949EBF0FBE32
:104A80008DBF4DCF61E08091DB010E94412147CF76
:104A90006AE0F9CF8EE18093070182E380930601FB
:104AA0008AE08093050184E18093040188E080938B
:104AB000030188E28093020185E295E00E940B07E2
:104AC0002ECF8AE195E01DCF1092DC0180E0D4CE9C
:104AD0008091E80108959FB7F8941092DF019FBF7D
:104AE0009091F701943009F048C02091E9002F70AF
:104AF0003091EC00932F917030FD90E8922B23E0E1
:104B00002093E9002091EB0020FF34C02091EE00BB
:104B100027FF30C02091DD01222321F02091E80001
:104B200025FF28C01092DD0126E03091E80035FF16
:104B300014C08093F1008091E80085FD27C080912A
:104B4000E80080FFFCCF8091E8008E778093E8003A
:104B50009F709093E90080E008953091F701343020
:104B600049F43091EB0035FD05C0215041F481E05E
:104B70008093DD019F709093E9008FEF0895EFE936
:104B8000FFE03197F1F700C00000CFCF8FB7F89466
:104B900021E02093DF018FBFDBCF0F931F93CF93D3
:104BA000DF9300D00F92CDB7DEB78C010E94892829
:104BB000823011F0843021F584E089830A831B83DD
:104BC00082E08093E9008FEF9091E800815095FD9D
:104BD00006C095ED9A95F1F700008111F5CF80910F
:104BE000E80085FF0DC050E040E063E070E0CE01DA
:104BF00001960E94A6288091E8008E778093E800B5
:104C00000F900F900F90DF91CF911F910F9108950A
:104C1000CF93DF9300D00F92CDB7DEB79C01809188
:104C2000F701843031F583E08983205831093B83D3
:104C30002A8382E08093E9008FEF9091E800815011
:104C400095FD06C095ED9A95F1F700008111F5CF1D
:104C50008091E80085FF0DC050E040E063E070E027
:104C6000CE0101960E94A6288091E8008E7780935D
:104C7000E8000F900F900F90DF91CF910895CF93A0
:104C8000DF93D82FC92F0E948928823011F08430F9
:104C900001F582E08093E9008FEF9091E800815068
:104CA00095FD06C095ED9A95F1F700008111F5CFBD
:104CB0008091E80085FF0DC050E040E066E070E0C4
:104CC0008D2F9C2F0E94A6288091E8008E778093DC
:104CD000E800DF91CF910895CF93DF93D82FC92FAC
:104CE0000E948928823011F0843049F581E0809358
:104CF000E9008FEF9091E800815095FD06C095ED99
:104D00009A95F1F700008111F5CF8091E80085FFB9
:104D100016C050E040E068E070E08D2F9C2F0E94AC
:104D2000A6288091E8008E778093E80088E0ED2F38
:104D3000FC2FA0EEB1E001900D928A95E1F7DF9192
:104D4000CF91089587EE9BE00E940B078091F601BA
:104D5000811109C00E942E2A0E948B2A8091E200B4
:104D600084608093E200089583EE9BE00E940B072D
:104D70001092F60108958FED9BE00C940B078BEDDC
:104D80009BE00C940B0787ED9BE00E940B070C94B3
:104D9000601B2091DE012F5F822F62E30E942D2D88
:104DA000992319F02093DE0108951092DE0180917D
:104DB000DF018823F1F08091F7018430C1F49091F4
:104DC000E9009F702091EC00822F817020FD80E827
:104DD000892B93E09093E9009091EB0090FF04C041
:104DE0009091EE0097FD08C08F708093E9001092BB
:104DF000DF0108951092F1009091E80095FDFACF3F
:104E00009091E80090FFF0CF9091E8009E7790930A
:104E1000E800EACF42E061EC81E00E94AA2942E288
:104E200061EC82E00E94AA2942E261EC83E00C94EA
:104E3000AA298091F901893089F148F4823009F476
:104E40009DC0833009F458C0813041F008958A3004
:104E500009F484C08B3009F46AC008958091F80188
:104E6000813A09F048C08091E800877F8093E8008C
:104E70008091FC019091FD01892B61F468E080EE46
:104E800091E070E00E94F5288091E8008B77809394
:104E9000E800089560E090E080E0F3CF8091F801B1
:104EA000813249F58091FC019091FD01029718F53E
:104EB0008091E800877F8093E8008091E80082FF7E
:104EC00016C09091F3008091F200029729F480912E
:104ED000F1008B7F813021F48091F1008093E80113
:104EE0008091E8008B778093E8000C94DE29809114
:104EF000F7018111E2CF08958091F801813AD9F745
:104F00008091FC019091FD01892BA9F78091E80027
:104F1000877F8093E8008091E80080FFFCCF80913C
:104F200012018093F1008091E8008E77DCCF8091B0
:104F3000F801813201F78091FC019091FD01892BEC
:104F4000D1F68091E800877F8093E8000E94DE29F7
:104F50008091FA01809312010C9408138091F8015A
:104F6000813249F68091E800877F8093E8000E94B3
:104F7000DE298091FB018093E90108958091F80179
:104F8000813A09F0B8CF8091E800877F8093E800EC
:104F90008091E80080FFFCCF8091E901C2CF84B707
:104FA000877F84BF0FB6F894A895809160008861D0
:104FB00080936000109260000FBE80E880936100D3
:104FC000109261000E943C0E0E942E2A0E948B2AA1
:104FD0008091E20084608093E2008BE695E20E947B
:104FE000301A78940E94122D0E94440E88E091E0BD
:104FF0000E94960D86EC9BE00E940B078091F701C2
:10500000853019F00E94740EF9CF82EC9BE00E946B
:105010000B070E94191B8091F501882379F30E94E8
:10502000491B882359F30E949028E8CF0C94182834
:10503000FC01CB01DA012F2F332723303105D1F0CA
:1050400070F42130310509F44EC02230310569F485
:105050008BE590E027E13CE02D933C9308952132CD
:10506000310521F12232310571F190E080E030E02C
:1050700020E0F2CFCF019927E230A9F083309105EB
:1050800050F4009769F0E5E0FCE0019771F7849136
:1050900090E09F01E1CFEBEEFBE00397C1F3E5CF9A
:1050A000E3E1FCE0F4CFE1EFFBE0F1CF6330710529
:1050B000E0F6880F991FFC01EA5DFE4F20813181E7
:1050C00089E090E0C9CF6330710578F6FB01EE0FFF
:1050D000FF1FE05EFE4F20813181835E9E4FFC0109
:1050E000808190E0B9CF82E190E022E73CE0B4CF4C
:1050F0000895CF93C82F0E947828C093EA01CF91DA
:1051000008958091F701843011F482E0089581E0E0
:1051100008958091EA01811102C00C9481280895BC
:1051200080E189BD82E189BD09B400FEFDCF809197
:10513000D8008F7D8093D8008091E00082608093BA
:10514000E0008091E00081FDFCCF0895AF92BF9216
:10515000CF92DF92FF920F931F93CF93DF936C0157
:10516000EB018A010E94FD29F82E811123C001154F
:10517000110539F0F80180819181C81BD90BC80E47
:10518000D91EB12CA12C2097A9F08091E80085FDB3
:1051900022C08091E8008E778093E8000115110508
:1051A000A1F0F80180819181A80EB91EB182A08280
:1051B00085E0F82E8F2DDF91CF911F910F91FF90F9
:1051C000DF90CF90BF90AF9008950E94FD29882373
:1051D000D1F2F82EEFCFF60181916F018093F100AB
:1051E0002197FFEFAF1ABF0ACECFFC01CB01209170
:1051F000FE013091FF012617370790F0009729F440
:105200002091E8002E772093E80040E0009751F4C9
:10521000411108C08091E80082FF31C080E008950C
:10522000C901F3CF2091F7012223A9F12530A9F17B
:105230002091E80023FD2DC02091E80022FDEACF57
:105240002091E80020FFE2CF3091F3002091F2009E
:10525000009719F02830310558F041E02830310529
:1052600009F040E02091E8002E772093E800CECFAF
:1052700041914093F10001972F5F3F4FE9CF80911B
:10528000F701882341F0853041F08091E80083FFE9
:10529000C1CF81E0089582E0089583E00895FC0184
:1052A000CB012091FE013091FF012617370790F0C6
:1052B000009729F42091E8002E772093E80040E041
:1052C000009751F4411108C08091E80082FF32C07C
:1052D00080E00895C901F3CF2091F7012223B1F1B5
:1052E0002530B1F12091E80023FD2EC02091E80087
:1052F00022FDEACF2091E80020FFE2CF3091F300B9
:105300002091F200009719F02830310558F041E063
:105310002830310509F040E02091E8002E772093F5
:10532000E800CECF44914093F100319601972F5F72
:105330003F4FE8CF8091F701882341F0853041F05D
:105340008091E80083FFC0CF81E0089582E0089556
:1053500083E00895982F973028F08F708093E900AC
:1053600081E008959093E900242F762F50E098175C
:1053700031F07091EC002091ED005091F00021FD92
:1053800002C09F5FE8CF3091EB003E7F3093EB008F
:105390003091ED003D7F3093ED003091EB003160B6
:1053A0003093EB007093EC002093ED005093F000ED
:1053B0002091EE0027FDE5CF80E008958091F8016F
:1053C00087FF13C08091E80082FF06C08091E8004B
:1053D0008B778093E80004C08091F7018111F2CFB0
:1053E00008958091F7018823D9F38091E80080FF28
:1053F000F8CF8091E8008E77ECCF2091E4003091D7
:10540000E50095E6A9012091EC00822F817020FF34
:1054100006C08091E80080FF06C080E008952091DA
:10542000E80022FD1AC08091F701882389F08530B9
:1054300089F08091EB0085FD0FC02091E400309150
:10544000E50042175307F9F29150E1F684E0089520
:1054500082E0089583E0089581E008950E949C2AE7
:105460000E94A42AE0EEF0E0808181608083E8ED74
:10547000F0E080818F77808319BCA7EDB0E08C913C
:105480008E7F8C9380818F7E80831092F6010895A9
:105490000F931F93CF93DF930E949C2A0E94A42A0C
:1054A000C8EDD0E088818F77888388818068888381
:1054B00088818F7D888319BC1092F7011092F301C7
:1054C0001092F5011092F40100EE10E0F8018081D5
:1054D0008B7F808388818160888342E060E080E008
:1054E0000E94AA29E1EEF0E080818E7F8083E2EEC7
:1054F000F0E0808181608083808188608083F80112
:1055000080818E7F8083888180618883DF91CF91C5
:105510001F910F910895E8EDF0E080818F7E8083E8
:10552000E7EDF0E080818160808384E082BF81E0EC
:105530008093F6010C94482AE8EDF0E080818E7F9C
:1055400080831092E20008951092DA001092E10038
:1055500008951F920F920FB60F9211242F933F932D
:105560004F935F936F937F938F939F93AF93BF936B
:10557000EF93FF938091E10082FF0BC08091E200E6
:1055800082FF07C08091E1008B7F8093E1000E9441
:10559000C9268091DA0080FF19C08091D80080FF71
:1055A00015C08091DA008E7F8093DA008091D90057
:1055B00080FF94C080E189BD82E189BD09B400FE0D
:1055C000FDCF81E08093F7010E94A2268091E10047
:1055D00080FF19C08091E20080FF15C08091E20039
:1055E0008E7F8093E2008091E20080618093E200F0
:1055F0008091D80080628093D80019BC85E08093A8
:10560000F7010E94BF268091E10084FF29C08091AC
:10561000E20084FF25C080E189BD82E189BD09B433
:1056200000FEFDCF8091D8008F7D8093D8008091BF
:10563000E1008F7E8093E1008091E2008F7E809375
:10564000E2008091E20081608093E2008091F301AA
:10565000882309F449C084E08093F7010E94C3269F
:105660008091E10083FF29C08091E20083FF25C083
:105670008091E100877F8093E10082E08093F701D1
:105680001092F3018091E1008E7F8093E100809180
:10569000E2008E7F8093E2008091E200806180933F
:1056A000E20042E060E080E00E94AA298091F000E0
:1056B00088608093F0000E94BB26FF91EF91BF911C
:1056C000AF919F918F917F916F915F914F913F919A
:1056D0002F910F900FBE0F901F90189519BC10922C
:1056E000F7010E94B42672CF8091E30087FD02C0CB
:1056F00081E0B2CF83E0B0CF1F920F920FB60F922E
:1057000011242F933F934F935F936F937F938F93C6
:105710009F93AF93BF93CF93DF93EF93FF93D0917A
:10572000E900DF708091EC00C82FC17080FDC0E8F7
:105730001092E9008091F000877F8093F0007894C8
:105740000E94C02B1092E9008091F0008860809345
:10575000F000CD2BCF70C093E900FF91EF91DF9166
:10576000CF91BF91AF919F918F917F916F915F91F9
:105770004F913F912F910F900FBE0F901F90189552
:105780001F93CF93DF93CDB7DEB7AA970FB6F894E8
:10579000DEBF0FBECDBF88EF91E0FC0101962091E6
:1057A000F100208322E080309207B9F70E94192788
:1057B0008091E80083FF1EC18091F8019091F9016A
:1057C0009A3008F017C1E92FF0E0ED50F24D0C943B
:1057D0004D2D803899F0823809F00CC18091FC0180
:1057E0008F70873008F006C18093E9008091EB004C
:1057F00085FB882780F91092E90006C08091F401AA
:105800009091F501911182609091E800977F9093BB
:10581000E8008093F1001092F1008091E8008E770B
:10582000E5C0882309F4D3C0823009F0E3C0809139
:10583000FA018111D6C08091FC018F702FEF280FE3
:10584000263008F0D7C08093E9002091EB0020FFBC
:10585000C8C0933031F48091EB0080628093EB00FC
:10586000C0C09091EB0090619093EB0021E030E09C
:1058700001C0220F8A95EAF72093EA001092EA000D
:105880008091EB008860EACF8111B4C01091FA01D9
:105890001F778091E3008078812B8093E3008091D3
:1058A000E800877F8093E8000E94DE298091E8006D
:1058B00080FFFCCF8091E30080688093E30082E06A
:1058C000111183E08093F70195C08058823008F071
:1058D00091C08091FA019091FB018C3D23E09207E9
:1058E000A1F583E08A838AE289834FB7F894DE01C9
:1058F000139620E03EE051E2E32FF0E05093570092
:10590000E49120FF03C0E295EF703F5FEF708E2FB0
:1059100090E0EA30C0F0C7968D939D932F5F2431BD
:1059200059F74FBF8091E800877F8093E8006AE2D3
:1059300070E0CE0101960E94F5288091E8008B77F7
:105940008093E80057C0C096E7CF6091FC0170914A
:10595000FD01AE014F5F5F4F0E941628BC01892BED
:1059600009F448C08091E800877F8093E80089812E
:105970009A810E944F29E1CF8038E1F58091E800BB
:10598000877F8093E8008091F3018093F10045CFF9
:10599000811130C09091FA01923060F58091E80059
:1059A000877F8093E8009093F3010E94DE29809125
:1059B000F301882311F084E005C08091E30087FDA6
:1059C000FACF81E08093F7010E940A2713C08091EB
:1059D000FA01813079F481E0933009F080E080931E
:1059E000F5011092E9008091E800877F8093E8003C
:1059F0000E94DE298091E80083FF0AC08091E800C0
:105A0000877F8093E8008091EB0080628093EB00B9
:105A1000AA960FB6F894DEBF0FBECDBFDF91CF912F
:105A20001F910895CF938091F7018823A1F0C09131
:105A3000E900CF709091EC00892F817090FD80E893
:105A4000C82B1092E9008091E80083FD0E94C02BD2
:105A5000CF70C093E900CF910895991B79E004C0FD
:105A6000991F961708F0961B881F7A95C9F780959D
:105A7000089597FB072E16F4009407D077FD09D000
:105A80000E94532D07FC05D03EF4909581959F4FC1
:105A90000895709561957F4F0895EE0FFF1F059053
:105AA000F491E02D0994AA1BBB1B51E107C0AA1F6A
:105AB000BB1FA617B70710F0A61BB70B881F991FAF
:105AC0005A95A9F780959095BC01CD010895F99953
:105AD000FECF92BD81BDF89A992780B50895A8E1BF
