:100000000C94AD060C94F4060C94F4060C94F406CF
:100010000C94F4060C94F4060C94F4060C94F40678
:100020000C94F4060C94F4060C9437290C940B2AC7
:100030000C94411A0C94F4060C94F4060C94F406F7
:100040000C94F4060C94F4060C94F4060C94F40648
:100050000C94F4060C94D01A0C94F4060C94F40648
:100060000C94F4060C94F4060C94F4060C94F40628
:100070000C94F4060C94F4060C94F4060C94F40618
:100080000C94F4060C94F4060C94F4060C94F40608
:100090000C94F4060C94F4060C94F4060C94F406F8
:1000A0000C94F4060C94F4060C94F40625303258A3
:1000B0003A20253038620A000A722F63203031322C
:1000C00033343536370A001F0014001A00160004B6
:1000D000001D001B0006002000210015000800077D
:1000E00000090019000500220023001C0017000A67
:1000F000000B00110000001E0029002B000251D748
:100100005CE000E2002C002400250018000C000E2A
:10011000000D00100000003100015330003400A930
:1001200000D85CAA00E30026002700120013003369
:10013000000F00360000002D002E0028002F002A9E
:10014000003800370000000100010001000100013B
:100150000001000100010001000100010001000197
:100160000001000100010001000100010001000187
:10017000000100010000000100010001000100E198
:10018000000100E200010001000100010001000186
:100190000001000100000001000100010001000158
:1001A0000001000100E20001000100010001000166
:1001B0000001000100000001000100010001000138
:1001C000000100010000003B0001000100A900AA9D
:1001D000000100010001003C003D0001000100A8F9
:1001E000000100010001003E003F0001000100018C
:1001F000005000570000003A00005C390001000187
:1002000000010001000100400041000100460052D1
:1002100000510056000000490035002A0058000136
:1002200000010001000100420043004700480001B6
:10023000004F004D00000044004500F40052004C07
:100240000051004E0000000100010001000100010A
:100250000001000100010001000100010001000196
:100260000001000100010001000100010001000186
:100270000001000100000001000100010001000177
:100280000001000100010001000100010001000166
:100290000001000100000001003500010001000123
:1002A0000001000100010001000100010001000146
:1002B0000001000100000001000100010001000137
:1002C0000001000100000044454255473A20656E98
:1002D00061626C65642E0A000A00253032582000E5
:1002E0006B6579626F6172645F7265706F72743A88
:1002F00020000A0025303258006B6579626F617208
:10030000645F7365745F6C65643A2000646F6E654A
:100310002E0A00626F6F746D616769632073636199
:100320006E3A202E2E2E2000290A002575002F005F
:100330002575005D2800256400200025640020004C
:1003400025640020002564007C0025303258006DB3
:100350006F7573656B6579205B62746E7C7820794C
:10036000207620685D287265702F61636C293A20C1
:100370005B006D6B5F776865656C5F74696D655F69
:10038000746F5F6D6178203D2025640A006D6B5F9E
:10039000776865656C5F6D61785F73706565642013
:1003A0003D2025640A006D6B5F74696D655F746F35
:1003B0005F6D6178203D2025640A006D6B5F6D6183
:1003C000785F7370656564203D2025640A006D6B5D
:1003D0005F696E74657276616C203D2025640A0049
:1003E0006D6B5F64656C6179203D2025640A006D4A
:1003F0006B5F776865656C5F74696D655F746F5F6F
:100400006D6178203D2025640A006D6B5F7768651B
:10041000656C5F6D61785F7370656564203D202554
:10042000640A006D6B5F74696D655F746F5F6D6109
:1004300078203D2025640A006D6B5F6D61785F73E5
:1004400070656564203D2025640A006D6B5F696EF0
:1004500074657276616C203D2025640A006D6B5FC7
:1004600064656C6179203D2025640A000A002575C9
:1004700000363A20776865656C5F74696D655F74F6
:100480006F5F6D61783A20000A00257500353A20CB
:10049000776865656C5F6D61785F73706565643AF8
:1004A00020000A00257500343A2074696D655F7478
:1004B0006F5F6D61783A20000A00257500333A209D
:1004C0006D61785F73706565643A20000A00257578
:1004D00000323A20696E74657276616C286D7329FA
:1004E0003A20000A00257500313A2064656C617974
:1004F000282A31306D73293A20000A092D205661CF
:100500006C756573202D0A004D3E004D25643E201C
:10051000003F007365742064656661756C740A0041
:10052000433E200077686572652064656C74613AAB
:1005300020637572736F723D25642C207768656542
:100540006C3D25640A53656520687474703A2F2FDA
:10055000656E2E77696B6970656469612E6F72676D
:100560002F77696B692F4D6F7573655F6B65797355
:100570000A000A092D204D6F7573656B6579202D72
:100580000A4553432F713A09717569740A313A0962
:1005900064656C6179282A31306D73290A323A0911
:1005A000696E74657276616C286D73290A333A0935
:1005B0006D61785F73706565640A343A0974696DBA
:1005C000655F746F5F6D61780A353A0977686565B4
:1005D0006C5F6D61785F73706565640A363A0977A0
:1005E0006865656C5F74696D655F746F5F6D617878
:1005F0000A0A703A097072696E742076616C7565CA
:10060000730A643A097365742064656661756C7475
:10061000730A75703A092B310A646F776E3A092DA7
:10062000310A706775703A092B31300A7067646F50
:10063000776E3A092D31300A0A7370656564203D82
:100640002064656C7461202A206D61785F73706529
:100650006564202A2028726570656174202F2074DB
:10066000696D655F746F5F6D6178290A003F004DA9
:100670003E2000433E20004C25640A0074696D65ED
:10068000725F72656164333228293A202530346CF8
:10069000580A006B6579626F6172645F69646C65AA
:1006A0003A2025580A006B6579626F6172645F7049
:1006B000726F746F636F6C3A2025580A00686F730D
:1006C000745F6B6579626F6172645F6C65647328D7
:1006D000293A2025580A000A092D2053746174759F
:1006E00073202D0A004743433A20382E332E302002
:1006F0004156522D4C4942433A20322E302E302062
:100700004156525F415243483A20617672350A00A1
:100710004F5054494F4E533A204C55464120424F7A
:100720004F544D41474943204D4F5553454B455933
:100730002045585452414B455920434F4E534F4C3E
:100740004520434F4D4D414E4420343039360A0048
:100750004255494C443A2022302E362E3135332D25
:10076000313530342D676163626465622D6469726E
:10077000747922202831303A32333A3434204D61B2
:10078000792032332032303139290A005649443A2F
:100790002030784645454428712E6D2E6B29205017
:1007A00049443A203078434146452848484B422046
:1007B0006D6F6429205645523A20307830313034FC
:1007C0000A00444553433A20712E6D2E6B206B6511
:1007D00079626F617264206669726D7761726520FB
:1007E000666F722048484B420A000A092D20566560
:1007F0007273696F6E202D0A000A092D20436F6EF7
:10080000736F6C65202D0A4553432F713A0971753A
:1008100069740A6D3A096D6F7573656B65790A00C5
:100820000A092D204D61676963202D0A443A094465
:1008300065627567204D65737361676520546F67E6
:10084000676C650A583A094D61747269782044658D
:10085000627567204D6F646520546F67676C652013
:100860002D2053686F77206B65797072657373659F
:100870007320696E206D6174726978206772696493
:100880000A4B3A094B6579626F6172642044656274
:10089000756720546F67676C65202D2053686F77EC
:1008A000206B65797072657373207265706F7274F6
:1008B0000A4D3A094465627567204D6F757365206E
:1008C000546F67676C650A563A0956657273696FAB
:1008D0006E0A533A095374617475730A433A0941B5
:1008E0006374697661746520436F6E736F6C652005
:1008F0004D6F64650A46312D4631303A09537769A8
:1009000074636820746F204C6179657220302D39D2
:100910002028463130203D204C30290A302D393AEC
:100920000953776974636820746F204C617965722C
:1009300020302D390A47524156453A095377697498
:10094000636820746F204C617965722030202861C3
:100950006C7465726E617465290A423A094A756D54
:100960007020746F20426F6F746C6F616465720ADF
:100970004553433A094A756D7020746F20426F6F7A
:10098000746C6F616465722028616C7465726E614D
:100990007465290A453A095072696E7420454550BC
:1009A000524F4D2053657474696E67730A425350F9
:1009B0004143453A09436C65617220454550524FA9
:1009C0004D0A000A002575002E6E6B726F3A2000EA
:1009D0000A002575002E737761705F6261636B7327
:1009E0006C6173685F6261636B73706163653A2009
:1009F000000A002575002E737761705F677261765B
:100A0000655F6573633A20000A002575002E6E6FDE
:100A10005F6775693A20000A002575002E737761BB
:100A2000705F72616C745F726775693A20000A00CA
:100A30002575002E737761705F6C616C745F6C67F5
:100A400075693A20000A002575002E636170736C89
:100A50006F636B5F746F5F636F6E74726F6C3A205D
:100A6000000A002575002E737761705F636F6E74E6
:100A7000726F6C5F636170736C6F636B3A20000A16
:100A80000025303258006B65796D61705F636F6E61
:100A90006669672E7261773A20000A002575002E7C
:100AA0006D6F7573653A20000A002575002E6B6521
:100AB00079626F6172643A20000A002575002E6D1C
:100AC00061747269783A20000A002575002E656EFF
:100AD00061626C653A20000A002530325800646576
:100AE0006275675F636F6E6669672E7261773A2021
:100AF000000A0025750064656661756C745F6C6141
:100B00007965723A20003F000A6D6F7573653A206F
:100B10006F66660A000A6D6F7573653A206F6E0A1C
:100B2000000A6B6579626F6172643A206F66660ACB
:100B3000000A6B6579626F6172643A206F6E0A0019
:100B40000A6D61747269783A206F66660A000A6DF0
:100B500061747269783A206F6E0A000A6465627582
:100B6000673A206F66660A000A64656275673A2014
:100B70006F6E0A000A0A4A756D70696E6720746F9D
:100B800020626F6F746C6F616465722E2E2E200070
:100B9000433E2000436C656172696E672045455095
:100BA000524F4D0A006565636F6E6669673A0A00C9
:100BB0005B735D004B6579626F6172642073746171
:100BC00072742E0A005B575D005B535D005B525DE3
:100BD000005B445D005B435D0004033000000012D5
:100BE00003480048004B00420020006D006F006485
:100BF0000000000C0371002E006D002E006B000041
:100C0000000403090409025B00030100A0FA0904BF
:100C1000000001030101000921110100012240002F
:100C20000705810308000A09040100010300000010
:100C30000921110100012285000705820320000A15
:100C40000904020002030000000921110100012231
:100C5000220007058303200001070503032000018C
:100C60001201100100000008EDFEFECA040101029D
:100C700003010631FF0974A1010975150026FF0063
:100C80009520750881020976150026FF00952075CC
:100C9000089102C005010902A10185020901A10014
:100CA0000509190129051500250195057501810220
:100CB0009501750381010501093009311581257FF1
:100CC00095027508810609381581257F95017508FB
:100CD0008106050C0A38021581257F95017508816A
:100CE00006C0C005010980A1018503160100260385
:100CF000001A81002A8300751095018100C0050C3F
:100D00000901A1018504160100269C021A01002A8E
:100D10009C02751095018100C005010906A101051D
:100D20000719E029E715002501950875018102954D
:100D300001750881010508190129059505750191BD
:100D4000029501750391010507190029FF15002679
:100D5000FF00950675088100C00011241FBECFEF6B
:100D6000DAE0DEBFCDBF04B603FE27C080910002EB
:100D700090910102A0910202B09103028730904B42
:100D8000A740B04BD1F410920002109201021092D1
:100D900002021092030214BE84B7877F84BF0FB68D
:100DA000F894A8958091600088618093600010920B
:100DB00060000FBEE0E0F8E3099511E0A0E0B1E0CB
:100DC000E2E1F9E502C005900D92AC32B107D9F726
:100DD00022E0ACE2B1E001C01D92A030B207E1F721
:100DE0000E9458260C94382C0C940000FF93EF932B
:100DF000E0912C01F0912D01309709F00995EF91C8
:100E0000FF910895FC018591803011F0EFDFFBCF59
:100E10000895FF27E0E230E247FF0CC0419597FFBD
:100E200009C0EDE26095709580959095611D711DEA
:100E3000811D911D27FF02C0219530E350E2AA27B2
:100E4000660F771F881F991FAA1FA41710F0A41BF5
:100E500063955A95A9F7AA3008F0A95FA05DAF93F2
:100E6000F395611571058105910541F7ED3211F496
:100E7000EF93F395F21718F43F93F395FBCF8F910F
:100E8000B5DFFA95E1F70895E991F9918591803000
:100E900021F0853219F0AADFF9CF089520E0E89417
:100EA00055915532C1F3503311F4689455915A332A
:100EB00048F4505390F3220F022E220F220F200DE0
:100EC000250FF4CF0EF4219589919991533619F39A
:100ED000533729F1533559F1BC0188279927E894F4
:100EE0005C3621F48991999168945591543639F47E
:100EF00046EF7EF077FF0DC08FEF9FEF0AC05537AA
:100F00004AE039F0583540E121F0523642E009F02C
:100F10000895FF93EF937DDFEF91FF91B7CFFF939C
:100F2000EF93FC0181918030B9F360DFFBCFFF9339
:100F3000EF9368DFF1CFDF93CF93CDB7DEB7259680
:100F4000A3DFCF91DF9108958FEF84B980E485B955
:100F500057985F9A2E9A2F98A6E3B1E01C921196AB
:100F60001C92119712961C92129713961C9213972B
:100F700014961C92149715961C92159716961C920F
:100F8000169717961C921797EEE2F1E010821182E5
:100F9000128213821482158216821782B093410145
:100FA000A0934001F0933F01E0933E01089508951E
:100FB0000C94D707EF92FF920F931F93CF93DF9379
:100FC00080913E0190913F0120914001309141017B
:100FD00030933F0120933E01909341018093400163
:100FE000D0E0C0E001E010E0EE24EA94F12C60E0F3
:100FF00030E020E085B1422F807C8C2B862B85B998
:10100000AAE1AA95F1F700C0E0913E01F0913F01FD
:10101000EC0FFD1F808190E0022E02C09595879510
:101020000A94E2F780FD2F9AB5E3BA95F1F7000034
:1010300076B52E98EAE1EA95F1F700C0C80101C043
:10104000880F4A95EAF74091400150914101FA0119
:10105000EC0FFD1F4F9B70C080959081892380838A
:1010600086B5E72FF0E0871708F469C086B590E0F1
:101070008E1B9F0B069758F0E0913E01F0913F01C7
:10108000EC0FFD1F80814C0F5D1FFA018083FAE198
:10109000FA95F1F700C02F982E9A8BE291E0019714
:1010A000F1F700C000002F5F3F4F685F2830310527
:1010B00009F0A0CFA0914001B0914101AC0FBD1F3C
:1010C000E0913E01F0913F01EC0FFD1F9C9180816A
:1010D000981751F00E947D1A60934201709343016A
:1010E00080934401909345012196C830D10509F0C1
:1010F0007ECF8091F701853021F08091F701811139
:1011000011C060914201709143018091440190911E
:1011100045010E94B31A613177428105910510F0B3
:101120000E94F2190E942E0981E0DF91CF911F9158
:101130000F91FF90EF9008959081892B90CF86B505
:10114000D701AE1BBF0B8A0F9B2F911D93CF209110
:10115000400130914101820F932F911DFC0180814C
:1011600008950F931F93CF93DF9388EB90E00E9435
:101170000207D0E0C0E00CEA10E0E0914001F091FD
:101180004101EC0FFD1F80810E940D191F928F936A
:10119000DF93CF931F930F930E949B0721960F908D
:1011A0000F900F900F900F900F90C830D10529F736
:1011B000DF91CF911F910F910895089508956111C6
:1011C00007C0FC018281882331F085EE0E941C0F4C
:1011D00090E080E0089585EE0E94C50FF9CF81E090
:1011E000089581E008950C94F1081F93CF93DF9345
:1011F00000D000D00F92CDB7DEB749835A836B83FE
:101200002091590189819A8121111BC06623A9F07F
:101210000E94C417182F682F89819A810E946F1726
:1012200069817A81812F0F900F900F900F900F900E
:10123000DF91CF911F910C94440A0E949C17182FA4
:10124000EFCF0E94C41769817A81EDCFFC01408104
:1012500051816281738184810C94F5080C94D807C4
:1012600008950C9430090C94310908950E94AF122E
:101270000E9435092FEF84E39CE02150804090408C
:10128000E1F700C000000C94F41A0F931F93CF9362
:10129000DF938C010E942609EC01B8010E94F3083B
:1012A000882309F450C0B801CE010E94250D88237F
:1012B00009F449C0C5318CE5D807A0F4C230ECE58B
:1012C000DE0708F062C0C115FCE5DF07B9F1C130E7
:1012D000DC4509F43EC0C801DF91CF911F910F9109
:1012E0000C94EF08CC3DECE5DE0709F440C0C0F4F7
:1012F000C631DC4581F70E945918F8019281992383
:1013000009F4B7C08A7A91E009F490E0909346011D
:101310008111ADC089E20E9434180E94A51813C043
:10132000CD3DECE5DE0759F1CE3DDC45A1F6F801F7
:101330008281882341F00E94A91905C0F8018281A9
:1013400081110E94360980E0DF91CF911F910F91AA
:101350000895F80182818823B1F38091CF018160E3
:101360008093CF0187EC92E00E940207ECCFF80156
:101370008281882341F380E00E94FF26E4CFF801B8
:101380008281882301F382E0F7CFF80182818823EC
:1013900009F4A1CF0E942519811102C00E94A91948
:1013A0000E94421990E09093F2018093F101FE01B6
:1013B000E350FC458091F1018160E231F10538F4A0
:1013C000E65CF34D0C94DC2B8091F10182608093FC
:1013D000F1018091F1010E9446190E94AF12B3CF32
:1013E0008091F1018460F3CF8091F1018860EFCFAB
:1013F0008091F1018061EBCF8091F1018062E7CFB4
:101400008091F1018064E3CF8091F1018068DFCFAA
:101410008091F1018C60DBCF8091F1018E7FD7CF7D
:101420008091F1018D7FD3CF8091F1018B7FCFCF60
:101430008091F101877FCBCF8091F1018F7EC7CF63
:101440008091F1018F7DC3CF8091F1018F7BBFCF60
:101450008091F1018F77BBCF8091F101837FB7CF6E
:101460009091F101892F97FB87F98058B0CF85E3E0
:1014700052CF80914601811104C089E20E943B183D
:101480004CCF85E3FBCF089528E0829FC001112453
:10149000FC01E70FF11D83E0EE0FFF1F8A95E1F7D6
:1014A000E60FF11DEE0FFF1FE953FF4F8591949159
:1014B0000895FC01EE0FFF1FE953FF4F85919491B2
:1014C0000895CF93DF930E94440A0E941A0CEC0106
:1014D000811520E5920708F042C0811530E493079A
:1014E00008F014C1883E910528F5803E910508F06A
:1014F000A0C0883A910588F4853A910508F08FC01C
:101500008130910509F495C0009709F492C00497C1
:1015100008F08FC0D0E0C0E08CC08F3B910508F48C
:101520008CC0805C9109C03CD105A0F30E94590A8F
:10153000EC017FC08115904250F4C11581E0D807BD
:1015400008F077C0C03FD10528F3D06572C0C1153F
:1015500090E3D90708F0D0C0CE019F70E7CF811586
:1015600025E5920758F5811534E5930708F0FDC08D
:10157000811542E5940750F4C11581E5D80708F4B8
:10158000C8C0DC2FCC27C16FD06A53C0982F969566
:1015900096959E0123703327C115D34508F0D6C018
:1015A000C1E0D0E002C0CC0FDD1F2A95E2F720E2B7
:1015B000929FC0011124C82BD92BC6C0C11589E543
:1015C000D807A8F4C11598E5D90708F0D3C0C1150C
:1015D00026E5D20708F09ECF8C2F0E94950CC82FCD
:1015E000D0E0DC2FCC27CC27DF71D06222C0C11520
:1015F0003AE5D30708F4C3C0CE0190568115904256
:1016000008F088CF8D2F8F710E94950C90E0982F55
:10161000882788279F719C012C2BE901E6CF853A0A
:10162000910509F4BCC0863A910509F0BBC0C2E837
:10163000D0E4CE01DF91CF910895883A910509F465
:10164000B4C0893A910509F4B3C08A3A910509F406
:10165000B2C08B3A910509F4B1C08C3A910509F4F6
:10166000B0C08B3B910509F4AFC08C3B910509F4E8
:10167000AEC08D3A910509F4ADC0803B910509F4E7
:10168000ACC08E3A910509F4ABC08F3A910509F4CC
:10169000AAC0813B910509F4A9C0823B910509F4D8
:1016A000A8C0833B910509F4A7C0843B910509F4C8
:1016B000A6C0853B910509F4A5C0863B910509F4B8
:1016C000A4C0873B910509F4A3C0883B910509F4A8
:1016D000A2C0893B910509F4A1C08D3B910509F495
:1016E000A0C08E3B910509F49FC08A3B910509F487
:1016F0009EC0C0E0D4E49DCFCE019927D3FF03C0A4
:10170000EC01D86C96CFEC01D06C93CFDF70D06A2F
:1017100090CFCE01E4E096958795EA95E1F7837046
:101720002C2F26952695237090E2299F9001112455
:10173000382B8C2F8370C1E0D0E002C0CC0FDD1FAE
:101740008A95E2F7C22BD32BDC6873CFC1E0D0E0DF
:1017500002C0CC0FDD1F2A95E2F730E2939FC00153
:101760001124C82BD92BDA6864CFD82FCC27C46FAB
:10177000D06A5FCFDC2FCC27C06FD06A5ACF8C2FB6
:101780008F700E94950C34E0D695C7953A95E1F795
:101790009C2F9F70C82FCF70C06ED92FB8CFC1E8D3
:1017A000D0E447CFC3E8D0E444CFC2EED4E441CF85
:1017B000C9EED4E43ECFCAEED4E43BCFC5EBD4E4CB
:1017C00038CFC6EBD4E435CFC3EBD4E432CFC4EB8F
:1017D000D4E42FCFC7EBD4E42CCFCCECD4E429CF86
:1017E000CDECD4E426CFC3E8D5E423CFCAE8D5E4D2
:1017F00020CFC2E9D5E41DCFC4E9D5E41ACFC1E2B8
:10180000D6E417CFC3E2D6E414CFC4E2D6E411CFB6
:10181000C5E2D6E40ECFC6E2D6E40BCFC7E2D6E4EB
:1018200008CFCFE6D4E405CFC0E7D4E402CFCAE2C4
:10183000D6E4FFCE8238910549F1B0F481339105A9
:1018400009F462C048F48932910509F456C08A321D
:10185000910509F460C008958533910509F446C0E7
:101860008933910599F00895833E910531F138F45B
:10187000803E910591F0823E9105B1F00895863E3B
:10188000910521F1873E910551F108952091F101D3
:101890002370D9F080EE90E008952091F10120FFAF
:1018A00014C089E390E008952091F10122FF0DC05A
:1018B00024FD09C083EE90E008952091F10122FDFE
:1018C00031C024FF02C090E080E008952091F10132
:1018D00023FFFBCF24FDF7CF87EE90E00895209102
:1018E000F10123FFEECF86EE90E008952091F10103
:1018F00025FFEBCF89E290E008952091F10125FFCB
:10190000E4CF85E390E008952091F10126FFDDCF3B
:101910008AE290E008952091F10126FFD6CF81E37D
:1019200090E0089582EE90E008959091F10192FF89
:1019300006C0282F2871283069F4877F846093FFC0
:1019400006C0282F2871283161F4877E846194FDB8
:10195000877E0895282F2471243089F78B7F886033
:10196000EECF282F2471243191F78B7E8861EFCF41
:101970000F931F93CF93DF93C62FD42F022FFC0119
:1019800082818823C9F0609349010E94711A909363
:1019900048018093470180E28C0F883008F050C0E6
:1019A000C77081E001C0880FCA95EAF7DF91CF9137
:1019B0001F910F910C94071010914901161335C017
:1019C00080914701909148010E94891A883C9105B5
:1019D00060F5C0E2CD0F1D17B9F080E2810F8830AD
:1019E00040F4177081E001C0880F1A95EAF70E9451
:1019F0000E10C83048F481E09D2F977001C0880F09
:101A00009A95EAF70E940710802F0E94F40FC830C1
:101A1000B8F4D77081E001C0880FDA95EAF7DF915A
:101A2000CF911F910F910C940E1080E28C0F883093
:101A300038F4C77081E001C0880FCA95EAF7EFCF8C
:101A4000DF91CF911F910F9108959C01CB01203F11
:101A50004CE5340731F190F4283DFCE53F07E9F00F
:101A6000293D4CE5340769F1273D3C4579F426E2F0
:101A700041EE61EE0E94B80C80E00895223FFCE543
:101A80003F07B9F090F0233F3C45B9F0FC0182815B
:101A90008823D1F010924901089527E245EE65EEC2
:101AA000E9CF26E241EE60EEE5CF27E245EE64EEB7
:101AB000E1CF26E241EE62EEDDCF27E245EE66EEB3
:101AC000D9CF28E241E0EBCF81E0089590934F0118
:101AD00080934E010895E0914E01F0914F013097AF
:101AE00021F00190F081E02D099480E00895EF92BB
:101AF000FF920F931F93CF93DF938C01E0914E01E0
:101B0000F0914F013097C1F10280F381E02D0995EA
:101B10008091CF0182FF30C080FF04C080EE92E050
:101B20000E940207D0E0C0E08AEDE82E82E0F82EA5
:101B30008091CF0180FF0EC0F801EC0FFD1F808166
:101B40001F928F93FF92EF920E949B070F900F902E
:101B50000F900F902196C830D10551F78091CF0199
:101B600080FF0AC088ED92E0DF91CF911F910F9125
:101B7000FF90EF900C940207DF91CF911F910F918E
:101B8000FF90EF900895E0914E01F0914F01309752
:101B900039F022E0DC012C930480F581E02D0994DA
:101BA000089520914C0130914D012817390771F0AB
:101BB00090934D0180934C01E0914E01F0914F01C3
:101BC000309721F00680F781E02D09940895209147
:101BD0004A0130914B012817390771F090934B015E
:101BE00080934A01E0914E01F0914F01309721F02E
:101BF0000084F185E02D0994089585B7806885BF3C
:101C000085B7806885BF0895089508950C94040EE3
:101C100008950C94080E0E94FD0D0E94050E0C9470
:101C2000060E81E008950E94681A0E94A4070E948F
:101C30005B1B0C94090ECF93C82F8091CF0182FFBC
:101C40001EC080FF1CC089EF92E00E9402078091B5
:101C5000CF0180FF14C01F92CF9384EF92E09F9337
:101C60008F930E949B078091CF010F900F900F9050
:101C70000F9080FF04C082EF92E00E9402078C2F39
:101C8000CF910C943309BF92CF92DF92EF92FF92E3
:101C90000F931F93CF93DF93CDB7DEB72A970FB67D
:101CA000F894DEBF0FBECDBF0E94DA070E94110E6E
:101CB000882309F471C081E5C82E81E0D82E10E098
:101CC00000E0B02E802F0E94A708E82EF601F190C8
:101CD0006F01F81609F45AC08091CF0181FD0E946E
:101CE000B10890E080E0FE242F2D30E0482FB901AC
:101CF000082E02C0759567950A94E2F760FF41C00F
:101D00008E83BF8281E090E06C0102C0CC0CDD1CB0
:101D10004A95E2F72E2D30E02C213D21232B09F4AA
:101D200080E088870E94711A8160782F9A8789875E
:101D30004E815F8168858A850E94ED0EF801EF5A19
:101D4000FE4F80818C2580830E94641E0E946B0D53
:101D500090915001891789F10E946B0D8093500179
:101D60002A960FB6F894DEBF0FBECDBFDF91CF919C
:101D70001F910F91FF90EF90DF90CF90BF900C9448
:101D80001B0E01968830910509F0B0CF0F5F1F4FF1
:101D90000830110509F095CF8FEF89838A831B8264
:101DA0000E94711A8160782F9D838C8349815A81AA
:101DB0006B818D810E94ED0EC7CF2A960FB6F894E5
:101DC000DEBF0FBECDBFDF91CF911F910F91FF906E
:101DD000EF90DF90CF90BF900895CF93DF93CDB772
:101DE000DEB72B970FB6F894DEBF0FBECDBF4F8383
:101DF000588769877A878B871E821D8285E0FE015E
:101E00003796DE01119601900D928A95E1F749818E
:101E10005A816B817C818D819E812B960FB6F894BF
:101E2000DEBF0FBECDBFDF91CF910C944F15FC01EB
:101E3000808191810C940618CF93C82F882309F4D0
:101E4000A2C08CEF8C0F813A58F48C2F0E94B322E1
:101E5000811199C08C2F0E943418CF910C94A51831
:101E600080E28C0F883048F4C77081E001C0880F91
:101E7000CA95EAF70E945C18F0CF8BE58C0F83308F
:101E800068F481E890E0C53A31F083E890E0C63A22
:101E900011F482E890E0CF910C94D10D88E58C0F7D
:101EA000873108F068C082EE90E0C83A09F460C05B
:101EB00089EE90E0C93A09F45BC08AEE90E0CA3A34
:101EC00009F456C085EB90E0CB3A09F451C086EB9B
:101ED00090E0CC3A09F44CC083EB90E0CB3B09F4A2
:101EE00047C084EB90E0CC3B09F442C087EB90E024
:101EF000CD3AF1F18CEC90E0C03BD1F18DEC90E06B
:101F0000CE3AB1F183E891E0CF3A91F18AE891E0DD
:101F1000C13B71F182E991E0C23B51F184E991E06A
:101F2000C33B31F181E292E0C43B11F183E292E0E4
:101F3000C53BF1F084E292E0C63BD1F085E292E04D
:101F4000C73BB1F086E292E0C83B91F087E292E0B5
:101F5000C93B71F08FE690E0CD3B51F080E790E017
:101F6000CE3B31F090E080E0CA3B11F48AE292E08F
:101F7000CF910C94E70DC03F30F08C2F0E94F01CE5
:101F8000CF910C94D71DCF910895882361F19CEFD8
:101F9000980F913A20F40E943B180C94A51890E2F7
:101FA000980F983050F4877091E001C0990F8A958E
:101FB000EAF7892F0E946218F0CF9BE5980F9330C3
:101FC00020F490E080E00C94D10D98E5980F9731C3
:101FD00020F490E080E00C94E70D803F20F00E9418
:101FE000581D0C94D71D0895CF93C82F0E941C0F25
:101FF000C93349F42FEF83EC99E0215080409040A1
:10200000E1F700C000008C2FCF910C94C50F8823FE
:1020100021F00E945C180C94A5180895882321F0E3
:102020000E9462180C94A51808958F929F92AF9207
:10203000BF92CF92DF92EF92FF920F931F93CF93B5
:10204000DF937C01D62FC72FFC01058102950F700D
:10205000128111110E9479180E945218C82E8823EB
:1020600071F01123B1F080E28D0F883090F082E0A2
:102070000E94F0180E94521891E0C82EC926DC2E4A
:10208000D2949FE0D922ED2DF0E0E45BF34D0C9467
:10209000DC2BC12CF4CF0C2F0F70C07F11F00295F8
:1020A000007F1123A9F0002359F080E28D0F8830C2
:1020B00010F0D11109C0802F0E945C180E94A51851
:1020C0008D2F0E941C0F14C0802F0E946C18F6CF19
:1020D0008D2F0E94C50F002359F080E28D0F8830AC
:1020E00010F0D11133C0802F0E9462180E94A518F1
:1020F00098E0D91639F0D91648F086E08D0D8F702A
:10210000823020F40E946B0D0E943309CC2009F428
:10211000D9C10E944E1880FDD5C1F70112820E94DC
:1021200048180E94D316C7010E946F120E944818D7
:10213000DF91CF911F910F91FF90EF90DF90CF90A3
:10214000BF90AF909F908F900C94F416802F0E94B8
:102150007218CCCFFC2FFF70BF2EC07FC03219F099
:10216000B29480EFB822DD2369F0D13049F1112318
:1021700091F1002351F1F701858180FFA1CF8F708C
:10218000858323C0112381F0011106C00E948C18A1
:102190008B290E940710ACCF0130C1F70E948C1828
:1021A0008B290E949218A4CF011106C00E949B188F
:1021B0008B2D0E940E109CCF013009F499CFF6CFE1
:1021C000112329F0063008F093CF8B2DE2CF053094
:1021D00008F08ECFEDCF002359F38D2F0E94C50F4D
:1021E00087CF8C2F86958695837069F0813009F0B2
:1021F0007FCF8D2F9C2F9370111102C090E080E053
:102200000E94E70D75CF8D2F9C2F9370111102C086
:1022100090E080E00E94D10D6BCF112309F1D53FF2
:1022200099F0D63FB9F0D43F49F48091EB019091F9
:10223000EC0181609093EC018093EB018D2F0E9463
:10224000F01C0E94D71D54CF8091EB019091EC01BE
:102250008260F0CF8091EB019091EC018460EACF35
:10226000D53F89F0D63FA9F0D43F49F48091EB01E6
:102270009091EC018E7F9093EC018093EB018D2F78
:102280000E94581DDECF8091EB019091EC018D7F73
:10229000F2CF8091EB019091EC018B7FECCF8C2FF2
:1022A000837009F047C0111123CF2D2F2295269559
:1022B0002770220F220F6D2F6F70862E912CB12C5C
:1022C000A12C022E04C0880C991CAA1CBB1C0A94C9
:1022D000D2F760E070E0CB01D4FF0FC06FE070E098
:1022E00080E090E004C0660F771F881F991F2A9531
:1022F000D2F76095709580959095C695C695C370F8
:10230000C23051F080F4682979298A299B29C1308B
:1023100071F00E948516ECCE682979298A299B29BB
:102320000E949716E5CE0E948516C501B4010E9451
:102330007316DECE8695112311F08C2F81708823C1
:1023400009F4D6CE2D2F229526952770220F220F25
:102350006D2F6F70862E912CB12CA12C022E04C0F3
:10236000880C991CAA1CBB1C0A94D2F760E070E090
:10237000CB01D4FF0FC06FE070E080E090E004C0BC
:10238000660F771F881F991F2A95D2F76095709561
:1023900080959095C695C695C370C23051F080F473
:1023A000682979298A299B29C13071F00E944A172E
:1023B0009FCE682979298A299B290E945C1798CE8B
:1023C0000E944A17C501B4010E94381791CEE0E27D
:1023D000ED0FE53108F04DC0F0E0E45AF34D0C94F8
:1023E000DC2BDF708C2F8F71112321F00E94D3160C
:1023F0008D2FCFCE0E94F4168D2FDBCE112341F00E
:10240000053008F075CE8C2F8F710E94171770CE93
:10241000063008F06DCEF7CF8C2F8F71112339F075
:102420000E94D31665CE8C2F8F711123C9F30E94A1
:10243000F4165ECE112329F08C2F8F710E94BE16E8
:1024400057CE0E94B91654CE112349F0CF718C2F6C
:102450000E94D31663E08C2F0E94DB1849CE81E0E6
:102460000E94F018023008F443CE82E00E94F01877
:102470003FCE112329F0011123CE8C2F8F71D0CFA5
:10248000002369F0D93309F0A8CEFFEF23EC89E0EF
:10249000F15020408040E1F700C000009ECE8C2F1C
:1024A0008F71C5CF4C2F4F706D2FC7010E94DF0871
:1024B0000E94E9151DCE4C2F4F706D2FC7010E9451
:1024C000430A16CEDF91CF911F910F91FF90EF90AD
:1024D000DF90CF90BF90AF909F908F9008950F9313
:1024E0001F93CF93DF93EC018B819C81892B29F083
:1024F0008881998189238F3F29F4DF91CF911F91A2
:102500000F910895CE010E9445098823B1F3688197
:1025100079818A810E9410188C010E946E170E9496
:102520007016B801CE01DF91CF911F910F910C94DD
:1025300015100E9479180E9489180E94A5180E94FF
:10254000FB1E0E94D71D90E080E00E94D10D90E01C
:1025500080E00C94E70D0E9442180C9499120E949E
:1025600069180C94AB12E92FE295EF70E250EE304F
:1025700070F4F0E0EF58F34D0C94DC2B803F19F031
:1025800020F4803E20F481E00895843FE1F380E070
:102590000895803EC0F3813FD1F7F5CF93FB8827A4
:1025A00080F908950E9406180C94B312CF93DF931C
:1025B00000D000D00F92CDB7DEB70F900F900F90E4
:1025C0000F900F90DF91CF910895CF93DF9300D0BC
:1025D00000D000D0CDB7DEB726960FB6F894DEBF98
:1025E0000FBECDBFDF91CF9108951F93CF93DF939F
:1025F000C0915A0116E080915B018C1304C0DF91F9
:10260000CF911F910895D0E01C9FF0011D9FF00D08
:102610001124E45AFE4F408151816281738184818B
:1026200095810E94E5122196C770E5CF40918C01FB
:1026300050918D0160918E0170918F018091900178
:10264000909191010C94E5121F93CF93DF938091A9
:102650009101807FC1F480918E018823A1F0809147
:102660005A01C0915B0160918C0170918D01409184
:102670008F0150919001D62FD723DA01A095B09504
:1026800016E0C81304C0DF91CF911F91089590E028
:102690004115510511F0DF3F31F401968770F1CFFC
:1026A0002A0F3B1F17C0189FF001199FF00D11242E
:1026B000E45AFE4F21812713F0CF20812613EDCF5E
:1026C00022812111EACF238134812417350740F379
:1026D000241B350B283C310500F7209191012F7008
:1026E00020612093910126E0289FF001299FF00DA1
:1026F0001124EF59FE4F80818F70806180838CE8B8
:1027000091E00E946F12DF91CF911F910C94F5120E
:10271000BF92CF92DF92EF92FF920F931F93CF93CE
:10272000DF93CDB7DEB761970FB6F894DEBF0FBE6B
:10273000CDBF8C0185E0F801DE011D9601900D9260
:102740008A95E1F7D8014C9111965C9111971296F8
:10275000EC90129780918F0190919001009709F46D
:102760007FC120918C0130918D01622F63236F3FD7
:1027700009F476C11396CD90DC90B0908E01BB2009
:1027800009F411C1C816D906D0F1F601E81BF90BFE
:10279000CF01FF24F394883C910508F0F12C80913F
:1027A0009101982F907FFF2009F4B8C091117FC04C
:1027B000FE2C351329C0241327C0E11025C08F70CB
:1027C0008061809391010E9416138CE891E00E9431
:1027D0006F1280919101D80115968C938F2D61967F
:1027E0000FB6F894DEBF0FBECDBFDF91CF911F9122
:1027F0000F91FF90EF90DF90CF90BF90089580955C
:1028000090958C0D9D1DC5CFCD2829F0852F842353
:102810008F3F09F041C180E0B82FB170DB2E80FFFF
:102820003CC080915A0120915B0136E0821315C0B3
:102830004D875E878D859E850E940618292F2295DB
:102840002F702230F0F0243018F59F70F1F0F8016D
:102850009581907FD1F4D12C1EC090E0389FF0017B
:10286000399FF00D1124E45AFE4F6181651306C0B3
:102870006081641303C06281E6120FC00196877005
:10288000D5CF9F7011F0882331F3805E883018F324
:10289000C8010E946F12FD2CA1CFEE2009F49ECF3B
:1028A00080919101816080939101F12C97CF351334
:1028B00006C0241304C0D801EE2009F49AC04D8745
:1028C0005E878D859E850E94D212882319F1EE20A5
:1028D00009F180919101803270F020918C0130914A
:1028E0008D0138872F831986DB86CA868C87CE01B7
:1028F00007960E946F1286E0F801ACE8B1E0019003
:102900000D928A95E1F70E9424130E941613FF246A
:10291000F39464CFC8010E946F12F9CF911113C0D4
:102920007C2DD98AC88A6E2D89890E94D6128CE89E
:1029300091E00E946F1286E0ECE8F1E0DF011D9269
:102940008A95E9F763C0351312C0241310C0E11053
:102950000EC0F8018583C8010E946F12ECE8F1E017
:1029600086E0DF011D928A95E9F7FB2C37CF4D8772
:102970005E878D859E850E94D212882359F2EE20B3
:1029800049F280919101803208F4B5CF20918C01F9
:1029900030918D013A8329831B82DD82CC828E8324
:1029A000CE010196A6CFC816D90698F1F601E81B0C
:1029B000F90BCF01F12C883C910508F049C0FE2CA1
:1029C000EE2009F4A7CF351332C0241330C0809114
:1029D000910180FD23C0982F907F01F1D8011596B9
:1029E0008C931597903F39F0982F907F905F8F7060
:1029F000892B15968C93C8010E946F1286E0F8010E
:102A0000ACE8B1E001900D928A95E1F70E941613AF
:102A1000E5CE809590958C0D9D1DCCCF86E0F8017C
:102A2000ACE8B1E001900D928A95E1F7D7CE4D87E1
:102A30005E878D859E850E94D21281115CCF809128
:102A40009101816080939101C8010E946F12C6CEEE
:102A50007C2DD98AC88A6E2D89890E94D6126BCFA7
:102A6000EE2009F457CF4D875E878D859E850E94A5
:102A7000D212F82E882309F44DCF86E0F801ACE895
:102A8000B1E001900D928A95E1F78CE891E00E9407
:102A9000170F0E942413BACF81E08E25BDCE1F935D
:102AA000CF93DF93CDB7DEB72C970FB6F894DEBF88
:102AB0000FBECDBF4F83588769877A878B879C87E6
:102AC000CE0107960E948813882369F08A859B852A
:102AD000892B39F04F815885842F85238F3F09F04A
:102AE00071C016E05FC086E0FE013796DE011196E8
:102AF00001900D928A95E1F78A859B85892B89F350
:102B000088859F8189238F3F61F320915B0130E0AD
:102B1000C90101968770992740915A0148171906F3
:102B200071F40E94AF1210925B0110925A0186E07C
:102B3000ECE8F1E0DF011D928A95E9F7D2CF96E04B
:102B4000929FD001939FB00D1124A45ABE4FFE0155
:102B5000319601900D929A95E1F780935B010E9466
:102B6000F512BFCF819FC0011124845A9E4F0E944D
:102B700088138823E9F0E0915A011E9FF001112487
:102B8000E45AFE4F40815181628173818481958135
:102B90000E94E51280915A0190E001968770992772
:102BA00080935A0180915A0190915B018913DACF89
:102BB0002C960FB6F894DEBF0FBECDBFDF91CF913C
:102BC0001F91089569857A858B859C850E94E51201
:102BD00088CFEF92FF920F931F93CF93DF938C01D7
:102BE000892B81F0F12CEE24E394E8012196F80181
:102BF0008491843770F4843008F05FC08130B1F084
:102C00008230A1F1DF91CF911F910F91FF90EF9052
:102C10000895853709F44CC008F43DC09CE7980F2F
:102C2000903780F78F770E94C50F49C00E5F1F4F06
:102C3000FE01849190E2980F983060F48770FE2D29
:102C400001C0FF0F8A95EAF78F2F0E947C180E941F
:102C5000A51802C00E941C0F8F2D815030F2EFE9A1
:102C6000FFE03197F1F700C00000F7CF0E5F1F4F74
:102C7000FE01849190E2980F983050F48770FE2DF9
:102C800001C0FF0F8A95EAF78F2F0E948218DFCFCD
:102C90000E94C50FE1CF0E5F1F4FFE01C491C150CE
:102CA000D8F28FE99FE00197F1F700C00000F7CF5D
:102CB0000E5F1F4FFE01F490CFCF0E941C0F8E01BC
:102CC000CBCF08950C9461160E9462166093BE01EA
:102CD0007093BF018093C0019093C1010C9499122D
:102CE00008950C9464160F931F930091BE011091E8
:102CF000BF012091C0013091C101602B712B822B4B
:102D0000932B1F910F910C9464160F931F930091B6
:102D1000BE011091BF012091C0013091C10160231B
:102D20007123822393231F910F910C9464160F93A8
:102D30001F930091BE011091BF012091C0013091FD
:102D4000C10160277127822793271F910F910C944F
:102D500064160C9461160C94A9160E94AB1660932D
:102D6000BA017093BB018093BC019093BD010C9498
:102D7000991260E070E0CB010C94AD160F931F9395
:102D800041E050E060E070E08A019B0104C0000F68
:102D9000111F221F331F8A95D2F7C901B8011F9155
:102DA0000F910C94AD160F931F9341E050E060E03B
:102DB00070E004C0440F551F661F771F8A95D2F735
:102DC0008091BA019091BB01A091BC01B091BD016D
:102DD0008A019B01082B192B2A2B3B2BC901B80117
:102DE0001F910F910C94AD160F931F9341E050E08B
:102DF00060E070E004C0440F551F661F771F8A957E
:102E0000D2F7CB01BA0160957095809590950091AD
:102E1000BA011091BB012091BC013091BD0160232A
:102E20007123822393231F910F910C94AD160F935E
:102E30001F9341E050E060E070E004C0440F551F74
:102E4000661F771F8A95D2F78091BA019091BB01D6
:102E5000A091BC01B091BD018A019B0108271927EF
:102E60002A273B27C901B8011F910F910C94AD1679
:102E70000F931F930091BA011091BB012091BC01E7
:102E80003091BD01602B712B822B932B1F910F91E1
:102E90000C94AD160F931F930091BA011091BB01D2
:102EA0002091BC013091BD016023712382239323C3
:102EB0001F910F910C94AD160F931F930091BA01BF
:102EC0001091BB012091BC013091BD016027712799
:102ED000822793271F910F910C94AD160895990F97
:102EE000990F990F890F982F977041E001C0440FF7
:102EF0009A95EAF786958695869595E0899FF001E3
:102F00001124EE56FE4F30E020E070E05191DF01D9
:102F10001197CB01022E02C0969587950A94E2F78D
:102F2000817081958527842385278C932F5F3F4F60
:102F30002530310559F70895990F990F990F890F89
:102F4000982F977086958695869525E0829FF0014B
:102F50001124EE56FE4F50E040E080E0219130E039
:102F6000092E02C0369527950A94E2F7217033277F
:102F7000042E01C0220F0A94EAF7822B4F5F5F4FA5
:102F80004530510559F70895BF92CF92DF92EF92E5
:102F9000FF920F931F93CF93DF938C01C090BA01E0
:102FA000D090BB01E090BC01F090BD018091BE01CA
:102FB0009091BF01A091C001B091C101C82AD92A46
:102FC000EA2AFB2ACFE1D0E0BC2ED701C6010C2EA5
:102FD00004C0B695A795979587950A94D2F780FD7A
:102FE0000EC0219788F7B12C8B2DDF91CF911F91C7
:102FF0000F91FF90EF90DF90CF90BF900895B801B0
:103000008C2F0E94610A019761F3EECFCF93DF937B
:10301000EC010E94C417BE01DF91CF910C94610AAC
:103020001F93CF93DF93EB0190915901992331F0D6
:10303000CB01DF91CF911F910C940618882379F072
:10304000CB010E94C417182F682FCE010E946F1762
:10305000BE01812FDF91CF911F910C94610ACB01AA
:103060000E949C17182FF4CF682F80910001909137
:1030700001010C94E419682F8091000190910101E5
:103080000C94E61980910001909101010C94E819CB
:103090008091C20185958595859508958091C2019D
:1030A000877008959091C201977081E009F480E0E3
:1030B00008958091CE0108959091CE01892B80933F
:1030C000CE01089580959091CE0198239093CE01E2
:1030D00008951092CE0108959091CD01892B80938F
:1030E000CD01089580959091CD0198239093CD01C5
:1030F00008951092CD0108959091CC01892B809371
:10310000CC01089580959091CC0198239093CC01A7
:1031100008951092CC0108958091C30108950895F7
:103120000C948F189091C301981721F08093C301DC
:103130000C94901808958091C301882329F010926F
:10314000C30180E00C9490180895E0910001F09183
:1031500001018091CE018083E0910001F091010195
:1031600080819091CD01892B8083E0910001F091C5
:10317000010180819091CC01892B80839091C301C2
:10318000992381F0E0910001F09101018081892B68
:10319000808380910001909101010E94AB198111FF
:1031A0000E949B1880910001909101010C94770D71
:1031B00008950C94D81898E0899F90011124622BEF
:1031C0006093C2010E94D3168091C20185958595B6
:1031D00085950C94D9181092C20180E00C94D918EE
:1031E0009091C201809589238093C201282F277076
:1031F00071F4282F082E000C330B9217130639F0A8
:103200008595859585950E94F4160C94EB18089584
:1032100090932D0180932C010895829590E09C015C
:10322000220F331F220F331F2C7C95958795959580
:1032300087958373282B30E0C901880F991F8A7AFC
:10324000359527952575822B089590E080E00E94A2
:10325000FE2B21E08D3E9E4F09F020E0822F089545
:1032600082E090E00C94F62B682F82E090E00C94C2
:10327000042C83E090E00C94F62B682F83E090E020
:103280000C94042C84E090E00C94F62B682F84E0DE
:1032900090E00C94042CAB01BC018FE090E00C9406
:1032A000162CAB01BC0183E190E00C94162C60E07D
:1032B00070E0CB010C94511960E070E0CB010E94EA
:1032C0004B190C9457196DEE7EEF90E080E00E9450
:1032D000222C60E082E090E00E94042C60E083E019
:1032E00090E00E94042C1092BE011092BF01109237
:1032F000C0011092C10160E084E090E00E94042CC3
:1033000060E085E090E00E94042C60E086E090E0C0
:103310000E94042C6FEF87E090E00E94042C40E0B4
:1033200050E0BA0188E090E00E94162C60E08DE049
:1033300090E00E94042C40E050E0BA0188E190E067
:103340000E94162C60E087E190E00E94042C0C940F
:103350005C190C9463199C012E5F3F4FAC01485FD0
:103360005F4F80E02417350709F40895F901919122
:103370009F019923B9F38F5FF5CF9C01FC01329631
:103380009FEF80E04191461751F09F3F19F44111A2
:1033900001C0982F8F5F8630A9F79F3F09F40895E9
:1033A000290F311D97FD3A95F90162830895FC01BB
:1033B000329608962191261303C0DF0111971C92C3
:1033C000E817F907B9F708950C94BD190C94D719AB
:1033D000029626E0FC0111922A95E9F708950895D6
:1033E0000C94EF190E94F0198091F701843049F193
:1033F0001092D00188E190E020E40FB6F894A895EF
:10340000809360000FBE2093600080E00E9433092B
:103410000E94F01983B7817F846083BF83B7816086
:1034200083BF7894889583B78E7F83BF0FB6F89457
:10343000A895809160008861809360001092600080
:103440000FBE0895CF930E94DD080E94DA070E9404
:10345000DE08C0E08C2F0E94A708811105C0CF5F55
:10346000C830C1F7CF91089581E0FCCF08950C9446
:10347000361A0E94AF120E946B0D0E9433090C9401
:10348000371A1F921FB61F9211248F939F93AF93E9
:10349000BF938091D001811113C08091ED01909173
:1034A000EE01A091EF01B091F0014196A11DB11D77
:1034B0008093ED019093EE01A093EF01B093F001A2
:1034C000BF91AF919F918F911F901FBE1F90189534
:1034D00082E084BD93E095BD9AEF97BD80936E0026
:1034E00008952FB7F8948091ED019091EE01A0918D
:1034F000EF01B091F0012FBF08952FB7F8946091BC
:10350000ED017091EE018091EF019091F0012FBFDC
:103510000895CF92DF92EF92FF920F931F932FB7F0
:10352000F8944091ED015091EE016091EF0170919E
:10353000F0012FBF6A017B01EE24FF248C0130E0F3
:1035400020E0C016D106E206F30650F0481B590BE6
:10355000CA011F910F91FF90EF90DF90CF900895D7
:1035600041505109F3CFAB01BC012FB7F8948091C2
:10357000ED019091EE01A091EF01B091F0012FBF0C
:1035800084179507A607B70738F0841B950BA60B81
:10359000B70BBC01CD0108950197A109B109F5CF81
:1035A00078941F921FB61F9211248F939F93AF930D
:1035B000BF938091ED019091EE01A091EF01B09148
:1035C000F0010196A11DB11D8093ED019093EE01D4
:1035D000A093EF01B093F001BF91AF919F918F91B4
:1035E0001F901FBE1F90189581E08093E00080E23D
:1035F0008093D8001092C9008FE19EE40197F1F703
:1036000000C0000087E090EBDC0180930002909303
:103610000102A0930202B093030288E19CE00FB67E
:10362000F894A895809360000FBE90936000FFCF40
:10363000CF92DF92EF92FF920F931F93CF93C0E050
:10364000E82EF12C8C2F0E94A70810E000E0C82E75
:10365000D12CC601002E02C0959587950A94E2F7F9
:1036600080FD11C00F5F1F4F0830110591F7CF5F2C
:10367000C83041F780E0CF911F910F91FF90EF90FC
:10368000DF90CF900895602F7C2F80E00E94440A45
:10369000E816F90639F781E0EECFCF93C82F8CE218
:1036A0000E94181B882321F08C2FCF910C94181B9B
:1036B00080E0CF910895CF930E942519811102C017
:1036C0000E94A91983E193E00E940207C5E6C15058
:1036D00009F0D5C08CE093E00E94020789E20E94C5
:1036E0004D1B8111F8C08AE20E944D1B81110E947E
:1036F000A91985E00E944D1B81110E94F41A0E94B5
:1037000030198093CF0187E00E944D1B882371F010
:103710008BE10E944D1B882309F4BAC09091CF0120
:10372000892F8D7F91FF82608093CF018091CF019F
:103730000E9434190E94421990E09093F201809304
:10374000F10180EE0E944D1B882341F09091F10120
:10375000892F8E7F90FF81608093F10189E30E9421
:103760004D1B882341F09091F101892F8D7F91FFAE
:1037700082608093F10182EE0E944D1B882341F00C
:103780009091F101892F8B7F92FF84608093F101EA
:1037900086EE0E944D1B882341F09091F101892F04
:1037A000877F93FF88608093F10183EE0E944D1B19
:1037B000882341F09091F101892F8F7E94FF8061E1
:1037C0008093F10185E30E944D1B882341F0909185
:1037D000F101892F8F7D95FF80628093F10181E354
:1037E0000E944D1B882341F09091F101892F8F7B1E
:1037F00096FF80648093F10181E10E944D1B882334
:1038000041F09091F101892F97FB87F980588093BF
:10381000F1018091F1010E94461987E20E944D1B3F
:10382000C82F8EE10E944D1B8111C2608FE10E9462
:103830004D1B8111C46080E20E944D1B8111C86044
:1038400081E20E944D1B8111C06182E20E944D1BEA
:103850008111C06283E20E944D1B8111C06484E229
:103860000E944D1B882389F1C0688C2F0E943D194E
:103870006C2F70E090E080E0CF910C9471160E9464
:10388000DA078FE39CE90197F1F700C000001FCF32
:103890008EE00E944D1B882339F09091CF01892F33
:1038A0008B7F92FF846040CF80E10E944D1B9091FE
:1038B000CF01882329F0892F877F93FF886034CF39
:1038C000892F8E7F90FF81602FCFC111CECF0E94B4
:1038D0003919682FCECFCF9108958091D40180FF00
:1038E00012C06091050185E0689FB00111247595B3
:1038F00067957595679560387105A8F5611571052F
:10390000A1F1862F089581FF09C06091050185E02E
:10391000689FB001112475956795EDCF6091050101
:1039200082FD0AC08091D3018823D1F090910401D7
:1039300060910501891728F085E0689FB001112486
:10394000DACF869FB001112485E0869F9001879F82
:10395000300D1124692F70E0C9010E94C82BCBCF14
:1039600065E070E0CECF8FE7089581E00895809103
:10397000D40180FF0CC06091030170E075956795DC
:10398000759567956115710549F1862F089581FF39
:1039900006C06091030170E075956795F3CF609163
:1039A000030182FD0BC09091D3019923A1F0609196
:1039B000020180910301961738F0682F70E060389B
:1039C000710500F38FE70895899FC001112470E00D
:1039D0000E94C82BF4CF61E070E0D7CF81E008955A
:1039E000803F31F40E946D1C81958093D801089529
:1039F000813F19F40E946D1CF8CF823F31F40E9480
:103A00006D1C81958093D7010895833F19F40E941E
:103A10006D1CF8CF893F29F40E94B71C8093D9010F
:103A200008958A3F21F40E94B71C8195F7CF8B3F00
:103A300031F40E94B71C81958093DA0108958C3F80
:103A400019F40E94B71CF8CF843F31F48091D6015D
:103A500081608093D6010895853F21F48091D6013D
:103A60008260F7CF863F21F48091D6018460F1CF48
:103A7000873F21F48091D6018860EBCF883F21F405
:103A80008091D6018061E5CF8D3F31F48091D401E2
:103A900081608093D40108958E3F21F48091D401F8
:103AA0008260F7CF8F3FB9F78091D4018460F1CF66
:103AB0009091D701803F41F48091D80187FD109209
:103AC000D801992371F00895813F29F48091D8019C
:103AD0001816ACF3F6CF823F81F497FFF2CF109225
:103AE000D7018091D8019091D901892B9091DA0169
:103AF000892B49F71092D3010895833F19F41916C1
:103B000074F3DFCF893F39F48091D9011816CCF6D0
:103B10001092D901D6CF8A3F29F48091D90187FF2D
:103B2000D0CFF6CF8B3F39F48091DA0187FFC9CF30
:103B30001092DA01C6CF8C3F29F48091DA01181671
:103B4000BCF3BFCF843F31F48091D6018E7F809348
:103B5000D601B7CF853F21F48091D6018D7FF7CF75
:103B6000863F21F48091D6018B7FF1CF873F21F4EE
:103B70008091D601877FEBCF883F21F48091D601D9
:103B80008F7EE5CF8D3F31F48091D4018E7F80937D
:103B9000D40197CF8E3F21F48091D4018D7FF7CF50
:103BA0008F3F09F08ECF8091D4018B7FF0CF809131
:103BB000CF0183FF7EC08FE493E00E9402078091D3
:103BC000D6011F928F938AE493E09F938F930E9474
:103BD0009B0788E493E00E9402078091D701282F79
:103BE000082E000C330B3F938F9385E493E09F9353
:103BF0008F930E949B0783E493E00E9402078091C9
:103C0000D801282F082E000C330B3F938F9380E4AC
:103C100093E09F938F930E949B078EE393E00E9413
:103C200002078091D901282F082E000C330B3F93F7
:103C30008F938BE393E09F938F930E949B0789E37D
:103C400093E00E9402078091DA01282F082E000CD1
:103C5000330B3F938F9386E393E09F938F930E9460
:103C60009B0783E393E00E9402078091D3011F9298
:103C70008F9380E393E09F938F930E949B078EE244
:103C800093E00E9402078091D4011F928F938BE2F0
:103C900093E09F938F930E949B0788E293E00E949A
:103CA00002078DB79EB74C960FB6F8949EBF0FBE15
:103CB0008DBF85ED91E00E94C30D0E94711A909313
:103CC000D2018093D10108951F93CF93DF93809108
:103CD000D1019091D2010E94891AAC019091D30137
:103CE0002091060130E0911106C0209107018AE081
:103CF000289F900111244217530778F02091D70193
:103D0000C091D801D091D9011091DA01211109C0D7
:103D10008C2F8D2B812B09F06AC0DF91CF911F91E1
:103D200008959F3F19F09F5F9093D301121624F4DA
:103D30000E946D1C8093D7018091D70187FF05C039
:103D40000E946D1C81958093D7011C1624F40E945B
:103D50006D1C8093D8018091D80187FF05C00E9417
:103D60006D1C81958093D8013091D7013323A1F048
:103D70002091D801222381F045EB3403C0011124A6
:103D8000992369F19093D70145EB24039001112405
:103D9000332349F13093D8011D1624F40E94B71C37
:103DA0008093D9018091D90187FF05C00E94B71C7B
:103DB00081958093D901111624F40E94B71C809339
:103DC000DA018091DA0187FF05C00E94B71C819556
:103DD0008093DA01DF91CF911F910C94D71D81E080
:103DE0008093D701D1CF81E08093D801D5CF9F3F79
:103DF00009F099CFAACF86E0E5EDF1E0DF011D9251
:103E00008A95E9F71092D3011092D401089582E7C0
:103E100095E00E9402071F9281E08F931F9285E038
:103E20008F9384E295E09F938F930E949B070F905E
:103E30000F900F900F900F900F900895833009F41A
:103E400045C028F4813061F0823049F10895853011
:103E500009F46AC008F451C0863009F47CC00895A2
:103E600080910701482F460F5527551F4F3F510599
:103E700094F4680F60930701809107011F928F935C
:103E80008DE594E09F938F930E949B070F900F9076
:103E90000F900F9008958FEF80930701EDCF8091E1
:103EA0000601482F460F5527551F4F3F510554F423
:103EB000680F60930601809106011F928F938BE437
:103EC00094E0E0CF8FEF80930601F5CF809105015C
:103ED000482F460F5527551F4F3F510554F4680F83
:103EE00060930501809105011F928F9388E394E010
:103EF000C9CF8FEF80930501F5CF80910401482F42
:103F0000460F5527551F4F3F510554F4680F6093D6
:103F10000401809104011F928F9383E294E0B2CF59
:103F20008FEF80930401F5CF80910301482F460F56
:103F30005527551F4F3F510554F4680F60930301F7
:103F4000809103011F928F938AE094E09BCF8FEFC3
:103F500080930301F5CF80910201482F460F55272A
:103F6000551F4F3F510554F4680F60930201809133
:103F700002011F928F938FEE93E084CF8FEF809397
:103F80000201F5CF8330C9F128F4813061F082302D
:103F900019F10895853009F452C008F43FC0863005
:103FA00009F45EC0089580910701681790F4861B9C
:103FB00080930701809107011F928F9380EE93E019
:103FC0009F938F930E949B070F900F900F900F90DD
:103FD000089510920701EECF80910601681750F402
:103FE000861B80930601809106011F928F938EECB1
:103FF00093E0E6CF10920601F6CF80910501681795
:1040000050F4861B80930501809105011F928F93C8
:104010008BEB93E0D5CF10920501F6CF8091040190
:10402000681750F4861B80930401809104011F924D
:104030008F9386EA93E0C4CF10920401F6CF80916B
:104040000301681750F4861B8093030180910301DC
:104050001F928F938DE893E0B3CF10920301F6CFB8
:1040600080910201681750F4861B809302018091B1
:1040700002011F928F9382E793E0A2CF1092020178
:10408000F6CFCF93C82F1F928F9387E796E09F9329
:104090008F930E949B0761E070E080E090E004C095
:1040A000660F771F881F991FCA95D2F70E94711655
:1040B0000F900F900F900F90CF910C94AF12CF9361
:1040C0008B3109F4E0C108F078C18B3009F49FC14D
:1040D00008F042C1863009F4ADC148F4853009F4D6
:1040E0007AC186E09BE00E94020780E0B3C187307E
:1040F00009F4B2C18830A9F785EA9BE00E94020763
:1041000086EF9AE00E9402070E9439191F928F934E
:1041100083EF9AE09F938F930E949B0781EF9AE031
:104120000E9402070E943019C82F8EED9AE00E946B
:1041300002071F92CF9389ED9AE09F938F930E947D
:104140009B0787ED9AE00E9402078DEC9AE00E949F
:1041500002078C2F81701F928F938AEC9AE09F93B5
:104160008F930E949B0788EC9AE00E9402078EEBD7
:104170009AE00E940207C1FB882780F91F928F9363
:104180008BEB9AE09F938F930E949B0789EB9AE0B9
:104190000E9402078DEA9AE00E940207C2FB88276C
:1041A00080F91F928F938AEA9AE09F938F930E94DF
:1041B0009B0788EA9AE00E9402078FE99AE00E9432
:1041C0000207C3FBCC27C0F91F92CF938CE99AE07A
:1041D0009F938F930E949B078AE99AE00E940207AF
:1041E0000E944219C82F86E89AE00E9402071F9297
:1041F000CF9381E89AE09F938F930E949B078FE76C
:104200009AE00E94020786E69AE00E9402078C2F3D
:1042100081701F928F9383E69AE09F938F930E9401
:104220009B078DB79EB780960FB6F8949EBF0FBEC2
:104230008DBF81E69AE00E9402078AE49AE00E941C
:104240000207C1FB882780F91F928F9387E49AE0C9
:104250009F938F930E949B0785E49AE00E94020738
:1042600083E39AE00E940207C2FB882780F91F922D
:104270008F9380E39AE09F938F930E949B078EE237
:104280009AE00E9402078CE19AE00E940207C3FBB9
:10429000882780F91F928F9389E19AE09F938F93EB
:1042A0000E949B0787E19AE00E9402078DE09AE056
:1042B0000E940207C4FB882780F91F928F938AE02F
:1042C0009AE09F938F930E949B0788E09AE00E9458
:1042D000020786EF99E00E940207C5FB882780F954
:1042E0001F928F9383EF99E09F938F930E949B0778
:1042F00081EF99E00E94020785ED99E00E94020794
:10430000C6FB882780F91F928F9382ED99E09F93D7
:104310008F930E949B0780ED99E00E94020788EC32
:1043200099E00E940207C7FBCC27C0F91F92CF93E8
:1043300085EC99E09F938F930E949B0783EC99E013
:104340000E9402078DB79EB74C960FB6F8949EBF99
:104350000FBE8DBF81E07EC0803109F4ACC080F417
:104360008E3009F0BECE9091CF01892F8B7F92FFC6
:1043700084608093CF0182FF9BC081E39BE08FC06C
:10438000863109F4A8C0893109F0ABCE8AEE97E0F6
:104390000E94020782EC97E00E9402078CE897E0F7
:1043A0000E94020780E597E00E94020780E197E003
:1043B0000E94020785EE96E02CC08A32A1F1E8F453
:1043C000873269F128F48E3108F48BCE8D5128C0E4
:1043D000893209F086CE0E94AF1284E79BE00E94EA
:1043E00002079FEF23ED80E3915020408040E1F7EA
:1043F00000C000000E94F41AADCF833468F48A3301
:1044000008F0A0C0853359F0883309F06ACE80E205
:1044100098E00E9402079ECF833409F062CE80E0CC
:104420000E94412097CF84E99BE00E9402070E94EE
:10443000A91990CF8091CF01807F8093CF0189EF20
:1044400097E00E94020780E99BE00E94020781E05A
:104450008093DC01CF9108959091CF01892F8E7FB9
:1044600090FF81608093CF0180FF03C088E69BE0CE
:10447000D0CF8BE59BE00E9402078091CF01817F26
:104480008093CF0167CF9091CF01892F8D7F91FFCE
:1044900082608093CF0181FF08C08EE49BE00E9480
:1044A00002078091CF018160EBCF80E49BE0B1CF28
:1044B00081E29BE0AECF9091CF01892F877F93FF60
:1044C00088608093CF0183FF03C085E19BE0E7CF45
:1044D00088E09BE09ECF87ED96E00E9402070E9455
:1044E0006B0D1F928F938DEB96E09F938F930E949D
:1044F0009B07809112011F928F9386EA96E09F930B
:104500008F930E949B078091E9011F928F9383E90B
:1045100096E09F938F930E949B070E947D1A9F9322
:104520008F937F936F938CE796E09F938F930E9476
:104530009B078DB79EB742960FB6F8949EBF0FBEED
:104540008DBF08CF89536CCF80E008950C94A422CE
:104550008E518A3030F4E82FF0E0ED5EFE4F80811E
:10456000089580E00895CF93C82F8091DC018130B9
:10457000C1F0882339F0823009F447C01092DC0181
:1045800080E00DC00E9459188232D1F78C2F0E9412
:10459000A42281111BC08C2F0E945F208170CF91BB
:1045A00008950E945918823289F38C2F0E94A62206
:1045B00081111BC0C431D9F060F4CB3071F0C0312F
:1045C000D1F08DE696E00E94020713C081E090E0F2
:1045D000E5CFC93261F0C833A1F789EF97E00E94B7
:1045E000020783E796E00E94020781E0D7CF10928E
:1045F000DC0180E0D3CF0E94071F8FE696E00E9487
:10460000020782E08093DC01F0CFC432C8F4CE31DF
:1046100008F0BEC0CB30E1F040F4C73009F4CCC0A4
:1046200081E195E00E94020726C0C331C1F1C43187
:10463000B9F78091DB01882351F11092DB010AC0A8
:10464000CB3409F4B7C0C8F4C93299F3C83341F781
:104650000E94071F8091DB01882309F4C4C01F92C8
:104660008F938BE095E09F938F930E949B070F9011
:104670000F900F900F9081E092CFC13509F494C054
:10468000C23509F48BC0CE3459F66AE08EC080E2A0
:1046900095E00E94020781E08093DC0180CF8AEFE1
:1046A00094E00E94020788EE94E00E940207809145
:1046B00007011F928F9385EE94E09F938F930E9442
:1046C0009B0783EE94E00E94020781ED94E00E9434
:1046D0000207809106011F928F938EEC94E09F93C6
:1046E0008F930E949B078CEC94E00E9402078DEB55
:1046F00094E00E940207809105011F928F938AEB3C
:1047000094E09F938F930E949B0788EB94E00E9414
:10471000020787EA94E00E940207809104011F9239
:104720008F9384EA94E09F938F930E949B0782EA81
:1047300094E00E9402078DE894E00E9402078091B5
:1047400003011F928F938AE894E09F938F930E94B6
:104750009B0788E894E00E94020781E794E00E94AA
:104760000207809102011F928F938EE694E09F933F
:104770008F930E949B078CE694E00E9402078DB7FE
:104780009EB748960FB6F8949EBF0FBE8DBF62CFFE
:104790008C2F0E94A8228093DB015CCF61E0809186
:1047A000DB010E941E1F56CF61E08091DB010E9459
:1047B000C21F50CF6AE0F3CF8EE18093070182E3FE
:1047C000809306018AE08093050184E180930401CF
:1047D00088E08093030188E28093020183E195E001
:1047E0000E94020737CF88E095E01CCF8091E80156
:1047F00008959FB7F8941092DF019FBF9091F70141
:10480000943009F048C02091E9002F703091EC00FD
:10481000932F917030FD90E8922B23E02093E900D4
:104820002091EB0020FF34C02091EE0027FF30C024
:104830002091DD01222321F02091E80025FF28C0EE
:104840001092DD0126E03091E80035FF14C080931E
:10485000F1008091E80085FD27C08091E80080FF8D
:10486000FCCF8091E8008E778093E8009F70909352
:10487000E90080E008953091F701343049F4309137
:10488000EB0035FD05C0215041F481E08093DD014E
:104890009F709093E9008FEF0895EFE9FFE0319763
:1048A000F1F700C00000CFCF8FB7F89421E020933C
:1048B000DF018FBFDBCF0F931F93CF93DF9300D028
:1048C0000F92CDB7DEB78C010E940F27823011F016
:1048D000843021F584E089831B830A8382E08093FE
:1048E000E9008FEF9091E800815095FD06C095EDAD
:1048F0009A95F1F700008111F5CF8091E80085FFCE
:104900000DC050E040E063E070E0CE0101960E94EF
:104910002C278091E8008E778093E8000F900F900D
:104920000F90DF91CF911F910F910895CF93DF9357
:1049300000D00F92CDB7DEB72091F701243031F5CA
:1049400023E02983805891099B838A8382E08093A6
:10495000E9008FEF9091E800815095FD06C095ED3C
:104960009A95F1F700008111F5CF8091E80085FF5D
:104970000DC050E040E063E070E0CE0101960E947F
:104980002C278091E8008E778093E8000F900F909D
:104990000F90DF91CF910895CF93DF93EC010E94A8
:1049A0000F27823011F08430F9F482E08093E9001F
:1049B0008FEF9091E800815095FD06C095ED9A9596
:1049C000F1F700008111F5CF8091E80085FF0CC060
:1049D00050E040E066E070E0CE010E942C2780911C
:1049E000E8008E778093E800DF91CF910895CF9310
:1049F000DF93EC010E940F27823011F0843039F5EB
:104A000081E08093E9008FEF9091E800815095FD5F
:104A100006C095ED9A95F1F700008111F5CF8091D0
:104A2000E80085FF14C050E040E068E070E0CE018F
:104A30000E942C278091E8008E778093E80088E020
:104A4000FE01A0EEB1E001900D928A95E1F7DF91B1
:104A5000CF91089585ED9BE00E9402078091F601B9
:104A6000811109C00E94BC280E9419298091E2008E
:104A700084608093E200089581ED9BE00E9402072C
:104A80001092F60108958DEC9BE00C94020789ECDE
:104A90009BE00C94020785EC9BE00E9402070C94BB
:104AA000391A2091DE012F5F822F62E30E94BC2B16
:104AB000992319F02093DE0108951092DE01809170
:104AC000DF018823F1F08091F7018430C1F49091E7
:104AD000E9009F702091EC00822F817020FD80E81A
:104AE000892B93E09093E9009091EB0090FF04C034
:104AF0009091EE0097FD08C08F708093E9001092AE
:104B0000DF0108951092F1009091E80095FDFACF31
:104B10009091E80090FFF0CF9091E8009E779093FD
:104B2000E800EACF42E061EC81E00E94382842E2EE
:104B300061EC82E00E94382842E261EC83E00C9450
:104B400038288091F901833009F45FC030F4813056
:104B5000C1F1823009F49BC008958A3009F487C0FE
:104B60008B3009F46DC0893009F04EC08091F80196
:104B7000813209F049C08091FC019091FD010297BA
:104B800008F042C08091E800877F8093E800809120
:104B9000E80082FF35C09091F3008091F200029707
:104BA00029F48091F1008B7F813021F48091F10014
:104BB0008093E8018091E8008B778093E8000C9463
:104BC0006C288091F801813AF9F48091E800877FA0
:104BD0008093E8008091FC019091FD01892B61F4A4
:104BE00068E080EE91E070E00E947B278091E80011
:104BF0008B778093E800089560E090E080E0F3CF49
:104C00008091F7018111C3CF08958091F801813A15
:104C1000D9F78091FC019091FD01892BA9F7809132
:104C2000E800877F8093E8008091E80080FFFCCF58
:104C3000809112018093F1008091E8008E77BDCFC2
:104C40008091F801813201F78091FC019091FD0182
:104C5000892BD1F68091E800877F8093E8000E943D
:104C60006C288091FA01809312010C94AF1280910C
:104C7000F801813249F68091E800877F8093E8004F
:104C80000E946C288091FB018093E9010895809136
:104C9000F801813A09F0B8CF8091E800877F8093CE
:104CA000E8008091E80080FFFCCF8091E901C2CF4D
:104CB00084B7877F84BF0FB6F894A8958091600071
:104CC000886180936000109260000FBE80E880933E
:104CD0006100109261000E940B0E0E94BC280E948D
:104CE00019298091E20084608093E20089EF93E2C9
:104CF0000E94081978940E94A12B0E94130E88E04C
:104D000091E00E94660D84EB9BE00E940207809177
:104D1000F701853019F00E94430EF9CF80EB9BE03C
:104D20000E9402070E94F2198091F501882379F30D
:104D30000E94221A882359F30E941627E8CF0C9468
:104D4000A126292F33272330310521F168F42130A2
:104D5000310509F449C02230310509F44AC090E018
:104D600080E030E020E029C02132310581F122329B
:104D70003105A9F76330710590F7FB01EE0FFF1FB6
:104D8000E05EFE4F20813181635E7E4FFB018081BA
:104D900090E013C099278130910599F0009741F078
:104DA0008230910589F00397D1F6E9EDFBE002C06E
:104DB000E1E0FCE0849190E09F01FA0131832083DF
:104DC0000895E3EFFBE0F6CFEFEDFBE0F3CF6330C8
:104DD000710528F6660F771FFB01EA5DFE4F208103
:104DE000318189E090E0E9CF82E190E020E63CE08B
:104DF000E4CF8BE590E025E03CE0DFCF0895CF9352
:104E0000C82F0E94FE26C093EA01CF910895809199
:104E1000F701843011F482E0089581E008958091D3
:104E2000EA01811102C00C940727089580E189BD31
:104E300082E189BD09B400FEFDCF8091D8008F7D4D
:104E40008093D8008091E00082608093E0008091A0
:104E5000E00081FDFCCF0895AF92BF92CF92DF9228
:104E6000FF920F931F93CF93DF936C01EB018A01A5
:104E70000E948B28F82E811123C00115110539F0ED
:104E8000F80180819181C81BD90BC80ED91EB12CA5
:104E9000A12C2097A9F08091E80085FD22C0809187
:104EA000E8008E778093E80001151105A1F0F80164
:104EB00080819181A80EB91EB182A08285E0F82E72
:104EC0008F2DDF91CF911F910F91FF90DF90CF90A9
:104ED000BF90AF9008950E948B288823D1F2F82EBE
:104EE000EFCFF60181916F018093F1002197FFEFE1
:104EF000AF1ABF0ACECFFC018091FE019091FF0155
:104F000086179707A0F06115710529F49091E800C4
:104F10009E779093E80090E06115710551F491112E
:104F200008C08091E80082FF34C080E00895BC0191
:104F3000F2CF8091F7018823C1F18530C1F18091D2
:104F4000E80083FD30C08091E80082FDEACF8091C7
:104F5000E80080FFE1CF8091F3002091F200382F2C
:104F60006115710519F02830310558F091E02830AD
:104F7000310509F090E02091E8002E772093E800B9
:104F8000CBCF81918093F100615071092F5F3F4F2A
:104F9000E7CF8091F701882341F0853041F080917F
:104FA000E80083FFBECF81E0089582E0089583E0AA
:104FB0000895FC018091FE019091FF0186179707EB
:104FC000A0F06115710529F48091E8008E77809337
:104FD000E80090E06115710551F4911108C08091CD
:104FE000E80082FF35C080E00895BC01F2CF8091D7
:104FF000F7018823C9F18530C9F18091E80083FD6C
:1050000031C08091E80082FDEACF8091E80080FF06
:10501000E1CF8091F3002091F200382F61157105E6
:1050200019F02830310558F091E02830310509F0A9
:1050300090E08091E8008E778093E800CBCF849158
:105040008093F1003196615071092F5F3F4FE6CF99
:105050008091F701882341F0853041F08091E8008C
:1050600083FFBDCF81E0089582E0089583E0089535
:10507000982F973028F08F708093E90081E0089591
:105080009093E900242F762F50E0981731F070911B
:10509000EC002091ED005091F00021FD02C09F5FD7
:1050A000E8CF3091EB003E7F3093EB003091ED0084
:1050B0003D7F3093ED003091EB0031603093EB0099
:1050C0007093EC002093ED005093F0002091EE00DF
:1050D00027FDE5CF80E008958091F80187FF13C098
:1050E0008091E80082FF06C08091E8008B77809372
:1050F000E80004C08091F7018111F2CF08958091FA
:10510000F7018823D9F38091E80080FFF8CF8091E0
:10511000E8008E77ECCF2091E4003091E50095E631
:10512000A9012091EC00822F817020FF06C08091A0
:10513000E80080FF06C080E008952091E80022FD8D
:105140001AC08091F701882389F0853089F0809119
:10515000EB0085FD0FC02091E4003091E50042177F
:105160005307F9F29150E1F684E0089582E0089542
:1051700083E0089581E008950E942A290E9432293F
:10518000E0EEF0E0808181608083E8EDF0E08081F6
:105190008F77808319BCA7EDB0E08C918E7F8C93C4
:1051A00080818F7E80831092F60108950F931F9364
:1051B000CF93DF930E942A290E943229C8EDD0E0C4
:1051C00088818F77888388818068888388818F7DB4
:1051D000888319BC1092F7011092F3011092F50127
:1051E0001092F40100EE10E0F80180818B7F808343
:1051F00088818160888342E060E080E00E943828F6
:10520000E1EEF0E080818E7F8083E2EEF0E080814D
:1052100081608083808188608083F80180818E7FB7
:105220008083888180618883DF91CF911F910F9166
:105230000895E8EDF0E080818F7E8083E7EDF0E077
:1052400080818160808384E082BF81E08093F60169
:105250000C94D628E8EDF0E080818E7F8083109258
:10526000E20008951092DA001092E10008951F9272
:105270000F920FB60F9211242F933F934F935F938A
:105280006F937F938F939F93AF93BF93EF93FF930E
:105290008091E10082FF0BC08091E20082FF07C095
:1052A0008091E1008B7F8093E1000E9451258091E5
:1052B000DA0080FF19C08091D80080FF15C080916E
:1052C000DA008E7F8093DA008091D90080FF96C04B
:1052D00080E189BD82E189BD09B400FEFDCF81E096
:1052E0008093F7010E942A258091E10080FF19C078
:1052F0008091E20080FF15C08091E2008E7F809354
:10530000E2008091E20080618093E2008091D80009
:1053100080628093D80019BC85E08093F7010E94D9
:1053200047258091E10084FF2BC08091E20084FF3B
:1053300027C080E189BD82E189BD89B5982F917030
:1053400080FFFBCF8091D8008F7D8093D800809123
:10535000E1008F7E8093E1008091E2008F7E809358
:10536000E2008091E20081608093E2008091F3018D
:10537000882309F449C084E08093F7010E944B25FB
:105380008091E10083FF29C08091E20083FF25C066
:105390008091E100877F8093E10082E08093F701B4
:1053A0001092F3018091E1008E7F8093E100809163
:1053B000E2008E7F8093E2008091E2008061809322
:1053C000E20042E060E080E00E9438288091F00036
:1053D00088608093F0000E944325FF91EF91BF9178
:1053E000AF919F918F917F916F915F914F913F917D
:1053F0002F910F900FBE0F901F90189519BC10920F
:10540000F7010E943C2570CF8091E30087FD93E077
:105410009093F701B3CF1F920F920FB60F92112402
:105420002F933F934F935F936F937F938F939F93AC
:10543000AF93BF93CF93DF93EF93FF93D091E900A6
:10544000DF708091EC00C82FC17080FDC0E8109221
:10545000E9008091F000877F8093F00078940E94AB
:105460004F2A1092E9008091F00088608093F0004C
:10547000CD2BCF70C093E900FF91EF91DF91CF91D9
:10548000BF91AF919F918F917F916F915F914F915C
:105490003F912F910F900FBE0F901F9018951F9363
:1054A000CF93DF93CDB7DEB7AA970FB6F894DEBFE0
:1054B0000FBECDBF88EF91E02091F100FC01219358
:1054C000CF01F2E080309F07B9F70E94A1258091BB
:1054D000E80083FF1EC18091F8019091F9019A3094
:1054E00008F017C1E92FF0E0E158F34D0C94DC2BE4
:1054F000803899F0823809F00CC18091FC018F70DE
:10550000873008F006C18093E9008091EB0085FBAD
:10551000882780F91092E90006C08091F4019091EB
:10552000F501911182609091E800977F9093E800D7
:105530008093F1001092F1008091E8008E77E5C031
:10554000882309F4D3C0823009F0E3C08091FA01C6
:105550008111D6C08091FC018F702FEF280F26306B
:1055600008F0D7C08093E9002091EB0020FFC8C06D
:10557000933031F48091EB0080628093EB00C0C0E7
:105580009091EB0090619093EB0021E030E001C03E
:10559000220F8A95EAF72093EA001092EA008091A0
:1055A000EB008860EACF8111B4C01091FA011F7737
:1055B0008091E3008078812B8093E3008091E80064
:1055C000877F8093E8000E946C288091E80080FF2C
:1055D000FCCF8091E30080688093E30082E01111AA
:1055E00083E08093F70195C08058823008F091C025
:1055F0008091FA019091FB018C3D23E09207A1F587
:1056000083E08A838AE289834FB7F894DE01139698
:1056100020E03EE051E2E32FF0E050935700E491A8
:1056200020FF03C0E295EF703F5FEF708E2F90E098
:10563000EA30C0F0C7968D939D932F5F243159F7C0
:105640004FBF8091E800877F8093E8006AE270E0B6
:10565000CE0101960E947B278091E8008B77809392
:10566000E80057C0C096E7CF6091FC017091FD0142
:10567000AE014F5F5F4F0E949F26BC01892B09F44A
:1056800048C09091E800977F9093E80089819A81C3
:105690000E94D927E1CF8038E1F58091E800877F2B
:1056A0008093E8008091F3018093F10045CF811150
:1056B00030C09091FA01923060F58091E800877FC8
:1056C0008093E8009093F3010E946C288091F3018D
:1056D000882311F084E005C08091E30087FDFACFB4
:1056E00081E08093F7010E94922513C08091FA0116
:1056F000813079F481E0933009F080E08093F50106
:105700001092E9008091E800877F8093E8000E9472
:105710006C288091E80083FF0AC08091E800877FB1
:105720008093E8008091EB0080628093EB00AA9662
:105730000FB6F894DEBF0FBECDBFDF91CF911F91A2
:105740000895CF938091F7018823A1F0C091E900DB
:10575000CF709091EC00892F817090FD80E8C82B6C
:105760001092E9008091E80083FD0E944F2ACF70DB
:10577000C093E900CF910895991B79E004C0991F67
:10578000961708F0961B881F7A95C9F7809508959B
:1057900097FB072E16F4009407D077FD09D00E94DE
:1057A000E22B07FC05D03EF4909581959F4F08951C
:1057B000709561957F4F0895EE0FFF1F0590F4914E
:1057C000E02D0994AA1BBB1B51E107C0AA1FBB1FF8
:1057D000A617B70710F0A61BB70B881F991F5A957D
:1057E000A9F780959095BC01CD010895F999FECF58
:1057F00092BD81BDF89A992780B50895A8E1B0E0DF
:1058000042E050E00C942A2C262FF999FECF92BD4D
:1058100081BDF89A019700B4021639F01FBA20BD75
:105820000FB6F894FA9AF99A0FBE08950396272FA7
:105830000E94052C0E94042C252F0E94052C242F49
:105840000C94052C0196272F0E94052C0C94042CF7
:10585000DC01CB01FC01F999FECF06C0F2BDE1BD30
:10586000F89A319600B40D9241505040B8F708951F
:10587000F894FFCFE409F009F409F809FC09000ADB
:10588000040A080A0C0A100A140A180A1C0A200A38
:10589000240A280A2C0A300A4B104B10AA10AA100E
:1058A000F1100D11781078104F117810E711E711F1
:1058B0005212781078105B12F111F111F111F111FF
:1058C000F111F111F111F111F111F111F111F111C8
:1058D000F111F111F111F111FE110C1213121A1242
:1058E0002412BE12BE12C712C712C912C712C712A3
:1058F000C712BE12BE12CE12C712C712CE12782A1B
:10590000A02A892BA02A892BD32AF42A892B4B2B56
:02591000572B13
:10591200C4012808140A321EF623F724CC24962444
:105922005B240101020304050607080900408522E1
:0C593200190D940C720C170C300C490C71
:00000001FF
