:100000000C94C2030C9409040C9409040C94090484
:100010000C9409040C9409040C9409040C9409042C
:100020000C9409040C9409040C946B260C943E2740
:100030000C9486200C9409040C9409040C94090473
:100040000C9409040C9409040C9409040C940904FC
:100050000C9409040C94EC200C9409040C940904ED
:100060000C9409040C9409040C9409040C940904DC
:100070000C9409040C9409040C9409040C940904CC
:100080000C9409040C9409040C9409040C940904BC
:100090000C9409040C9409040C9409040C940904AC
:1000A0000C9409040C9409040C9409040763423667
:1000B000B79BD8A71A39685618AEBAAB558C1D3CF9
:1000C000B7CC5763BD6DEDFD753EF6177231BF00BD
:1000D0000000803F05A84CCDB2D44EB93836A902F5
:1000E0000C50B9918688083CA6AAAA2ABE00000036
:1000F000803F01280001520002E0616303E000023A
:10010000E07603E00002E0616303E00000571E00B8
:100110001F002000210022002300240025002600CB
:1001200027002D002E003100340035002B00140074
:100130001A000800150017001C0018000C0012001F
:1001400013002F00300000003100A800015104000E
:100150001600070009000A000B000D000E000F003A
:1001600033002A00320000002800A9000251E100FB
:100170001D001B00060019000500110010003600CC
:1001800037003800E50000005200AA00E000E3005C
:10019000E2000000000000002C00000000000351FD
:1001A000015132005000000051004F0035003A006C
:1001B0003B003C003D003E003F004000410042004B
:1001C0004300440045000100BF5CC25C0100010027
:1001D0000100010001000100010001000100010017
:1001E0000100010001000000BE5CC35C01000100D1
:1001F00001000100010001005000510052004F00B9
:100200000100010001000000BD5CC45C01000100B0
:1002100001000100010001000100010001000100D6
:100220000100010001000000C15CC95C0100010087
:1002300001000000000000000100000000000100BB
:100240000100010001000000D05CCA5C0100010057
:100250000100010001000100010001000100010096
:100260000100010001000100010001000100010086
:100270000100010001000100010001000100010076
:100280000100010001000000010001000100010067
:10029000010001000100010050014D014A014F0120
:1002A00001002A010100000001000100010001001D
:1002B0000100010001000100010001000100010036
:1002C0000100010001000000010001000100010027
:1002D000010000000000000001000000000001001B
:1002E00001000100010000000100010001001E0DDD
:1002F0001F0D200D210D0100010001000100010072
:1003000001000100010001000100010001000100E5
:1003100001000100010001000100010001000100D5
:10032000130D0100010000000100010001000100A7
:1003300001000100010001000B0D0D0D0E0D0F0D50
:1003400001000100010000000100010001000100A6
:1003500001000100060D01000100110D100D01004A
:100360000100010001000000010001000100010086
:10037000010000000000000001000000000001007A
:100380000100010001000000010001000100010066
:100390000100010001000100010001000100010055
:1003A0000100010001000100010001000100010045
:1003B0000100010001000100010001000100010035
:1003C0000100010001000000010001000100010026
:1003D000010001000100010050014D014A014F01DF
:1003E0000100010001000000010001000100010006
:1003F00001000100010001000100010001000100F5
:1004000001000100010000000100010001000100E5
:1004100001000000000000000100000000000100D9
:1004200001000100010000000100010000000000C7
:10043000000000002A2B280000000000000000003F
:100440000000000000000029000000002C1E3420E5
:10045000212224342627252E362D3738271E1F200B
:100460002122232425263333362E37381F04050650
:100470000708090A0B0C0D0E0F1011121314151694
:100480001718191A1B1C1D2F3130232D3504050692
:100490000708090A0B0C0D0E0F1011121314151674
:1004A0001718191A1B1C1D2F3130354C0000000085
:1004B000000000000000000000000000000000003C
:1004C0000000000000000000000000000001010129
:1004D0000101010001010101000000000000000015
:1004E0000000000000000100010001010101010104
:1004F00001010101010101010101010101010101EC
:1005000001010101010101000000010100000000E2
:1005100000000000000000000000000000000000DB
:1005200000000000000000010101010000047F3F05
:100530001F643214643214783C1E1E140A056801CC
:10054000F000B40078005A00000000000001010132
:100550000101010101010202020202020202020380
:10056000030303030303030404040404040505054F
:10057000050506060606060707070708080808090E
:1005800009090A0A0A0A0B0B0B0C0C0C0D0D0D0EB7
:100590000E0F0F0F10101111111212131314141546
:1005A0001516161717181819191A1A1B1C1C1D1DB9
:1005B0001E1F1F202021222223242525262727280D
:1005C000292A2B2B2C2D2E2F2F3031323334353638
:1005D000363738393A3B3C3D3E3F40414243444642
:1005E0004748494A4B4C4D4F505152535556575816
:1005F0005A5B5C5E5F606263646667696A6C6D6EBD
:10060000707173747678797B7C7E80818384868830
:100610008A8B8D8F91929496989A9B9D9FA1A3A56A
:10062000A7A9ABADAFB1B3B5B7B9BBBDBFC1C4C668
:10063000C8CACCCFD1D3D6D8DADCDFE1E4E6E8EB28
:10064000EDF0F2F5F7FAFCFF0403300000000A03B6
:10065000780032003600380000000E034E006F00B4
:1006600078006100720079000000040309040902A7
:100670005400030100A0FA09040000010301010075
:100680000921110100012240000705810308000A29
:1006900009040100010300000009211101000122E9
:1006A00036000705820308000A090402000103005E
:1006B00000000921110100012239000705830320F0
:1006C00000011201100100000008584E4400F20021
:1006D0000102030105010906A101050719E029E747
:1006E00015002501950875018102050819012905E4
:1006F0009505750191029501750391010507190092
:1007000029F71500250195F875018102C005010939
:1007100080A10185021601002603001A81002A83A8
:1007200000751095018100C0050C0901A101850328
:10073000160100269C021A01002A9C0275109501E0
:100740008100C005010906A101050719E029E71587
:100750000025019508750181029501750881010543
:1007600008190129059505750191029501750391F7
:10077000010507190029FF150026FF0095067508D9
:100780008100C00011241FBECFEFDAE0DEBFCDBF75
:1007900004B603FE27C08091AD029091AE02A091F5
:1007A000AF02B091B0028730904BA740B04BD1F46C
:1007B0001092AD021092AE021092AF021092B002EF
:1007C00014BE84B7877F84BF0FB6F894A895809134
:1007D0006000886180936000109260000FBEE0E0CE
:1007E000F8E3099511E0A0E0B1E0E4EAFAE502C01F
:1007F00005900D92A835B107D9F722E0A8E5B1E040
:1008000001C01D92AD3AB207E1F70E9498230C9403
:10081000012D0C9400000C941B040C941C040C94EB
:100820001D0481FF03C0209A289A089520982898D3
:1008300008950C941104089508959C01FB01828190
:10084000882321F12F3DFCE53F0799F020F42E3D50
:100850003C4549F00895203EFCE53F0769F0213E04
:100860003C4569F0089585E091E00E941C0580E018
:1008700008958FEF90E0F9CF88EF90E0F6CF85EF05
:1008800090E00E941C0582EF90E0EFCF81E0089598
:100890000F931F93CF93DF938C01EB019A958115F2
:1008A0009F4138F510FF03C080EEFB01099511FF51
:1008B00003C081EEFE01099512FF03C082EEFE0126
:1008C000099513FF03C083EEFE0109950115104140
:1008D00080F084EEFE01099585EEFE01099586EE15
:1008E000FE01099587EEFE01DF91CF911F910F91D7
:1008F0000994DF91CF911F910F910895877091E036
:1009000001C0990F8A95EAF7892F0E940F1F0C9456
:10091000C61E0C947E04877091E001C0990F8A95E1
:10092000EAF7892F0E94151F0C94C61E0C948B04A5
:10093000CF93DF93EC01805E9109089720F06EE77A
:1009400074E0209711F469E874E0CE010E94480435
:100950008C2FDF91CF910C943815CF93DF93EC015E
:100960000E942F16CE01805E9109089720F06BE857
:1009700074E0209711F466E974E0CE01DF91CF9125
:100980000C94480481E00895CF9390E0FC01E45D6D
:10099000FB4FC49184559B4FFC018491882369F0DF
:1009A00081EE0E9438158C2F0E9438158C2F0E94E2
:1009B0002F1681EECF910C942F168C2F0E94381594
:1009C0008C2FF8CFFF920F931F93CF93DF938C015F
:1009D000F62EF8018491882349F1E80121968130AF
:1009E00049F4FE011491812F0E943815812F0E9435
:1009F0002F1606C0823089F4FE0184910E943815BA
:100A00008E010F5F1F4F8F2D815018F3EFE9FFE02C
:100A10003197F1F700C00000F7CF833019F4FE01E1
:100A20008491E5CF0E94C404E801EACFDF91CF9121
:100A30001F910F91FF90089560E00C94E2040E94D2
:100A40009D130C940D04CF92DF92EF92FF928430AD
:100A500028F5811124C090918000977F90938000A9
:100A6000282F30E0AFEFBFEF0E94922C23E030E060
:100A700040E050E00E946A2CC9012C3764E136073F
:100A800090F469E070E00E94422C70938D006093B6
:100A90008C00FF90EF90DF90CF90089583E09091CD
:100AA00080009860DBCF2A50374D4F4F5F4F942F17
:100AB000832F722F662725EF38E241E050E00E9435
:100AC0006A2C69017A01CA01B9010E94322C9B018A
:100AD000AC01C701B6010E94322C672F782F892FF5
:100AE00099276115710521E08207910571F66FEF75
:100AF0007FEFCBCF279A2F988AE08093800089E1FF
:100B0000809381008FEF9FEF909387008093860002
:100B10000C944D210E94381F811102C00E94AF1F0A
:100B20000E947A050C940B040C94190408950E94F9
:100B300001190E9496052FEF84E39CE0215080402C
:100B40009040E1F700C000000C941021FF920F9339
:100B50001F93CF93DF938C01FC01C081D1818091E1
:100B6000A701811154C08281882309F44BC0CE01B2
:100B70000E94121EF82E682FCE010E94BF1DBE01DA
:100B80008F2D0E945F08EC01B8010E94FF12B8018E
:100B9000CE010E940F04882309F4E9C0B801CE01F8
:100BA0000E944313882309F4E2C0CC3CFCE5DF0734
:100BB00009F42EC108F071C0C43C9CE5D90709F4C2
:100BC00000C108F048C0C531FCE5DF0728F5C23098
:100BD0008CE5D80708F09CC1C1159CE5D90709F43C
:100BE000C1C0C130DC4509F4C9C081E080935D011A
:100BF00080935E01C801DF91CF911F910F91FF900B
:100C00000C94C204CE010E94EB1DF82EB8CFCE0189
:100C10000E94121EBE01B5CFC23CFCE5DF0709F4FD
:100C2000BEC008F0C3C0C631DC45F9F60E94F91E0B
:100C3000F8019281992309F434C28A7A91E009F487
:100C400090E09093580181112AC289E20E94821E8D
:100C50000E94C61E8CC0F8018281C83CFCE5DF07FB
:100C600009F4C4C068F4C63CECE5DE0709F4B9C079
:100C700008F4B2C0882309F47AC00E94210E77C01C
:100C8000CA3C9CE5D90709F4BDC008F4B5C0882367
:100C900009F46DC00E94C10C6AC0C43DFCE5DF07C9
:100CA00009F414C170F5F8018281C03DFCE5DF074D
:100CB00009F4D0C0D8F4CE3CECE5DE0709F4B7C0A7
:100CC00008F4AEC0882309F452C00E94B30C663009
:100CD00071058105910540F00E94B30C68307105E3
:100CE0008105910508F475C086E09EC0C23D9CE573
:100CF000D90709F4D7C008F4C1C08823C1F188E13D
:100D000093C0C83DFCE5DF0709F4AEC1B0F4F801BB
:100D10008281C63DFCE5DF0709F46CC108F4ECC034
:100D2000882309F48CC110925E010E94B620909332
:100D30005C0180935B0180E268C1CC3DECE5DE079D
:100D400009F4DFC0CD3DFCE5DF0711F1CB3DDC450B
:100D500009F04BCFF8018281882349F080E00E949E
:100D6000352405C0F801828181110E94970580E039
:100D7000DF91CF911F910F91FF900895F80182812B
:100D80008823A9F380913F02816080933F02EFCFD7
:100D9000F8018281882359F30E94AF1FE8CFF80140
:100DA0008281882321F30E94360FE1CFF8018281EE
:100DB0008823E9F20E94F91E827259F00E94D80E2F
:100DC000D6CFF8018281882391F20E94F91E8272A7
:100DD000A9F30E94CE0ECBCF882349F20E94EA0DE0
:100DE000C6CF882321F20E94020EC1CF882309F4C6
:100DF000BECF0E94390EBBCF882309F4B8CF0E9422
:100E0000510EB5CF882309F4B2CF0E94690EAFCF3F
:100E1000F8018281882309F4AACF0E94D60CA7CFBB
:100E2000882309F4A4CF81E00E94CB0EA0CF8823B1
:100E300009F49DCF0E94B30C6230710581059105C4
:100E400038F00E94B30C653071058105910508F2F8
:100E500082E0EACF882309F48ACF0E94B30C69307C
:100E600071058105910540F00E94B30C6E3071054B
:100E70008105910508F4ADCF89E0D6CF882309F428
:100E800076CF0E94B30C6F3071058105910540F05B
:100E90000E94B30C643171058105910508F499CF66
:100EA0008FE0C2CF882309F462CF0E94B30C653172
:100EB00071058105910540F00E94B30C6731710501
:100EC0008105910508F485CF85E1AECFF8018281D7
:100ED000882309F44CCF0E94B30C69317105810558
:100EE000910540F00E94B30C6232710581059105B5
:100EF00008F46FCF89E198CF882309F438CF83E2D3
:100F000093CFF8018281882309F431CF82E027CF83
:100F1000F8018281882309F46DCE0E94381F811167
:100F200002C00E94AF1F0E944B1F90E090939E0250
:100F300080939D02FE01E350FC4580919D028160FB
:100F4000E231F10538F4ED5FF24D0C948C2C809178
:100F50009D02826080939D0280919D020E944F1F9E
:100F60000E94011904CF80919D028460F3CF80918B
:100F70009D028860EFCF80919D028061EBCF8091D0
:100F80009D028062E7CF80919D028064E3CF8091D3
:100F90009D028068DFCF80919D028C60DBCF8091C5
:100FA0009D028E7FD7CF80919D028D7FD3CF809180
:100FB0009D028B7FCFCF80919D02877FCBCF809189
:100FC0009D028F7EC7CF80919D028F7DC3CF809180
:100FD0009D028F7BBFCF80919D028F77BBCF809189
:100FE0009D02837FB7CF90919D02892F97FB87F950
:100FF0008058B0CF882361F010925D010E94B62026
:1010000090935A018093590182E00E947E16AFCEE0
:1010100080915D0181110FC08091590190915A0119
:101020000E94C220883C910530F486E20E94381567
:1010300086E20E942F1682E00E94851698CE80914B
:101040005E0181110FC080915B0190915C010E9453
:10105000C220883C910530F487E20E94381587E26F
:101060000E942F1680E2E8CFF801828181115BCEC9
:1010700080915E018111F6CF80915B0190915C01BE
:101080000E94C220883C910568F780E20E94851684
:1010900088E20E94381588E20E942F1668CE85E308
:1010A000D5CD80915801811104C089E20E94891E2A
:1010B000CFCD85E3FBCF90E080E008950895E72F42
:1010C000F0E095E0899FE00DF11D112484E0EE0F22
:1010D000FF1F8A95E1F7E60FF11DEE0FFF1FE45F9A
:1010E000FE4F859194910895FC01EE0FFF1FE45D82
:1010F000FA4F859194910895CF93DF930E945F08F2
:101100000E944D0AEC01811521E5920708F049C0C3
:10111000811530E5930708F021C1883E910508F557
:10112000803E910570F5883A910570F4853A9105F5
:1011300008F0A7C08130910521F1009711F10497C3
:1011400000F5D0E0C0E01DC08D3B910508F4A4C0BF
:10115000805C9109C03CD105A0F30E947408EC01A9
:1011600010C08115904388F4C11580E2D80708F0BB
:10117000ECC0C03FD10528F3CF3FD10509F008F4FA
:10118000E2C0CE01DF91CF910895C11590E4D90757
:1011900008F0E1C0CE019927D3FFDAC0EC01D86C8A
:1011A000F0CF811529E5920740F5811538E59307C1
:1011B00008F01AC1811544E5940778F4C11583E558
:1011C000D80708F0F8C0C11592E5D90708F0E2C0C9
:1011D000DC2FCC27C16FD06AD4CF811525E59207CB
:1011E00008F4FDC0811536E5930708F0AACFD82F83
:1011F000CC27CC27DF71D062C4CF8D3B9C4509F44E
:10120000F8C0CE3B8CE5D807B8F4CB3B9CE5D907BA
:1012100009F4F2C008F0F3C0C1153AE5D30708F0AD
:1012200090CFCE0134E0969587953A95E1F78F708F
:10123000CF70C06ED82F90C0C03C4CE5D40709F4E5
:10124000E1C060F4CE3B9CE5D90709F4DEC0CF3B9A
:10125000DC4509F076CFC0E0D2ED93CFCE019056B9
:101260008115904208F06DCF8D2F8F710E94C80AB2
:1012700090E0982F882788279F719C012C2BE901EB
:10128000BACF853A910509F4C3C0863A910509F0B1
:10129000C2C0C2E8D0E475CF883A910509F4BEC057
:1012A000893A910509F4BDC08A3A910509F4BCC098
:1012B0008B3A910509F4BBC08C3A910509F4BAC088
:1012C0008B3B910509F4B9C08C3B910509F4B8C07A
:1012D0008D3A910509F4B7C0803B910509F4B6C079
:1012E0008E3A910509F4B5C08F3A910509F4B4C05E
:1012F000813B910509F4B3C0823B910509F4B2C06A
:10130000833B910509F4B1C0843B910509F4B0C059
:10131000853B910509F4AFC0863B910509F4AEC049
:10132000873B910509F4ADC0883B910509F4ACC039
:10133000893B910509F4ABC08A3B910509F4AAC029
:10134000C0E0D4E41ECFD0651CCFCE019F7005CF86
:10135000EC01D06C16CFDF70D06A13CFE4E0969525
:101360008795EA95E1F783702C2F269526952370B3
:1013700040E2249F90011124382B8C2F8370C1E010
:10138000D0E002C0CC0FDD1F8A95E2F7C22BD32B31
:10139000DC68F7CECE018370992721E030E002C0EF
:1013A000220F331F8A95E2F7C695C69580E2C89F43
:1013B000E0011124EBCFCE018370992721E030E0CA
:1013C00002C0220F331F8A95E2F7C695C69590E2B8
:1013D000C99FE0011124C22BD32BDA68D2CED82FBB
:1013E000CC27C46FD06ACDCED82FCC27C06FD06A9F
:1013F000C8CEC0E0D1EDC5CEC0E0D4EDC2CEC0E0D5
:10140000D5EDBFCEC0E0D3EDBCCEC0E0D0EDB9CEBF
:10141000C1E8D0E4B6CEC3E8D0E4B3CEC2EED4E4A3
:10142000B0CEC9EED4E4ADCECAEED4E4AACEC5EBBC
:10143000D4E4A7CEC6EBD4E4A4CEC3EBD4E4A1CECF
:10144000C4EBD4E49ECEC7EBD4E49BCECCECD4E486
:1014500098CECDECD4E495CEC3E8D5E492CECAE8DC
:10146000D5E48FCEC2E9D5E48CCEC4E9D5E489CEEB
:10147000C1E2D6E486CEC3E2D6E483CEC4E2D6E4AB
:1014800080CEC5E2D6E47DCEC6E2D6E47ACEC7E20F
:10149000D6E477CECAE2D6E474CE8238910549F11B
:1014A000B0F48133910509F462C048F489329105A2
:1014B00009F456C08A32910509F460C00895853355
:1014C000910509F446C08933910599F00895833E4A
:1014D000910531F138F4803E910591F0823E9105FD
:1014E000B1F00895863E910521F1873E910551F1B5
:1014F000089520919D022370D9F080EE90E0089528
:1015000020919D0220FF14C089E390E0089520916E
:101510009D0222FF0DC024FD09C083EE90E00895D6
:1015200020919D0222FD31C024FF02C090E080E0A6
:10153000089520919D0223FFFBCF24FDF7CF87EE76
:1015400090E0089520919D0223FFEECF86EE90E07B
:10155000089520919D0225FFEBCF89E290E0089548
:1015600020919D0225FFE4CF85E390E0089520912E
:101570009D0226FFDDCF8AE290E0089520919D0232
:1015800026FFD6CF81E390E0089582EE90E00895A3
:1015900090919D0292FF06C0282F2871283069F48F
:1015A000877F846093FF06C0282F2871283161F45B
:1015B000877E846194FD877E0895282F24712430CE
:1015C00089F78B7F8860EECF282F2471243191F723
:1015D0008B7E8861EFCFCF93DF93A3E4B1E028E463
:1015E00031E061E070E09D91E92FE295EF70F0E06D
:1015F00041A19F70EB0102C0CC0FDD1F9A95E2F76D
:10160000CE018095842381A32A173B0761F7A3E3CA
:10161000B1E061E070E08D91E82FE295EF70F0E0CD
:1016200041A18F709B0101C0220F8A95EAF7922F8A
:101630009095942391A382A1822B82A3D1E0A3341D
:10164000BD0749F710926A0110926901109260017A
:1016500010925F0110926C0110926B011092620166
:101660001092610110926E0110926D01109264014E
:10167000109263011092700110926F011092660136
:10168000109265011092720110927101109268011E
:1016900010926701DF91CF910C948A054F925F926F
:1016A0007F928F929F92AF92BF92CF92DF92EF92F2
:1016B000FF920F931F93CF93DF939FE5492E91E005
:1016C000592E23E4E22E21E0F22E01E010E09924CD
:1016D0009394E201A990B9902E01DE011E921E9210
:1016E000F70181917F01E82FE295EF70F0E091A181
:1016F0008F70980101C0220F8A95EAF7892F822BFB
:1017000081A382A1822E8094882182A380EA8A9577
:10171000F1F783E3C82E81E0D82E90E080E0E60167
:1017200079916E01472F42954F7050E0EA0178A001
:101730004D915C9111977F70E80102C0CC0FDD1FC5
:101740007A95E2F7BE01672109F072C0B801082E50
:1017500002C0660F771F0A94E2F7462B572B1196AB
:101760005C934E93019680319105C9F681A1882240
:1017700081A282A1282B22A38D919C91A816B90643
:1017800041F0909273010E94B6209093750180936E
:101790007401D9E64D16D1E05D0609F09ACF80912B
:1017A0007301882391F180917401909175010E94D9
:1017B000C220069750F180915F0190916001909353
:1017C0006A01809369018091610190916201909317
:1017D0006C0180936B0180916301909164019093FF
:1017E0006E0180936D0180916501909166019093E7
:1017F000700180936F0180916701909168019093CF
:10180000720180937101109273010E941F0581E0A3
:10181000DF91CF911F910F91FF90EF90DF90CF90CC
:10182000BF90AF909F908F907F905F904F90089562
:1018300070E060E092CFE82FF0E0EE0FFF1FE75975
:10184000FE4F8081918108950895CF92DF92EF92AB
:10185000FF920F931F93CF93DF93E901662309F45F
:1018600066C0E42EF12CEFEFF0E0E61BF109EE9DEF
:101870008001EF9D100DFE9D100D1124212FE12FF1
:10188000FF27EE1AFF0A5CE3C52ED12CB6010E9499
:10189000422CFB01BC01E69EC001E79E900DF69E26
:1018A000900D1124B6010E94422CE230F10589F11D
:1018B00068F4812F262F210F309781F0242F461BAB
:1018C000319761F080E020E040E008C0E430F105AD
:1018D00051F128F1842F861B3597A1F7E42FF0E012
:1018E000E85BFA4F4491E22FF0E0E85BFA4F949105
:1018F000E82FF0E0E85BFA4FE49149839883EA83AC
:10190000DF91CF911F910F91FF90EF90DF90CF90DB
:101910000895862F810FE42F412F2E2FDFCFE42F44
:10192000E61B842FF9CF842F462F410FD7CF842F6A
:10193000242FD4CF88E090E00C94C12CAB01BC01E3
:1019400088E090E00C94DF2CE4E6F2E083E0808312
:1019500011828FEF828383831482608171818281FF
:1019600093810C949E0C6091640260FF06C06695A2
:101970006F7370E090E080E0089560E070E0CB016C
:1019800008958091680290E001968430910514F0EA
:1019900083E090E080936802609164027091650238
:1019A00080916602909167020C949E0C809168026F
:1019B0008150990B97FF02C090E080E08430910540
:1019C00014F083E090E0809368026091640270916B
:1019D000650280916602909167020C949E0C809142
:1019E0006402E9E6F2E080FF06C060E170E089E6AB
:1019F00092E00C946E12118210821282339682E071
:101A0000E939F807C1F7F1CF9091640290FF0CC05B
:101A1000E9E6F2E0818360834283339692E0E9391C
:101A2000F907C1F70C94EF0C0895CF93DF9300D022
:101A30000F92CDB7DEB72091640220FF0AC09E014D
:101A40002F5F3F4F0E94250C4B8169818A810E9444
:101A5000040D0F900F900F90DF91CF9108955F923A
:101A60006F927F928F929F92AF92BF92CF92DF92AE
:101A7000EF92FF920F931F93CF93DF9300D00F92BB
:101A8000CDB7DEB78C01E62EF42E522E8091640283
:101A900080FF2FC0982F9E779230F1F59E012F5F27
:101AA0003F4FC8010E94250C4B8169818A810E94A9
:101AB000040D8091640200FB87F980936402902FEB
:101AC0009695809165028078892B10FB87F9809329
:101AD0006502E0926602F0926702552051F0609133
:101AE00064027091650280916602909167020E9483
:101AF0009E0C0F900F900F90DF91CF911F910F913F
:101B0000FF90EF90DF90CF90BF90AF909F908F901D
:101B10007F906F905F900895E82FE695EF739EE3B6
:101B20009E0F9F73943018F4F0906702C2CF9AE32F
:101B30009E0F9F73993068F4881F8827881F9091A3
:101B40006502292F220F022F082B97FB112710F96E
:101B5000B0CF87E28E0F8F738A3008F0AACFE95199
:101B6000FF0B21E0E0FD2FEFEE7FE25CFA4F859165
:101B7000949134E0969587953A95E1F7AC0124036A
:101B80004001259F900C1124580158E9A51A5EEFD9
:101B9000B50A49E6C42E42E0D42E58E6652E7724D5
:101BA0007394C501B3010E94422C96014F2D6E2DF6
:101BB0000E94250CA80CB91C83E0C80ED11C49E971
:101BC000C41642E0D40669F70E94EF0C72CF21E000
:101BD0000C942F0DE4E6F2E02081221F2227221F21
:101BE00030916502432F440F842F822B37FB9927B6
:101BF00090F9409668E671E00E94562C438162811C
:101C00000C94E70D20916402221F2227221F30919D
:101C10006502432F440F842F822B37FB992790F9BD
:101C20008031910540F4885A9E4F4091670260913F
:101C300066020C94E70D409768E671E00E94562C0E
:101C4000F4CF60916602603F90F4605F809164021F
:101C5000881F8827881F90916502292F220F97FBE4
:101C6000992790F940916702822B0C94E70D6FEF52
:101C7000EDCF60916602603190F060518091640216
:101C8000881F8827881F90916502292F220F97FBB4
:101C9000992790F940916702822B0C94E70D60E040
:101CA000EDCF40916702403F90F4405F8091640225
:101CB000881F8827881F90916502292F220F97FB84
:101CC000992790F960916602822B0C94E70D4FEFF3
:101CD000EDCF40916702403190F040518091640215
:101CE000881F8827881F90916502292F220F97FB54
:101CF000992790F960916602822B0C94E70D40E0E1
:101D0000EDCF20E00C942F0DCF939091640290FFC3
:101D100040C09178811131C0926090936402662333
:101D200051F0609164027091650280916602909119
:101D300067020E949E0CC09164026C2F66956F73BF
:101D400070E04BE050E08AE191E00E94AC2C892BDE
:101D5000E1F010929301CC1FCC27CC1F909165022B
:101D6000892F880F97FB992790F94091670260911E
:101D700066028C2BCF910C94810E853210F0986402
:101D8000CCCF8F73880F982BC8CF81E080939301BD
:101D9000E2CFCF91089561E00C94840E80916402AB
:101DA00086958F738F5F853208F081E00C94CB0E9F
:101DB0008091640286958F73815009F484E20C94BB
:101DC000CB0EE4E6F2E080818160808386958F739C
:101DD0000C94CB0E60E00C94840E80913F028160E5
:101DE00080933F020E94381F811104C00E94AF1FE0
:101DF0000E94A40C0E949A0C609364027093650286
:101E000080936602909367026E7761F40E94A40C3F
:101E10000E949A0C6093640270936502809366023C
:101E20009093670281E0809393018091640280FF28
:101E300004C086958F730C94EA0E0895E4E6F2E0F0
:101E400080818E7F808360817181828193810E94F5
:101E50009E0C109293012FEF80E792E0215080407A
:101E60009040E1F700C000000C94EF0C80916402F8
:101E700080FD0C941E0F0C94E10ECF93C82F80911F
:101E80009101909192010E94C220EC2FF0E0E65C5B
:101E9000FA4FE491E817190611F008F042C00E94C9
:101EA000B62090939201809391016091900170E02F
:101EB00090E080E00E94332A20E030E04FE753E4D6
:101EC0000E9456292BED3FE049E450E40E945C2B30
:101ED0000E94C92B0E94D0292BE43AE34EE25FE333
:101EE0000E94E92820EF3BEF48ED52E40E945C2B72
:101EF0000E94022A462F80916402881F8827881F2B
:101F000090916502292F220F97FB992790F96091F4
:101F10006602822B0E94150D809190018F5F809345
:101F20009001CF910895CF93C82F80918E01909109
:101F30008F010E94C220EC2FF0E0E95CFA4FE4919F
:101F4000E817190609F0E8F40E94B62090938F0173
:101F500080938E01409167026091660280918C01AE
:101F600090918D010E94150D80918C0190918D01B1
:101F7000019668E671E00E94422C90938D01809357
:101F80008C01CF910895DF92EF92FF920F931F93F0
:101F9000CF93DF93D82E80918A0190918B010E947C
:101FA000C220ED2DE695F0E0EC5CFA4FE491E817E5
:101FB000190609F0A8F50E94B62090938B01809332
:101FC0008A0109E612E0D0E0C0E088E6E82EFF24AE
:101FD000F39480918801909189018C0F9D1FB70126
:101FE0000E94422C980140916702609166020E9413
:101FF000250C66960D5F1F4FC03681E0D80749F764
:102000000E94EF0C8091880190918901D0FE10C050
:102010000196B7010E94422C909389018093880118
:10202000DF91CF911F910F91FF90EF90DF90089576
:102030000197F2CFCF92DF92EF92FF920F931F930F
:10204000CF93DF93C82FFF24FA9480FD02C0FF24B2
:10205000F39480918601909187010E94C220C695D9
:10206000EC2FF0E0EF5CFA4FE491E817190611F05D
:1020700008F050C00E94B62090938701809386019B
:10208000C9E6D2E010E000E0198218821A8294E0DA
:10209000C92ED12CE12C809185018E0D87FD805FAA
:1020A000082E000C990B80179107E9F480916702C4
:1020B0008C9DA0018D9D500D1124559547955595EA
:1020C000479580916402881F8827881F9091650238
:1020D000592F550F97FB992790F99E016091660241
:1020E000852B0E94250CEF0C81E0C81AD10899F6C7
:1020F0000F5F1F4F23960031110531F60E94EF0C40
:102100008091850191E0F91210C081110CC08FE01F
:1021100080938501DF91CF911F910F91FF90EF90F8
:10212000DF90CF9008958150F3CF90E001968F70AB
:102130009927EECF0F931F93CF93DF93C82F8091F2
:102140008301909184010E94C220EC2FF0E0E25DB7
:10215000FA4FE491E817190611F008F052C00E94F6
:10216000B6209093840180938301C9E6D2E0FE01FA
:10217000118210821282339682E0E939F807C1F7A2
:1021800010E000E080918201082E000C990B0817E6
:102190001907E4F180911901082E000C990B8017A2
:1021A0009107A4F180916402881F8827881F90916D
:1021B0006502592F550F97FB992790F99E01409181
:1021C000670260916602852B0E94250C0F5F1F4FEE
:1021D000239600311105B1F60E94EF0C8091180191
:1021E00090918201980F9093820120911901280FFC
:1021F00020931901121614F49F301CF081958093DE
:102200001801DF91CF911F910F91089519821882C3
:102210001A82DCCFEF92FF920F931F93CF93DF933D
:1022200080918001909181010E94C220883E93405C
:10223000C8F10E94B6209093810180938001C091E3
:102240007E01D0917F012196C170DD27D0937F015F
:10225000C0937E0189E6E82E82E0F82E10E008E7C0
:10226000812F86958C0F9D2F911D81709927970145
:102270004091670260916602FC010E9FC0010F9FB2
:10228000900D11240E94250C1F5FF3E0EF0EF11C4E
:10229000103131F7DF91CF911F910F91FF90EF90A7
:1022A0000C94EF0CDF91CF911F910F91FF90EF9065
:1022B0000895CF93DF9300D00F92CDB7DEB7809112
:1022C0007C0190917D010E94C220ECE2F5E0259115
:1022D000349182179307C0F180917B0181110CC06A
:1022E0009E012F5F3F4F4FEF6FEF90E080E00E9425
:1022F000250C8A8180937B010E94B62090937D01FA
:1023000080937C0180917A01813071F0882339F0CB
:1023100040E0823011F440917B0180E003C0809165
:102320007B0140E060E004C060917B0140E080E020
:102330000E94040D80917A0190E0019663E070E0C4
:102340000E94562C80937A010F900F900F90DF918E
:10235000CF9108950F931F93CF93DF9380917801CE
:10236000909179010E94C220843F9140D8F10E944F
:10237000B6209093790180937801C9E6D2E010E00D
:1023800000E0409176015091770160916602809162
:102390006402282F221F2227221F90916502892F75
:1023A000880F822B97FB992790F908301105FCF4D0
:1023B000452BF9F09E01409167020E94250C0F5FAA
:1023C0001F4F239600311105E1F60E94EF0C80911A
:1023D000760190917701019681709927909377010A
:1023E00080937601DF91CF911F910F910895452B36
:1023F00009F39E0140E0E1CF809193018823D1F160
:1024000090916402892F86958F732EE3280F2F7386
:10241000243018F482500C943D0F2AE3280F2F73B8
:10242000233018F486500C94930F27E3280F2F7352
:10243000263018F489500C94C30F21E3280F2F7312
:10244000263018F48F500C941A102BE2280F2F739B
:10245000233018F485510C949A109E77903311F420
:102460000C940A11963411F40C945911983411F407
:102470000C94AA11089535B1242F2095232335B14A
:10248000432B3FB7F894680F791F8617970711F40D
:102490003FBF0895FC015191CF01E8E045B900002C
:1024A00000C057FF25B9550F000000C000C000C094
:1024B00025B900C0EA9591F7E8CF24B1242B24B9BF
:1024C0009B01220F331F620F731F0E943B1287EC88
:1024D00090E00197F1F700C00000089540E20C94ED
:1024E0005D12CF93DF93EC0181E08F878F810E9493
:1024F000FC1E88850E940F1F0E94C61EEA81FB8178
:10250000309739F06A897B89CE010696DF91CF91A9
:102510000994DF91CF910895CF93DF93EC018881E7
:10252000823039F4FB01828193810E94980481E01A
:102530008987DF91CF910895FC018081813029F452
:10254000FB01808191810C949804823021F4FB017D
:1025500082819381F8CF0895FC018081813029F434
:10256000FB01808191810C94AD04823021F4FB0148
:1025700082819381F8CF0895EF92FF920F931F937A
:10258000CF93DF93EC018885811132C0EB80FC8012
:1025900087E5F81A24E12E9DC0012F9D900D11248E
:1025A000DC01A050BF4F1496ED91FC911597309728
:1025B00031F052966D917C918A5F9E4F099584E12E
:1025C0008E9D80018F9D100D112400501F4FF8012A
:1025D00087810E94021FF80180850E94151F0E94BA
:1025E000C61E18821F8219861092950110929401BE
:1025F000DF91CF911F910F91FF90EF900895DF929F
:10260000EF92FF920F931F93CF93DF937C01FB0117
:102610008281882391F0809125018F3F71F0C0E085
:10262000D1E010E000E0DD24D39480912501082E54
:10263000000C990B8017910744F4DF91CF911F9103
:102640000F91FF90EF90DF9008958E818823B9F06D
:1026500089859A858E159F0539F480919401909112
:1026600095018E159F0559F0DD868F85811103C078
:10267000CE010E947112CE0106960E94BC120F5F1D
:102680001F4F6496D2CFEF92FF920F931F93CF9379
:10269000DF937C0197558F3F910509F0D8F5209184
:1026A0002501022E000C330B2817390714F48093F0
:1026B0002501FB01228134E1389F8001399F100DF3
:1026C0001124E801C050DF4F2E8792818E8199231B
:1026D00049F1FA86E9868F5F8E830E94B6209C8737
:1026E0008B870E94351F8F830E94F91E88870E9466
:1026F0000C1F9885892B8887E881F981309731F004
:102700006A897B89C8018A5F9E4F0995F09295017D
:10271000E092940181E0DF91CF911F910F91FF90A2
:10272000EF9008958823B1F38F85882399F3C8012A
:102730008A5F9E4F0E94BC12EDCFEF92FF920F93E3
:102740001F93CF93DF938091250110E004E18F3F29
:10275000C1F5DF91CF911F910F91FF90EF900895F8
:10276000029FF001039FF00D1124E050FF4FE0881D
:10277000F188E114F10419F488ECE82EF12C029FA1
:10278000E001039FD00D1124C050DF4F8E818823BC
:10279000B9F08B859C850E94C220E816F90680F46A
:1027A000109F700111248F85811105C0C7018050D1
:1027B0009F4F0E947112C7018A5F9E4F0E94BC12F8
:1027C0001F5F212F30E080912501082E000C990B0E
:1027D000821793072CF6BDCF90939B0180939A01AB
:1027E0000895E0919A01F0919B01309721F00190BA
:1027F000F081E02D099480E00895E0919A01F09134
:102800009B01309721F00280F381E02D0994089517
:1028100020919801309199012817390771F0909310
:10282000990180939801E0919A01F0919B01309772
:1028300021F00680F781E02D0994089520919601FA
:10284000309197012817390771F090939701809381
:102850009601E0919A01F0919B01309721F000845C
:10286000F185E02D0994089585B7806885BF85B707
:10287000806885BF089508950E9434140C943B1419
:1028800081E008950E94AD200E94EB0A0E9434214D
:102890000E944D210C94ED0E5F926F927F928F9269
:1028A0009F92AF92BF92CF92DF92EF92FF920F93DF
:1028B0001F93CF93DF93CDB7DEB72A970FB6F89467
:1028C000DEBF0FBECDBF0E944E0B0E944014882376
:1028D00009F478C09DE9A92E91E0B92E10E000E03E
:1028E00088248394912C502E802F0E941B0C7C01F5
:1028F000F501C190D1905F01C816D90609F45CC0FA
:1029000080913F0281FD0E94240C90E080E0CE2463
:10291000DF243401082E02C0660C771C0A94E2F70B
:10292000960126213721232B09F441C08E835F8233
:10293000E620F72081E0EF2809F480E088870E94F4
:10294000B6208160782F9A8789874E815F8168855C
:102950008A850E940915000F111FF801E356FE4FEA
:102960008081918168267926718260820E94F113AC
:1029700090919C018917B9F10E94F11380939C01F9
:102980002A960FB6F894DEBF0FBECDBFDF91CF9170
:102990001F910F91FF90EF90DF90CF90BF90AF907D
:1029A0009F908F907F906F905F900C94940501960C
:1029B0008031910509F0ADCF0F5F1F4F0530110534
:1029C00009F091CF8FEF89838A831B820E94B62002
:1029D0008160782F9D838C8349815A816B818D81A1
:1029E0000E940915C3CF2A960FB6F894DEBF0FBE1A
:1029F000CDBFDF91CF911F910F91FF90EF90DF90AE
:102A0000CF90BF90AF909F908F907F906F905F908E
:102A10000895CF93DF93CDB7DEB72B970FB6F89419
:102A2000DEBF0FBECDBF4F83588769877A878B87FC
:102A30001E821D8285E0FE013796DE01119601900F
:102A40000D928A95E1F749815A816B817C818D8154
:102A50009E812B960FB6F894DEBF0FBECDBFDF91DF
:102A6000CF910C949F1BFC01808191810C94541E8A
:102A7000882309F4F3C08238B9F40E94F11381FD70
:102A8000EDC089E30E94821E0E94C61E2FEF81EED8
:102A900094E0215080409040E1F700C0000089E3BD
:102AA0000E94891E0C94C61E8338A1F40E94F11363
:102AB00080FDD4C083E50E94821E0E94C61E2FEFB7
:102AC00081EE94E0215080409040E1F700C000008A
:102AD00083E5E6CF8438A1F40E94F11382FDBEC0E5
:102AE00087E40E94821E0E94C61E2FEF81EE94E0B2
:102AF000215080409040E1F700C0000087E4D0CF33
:102B00009CEF980F913A18F40E94821ECBCF90E26E
:102B1000980F983050F4877091E001C0990F8A9512
:102B2000EAF7892F0E94FC1EBDCF9BE5980F9330DA
:102B300070F4853A31F0863A39F083E890E00C94ED
:102B4000081481E890E0FBCF82E890E0F8CF98E5A8
:102B5000980F953108F082C0883A09F440C0893A4C
:102B600009F440C08A3A09F440C08B3A09F440C0E5
:102B70008C3A09F440C08B3B09F440C08C3B09F40B
:102B800040C08D3A09F440C0803B09F440C08E3A01
:102B900009F440C08F3A09F440C0813B09F440C0B9
:102BA000823B09F440C0833B09F440C0843B09F4F4
:102BB00040C0853B09F440C0863B09F440C0873BD8
:102BC00009F440C0883B09F440C0893B09F440C087
:102BD0008A3B09F440C090E080E00C941E1482EE21
:102BE00090E0FBCF89EE90E0F8CF8AEE90E0F5CF51
:102BF00085EB90E0F2CF86EB90E0EFCF83EB90E0B7
:102C0000ECCF84EB90E0E9CF87EB90E0E6CF8CEC63
:102C100090E0E3CF8DEC90E0E0CF83E891E0DDCF72
:102C20008AE891E0DACF82E991E0D7CF84E991E0B8
:102C3000D4CF81E292E0D1CF83E292E0CECF84E2A2
:102C400092E0CBCF85E292E0C8CF86E292E0C5CF9A
:102C500087E292E0C2CF8AE292E0BFCF0895882354
:102C600009F44BC0823871F40E94F11381FF45C012
:102C700089E30E94821E0E94C61E89E30E94891E6B
:102C80000C94C61E833859F40E94F11380FF35C09E
:102C900083E50E94821E0E94C61E83E5EFCF843822
:102CA00059F40E94F11382FF28C087E40E94821E1B
:102CB0000E94C61E87E4E2CF9CEF980F913AF0F293
:102CC00090E2980F983050F4877091E001C0990F0E
:102CD0008A95EAF7892F0E94021FD2CF9BE5980FB1
:102CE000933020F490E080E00C940814885A8531E9
:102CF00020F490E080E00C941E140895882321F0C5
:102D00000E94FC1E0C94C61E0895882321F00E9488
:102D1000021F0C94C61E08958F929F92AF92BF928D
:102D2000CF92DF92EF92FF920F931F93CF93DF9397
:102D30007C01D62FC72FFC01058102950F701281EF
:102D400011110E941C1F0E94BF1EC82E882371F003
:102D50001123B1F080E28D0F883090F082E00E9464
:102D6000A91E0E94BF1E91E0C82EC926DC2ED29457
:102D70009FE0D922ED2DF0E0EB5EF24D0C948C2C0F
:102D8000C12CF4CF0C2F0F70C07F11F00295007F83
:102D90001123A9F0002359F080E28D0F883010F044
:102DA000D11109C0802F0E94FC1E0E94C61E8D2FCB
:102DB0000E94381514C0802F0E940F1FF6CF8D2F50
:102DC0000E942F16002359F080E28D0F883010F0FA
:102DD000D11133C0802F0E94021F0E94C61E98E0AE
:102DE000D91639F0D91648F086EF8D0D8F708230E4
:102DF00020F40E94F1130E949405CC2009F4BAC17A
:102E00000E949C1E80FDB6C1F70112820E94961E90
:102E10000E94231DC7010E94C7180E94961EDF91C1
:102E2000CF911F910F91FF90EF90DF90CF90BF90C7
:102E3000AF909F908F900C94441D802F0E94151F7F
:102E4000CCCFFC2FFF70BF2EC07FC03219F0B294E0
:102E500080EFB822DD2369F0D13049F1112391F1DF
:102E6000002351F1F701858180FFA1CF8F70858309
:102E700023C0112381F0011106C00E94351F8B2948
:102E80000E947E16ACCF0130C1F70E94351F8B29FE
:102E90000E942F1FA4CF011106C00E94321F8B2D4C
:102EA0000E9485169CCF013009F499CFF6CF1123EB
:102EB00029F0063008F093CF8B2DE2CF053008F0D3
:102EC0008ECFEDCF002359F38D2F0E942F1687CF81
:102ED0008C2F86958695837069F0813009F07FCFBD
:102EE0008D2F9C2F9370111102C090E080E00E9402
:102EF0001E1475CF8D2F9C2F9370111102C090E07E
:102F000080E00E9408146BCF8C2F837009F047C0BB
:102F1000111165CF2D2F229526952770220F220F94
:102F20006D2F6F70862E912CB12CA12C022E04C017
:102F3000880C991CAA1CBB1C0A94D2F760E070E0B4
:102F4000CB01D4FF0FC06FE070E080E090E004C0E0
:102F5000660F771F881F991F2A95D2F76095709585
:102F600080959095C695C695C370C23051F080F497
:102F7000682979298A299B29C13071F00E94D51CC2
:102F80002ECF682979298A299B290E94E71C27CFFF
:102F90000E94D51CC501B4010E94C31C20CF869598
:102FA000112311F08C2F8170882309F418CF2D2F55
:102FB000229526952770220F220F6D2F6F70862E77
:102FC000912CB12CA12C022E04C0880C991CAA1C97
:102FD000BB1C0A94D2F760E070E0CB01D4FF0FC0B5
:102FE0006FE070E080E090E004C0660F771F881FFC
:102FF000991F2A95D2F76095709580959095C69502
:10300000C695C370C23051F080F4682979298A29A5
:103010009B29C13071F00E949A1DE1CE682979295F
:103020008A299B290E94AC1DDACE0E949A1DC501F7
:10303000B4010E94881DD3CEE0E2ED0FE53108F027
:103040004DC0F0E0EB5DF24D0C948C2CDF708C2FBA
:103050008F71112321F00E94231D8D2F11CF0E940B
:10306000441D8D2F1DCF112341F0053008F0B7CE40
:103070008C2F8F710E94671DB2CE063008F0AFCE44
:10308000F7CF8C2F8F71112339F00E94231DA7CE0B
:103090008C2F8F711123C9F30E94441DA0CE1123E0
:1030A00029F08C2F8F710E940E1D99CE0E94091D50
:1030B00096CE112349F0CF718C2F0E94231D63E01F
:1030C0008C2F0E94A01E8BCE81E00E94A91E023090
:1030D00008F485CE82E00E94A91E81CE112329F03A
:1030E000011165CE8C2F8F71D0CF002369F0D933B9
:1030F00009F0EACEFFEF27EE83E0F1502040804058
:10310000E1F700C00000E0CE8C2F8F71C5CF4C2FAF
:103110004F706D2FC7010E945B080E94391C5FCE63
:1031200011115DCECF70C230B1F040F4CC2381F0EC
:10313000C13009F054CE0E947E2151CEC43089F0B6
:1031400068F080E0C53009F04ACE0E94E42147CE05
:103150000E94662144CE0E94BA2141CE0E94C12124
:103160003ECE83E0F2CF4C2F4F706D2FC7010E94EF
:103170005E0835CEDF91CF911F910F91FF90EF90B8
:10318000DF90CF90BF90AF909F908F9008950F9356
:103190001F93CF93DF93EC018B819C81892B29F0C6
:1031A0008881998189238F3F29F4DF91CF911F91E5
:1031B0000F910895CE010E94A6058823B1F368817E
:1031C00079818A810E945E1E8C010E94BE1D0E9430
:1031D000C01CB801CE01DF91CF911F910F910C94CB
:1031E0008C160E941C1F0E942C1F0E94901E0E9481
:1031F000C61E90E080E00E94081490E080E00C94ED
:103200001E140E94091F0C94F1180E94541EE92FED
:10321000E295EF70E250EE3070F4F0E0E65CF24DD3
:103220000C948C2C803F19F020F4803E20F481E037
:103230000895843FE1F380E00895803EC0F3813F2C
:10324000D1F7F5CF93FB882780F90895CF93DF93CB
:1032500000D000D00F92CDB7DEB70F900F900F9037
:103260000F900F90DF91CF910895CF93DF9300D00F
:1032700000D000D0CDB7DEB726960FB6F894DEBFEB
:103280000FBECDBFDF91CF9108951F93CF93DF93F2
:10329000C091A80116E08091A9018C1304C0DF91B0
:1032A000CF911F910895D0E01C9FF0011D9FF00D5C
:1032B0001124E655FE4F40815181628173818481E2
:1032C00095810E9435192196C770E5CF4091DA01AA
:1032D0005091DB016091DC017091DD018091DE0194
:1032E0009091DF010C9435191F93CF93DF93809158
:1032F000DF01807FC1F48091DC018823A1F08091FF
:10330000A801C091A9016091DA017091DB0140919F
:10331000DD015091DE01D62FD723DA01A095B095BB
:1033200016E0C81304C0DF91CF911F91089590E07B
:103330004115510511F0DF3F31F401968770F1CF4F
:103340002A0F3B1F17C0189FF001199FF00D112481
:10335000E655FE4F21812713F0CF20812613EDCFB4
:1033600022812111EACF238134812417350740F3CC
:10337000241B350B283C310500F72091DF012F700D
:1033800020612093DF0126E0289FF001299FF00DA6
:103390001124E155FE4F80818F70806180838AED1A
:1033A00091E00E94C718DF91CF911F910C944519AD
:1033B000BF92CF92DF92EF92FF920F931F93CF9322
:1033C000DF93CDB7DEB761970FB6F894DEBF0FBEBF
:1033D000CDBF8C0185E0F801DE011D9601900D92B4
:1033E0008A95E1F7D8014C9111965C91119712964C
:1033F000EC9012978091DD019091DE01009709F425
:103400007FC12091DA013091DB01622F63236F3F8E
:1034100009F476C11396CD90DC90B090DC01BB200E
:1034200009F411C1C816D906D0F1F601E81BF90B51
:10343000CF01FF24F394883C910508F0F12C809192
:10344000DF01982F907FFF2009F4B8C091117FC051
:10345000FE2C351329C0241327C0E11025C08F701E
:1034600080618093DF010E9466198AED91E00E94DD
:10347000C7188091DF01D80115968C938F2D619626
:103480000FB6F894DEBF0FBECDBFDF91CF911F9175
:103490000F91FF90EF90DF90CF90BF9008958095AF
:1034A00090958C0D9D1DC5CFCD2829F0852F8423A7
:1034B0008F3F09F041C180E0B82FB170DB2E80FF53
:1034C0003CC08091A8012091A90136E0821315C06B
:1034D0004D875E878D859E850E94541E292F2295DB
:1034E0002F702230F0F0243018F59F70F1F0F801C1
:1034F0009581907FD1F4D12C1EC090E0389FF001CF
:10350000399FF00D1124E655FE4F6181651306C009
:103510006081641303C06281E6120FC00196877058
:10352000D5CF9F7011F0882331F3805E883018F377
:10353000C8010E94C718FD2CA1CFEE2009F49ECF30
:103540008091DF0181608093DF01F12C97CF3513EB
:1035500006C0241304C0D801EE2009F49AC04D8798
:103560005E878D859E850E940519882319F1EE20BE
:1035700009F18091DF01803270F02091DA01309101
:10358000DB0138872F831986DB86CA868C87CE01BC
:1035900007960E94C71886E0F801AAEDB1E00190F5
:1035A0000D928A95E1F70E9474190E946619FF2412
:1035B000F39464CFC8010E94C718F9CF911113C0CA
:1035C0007C2DD98AC88A6E2D89890E9426198AED98
:1035D00091E00E94C71886E0EAEDF1E0DF011D925C
:1035E0008A95E9F763C0351312C0241310C0E110A7
:1035F0000EC0F8018583C8010E94C718EAEDF1E00A
:1036000086E0DF011D928A95E9F7FB2C37CF4D87C5
:103610005E878D859E850E940519882359F2EE20CC
:1036200049F28091DF01803208F4B5CF2091DA01B0
:103630003091DB013A8329831B82DD82CC828E8329
:10364000CE010196A6CFC816D90698F1F601E81B5F
:10365000F90BCF01F12C883C910508F049C0FE2CF4
:10366000EE2009F4A7CF351332C0241330C0809167
:10367000DF0180FD23C0982F907F01F1D8011596BE
:103680008C931597903F39F0982F907F905F8F70B3
:10369000892B15968C93C8010E94C71886E0F80103
:1036A000AAEDB1E001900D928A95E1F70E946619AA
:1036B000E5CE809590958C0D9D1DCCCF86E0F801D0
:1036C000AAEDB1E001900D928A95E1F7D7CE4D8732
:1036D0005E878D859E850E94051981115CCF809142
:1036E000DF0181608093DF01C8010E94C718C6CE48
:1036F0007C2DD98AC88A6E2D89890E9426196BCFA4
:10370000EE2009F457CF4D875E878D859E850E94F8
:103710000519F82E882309F44DCF86E0F801AAEDAB
:10372000B1E001900D928A95E1F78AED91E00E9457
:1037300033150E947419BACF81E08E25BDCE1F9338
:10374000CF93DF93CDB7DEB72C970FB6F894DEBFDB
:103750000FBECDBF4F83588769877A878B879C8739
:10376000CE0107960E94D819882369F08A859B8527
:10377000892B39F04F815885842F85238F3F09F09D
:1037800071C016E05FC086E0FE013796DE0111963B
:1037900001900D928A95E1F78A859B85892B89F3A3
:1037A00088859F8189238F3F61F32091A90130E0B3
:1037B000C9010196877099274091A80148171906F9
:1037C00071F40E9401191092A9011092A80186E0DB
:1037D000EAEDF1E0DF011D928A95E9F7D2CF96E09C
:1037E000929FD001939FB00D1124A655BE4FFE01AC
:1037F000319601900D929A95E1F78093A9010E946C
:103800004519BFCF819FC001112486559E4F0E944C
:10381000D8198823E9F0E091A8011E9FF001112436
:10382000E655FE4F4081518162817381848195818B
:103830000E9435198091A80190E001968770992720
:103840008093A8018091A8019091A9018913DACFF2
:103850002C960FB6F894DEBF0FBECDBFDF91CF918F
:103860001F91089569857A858B859C850E943519FD
:1038700088CFEF92FF920F931F93CF93DF938C012A
:10388000892B81F0F12CEE24E394E8012196F801D4
:103890008491843770F4843008F05FC08130B1F0D7
:1038A0008230A1F1DF91CF911F910F91FF90EF90A6
:1038B0000895853709F44CC008F43DC09CE7980F83
:1038C000903780F78F770E942F1649C00E5F1F4FE9
:1038D000FE01849190E2980F983060F48770FE2D7D
:1038E00001C0FF0F8A95EAF78F2F0E941F1F0E94C9
:1038F000C61E02C00E9438158F2D815030F2EFE9AC
:10390000FFE03197F1F700C00000F7CF0E5F1F4FC7
:10391000FE01849190E2980F983050F48770FE2D4C
:1039200001C0FF0F8A95EAF78F2F0E94251FDFCF76
:103930000E942F16E1CF0E5F1F4FFE01C491C150B0
:10394000D8F28FE99FE00197F1F700C00000F7CFB0
:103950000E5F1F4FFE01F490CFCF0E9438158E01ED
:10396000CBCF08950C94B11C0E94B21C6093160238
:103970007093170280931802909319020C94F11817
:1039800008950C94B41C0F931F930091160210918C
:1039900017022091180230911902602B712B822B93
:1039A000932B1F910F910C94B41C0F931F930091B4
:1039B000160210911702209118023091190260230B
:1039C0007123822393231F910F910C94B41C0F93A6
:1039D0001F93009116021091170220911802309146
:1039E000190260277127822793271F910F910C944A
:1039F000B41C0C94B11C0C94F91C0E94FB1C609329
:103A000012027093130280931402909315020C9487
:103A1000F11860E070E0CB010C94FD1C0F931F9334
:103A200041E050E060E070E08A019B0104C0000FBB
:103A3000111F221F331F8A95D2F7C901B8011F91A8
:103A40000F910C94FD1C0F931F9341E050E060E038
:103A500070E004C0440F551F661F771F8A95D2F788
:103A60008091120290911302A0911402B09115025C
:103A70008A019B01082B192B2A2B3B2BC901B8016A
:103A80001F910F910C94FD1C0F931F9341E050E088
:103A900060E070E004C0440F551F661F771F8A95D1
:103AA000D2F7CB01BA016095709580959095009101
:103AB000120210911302209114023091150260231A
:103AC0007123822393231F910F910C94FD1C0F935C
:103AD0001F9341E050E060E070E004C0440F551FC8
:103AE000661F771F8A95D2F7809112029091130278
:103AF000A0911402B09115028A019B010827192791
:103B00002A273B27C901B8011F910F910C94FD1C76
:103B10000F931F930091120210911302209114022F
:103B200030911502602B712B822B932B1F910F91DB
:103B30000C94FD1C0F931F9300911202109113021D
:103B40002091140230911502602371238223932364
:103B50001F910F910C94FD1C0F931F930091120263
:103B600010911302209114023091150260277127E1
:103B7000822793271F910F910C94FD1C0895929515
:103B8000907F890F982F977041E001C0440F9A955C
:103B9000EAF786958695869595E0899FF001112430
:103BA000E052FE4F30E020E070E05191DF011197CC
:103BB000CB01022E02C0969587950A94E2F7817098
:103BC00081958527842385278C932F5F3F4F253050
:103BD000310559F708959295907F890F982F977026
:103BE00086958695869525E0829FF0011124E05206
:103BF000FE4F50E040E080E0219130E0092E02C00D
:103C0000369527950A94E2F721703327042E01C0D8
:103C1000220F0A94EAF7822B4F5F5F4F4530510520
:103C200059F70895BF92CF92DF92EF92FF920F93D0
:103C30001F93CF93DF938C01C0901202D090130298
:103C4000E0901402F09015028091160290911702F4
:103C5000A0911802B0911902C82AD92AEA2AFB2A8F
:103C6000CFE1D0E0BC2ED701C6010C2E04C0B69522
:103C7000A795979587950A94D2F780FD0EC0219756
:103C800088F7B12C8B2DDF91CF911F910F91FF9071
:103C9000EF90DF90CF90BF900895B8018C2F0E94D5
:103CA0007C08019761F3EECFCF93DF93EC010E9484
:103CB000121EBE01DF91CF910C947C081F93CF930D
:103CC000DF93EB019091A701992331F0CB01DF91B4
:103CD000CF911F910C94541E882379F0CB010E9440
:103CE000121E182F682FCE010E94BF1DBE01812F0A
:103CF000DF91CF911F910C947C08CB010E94EB1DAA
:103D0000182FF4CF682F80912601909127010C94F1
:103D10000E20682F80912601909127010C94192084
:103D200080912601909127010C94242080911A0201
:103D3000859585958595089580911A0287700895D7
:103D400098E0899F90011124622B60931A020C94D1
:103D5000231D90911A028095892380931A02282F9F
:103D6000277061F4282F082E000C330B92171306CE
:103D700029F08595859585950C94441D089590911D
:103D80001A02977081E009F480E00895E09126011D
:103D9000F091270180913E028083E0912601F0910D
:103DA0002701808190913D02892B8083E09126013B
:103DB000F0912701808190913C02892B8083909122
:103DC0001B02992381F0E0912601F0912701808167
:103DD000892B808380912601909127010E94B11F39
:103DE000811110921B0280912601909127010C9461
:103DF000FD1380913E02089590913E02892B80939D
:103E00003E020895809590913E02982390933E0241
:103E1000089510923E02089580913D020895909178
:103E20003D02892B80933D020895809590913D023B
:103E3000982390933D02089510923D020895909129
:103E40003C02892B80933C020895809590913C021E
:103E5000982390933C02089510923C020895809319
:103E60001B02089510921B02089580911B02089571
:103E700090E080E00E94C72C21E08D3E9E4F09F02B
:103E800020E0822F089582E090E00C94B92C83E02A
:103E900090E00C94B92C84E090E00C94B92C682F3D
:103EA00084E090E00C94CD2C86E090E00C94B92C4A
:103EB000682F86E090E00C94CD2CAB01BC018FE024
:103EC00090E00C94DF2CAB01BC0183E190E00C94FA
:103ED000DF2C60E070E0CB010C94631F60E070E0C9
:103EE000CB010E945D1F0C94691F6DEE7EEF90E088
:103EF00080E00E94EB2C60E082E090E00E94CD2CFC
:103F000060E083E090E00E94CD2C109216021092A7
:103F10001702109218021092190260E084E090E0FB
:103F20000E94CD2C60E085E090E00E94CD2C60E006
:103F300086E090E00E94CD2C6FEF87E090E00E9439
:103F4000CD2C40E050E0BA0188E090E00E94DF2CE8
:103F500060E08DE090E00E94CD2C0C946E1F0C94DC
:103F6000751FFC0131969C01205E3F4F80E09191CE
:103F700091118F5FE217F307D1F708959C01FC01BF
:103F800032969FEF80E04191461751F09F3F19F420
:103F9000411101C0982F8F5F8E31A9F79F3F09F41F
:103FA0000895290F311D97FD3A95F901628308950F
:103FB000FC01329680962191261303C0DF011197F0
:103FC0001C92E817F907B9F70895E62FE695E695EC
:103FD000E695EF3169F0E80FF92FF11D677021E0E8
:103FE00030E001C0220F6A95EAF78181822B81833C
:103FF0000895E62FE695E695E695EF3171F0E80F26
:10400000F92FF11D677021E030E001C0220F6A95A1
:10401000EAF7209581812823218308952091320198
:10402000222329F020919D0227FD0C94E51F0C947A
:10403000BE1F20913201222329F020919D0227FDED
:104040000C94F91F0C94D81FFC01319680961192A4
:10405000E817F907E1F70895089508950C942D20C5
:104060000E942E208091A402843061F110924002BF
:1040700088E190E020E40FB6F894A8958093600062
:104080000FBE2093600080E00E94230580E00E9424
:1040900094050E942E2083B7817F846083BF83B7FD
:1040A000816083BF7894889583B78E7F83BF0FB676
:1040B000F894A895809160008861809360001092C8
:1040C00060000FBE08950895CF930E942C200E9497
:1040D0004E0B0E946320C0E08C2F0E941B0C892B8A
:1040E00031F4CF5FC530C1F780E0CF91089581E012
:1040F000FCCF08950C9479200E9401190E944D2153
:104100000E94F1130E9494050C947A201F921FB60E
:104110001F9211248F939F93AF93BF93809140027E
:10412000811113C08091990290919A02A0919B02F3
:10413000B0919C024196A11DB11D8093990290936C
:104140009A02A0939B02B0939C02BF91AF919F9162
:104150008F911F901FBE1F90189582E084BD93E041
:1041600095BD9AEF97BD80936E0008952FB7F89490
:104170008091990290919A02A0919B02B0919C0229
:104180002FBF0895CF92DF92EF92FF920F931F936C
:104190002FB7F8944091990250919A0260919B0236
:1041A00070919C022FBF6A017B01EE24FF248C01D9
:1041B00030E020E0C016D106E206F30650F0481BBE
:1041C000590BCA011F910F91FF90EF90DF90CF9094
:1041D000089541505109F3CF78941F921FB61F9252
:1041E00011248F939F93AF93BF93809199029091E5
:1041F0009A02A0919B02B0919C020196A11DB11D53
:104200008093990290939A02A0939B02B0939C0290
:10421000BF91AF919F918F911F901FBE1F901895D6
:1042200081E08093E00080E28093D8001092C90082
:104230008FE19EE40197F1F700C0000087E090EB6A
:10424000DC018093AD029093AE02A093AF02B093D5
:10425000B00288E19CE00FB6F894A89580936000C6
:104260000FBE90936000FFCF0E94381F811102C0E3
:104270000E94AF1F0E94431F80933F020E944B1F6A
:1042800090E090939E0280939D020E94471F682FAA
:1042900070E090E080E00C94C11C0E94381F8111F6
:1042A00002C00E94AF1F0E94541F80939F0288305B
:1042B00020F08170866080939F0280919F0280FF32
:1042C00003C086950C94230580E0FCCF80919F026B
:1042D000982F9695933030F49F5F990F8170892BBA
:1042E00080939F0280919F02816080939F020E9431
:1042F000581F80919F0286950C94230580919F0200
:10430000982F9E7F79F0825080939F028E7F91E05C
:1043100009F490E080919F0290FB80F980939F02C6
:104320000E94581F80919F0286950C9423058091CE
:104330009F0280FD11C0816080939F02813019F43B
:1043400083E080939F0280919F020E94581F80917A
:104350009F0286950C942305089580919F0280FF0B
:1043600008C08E7F80939F020E94581F80E00C94AB
:104370002305089580919F0280FD0C94AD210C943B
:10438000972190919F02892F86958F5F8F779170EB
:104390008430B8F4880F892B80939F0280919F020C
:1043A0008E7F91E009F490E080919F0290FB80F96C
:1043B00080939F020E94581F80919F0286950C94C3
:1043C000230590939F02EACF843008F083E0982F72
:1043D000990F80919F028170892B80939F028E7F1D
:1043E00091E009F490E080919F0290FB80F9809326
:1043F0009F020E94581F80919F0286950C9423056E
:1044000080916102089508950F931F93CF93DF93D6
:1044100000D00F92CDB7DEB78C010E9445248230C8
:1044200011F0843021F583E089831B830A8382E0C5
:104430008093E9008FEF9091E800815095FD06C0D0
:1044400095ED9A95F1F700008111F5CF8091E80084
:1044500085FF0DC050E040E063E070E0CE010196C2
:104460000E9462248091E8008E778093E8000F908C
:104470000F900F90DF91CF911F910F910895CF93DF
:10448000DF9300D00F92CDB7DEB72091A402243085
:1044900029F522E02983805891099B838A83209300
:1044A000E9008FEF9091E800815095FD06C095EDF1
:1044B0009A95F1F700008111F5CF8091E80085FF12
:1044C0000DC050E040E063E070E0CE0101960E9434
:1044D00062248091E8008E778093E8000F900F901F
:1044E0000F90DF91CF910895CF93DF93EC010E945D
:1044F0004524823011F08430F9F480913201882310
:10450000F1F080919D0287FF1AC083E08093E9005B
:104510008FEF9091E800815095FD06C095E19A9546
:10452000F1F700008111F5CF8091E80050E040E004
:1045300060E270E085FD1AC0DF91CF91089581E0BF
:104540008093E9008FEF9091E800815095FD06C0BF
:1045500095ED9A95F1F700008111F5CF8091E80073
:1045600085FFEACF50E040E068E070E0CE010E94B5
:1045700062248091E8008E778093E80080E2FE015B
:10458000A1E4B2E001900D928A95E1F7D5CF809138
:10459000A302811109C00E94F0250E944D2680913E
:1045A000E20084608093E20008951092A3020895CF
:1045B000089508950C947C2042E061EC81E00E9413
:1045C0006E2542E061EC82E00E946E2542E261ECE1
:1045D00083E00C946E258091A602833009F455C0C7
:1045E00030F4813071F1823009F491C008958A303D
:1045F00009F47DC08B3009F463C0893009F044C0F0
:104600008091A502813209F03FC08091A90290916A
:10461000AA02009711F00297B9F58091E800877F10
:104620008093E8008091E80082FF2AC08091F10029
:10463000809361028091E8008B778093E8000C946E
:10464000A2258091A502813AF9F48091E800877F44
:104650008093E8008091A9029091AA02892B61F4CD
:1046600060E281E492E070E00E94B1248091E80071
:104670008B778093E800089560E090E080E0F3CFCE
:104680008091A4028111CECF08958091A502813A34
:10469000D9F78091A9029091AA02892BA9F780915C
:1046A000E800877F8093E8008091E80080FFFCCFDE
:1046B000809132018093F1008091E8008E77BDCF28
:1046C0008091A502813201F78091A9029091AA02FE
:1046D000892BD1F68091E800877F8093E8000E94C3
:1046E000A2258091A702809332010C940119809138
:1046F000A502813249F68091E800877F8093E80027
:104700000E94A2258091A802809362020895809160
:10471000A502813A09F0B8CF8091E800877F8093A5
:10472000E8008091E80080FFFCCF80916202C2CF58
:1047300084B7877F84BF0FB6F894A89580916000F6
:10474000886180936000109260000FBE80E88093C3
:104750006100109261000E943C140E94F0250E94AA
:104760004D268091E20084608093E20078940E945C
:10477000CD280E94421488E291E00E94EC138091BF
:10478000A402853029F00E944C140E94FC11F7CF3E
:104790000E9430208091A202882389F30E94642025
:1047A000882369F30E944C24EACF0C94D723292F45
:1047B00033272330310521F168F42130310509F424
:1047C00049C02230310509F44AC090E080E030E071
:1047D00020E029C02132310581F122323105A9F7CB
:1047E0006330710590F7FB01EE0FFF1FE55BFE4F95
:1047F00020813181685B7E4FFB01808190E013C096
:1048000099278130910599F0009741F08230910508
:1048100089F00397D1F6E8E4F6E002C0EAE6F6E0B4
:10482000849190E09F01FA01318320830895EAE5A5
:10483000F6E0F6CFEEE4F6E0F3CF6330710528F64C
:10484000660F771FFB01EF5AFE4F2081318189E00F
:1048500090E0E9CF82E190E022EC36E0E4CF84E51D
:1048600090E02EE636E0DFCF0895CF93C82F0E9468
:104870003424C0936302CF9108958091A4028430C0
:1048800011F482E0089581E008958091630281111E
:1048900002C00C943D24089580E189BD82E189BD68
:1048A00009B400FEFDCF8091D8008F7D8093D800A1
:1048B0008091E00082608093E0008091E00081FDC3
:1048C000FCCF0895AF92BF92CF92DF92FF920F93E9
:1048D0001F93CF93DF936C01EB018A010E94C125E6
:1048E000F82E811123C00115110539F0F8018081DE
:1048F0009181C81BD90BC80ED91EB12CA12C2097B1
:10490000A9F08091E80085FD22C08091E8008E77B3
:104910008093E80001151105A1F0F80180819181D3
:10492000A80EB91EB182A08285E0F82E8F2DDF91EE
:10493000CF911F910F91FF90DF90CF90BF90AF90DC
:1049400008950E94C1258823D1F2F82EEFCFF601F9
:1049500081916F018093F1002197FFEFAF1ABF0A99
:10496000CECFFC018091AB029091AC0286179707E5
:10497000A0F06115710529F49091E8009E7790935D
:10498000E80090E06115710551F4911108C0809123
:10499000E80082FF34C080E00895BC01F2CF80912E
:1049A000A4028823C1F18530C1F18091E80083FD24
:1049B00030C08091E80082FDEACF8091E80080FF5E
:1049C000E1CF8091F3002091F200382F611571053D
:1049D00019F02830310558F091E02830310509F000
:1049E00090E02091E8002E772093E800CBCF8191D2
:1049F0008093F100615071092F5F3F4FE7CF8091A5
:104A0000A402882341F0853041F08091E80083FFC3
:104A1000BECF81E0089582E0089583E00895FC010F
:104A20008091AB029091AC0286179707A0F06115B8
:104A3000710529F48091E8008E778093E80090E07A
:104A40006115710551F4911108C08091E80082FF51
:104A500035C080E00895BC01F2CF8091A402882384
:104A6000C9F18530C9F18091E80083FD31C08091A2
:104A7000E80082FDEACF8091E80080FFE1CF8091DD
:104A8000F3002091F200382F6115710519F02830DC
:104A9000310558F091E02830310509F090E080911F
:104AA000E8008E778093E800CBCF84918093F1006B
:104AB0003196615071092F5F3F4FE6CF8091A4027C
:104AC000882341F0853041F08091E80083FFBDCF1D
:104AD00081E0089582E0089583E00895982F97304B
:104AE00028F08F708093E90081E008959093E900A9
:104AF000242F762F50E0981731F07091EC00209120
:104B0000ED005091F00021FD02C09F5FE8CF309191
:104B1000EB003E7F3093EB003091ED003D7F309312
:104B2000ED003091EB0031603093EB007093EC00BE
:104B30002093ED005093F0002091EE0027FDE5CF8B
:104B400080E008958091A50287FF13C08091E8005E
:104B500082FF06C08091E8008B778093E80004C054
:104B60008091A4028111F2CF08958091A40288233C
:104B7000D9F38091E80080FFF8CF8091E8008E772C
:104B8000ECCF2091E4003091E50085E6A9019091F9
:104B9000EC0090FF06C09091E80090FF06C080E016
:104BA00008959091E80092FDFACF9091A402992384
:104BB00089F0953089F09091EB0095FD0FC0209120
:104BC000E4003091E5004217530709F38150F1F6F4
:104BD00084E0089582E0089583E0089581E00895D7
:104BE0000E945E260E946626E0EEF0E080818160F1
:104BF0008083E8EDF0E080818F77808319BCA7ED9A
:104C0000B0E08C918E7F8C9380818F7E8083109218
:104C1000A30208950F931F93CF93DF930E945E2604
:104C20000E946626C8EDD0E088818F7788838881CE
:104C30008068888388818F7D888319BC1092A40244
:104C40001092A0021092A2021092A10200EE10E0B7
:104C5000F80180818B7F808388818160888342E036
:104C600060E080E00E946E25E1EEF0E080818E7FC2
:104C70008083E2EEF0E080818160808380818860C3
:104C80008083F80180818E7F808388818061888322
:104C9000DF91CF911F910F910895E8EDF0E08081B1
:104CA0008F7E8083E7EDF0E080818160808384E007
:104CB00082BF81E08093A3020C940A26E8EDF0E025
:104CC00080818E7F80831092E20008951092DA0036
:104CD0001092E10008951F920F920FB60F921124C7
:104CE0002F933F934F935F936F937F938F939F93F4
:104CF000AF93BF93EF93FF938091E10082FF0BC0CE
:104D00008091E20082FF07C08091E1008B7F809359
:104D1000E1000E94CC288091DA0080FF19C08091C8
:104D2000D80080FF15C08091DA008E7F8093DA0072
:104D30008091D90080FF94C080E189BD82E189BD66
:104D400009B400FEFDCF81E08093A4020E94C72237
:104D50008091E10080FF19C08091E20080FF15C0C2
:104D60008091E2008E7F8093E2008091E20080617A
:104D70008093E2008091D80080628093D80019BCB3
:104D800085E08093A4020E94D9228091E10084FFF3
:104D900029C08091E20084FF25C080E189BD82E1C5
:104DA00089BD09B400FEFDCF8091D8008F7D80932E
:104DB000D8008091E1008F7E8093E1008091E20035
:104DC0008F7E8093E2008091E20081608093E20018
:104DD0008091A002882309F449C084E08093A40252
:104DE0000E94DA228091E10083FF29C08091E200D5
:104DF00083FF25C08091E100877F8093E10082E0FE
:104E00008093A4021092A0028091E1008E7F809393
:104E1000E1008091E2008E7F8093E2008091E200C9
:104E200080618093E20042E060E080E00E946E25B5
:104E30008091F00088608093F0000E94D822FF915A
:104E4000EF91BF91AF919F918F917F916F915F9102
:104E50004F913F912F910F900FBE0F901F9018957B
:104E600019BC1092A4020E94D52272CF8091E30057
:104E700087FD02C081E0B2CF83E0B0CF1F920F92D6
:104E80000FB60F9211242F933F934F935F936F931D
:104E90007F938F939F93AF93BF93CF93EF93FF93A2
:104EA000C091E900CF708091EC001092E9008091F0
:104EB000F000877F8093F00078940E947A27109208
:104EC000E9008091F00088608093F000C093E900D1
:104ED000FF91EF91CF91BF91AF919F918F917F9172
:104EE0006F915F914F913F912F910F900FBE0F9057
:104EF0001F9018951F93CF93DF93CDB7DEB7AA9776
:104F00000FB6F894DEBF0FBECDBF85EA92E02091C8
:104F1000F100FC012193CF01F2E08D3A9F07B9F730
:104F20000E94EB228091E80083FF1EC18091A502C0
:104F30009091A6029A3008F017C1E92FF0E0E85BE3
:104F4000F24D0C948C2C803899F0823809F00CC109
:104F50008091A9028F70873008F006C18093E90024
:104F60008091EB0085FB882780F91092E90006C04C
:104F70008091A1029091A202911182609091E8002B
:104F8000977F9093E8008093F1001092F100809158
:104F9000E8008E77E5C0882309F4D3C0823009F099
:104FA000E3C08091A7028111D6C08091A9028F70C1
:104FB0002FEF280F263008F0D7C08093E90020910A
:104FC000EB0020FFC8C0933031F48091EB00806289
:104FD0008093EB00C0C09091EB0090619093EB0048
:104FE00021E030E001C0220F8A95EAF72093EA0021
:104FF0001092EA008091EB008860EACF8111B4C082
:105000001091A7021F778091E3008078812B809315
:10501000E3008091E800877F8093E8000E94A2254A
:105020008091E80080FFFCCF8091E300806880934E
:10503000E30082E0111183E08093A40295C08058C0
:10504000823008F091C08091A7029091A8028C3D17
:1050500023E09207A1F583E08A838AE289834FB730
:10506000F894DE01139620E03EE051E2E32FF0E0F9
:1050700050935700E49120FF03C0E295EF703F5F2B
:10508000EF708E2F90E0EA30C0F0C7968D939D931D
:105090002F5F243159F74FBF8091E800877F8093BD
:1050A000E8006AE270E0CE0101960E94B12480918E
:1050B000E8008B778093E80057C0C096E7CF6091F7
:1050C000A9027091AA02AE014F5F5F4F0E94D523E3
:1050D000BC01892B09F448C09091E800977F909318
:1050E000E80089819A810E940F25E1CF8038E1F59F
:1050F0008091E800877F8093E8008091A0028093F0
:10510000F10045CF811130C09091A702923060F537
:105110008091E800877F8093E8009093A0020E942E
:10512000A2258091A002882311F084E005C080911F
:10513000E30087FDFACF81E08093A4020E94DC2285
:1051400013C08091A702813079F481E0933009F097
:1051500080E08093A2021092E9008091E800877FAE
:105160008093E8000E94A2258091E80083FF0AC096
:105170008091E800877F8093E8008091EB00806257
:105180008093EB00AA960FB6F894DEBF0FBECDBF9A
:10519000DF91CF911F9108950895CF938091A4023C
:1051A000882399F0C091E900CF708091EC0080FDD8
:1051B0000EC080E0C82B1092E9008091E80083FDCA
:1051C0000E947A27CF70C093E900CF91089580E8BC
:1051D000F1CF5058BB27AA270E9401290C94AC2A72
:1051E0000E949E2A38F00E94A52A20F039F49F3FA1
:1051F00019F426F40C94742A0EF4E095E7FB0C9451
:105200006E2AE92F0E94BD2A58F3BA176207730766
:105210008407950720F079F4A6F50C94DF2A0EF4A4
:10522000E0950B2EBA2FA02D0B01B90190010C01B6
:10523000CA01A0011124FF27591B99F0593F50F4CE
:10524000503E68F11A16F040A22F232F342F442726
:10525000585FF3CF469537952795A795F04053951E
:10526000C9F77EF41F16BA0B620B730B840BBAF0EE
:105270009150A1F0FF0FBB1F661F771F881FC2F759
:105280000EC0BA0F621F731F841F48F4879577956D
:105290006795B795F7959E3F08F0B0CF9395880F27
:1052A00008F09927EE0F9795879508950E946A292F
:1052B0000C94AC2A0E94A52A58F00E949E2A40F025
:1052C00029F45F3F29F00C946E2A51110C94E02AC6
:1052D0000C94742A0E94BD2A68F39923B1F35523D4
:1052E00091F3951B550BBB27AA27621773078407F9
:1052F00038F09F5F5F4F220F331F441FAA1FA9F38F
:1053000035D00E2E3AF0E0E832D091505040E6957C
:10531000001CCAF72BD0FE2F29D0660F771F881FDD
:10532000BB1F261737074807AB07B0E809F0BB0BD0
:10533000802DBF01FF2793585F4F3AF09E3F5105E4
:1053400078F00C946E2A0C94E02A5F3FE4F3983EC8
:10535000D4F3869577956795B795F7959F5FC9F7CD
:10536000880F911D9695879597F90895E1E0660F4E
:10537000771F881FBB1F621773078407BA0720F0C7
:10538000621B730B840BBA0BEE1F88F7E095089530
:1053900029F416F00C946E2A0C94DF2A0C94742ACB
:1053A0000E94C52AA8F39638A0F707F80F92E89450
:1053B0002BE33AEA48EB5FE70E94722B0F920F92C1
:1053C0000F924DB75EB70F920E94282BECEAF0E0E7
:1053D0000E94772A4F915F91EF91FF91E595EE1F23
:1053E000FF1F49F0FE57E0684427EE0F441FFA956F
:1053F000E1F74195550B0E94F22A0F9007FE0C949D
:10540000E62A08950E94C52A88F09F5798F0B92F80
:105410009927B751B0F0E1F0660F771F881F991FE9
:105420001AF0BA95C9F714C0B13091F00E94DF2A82
:10543000B1E008950C94DF2A672F782F8827B85F92
:1054400039F0B93FCCF3869577956795B395D9F741
:105450003EF490958095709561957F4F8F4F9F4F4B
:105460000895E89409C097FB3EF490958095709557
:1054700061957F4F8F4F9F4F9923A9F0F92F96E9A0
:10548000BB279395F695879577956795B795F11115
:10549000F8CFFAF4BB0F11F460FF1BC06F5F7F4FB2
:1054A0008F4F9F4F16C0882311F096E911C07723C4
:1054B00021F09EE8872F762F05C0662371F096E8CD
:1054C000862F70E060E02AF09A95660F771F881F9C
:1054D000DAF7880F9695879597F9089597F99F675A
:1054E00080E870E060E008959FEF80EC0895DF931E
:1054F000CF931F930F93FF92EF92DF927B018C016A
:10550000689406C0DA2EEF010E946F2BFE01E8942A
:10551000A5912591359145915591A6F3EF010E94F2
:105520000129FE019701A801DA9469F7DF90EF9055
:10553000FF900F911F91CF91DF91089500240A945D
:105540001616170618060906089500240A9412165E
:105550001306140605060895092E0394000C11F491
:10556000882352F0BB0F40F4BF2B11F460FF04C03E
:105570006F5F7F4F8F4F9F4F089557FD9058440F97
:10558000551F59F05F3F71F04795880F97FB991FA2
:1055900061F09F3F79F0879508951216130614065F
:1055A000551FF2CF4695F1DF08C0161617061806EC
:1055B000991FF1CF86957105610508940895E894C7
:1055C000BB2766277727CB0197F908959B01AC018C
:1055D00060E070E080E89FE30C9456290C946E2AFA
:1055E0000C94D12B0E94C52AD8F39923C9F3940FA8
:1055F000511DA3F39150504094F059F0882332F09C
:10560000660F771F881F91505040C1F79E3F51058C
:105610002CF7880F911D9695879597F908955F3F10
:10562000ACF0983E9CF0BB27869577956795B7952B
:1056300008F4B1609395C1F7BB0F58F711F460FF00
:10564000E8CF6F5F7F4F8F4F9F4FE3CF0C94E02ADF
:10565000FA01DC01AA0FBB1F9B01AC01BF5728F464
:10566000222733274427507820C0B75190F4AB2F1E
:105670000024469537952795011CA395D2F3002069
:1056800071F0220F331F441FB395DAF30ED00C9440
:10569000E92861307105A0E88A07B94630F49B011A
:1056A000AC016627772788279078309621F02083F1
:1056B00031834283538308950E946F2B0C94AC2A4C
:1056C0000E949E2A38F00E94A52A20F0952311F00E
:1056D0000C946E2A0C94742A11240C94E02A0E94D3
:1056E000BD2A70F3959FC1F3950F50E0551F629F3F
:1056F000F001729FBB27F00DB11D639FAA27F00D2B
:10570000B11DAA1F649F6627B00DA11D661F829F51
:105710002227B00DA11D621F739FB00DA11D621F36
:10572000839FA00D611D221F749F3327A00D611D53
:10573000231F849F600D211D822F762F6A2F112435
:105740009F5750409AF0F1F088234AF0EE0FFF1F68
:10575000BB1F661F771F881F91505040A9F79E3FBF
:10576000510580F00C946E2A0C94E02A5F3FE4F31C
:10577000983ED4F3869577956795B795F795E79515
:105780009F5FC1F7FE2B880F911D9695879597F91E
:1057900008959F930E94E12B0F9007FCEE5F0C94FD
:1057A0000A2C9F3F31F0915020F4879577956795AB
:1057B000B795880F911D9695879597F908950C9444
:1057C000742A0E94C52AD8F3E894E0E0BB279F57CB
:1057D000F0F02AED3FE049EC06C0EE0FBB0F661F6C
:1057E000771F881F28F0B23A62077307840728F0F2
:1057F000B25A620B730B840BE3959A9572F780385B
:1058000030F49A95BB0F661F771F881FD2F7904818
:105810000C94D32BEF93E0FF07C0A2EA2AED3FE000
:1058200049EC5FEB0E9401290E94AC2A0F9003947F
:1058300001FC9058E4EDF0E00C941E2C9F938F93A4
:105840007F936F93FF93EF939B01AC010E945C2BBE
:10585000EF91FF910E94772A2F913F914F915F9195
:105860000C945C2BDB018F939F930E94A12CBF9122
:10587000AF91A29F800D911DA39F900DB29F900D9F
:1058800011240895AA1BBB1B51E107C0AA1FBB1F0F
:10589000A617B70710F0A61BB70B881F991F5A95BC
:1058A000A9F780959095BC01CD01089597FB072E2F
:1058B00016F4009407D077FD09D00E94422C07FC13
:1058C00005D03EF4909581959F4F08957095619510
:1058D0007F4F0895A1E21A2EAA1BBB1BFD010DC02C
:1058E000AA1FBB1FEE1FFF1FA217B307E407F50790
:1058F00020F0A21BB30BE40BF50B661F771F881F6C
:10590000991F1A9469F760957095809590959B0101
:10591000AC01BD01CF010895EE0FFF1F0590F4917A
:10592000E02D0994A29FB001B39FC001A39F700D09
:10593000811D1124911DB29F700D811D1124911D97
:1059400008950E94922CA59F900DB49F900DA49F46
:10595000800D911D11240895FC014150504030F0FC
:1059600001900616D1F73197CF010895882799271E
:105970000895F999FECF92BD81BDF89A992780B517
:105980000895A6E1B0E044E050E00C94F32CA8E1C7
:10599000B0E042E050E00C94F32C262FF999FECFB2
:1059A00092BD81BDF89A019700B4021639F01FBA72
:1059B00020BD0FB6F894FA9AF99A0FBE089503968F
:1059C000272F0E94CE2C0E94CD2C252F0E94CE2C5A
:1059D000242F0C94CE2C0196272F0E94CE2C0C94B1
:1059E000CD2CDC01CB01FC01F999FECF06C0F2BD44
:1059F000E1BDF89A319600B40D9241505040B8F78D
:105A00000895F894FFCFA707B307B707BB07BF07F1
:105A1000C307C707CB07CF07D307D707DB07DF07C6
:105A2000E307E707EB07EF07F307C216C2162117D4
:105A300021176817EF16EF16EF168417EF161C18CC
:105A40001C1887189018EF16B31826182618261851
:105A50002618261826182618261826182618261856
:105A600026182618261826182618331841184818FC
:105A70004F185918121912191B191B191D191B1926
:105A80001B191B191219121922191B191B1922197A
:105A9000A327CB27B428CB27B428FE271F28B42858
:045AA00076288228BA
:105AA4008C129C12AC1200000000000000000000E8
:105AB4000000140129003900010201191A1B1C1DE0
:105AC4001E1F202122FF1C020022742203223F22D7
:105AD400042201663667F4C63296909197949593A2
