:100000000C94D8080C941C090C94E5090C941C0958
:100010000C941C090C941C090C941C090C941C09CC
:100020000C941C090C941C090C943A1F0C941C0988
:100030000C941C090C941C090C941C090C941C09AC
:100040000C941C090C941C090C941C090C941C099C
:100050000C941C0901280001520002E0616303E0D6
:100060000002E07603E00002E0616303E000005775
:100070003A003B003C003D003E003F004000410094
:1000800042004300440045004600470035001E0082
:100090001F0020002100220023002400250026004C
:1000A00027002D002E0030004C002B0014001A00F9
:1000B0000800150017001C0018000C0012001300A7
:1000C0002F0028003100A90001510400160007008C
:1000D00009000A000B000D000E000F0033002A007B
:1000E00000003400AA00D65C02511D001B0006006F
:1000F0001900050011001000360037003800D75CE9
:100100005200A800E0000000E200000000002C0007
:1001100000000000E300000000000000500051005B
:100120004F00000000000000000000000000000080
:10013000000000000000000000000000C25CBF5C86
:1001400001000100010001000100010001000100A7
:100150000100010001000100010001000100010097
:100160000100010001000100010001000100010087
:100170000100010001000100010001000100010077
:100180000100010001000100010001000100010067
:100190000100010001000100010001000100010057
:1001A0000100010001005000510052004F00010009
:1001B0000100000001000100010001000100010038
:1001C0000100010001000100010001000100010027
:1001D000F400F000F5000100000001000000000044
:1001E0000100000000000100000000000000F2001B
:1001F000F100F3000000000000000000000000001B
:1002000000000000000000000000000000000100ED
:1002100001000100010001000100010001000100D6
:1002200001000100010001000100010001000100C6
:1002300001000100010001000100010001000100B6
:1002400001000100010001000100010001000100A6
:100250000100010001000100010001000100010096
:100260000100010001000100010001000100010086
:10027000010001000100010050014D014A014F0140
:1002800001002A010000010001000100010001003D
:100290000100010001000100010001000100010056
:1002A0000100010001000100010000000100000048
:1002B000000001000000000001000000000000003C
:1002C000010001000100000000000000000000002B
:1002D000000000000000000000000000000000001E
:1002E000005C0100010001000100010001000100AB
:1002F00001000100010001000100010001000100F6
:1003000001000100010001000100010001000100E5
:1003100001000100010001000100010001000100D5
:1003200001000100010001000100010001000100C5
:1003300001000100010001000100010001000100B5
:1003400001000100010001000100010001000100A5
:100350000100010001000000010001000100010096
:100360000100010001000100010001000100010085
:100370000100010001000100010001000000010076
:10038000000000000100000000000100000000006B
:10039000000001000100010000000000000000005A
:1003A000000000000000000000000000000000004D
:1003B0000000010001000100010001000100010036
:1003C0000100010001000100010001000100010025
:1003D0000100010001000100010001000100010015
:1003E0000100010001000100010001000100010005
:1003F00001000100010001000100010001000100F5
:1004000001000100010001000100010001000100E4
:1004100001000100010001000100010001000100D4
:1004200001000100010001000000010001000100C5
:1004300001000100010001000100010001000100B4
:1004400001000100010001000100010001000000A5
:100450000100000000000100000000000100000099
:100460000000000001000100010000000000000089
:10047000000000000000000000000000000000007C
:100480000000000001000100010001000100010066
:100490000100010001000100010001000100010054
:1004A0000100010001000100010001000100010044
:1004B0000100010001000100010001000100010034
:1004C0000100010001000100010001000100010024
:1004D0000100010001000100010001000100010014
:1004E0000100010001000100010001000100010004
:1004F00001000100010001000100000001000100F5
:1005000001000100010001000100010001000100E3
:1005100001000100010001000100010001000100D3
:1005200000000100000000000100000000000100C8
:1005300000000000000001000100010000000000B8
:1005400000000000000000000000000000000000AB
:100550000000000000000100010044454255473AF8
:1005600020656E61626C65642E0A00000000000068
:100570000000002A2B2800000000000000000000FE
:1005800000000000000029000000002C1E34202183
:100590002224342627252E362D3738271E1F2021CA
:1005A00022232425263333362E37381F0405060729
:1005B00008090A0B0C0D0E0F101112131415161743
:1005C00018191A1B1C1D2F3130232D350405060761
:1005D00008090A0B0C0D0E0F101112131415161723
:1005E00018191A1B1C1D2F3130354C00000000005B
:1005F00000000000000000000000000000000000FB
:1006000000000000000000000000000001010101E6
:1006100001010001010101000000000000000000D4
:1006200000000000000100010001010101010101C1
:1006300001010101010101010101010101010101AA
:1006400001010101010100000001010000000000A2
:10065000000000000000000000000000000000009A
:1006600000000000000001010101000A00253032F5
:100670005820006B6579626F6172645F7265706F9C
:1006800072743A20000A0025303258006B65796296
:100690006F6172645F7365745F6C65643A200064B7
:1006A0006F6E652E0A00626F6F746D6167696320FB
:1006B0007363616E3A202E2E2E2000290A002575C4
:1006C000002F002575005D280025640020002564AA
:1006D00000200025640020002564007C00253032C5
:1006E00058006D6F7573656B6579205B62746E7C05
:1006F000782079207620685D287265702F61636CA0
:10070000293A205B006D6B5F776865656C5F746983
:100710006D655F746F5F6D6178203D2025640A0010
:100720006D6B5F776865656C5F6D61785F73706531
:100730006564203D2025640A006D6B5F74696D65FA
:100740005F746F5F6D6178203D2025640A006D6BDA
:100750005F6D61785F7370656564203D2025640A74
:10076000006D6B5F696E74657276616C203D20254B
:10077000640A006D6B5F64656C6179203D202564BF
:100780000A006D6B5F776865656C5F74696D655FA6
:10079000746F5F6D6178203D2025640A006D6B5F8A
:1007A000776865656C5F6D61785F737065656420FF
:1007B0003D2025640A006D6B5F74696D655F746F21
:1007C0005F6D6178203D2025640A006D6B5F6D616F
:1007D000785F7370656564203D2025640A006D6B49
:1007E0005F696E74657276616C203D2025640A0035
:1007F0006D6B5F64656C6179203D2025640A000A99
:1008000000257500363A20776865656C5F74696D00
:10081000655F746F5F6D61783A20000A002575008E
:10082000353A20776865656C5F6D61785F737065D8
:1008300065643A20000A00257500343A2074696D19
:10084000655F746F5F6D61783A20000A002575005E
:10085000333A206D61785F73706565643A20000AF1
:1008600000257500323A20696E74657276616C28D5
:100870006D73293A20000A00257500313A2064651D
:100880006C6179282A31306D73293A20000A092DCC
:100890002056616C756573202D0A004D3E004D2574
:1008A000643E20003F007365742064656661756C6A
:1008B000740A00433E200077686572652064656CA9
:1008C00074613A20637572736F723D25642C2077D2
:1008D0006865656C3D25640A5365652068747470AD
:1008E0003A2F2F656E2E77696B6970656469612E8A
:1008F0006F72672F77696B692F4D6F7573655F6BCB
:100900006579730A000A092D204D6F7573656B6553
:1009100079202D0A4553432F713A09717569740A7C
:10092000313A0964656C6179282A31306D73290A7E
:10093000323A09696E74657276616C286D73290AA2
:10094000333A096D61785F73706565640A343A09FA
:1009500074696D655F746F5F6D61780A353A097708
:100960006865656C5F6D61785F73706565640A3694
:100970003A09776865656C5F74696D655F746F5F70
:100980006D61780A0A703A097072696E7420766136
:100990006C7565730A643A097365742064656661F1
:1009A000756C74730A75703A092B310A646F776E2F
:1009B0003A092D310A706775703A092B31300A7087
:1009C00067646F776E3A092D31300A0A7370656576
:1009D00064203D2064656C7461202A206D61785F1D
:1009E0007370656564202A202872657065617420C3
:1009F0002F2074696D655F746F5F6D6178290A00DF
:100A00003F004D3E2000433E20004C25640A007408
:100A1000696D65725F72656164333228293A2025F9
:100A200030346C580A00686F73745F6B6579626F5D
:100A30006172645F6C65647328293A2025580A0046
:100A40000A092D20537461747573202D0A004743E1
:100A5000433A20382E322E30204156522D4C4942F6
:100A6000433A20322E302E30204156525F415243BD
:100A7000483A20617672350A004F5054494F4E5320
:100A80003A205655534220424F4F544D4147494317
:100A9000204D4F5553454B45592045585452414BD5
:100AA000455920434F4E534F4C4520434F4D4D41E8
:100AB0004E4420343039360A004255494C443A20DD
:100AC00022302E362E3135332D3338332D673937DA
:100AD000373264662D646972747922202831373A7E
:100AE00035383A3137204465632031352032303192
:100AF00038290A005649443A2030783230413028AB
:100B000053696E6761204B6579626F617264732906
:100B1000205049443A203078343232442853696EA8
:100B2000676129205645523A204445564943455F5E
:100B30005645520A00444553433A204445534352D4
:100B4000495054494F4E0A000A092D2056657273C8
:100B5000696F6E202D0A000A092D20436F6E736F96
:100B60006C65202D0A4553432F713A0971756974DC
:100B70000A6D3A096D6F7573656B65790A000A092C
:100B80002D204D61676963202D0A443A094465624E
:100B90007567204D65737361676520546F67676C77
:100BA000650A583A094D6174726978204465627526
:100BB00067204D6F646520546F67676C65202D203A
:100BC00053686F77206B65797072657373657320F6
:100BD000696E206D617472697820677269640A4B6E
:100BE0003A094B6579626F6172642044656275678A
:100BF00020546F67676C65202D2053686F77206BDA
:100C000065797072657373207265706F72740A4DC6
:100C10003A094465627567204D6F75736520546F9E
:100C200067676C650A563A0956657273696F6E0A92
:100C3000533A095374617475730A433A09416374F2
:100C4000697661746520436F6E736F6C65204D6FBC
:100C500064650A46312D4631303A09537769746329
:100C60006820746F204C6179657220302D392028FE
:100C7000463130203D204C30290A302D393A095375
:100C8000776974636820746F204C617965722030D5
:100C90002D390A4553433A095377697463682074C0
:100CA0006F204C6179657220302028616C74657208
:100CB0006E617465206B65792031290A475241566F
:100CC000453A0953776974636820746F204C6179E1
:100CD000657220302028616C7465726E61746520C5
:100CE0006B65792032290A50415553453A094A75B6
:100CF0006D7020746F20426F6F746C6F61646572E9
:100D000020285265736574290A453A095072696E44
:100D10007420454550524F4D2053657474696E6779
:100D2000730A000A002575002E6C6576656C3A2002
:100D3000000A002575002E656E61626C653A200020
:100D40000A0025303258006261636B6C6967687411
:100D50005F636F6E6669672E7261773A20000A00E2
:100D60002575002E6E6B726F3A20000A0025750003
:100D70002E737761705F6261636B736C6173685F20
:100D80006261636B73706163653A20000A002575C8
:100D9000002E737761705F67726176655F6573635C
:100DA0003A20000A002575002E6E6F5F6775693A5C
:100DB00020000A002575002E737761705F72616CE8
:100DC000745F726775693A20000A002575002E73FA
:100DD0007761705F6C616C745F6C6775693A200055
:100DE0000A002575002E636170736C6F636B5F740E
:100DF0006F5F636F6E74726F6C3A20000A00257526
:100E0000002E737761705F636F6E74726F6C5F63D7
:100E10006170736C6F636B3A20000A0025303258A2
:100E2000006B65796D61705F636F6E6669672E72C6
:100E300061773A20000A002575002E6D6F75736585
:100E40003A20000A002575002E6B6579626F617289
:100E5000643A20000A002575002E6D61747269786D
:100E60003A20000A002575002E656E61626C653AB5
:100E700020000A00253032580064656275675F63A0
:100E80006F6E6669672E7261773A20000A002575D9
:100E90000064656661756C745F6C617965723A2097
:100EA000003F000A6D6F7573653A206F66660A0031
:100EB0000A6D6F7573653A206F6E0A000A6B65796B
:100EC000626F6172643A206F66660A000A6B657928
:100ED000626F6172643A206F6E0A000A6D6174720B
:100EE00069783A206F66660A000A6D6174726978E3
:100EF0003A206F6E0A000A64656275673A206F6671
:100F0000660A000A64656275673A206F6E0A000A15
:100F10000A4A756D70696E6720746F20626F6F7416
:100F20006C6F616465722E2E2E2000433E2000659A
:100F300065636F6E6669673A0A006261636B6C692C
:100F400067687420737465703A2025750A006261C1
:100F5000636B6C696768742064697361626C650AAD
:100F6000006261636B6C6967687420656E61626CB6
:100F7000650A006261636B6C6967687420746F67EF
:100F8000676C653A2025750A006261636B6C69675E
:100F900068742064656372656173653A2025750A1B
:100FA000006261636B6C6967687420696E63726567
:100FB0006173653A2025750A006D61696E206C6F5A
:100FC0006F700A00696E6974466F72557362436F81
:100FD0006E6E656374697669747928290A000A005F
:100FE00025303258005345545F4C45443A20000A9E
:100FF0000056454E444F523A00554E4B4E4F574EB9
:101000003A005345545F4C45443A20005345545FE1
:101010005245504F52543A20002530325800534523
:10102000545F49444C453A20004745545F49444C7D
:10103000453A20004745545F5245504F52543A00BC
:101040006B6275663A2066756C6C0A00290A002589
:10105000303258005D28002575002D3E00257500B2
:10106000562D5553423A206B6275665B0009023B70
:101070000002010080FA09040000010301010009D7
:101080002101010001224000070581030800010938
:101090000401000103000000092101010001228474
:1010A000000705830308000105010902A10185026B
:1010B0000901A1000509190129051500250175017E
:1010C00095058102750395018103050109300931F8
:1010D0001581257F75089502810609381581257FC0
:1010E00035004500750895018106050C0A38021582
:1010F00081257F750895018106C0C005010980A181
:10110000018503150126B700190129B7751095014E
:101110008100C0050C0901A10185041501269C026E
:1011200019012A9C02751095018100C0050109066C
:10113000A10175019508050719E029E715002501AA
:10114000810295017508810395057501050819014E
:1011500029059102950175039103950675081500FF
:1011600026FF000507190029FF8100C012011001A8
:1011700000000008A0202D4200020102000112031D
:101180007000730032006100760072004700420078
:101190001C03770069006E006B00650079006C002D
:1011A0006500730073002E006B00720004030904D5
:1011B00011241FBECFE5D8E0DEBFCDBF04B603FECD
:1011C00024C08091540290915502A0915602B09192
:1011D00057028730904BA740B04BB9F4109254029D
:1011E00010925502109256021092570214BE84B704
:1011F000877F84BF0FB6F894A89581B5886181BDBB
:1012000011BC0FBEE0E0F8E3099510E0A0E6B0E005
:10121000E6E0FCE502C005900D92A839B107D9F7C8
:1012200022E0A8E9B0E001C01D92A435B207E1F7C1
:101230000E948E290C94BC2D0C940000FF93EF9318
:10124000E0919800F0919900309709F00995EF919D
:10125000FF910895FC018591803011F0EFDFFBCF05
:101260000895FF27E0E230E247FF0CC0419597FF69
:1012700009C0EDE26095709580959095611D711D96
:10128000811D911D27FF02C0219530E350E2AA275E
:10129000660F771F881F991FAA1FA41710F0A41BA1
:1012A00063955A95A9F7AA3008F0A95FA05DAF939E
:1012B000F395611571058105910541F7ED3211F442
:1012C000EF93F395F21718F43F93F395FBCF8F91BB
:1012D000B5DFFA95E1F70895E991F99185918030AC
:1012E00021F0853219F0AADFF9CF089520E0E894C3
:1012F00055915532C1F3503311F4689455915A33D6
:1013000048F4505390F3220F022E220F220F200D8B
:10131000250FF4CF0EF4219589919991533619F345
:10132000533729F1533559F1BC0188279927E8949F
:101330005C3621F48991999168945591543639F429
:1013400046EF7EF077FF0DC08FEF9FEF0AC0553755
:101350004AE039F0583540E121F0523642E009F0D8
:101360000895FF93EF937DDFEF91FF91B7CFFF9348
:10137000EF93FC0181918030B9F360DFFBCFFF93E5
:10138000EF9368DFF1CFDF93CF93CDB7DEB725962C
:10139000A3DFCF91DF910895A82FB92F80E090E0CF
:1013A00041E050EA609530E009C02D918227979581
:1013B000879510F084279527305EC8F36F5FA8F3F8
:1013C0000895EADF8D939D930895CF93CFB7CF9380
:1013D000C395839BE9F7839B0EC0839B0CC0839BC3
:1013E0000AC0839B08C0839B06C0C0912B02C39593
:1013F000C0932B02A3C0DF93C0912A02DD27CE5CED
:10140000DD4F839B02C0DF91E6CF2F930F931F9395
:1014100000B32FEF03FB20F94F933F9310B34FEF2F
:10142000012703FB21F93BE031C04E7F012F10B3B0
:10143000216028C0102F4D7F2260000000B329C01A
:101440004B7F2460012F000010B32BC010B3477FE7
:1014500028602AC04F7E00B320612CC04F7D10B39E
:1014600020622FC04F7B00B3206432C0422700B3FC
:1014700049934FEF0000102713FB20F910B31C70A5
:10148000C9F1297F91F2012703FB21F900B3237FE2
:1014900089F2315058F1102713FB22F910B3277E3F
:1014A00079F2012703FB23F92F7C81F200B3102787
:1014B00013FB24F92F7971F200C010B3012703FB4D
:1014C00025F92F7359F200C000B3102713FB26F93A
:1014D000223040F200C010B3012703FB27F924306B
:1014E00028F64F77206810B30000F9CF10E81ABF34
:1014F000002719C03B503195C31BD04010E81ABFDC
:101500000881033CF9F00B34E9F02091280219819D
:10151000110F1213EDCF4A81441F093641F10D32EC
:1015200011F0013E29F7009330023F914F911F9136
:101530000F912F91DF91CAB7C7FD4ACFCF91CFBF8F
:10154000CF91189520913002222379F310912E0229
:101550001123C1F53430C2F130932E0220932902B9
:1015600010912A023BE0311B30932A022DC00091DA
:101570002E0201303CF50AE54F7049F430918D00A0
:1015800034FD24C000938D00C1E1D2E023C043307C
:1015900049F030911C0234FD19C000931C02CDE1CA
:1015A000D2E018C03091480234FD10C000934802C8
:1015B000C9E4D2E00FC02795A8F45150A9F4220F36
:1015C0000000F9CF4AE503C042ED01C0432FC4E15A
:1015D000D0E032E011B31C60939A11BB02B320E457
:1015E0001CE05F93012756E002BB279520F4515081
:1015F00021F4220FF9CF012756E000003B5A02BB2D
:10160000D0F2279528F4515029F4220F0000F9CF89
:10161000012756E0279502BB20F4515021F4220FF8
:10162000F9CF012756E02991332302BB21F6037F2E
:1016300010912F02110FC651D04002BB11F0109330
:10164000280210E81ABF086011B3137F402F437FB0
:101650005F9100C000C002BB11BB42BB66CF8FEFE1
:1016600087BB88BB1ABA94B39B7B94BB8F988BBB08
:1016700085B38C6F85BB979AE8EAF0E0AAE9B0E001
:10168000119211921D921D9280E0E63BF807C1F77E
:101690000C94DF0C21E030E0A90102C0440F551F7B
:1016A0008A95E2F7CA0147BB809588BB0895282F29
:1016B00026952575880F8A7A282B822F8695869500
:1016C000837394E0299F900111242C7C822B8295B6
:1016D0000895DF92EF92FF920F931F93CF93DF93C2
:1016E000CAE9D0E08E01F12C25E0E22E8F2D0E9478
:1016F0004A0B44E14A95F1F7D9B283B380950E9431
:10170000570B20B330E0209530953695322F2227A5
:101710003795279522273074D0942D29F901F82B7D
:10172000CF01F801219131918F012817390729F054
:10173000329791838083E0926000F394F7E0FF1288
:10174000D5CF80916000882359F08150809360004C
:10175000882389F087EB9BE00197F1F700C0000038
:101760000E94DA0C81E0DF91CF911F910F91FF90E1
:10177000EF90DF900895E8EAF0E0899199918193E4
:10178000919390E0C83AD907C1F7EACFE82FF0E08B
:10179000EE0FFF1FE855FF4F808191810895089556
:1017A0000C94D40B0C94D50B089508959C01FB0167
:1017B0008281882321F12F3DFCE53F0799F020F439
:1017C0002E3D3C4549F00895203EFCE53F0769F079
:1017D000213E3C4569F0089587E690E00E94D70CD1
:1017E00080E0089581E690E0F9CF8AE590E0F6CFB9
:1017F00087E590E00E94D70C84E590E0EFCF81E090
:1018000008950F931F93CF93DF938C01EB019A956B
:1018100081159F4138F510FF03C080EEFB0109954B
:1018200011FF03C081EEFE01099512FF03C082EE95
:10183000FE01099513FF03C083EEFE010995011512
:10184000104180F084EEFE01099585EEFE010995B8
:1018500086EEFE01099587EEFE01DF91CF911F9183
:101860000F910994DF91CF911F910F910895877087
:1018700091E001C0990F8A95EAF7892F0E94011E15
:101880000C94B81D0C94370C877091E001C0990F2F
:101890008A95EAF7892F0E94071E0C94B81D0C94B4
:1018A000440CCF93DF93EC01805E9109089720F000
:1018B00067E37CE0209711F462E47CE0CE010E94B3
:1018C000010C8C2FDF91CF910C945114CF93DF93A7
:1018D000EC010E94FA14CE01805E9109089720F075
:1018E00064E47CE0209711F46FE47CE0CE01DF91AA
:1018F000CF910C94010C81E008950C94D60BCF93FA
:1019000090E0FC01E559FA4FC49185519A4FFC01D2
:101910008491882369F081EE0E9451148C2F0E94DB
:1019200051148C2F0E94FA1481EECF910C94FA146A
:101930008C2F0E9451148C2FF8CFFF920F931F937E
:10194000CF93DF938C01F62EF8018491882349F11F
:10195000E8012196813049F4FE011491812F0E9403
:101960005114812F0E94FA1406C0823089F4FE01BE
:1019700084910E9451148E010F5F1F4F8F2D815053
:1019800018F3E7EBFBE03197F1F700C00000F7CF69
:10199000833019F4FE018491E5CF0E947F0CE801A9
:1019A000EACFDF91CF911F910F91FF90089560E0F2
:1019B0000C949D0C0E944E120C94D20B08950E9420
:1019C0002A1E811102C00E94AB1E0E94DE0C0C94E4
:1019D000D00B089508950C94EA0C0C94EB0C089528
:1019E0000E94F2170E94EF0C2FEB87E299E0215042
:1019F00080409040E1F700C000000C945E1FFF9211
:101A00000F931F93CF93DF938C01FC01C081D18191
:101A10008091D400811144C082818823E1F1CE01FC
:101A20000E94041DF82E682FCE010E94B01CBE013A
:101A30008F2D0E94890EEC01B8010E94B011B801EF
:101A4000CE010E947D0C882309F482C0B801CE012A
:101A50000E94F411882309F47BC0C631FCE5DF073E
:101A600009F433C108F044C0C130ECE5DE0709F4E5
:101A700076C0D8F4C115DC4509F465C081E08093D7
:101A8000BB008093BC00C801DF91CF911F910F91E3
:101A9000FF900C947B0CCE010E94DC1CF82EC7CF6B
:101AA000CE010E94041DBE01C4CFC531ECE5DE07A6
:101AB00028F7F8018281882331F30E942A1E8111C0
:101AC00002C00E94AB1E0E94471E90E090930F023E
:101AD00080930E02FE01E350FC4580910E0281606E
:101AE000E231F10508F04CC0E254F24D0C94682D3F
:101AF000C73DFCE5DF0709F4AAC0A8F4C63DDC45F4
:101B000009F0BCCFF8018281882309F489C01092C2
:101B1000BB000E94F81E9093B8008093B70082E04B
:101B20000E94291515C0C83DFCE5DF0709F4B2C0C5
:101B3000CD3DDC4509F0A2CFF8018281882341F038
:101B40000E94AB1E05C0F801828181110E94F00C39
:101B500080E0DF91CF911F910F91FF900895F801E0
:101B600082818823A9F38091680181608093680154
:101B70008AE595E00E942A09EBCF80910E028260EF
:101B800080930E0280910E020E944B1E0E94F2175B
:101B9000DFCF80910E028460F3CF80910E028860C7
:101BA000EFCF80910E028061EBCF80910E028062B8
:101BB000E7CF80910E028064E3CF80910E028068AF
:101BC000DFCF80910E028C60DBCF80910E028E7F82
:101BD000D7CF80910E028D7FD3CF80910E028B7F65
:101BE000CFCF80910E02877FCBCF80910E028F7E68
:101BF000C7CF80910E028F7DC3CF80910E028F7B65
:101C0000BFCF80910E028F77BBCF80910E02837F72
:101C1000B7CF90910E02892F97FB87F98058B0CFEC
:101C20008091BB0081110FC08091B7009091B800E6
:101C30000E94101F883C910530F486E20E945114E6
:101C400086E20E94FA1482E00E94301581CFF801EA
:101C50008281882351F01092BC000E94F81E90935C
:101C6000BA008093B90080E25BCF8091BC00811103
:101C70000FC08091B9009091BA000E94101F883C5B
:101C8000910530F487E20E94511487E20E94FA1411
:101C900080E2DACFF80182818111DDCF8091BC0032
:101CA0008111F6CF8091B9009091BA000E94101F67
:101CB000883C910568F780E20E94301588E20E9416
:101CC000511488E20E94FA1443CF0E94EB1DF801E0
:101CD0009281992381F08A7A91E009F490E09093BF
:101CE000B600811106C089E20E94741D0E94B81DD1
:101CF0002FCF85E3F9CF8091B600811104C089E22E
:101D00000E947B1DF3CF85E3FBCF90E080E0089538
:101D10000895972F70E02FE0929F600D711D1124A0
:101D2000FB0199E6899FE00DF11D1124EE0FFF1FC5
:101D3000E259FF4F859194910895FC01EE0FFF1F2A
:101D4000E559F94F859194910895CF93DF930E94BF
:101D5000890E0E948410EC01811521E5920708F09C
:101D600049C0811530E5930708F029C1883E9105E7
:101D700008F5803E910570F5883A910570F4853A32
:101D8000910508F0A7C08130910521F1009711F16C
:101D9000049700F5D0E0C0E01DC08F3B910508F42A
:101DA000A4C0805C9109C03CD105A0F30E949D0EA7
:101DB000EC0110C08115904388F4C11580E2D8076A
:101DC00008F0F4C0C03FD10528F3CF3FD10509F09A
:101DD00008F4EAC0CE01DF91CF910895C11590E4D7
:101DE000D90708F0E9C0CE019927D3FFE2C0EC0182
:101DF000D86CF0CF811529E5920740F5811538E5BB
:101E0000930708F022C1811544E5940778F4C115C1
:101E100083E5D80708F000C1C11592E5D90708F09D
:101E2000EAC0DC2FCC27C16FD06AD4CF811525E55D
:101E3000920708F405C1811536E5930708F0AACF8B
:101E4000D82FCC27CC27DF71D062C4CF8D3B9C45E7
:101E500009F400C1CE3B8CE5D807B8F4CB3B9CE538
:101E6000D90709F4FAC008F0FBC0C1153AE5D30759
:101E700008F090CFCE0134E0969587953A95E1F73A
:101E80008F70CF70C06ED82F98C0C03C4CE5D4077F
:101E900009F4E9C060F4CE3B9CE5D90709F4E6C03B
:101EA000CF3BDC4509F076CFC0E0D2ED93CFCE0139
:101EB00090568115904208F06DCF8D2F8F710E9442
:101EC000FF1090E0982F882788279F719C012C2B6A
:101ED000E901BACF853A910509F4CBC0863A91055C
:101EE00009F0CAC0C2E8D0E475CF883A910509F478
:101EF000C6C0893A910509F4C5C08A3A910509F42A
:101F0000C4C08B3A910509F4C3C08C3A910509F419
:101F1000C2C08B3B910509F4C1C08C3B910509F40B
:101F2000C0C08D3A910509F4BFC0803B910509F40A
:101F3000BEC08E3A910509F4BDC08F3A910509F4EF
:101F4000BCC0813B910509F4BBC0823B910509F4FB
:101F5000BAC0833B910509F4B9C0843B910509F4EB
:101F6000B8C0853B910509F4B7C0863B910509F4DB
:101F7000B6C0873B910509F4B5C0883B910509F4CB
:101F8000B4C0893B910509F4B3C08D3B910509F4B8
:101F9000B2C08E3B910509F4B1C08A3B910509F4AA
:101FA000B0C0C0E0D4E416CFD06514CFCE019F708E
:101FB000FDCEEC01D06C0ECFDF70D06A0BCFE4E029
:101FC00096958795EA95E1F783702C2F26952695AF
:101FD000237040E2249F90011124382B8C2F8370B2
:101FE000C1E0D0E002C0CC0FDD1F8A95E2F7C22B22
:101FF000D32BDC68EFCECE018370992721E030E04F
:1020000002C0220F331F8A95E2F7C695C69580E27B
:10201000C89FE0011124EBCFCE018370992721E006
:1020200030E002C0220F331F8A95E2F7C695C695AD
:1020300090E2C99FE0011124C22BD32BDA68CACEEB
:10204000D82FCC27C46FD06AC5CED82FCC27C06F6D
:10205000D06AC0CEC0E0D1EDBDCEC0E0D4EDBACEE6
:10206000C0E0D5EDB7CEC0E0D3EDB4CEC0E0D0ED4A
:10207000B1CEC1E8D0E4AECEC3E8D0E4ABCEC2EE80
:10208000D4E4A8CEC9EED4E4A5CECAEED4E4A2CE60
:10209000C5EBD4E49FCEC6EBD4E49CCEC3EBD4E432
:1020A00099CEC4EBD4E496CEC7EBD4E493CECCEC7B
:1020B000D4E490CECDECD4E48DCEC3E8D5E48ACE82
:1020C000CAE8D5E487CEC2E9D5E484CEC4E9D5E434
:1020D00081CEC1E2D6E47ECEC3E2D6E47BCEC4E2BA
:1020E000D6E478CEC5E2D6E475CEC6E2D6E472CEAA
:1020F000C7E2D6E46FCECFE6D4E46CCEC0E7D4E43A
:1021000069CECAE2D6E466CE8238910549F1B0F4D0
:102110008133910509F462C048F48932910509F4CC
:1021200056C08A32910509F460C00895853391053F
:1021300009F446C08933910599F00895833E9105CD
:1021400031F138F4803E910591F0823E9105B1F075
:102150000895863E910521F1873E910551F108953C
:1021600020910E022370D9F080EE90E00895209126
:102170000E0220FF14C089E390E0089520910E0222
:1021800022FF0DC024FD09C083EE90E00895209148
:102190000E0222FD31C024FF02C090E080E00895CD
:1021A00020910E0223FFFBCF24FDF7CF87EE90E0B6
:1021B000089520910E0223FFEECF86EE90E0089561
:1021C00020910E0225FFEBCF89E290E00895209147
:1021D0000E0225FFE4CF85E390E0089520910E02E2
:1021E00026FFDDCF8AE290E0089520910E0226FFBF
:1021F000D6CF81E390E0089582EE90E0089590912B
:102200000E0292FF06C0282F2871283069F4877FBC
:10221000846093FF06C0282F2871283161F4877EDF
:10222000846194FD877E0895282F2471243089F7D6
:102230008B7F8860EECF282F2471243191F78B7E1D
:102240008861EFCFCF93DF93EC0181E08F878F819F
:102250000E94EE1D88850E94011E0E94B81DEA8121
:10226000FB81309739F06A897B89CE010696DF9130
:10227000CF910994DF91CF910895CF93DF93EC0133
:102280008881823039F4FB01828193810E94510C54
:1022900081E08987DF91CF910895FC0180818130B1
:1022A00029F4FB01808191810C94510C823021F43E
:1022B000FB0182819381F8CF0895FC0180818130F8
:1022C00029F4FB01808191810C94660C823021F409
:1022D000FB0182819381F8CF0895EF92FF920F93D3
:1022E0001F93CF93DF93EC018885811132C0EB807F
:1022F000FC8087E5F81A24E12E9DC0012F9D900DEA
:102300001124DC01AF59BF4F1496ED91FC91159744
:10231000309731F052966D917C9189599F4F099574
:1023200084E18E9D80018F9D100D11240F591F4F48
:10233000F80187810E94F41DF80180850E94071E24
:102340000E94B81D18821F8219861092BE0010923A
:10235000BD00DF91CF911F910F91FF90EF900895F5
:10236000DF92EF92FF920F931F93CF93DF937C0145
:10237000FB018281882391F0809179008F3F71F079
:10238000C1E6D0E010E000E0DD24D3948091790034
:10239000082E000C990B8017910744F4DF91CF9120
:1023A0001F910F91FF90EF90DF9008958E81882309
:1023B000B9F089859A858E159F0539F48091BD0005
:1023C0009091BE008E159F0559F0DD868F85811195
:1023D00003C0CE010E942211CE0106960E946D110B
:1023E0000F5F1F4F6496D2CFEF92FF920F931F9310
:1023F000CF93DF937C0197558F3F910509F0D8F576
:1024000020917900022E000C330B2817390714F4A1
:1024100080937900FB01228134E1389F8001399F4C
:10242000100D1124E801CF59DF4F2E8792818E8144
:10243000992349F1FA86E9868F5F8E830E94F81E00
:102440009C878B870E94271E8F830E94EB1D8887A5
:102450000E94FE1D9885892B8887E881F981309735
:1024600031F06A897B89C80189599F4F0995F0929B
:10247000BE00E092BD0081E0DF91CF911F910F91EE
:10248000FF90EF9008958823B1F38F85882399F307
:10249000C80189599F4F0E946D11EDCFEF92FF92B5
:1024A0000F931F93CF93DF938091790010E004E1A5
:1024B0008F3FC1F5DF91CF911F910F91FF90EF906A
:1024C0000895029FF001039FF00D1124EF59FF4F73
:1024D000E088F188E114F10419F488ECE82EF12C7D
:1024E000029FE001039FD00D1124CF59DF4F8E8151
:1024F0008823B9F08B859C850E94101FE816F90689
:1025000080F4109F700111248F85811105C0C701CF
:102510008F599F4F0E942211C70189599F4F0E94D6
:102520006D111F5F212F30E080917900082E000C83
:10253000990B821793072CF6BDCF9093C40080931C
:10254000C3000895E091C300F091C400309721F0DA
:102550000190F081E02D099480E00895EF92FF92C0
:102560000F931F93CF93DF938C01E091C300F09101
:10257000C4003097C1F10280F381E02D099580916C
:10258000680182FF30C080FF04C083E796E00E94AC
:102590002A09D0E0C0E08DE6E82E86E0F82E809192
:1025A000680180FF0EC0F801EC0FFD1F80811F92B3
:1025B0008F93FF92EF920E94C3090F900F900F909C
:1025C0000F902196C830D10551F78091680180FFA6
:1025D0000AC08BE696E0DF91CF911F910F91FF909B
:1025E000EF900C942A09DF91CF911F910F91FF90EA
:1025F000EF900895E091C300F091C400309721F06E
:102600000480F581E02D099408952091C100309156
:10261000C2002817390771F09093C2008093C1005F
:10262000E091C300F091C400309721F00680F7815B
:10263000E02D099408952091BF003091C000281723
:10264000390771F09093C0008093BF00E091C30000
:10265000F091C400309721F00084F185E02D0994B9
:10266000089581E008950E94F11E0E942F0B0E94A0
:10267000C21F0C947A28CF93C82F8091680182FFE3
:102680001EC080FF1CC08CE896E00E942A09809141
:10269000680180FF14C01F92CF9387E896E09F9354
:1026A0008F930E94C309809168010F900F900F9043
:1026B0000F9080FF04C085E896E00E942A098C2FC5
:1026C000CF910C94ED0C5F926F927F928F929F92BC
:1026D000AF92BF92CF92DF92EF92FF920F931F9330
:1026E000CF93DF93CDB7DEB72A970FB6F894DEBF4E
:1026F0000FBECDBF0E94690B0E943113882309F4DD
:102700007AC096ECA92E90E0B92E10E000E0882463
:102710008394912C502E802F0E94C60B7C01F501D2
:10272000C190D1905F01C816D90609F45EC08091AE
:10273000680181FD0E94CF0B90E080E0CE24DF2471
:102740003401082E02C0660C771C0A94E2F7960149
:1027500026213721232B09F443C08E835F82E62094
:10276000F72081E0EF2809F480E088870E94F81EB6
:102770008160782F9A8789874E815F8168858A85F5
:102780000E942214000F111FF801EA53FF4F8081AD
:10279000918168267926718260820E94CB220E94F4
:1027A000A2129091C5008917B9F10E94A2128093DC
:1027B000C5002A960FB6F894DEBF0FBECDBFDF91DD
:1027C000CF911F910F91FF90EF90DF90CF90BF902E
:1027D000AF909F908F907F906F905F900C943B1381
:1027E00001968F30910509F0ABCF0F5F1F4F073077
:1027F000110509F08FCF8FEF89838A831B820E9496
:10280000F81E8160782F9D838C8349815A816B816A
:102810008D810E942214C1CF2A960FB6F894DEBF94
:102820000FBECDBFDF91CF911F910F91FF90EF9021
:10283000DF90CF90BF90AF909F908F907F906F90E0
:102840005F900895CF93DF93CDB7DEB72B970FB688
:10285000F894DEBF0FBECDBF4F83588769877A8754
:102860008B871E821D8285E0FE013796DE01119660
:1028700001900D928A95E1F749815A816B817C81A3
:102880008D819E812B960FB6F894DEBF0FBECDBF13
:10289000DF91CF910C94901AFC01808191810C946E
:1028A000461DCF93C82F882309F4A2C08CEF8C0F4C
:1028B000813A58F48C2F0E943127811199C08C2FB6
:1028C0000E94741DCF910C94B81D80E28C0F88304B
:1028D00048F4C77081E001C0880FCA95EAF70E94EA
:1028E000EE1DF0CF8BE58C0F833068F481E890E02B
:1028F000C53A31F083E890E0C63A11F482E890E0FE
:10290000CF910C94051388E58C0F873108F068C0CF
:1029100082EE90E0C83A09F460C089EE90E0C93ACE
:1029200009F45BC08AEE90E0CA3A09F456C085EB20
:1029300090E0CB3A09F451C086EB90E0CC3A09F430
:102940004CC083EB90E0CB3B09F447C084EB90E0B4
:10295000CC3B09F442C087EB90E0CD3AF1F18CEC2E
:1029600090E0C03BD1F18DEC90E0CE3AB1F183E83C
:1029700091E0CF3A91F18AE891E0C13B71F182E9AF
:1029800091E0C23B51F184E991E0C33B31F181E236
:1029900092E0C43B11F183E292E0C53BF1F084E2A6
:1029A00092E0C63BD1F085E292E0C73BB1F086E20F
:1029B00092E0C83B91F087E292E0C93B71F08FE66C
:1029C00090E0CD3B51F080E790E0CE3B31F090E0DD
:1029D00080E0CA3B11F48AE292E0CF910C941B1381
:1029E000C03F30F08C2F0E945721CF910C943E2293
:1029F000CF910895882361F19CEF980F913A20F4CC
:102A00000E947B1D0C94B81D90E2980F983050F4F2
:102A1000877091E001C0990F8A95EAF7892F0E948B
:102A2000F41DF0CF9BE5980F933020F490E080E008
:102A30000C94051398E5980F973120F490E080E00E
:102A40000C941B13803F20F00E94BF210C943E2267
:102A50000895882321F00E94EE1D0C94B81D08955E
:102A6000882321F00E94F41D0C94B81D08958F92C4
:102A70009F92AF92BF92CF92DF92EF92FF920F930D
:102A80001F93CF93DF937C01D62FC72FFC010581C5
:102A900002950F70128111110E940E1E0E94B11D2D
:102AA000C82E882371F01123B1F080E28D0F883099
:102AB00090F082E00E949B1D0E94B11D91E0C82E03
:102AC000C926DC2ED2949FE0D922ED2DF0E0E05310
:102AD000F24D0C94682DC12CF4CF0C2F0F70C07FD9
:102AE00011F00295007F1123A9F0002359F080E234
:102AF0008D0F883010F0D11109C0802F0E94EE1D7B
:102B00000E94B81D8D2F0E94511414C0802F0E9466
:102B1000011EF6CF8D2F0E94FA14002359F080E297
:102B20008D0F883010F0D11133C0802F0E94F41D1A
:102B30000E94B81D98E0D91639F0D91648F086EFF2
:102B40008D0D8F70823020F40E94A2120E94ED0C35
:102B5000CC2009F4FCC10E948E1D80FDF8C1F70154
:102B600012820E94881D0E94141CC7010E94B41783
:102B70000E94881DDF91CF911F910F91FF90EF90E0
:102B8000DF90CF90BF90AF909F908F900C94351CAA
:102B9000802F0E94071ECCCFFC2FFF70BF2EC07F5E
:102BA000C03219F0B29480EFB822DD2369F0D13041
:102BB00049F1112391F1002351F1F701858180FF43
:102BC000A1CF8F70858323C0112381F0011106C02E
:102BD0000E94271E8B290E942915ACCF0130C1F716
:102BE0000E94271E8B290E94211EA4CF011106C01E
:102BF0000E94241E8B2D0E9430159CCF013009F4B9
:102C000099CFF6CF112329F0063008F093CF8B2D02
:102C1000E2CF053008F08ECFEDCF002359F38D2F92
:102C20000E94FA1487CF8C2F86958695837069F061
:102C3000813009F07FCF8D2F9C2F9370111102C02E
:102C400090E080E00E941B1375CF8D2F9C2F937016
:102C5000111102C090E080E00E9405136BCF112398
:102C600009F1D53F99F0D63FB9F0D43F49F48091AE
:102C700008029091090281609093090280930802F2
:102C80008D2F0E9457210E943E2254CF809108022E
:102C9000909109028260F0CF809108029091090220
:102CA0008460EACFD53F89F0D63FA9F0D43F49F4FC
:102CB00080910802909109028E7F9093090280937F
:102CC00008028D2F0E94BF21DECF809108029091D3
:102CD00009028D7FF2CF80910802909109028B7FCB
:102CE000ECCF8C2F837009F047C0111123CF2D2F0B
:102CF000229526952770220F220F6D2F6F70862E3A
:102D0000912CB12CA12C022E04C0880C991CAA1C59
:102D1000BB1C0A94D2F760E070E0CB01D4FF0FC077
:102D20006FE070E080E090E004C0660F771F881FBE
:102D3000991F2A95D2F76095709580959095C695C4
:102D4000C695C370C23051F080F4682979298A2968
:102D50009B29C13071F00E94C61BECCE68297929ED
:102D60008A299B290E94D81BE5CE0E94C61BC5015B
:102D7000B4010E94B41BDECE8695112311F08C2F76
:102D80008170882309F4D6CE2D2F229526952770A1
:102D9000220F220F6D2F6F70862E912CB12CA12C3B
:102DA000022E04C0880C991CAA1CBB1C0A94D2F7E2
:102DB00060E070E0CB01D4FF0FC06FE070E080E016
:102DC00090E004C0660F771F881F991F2A95D2F7DD
:102DD0006095709580959095C695C695C370C230E4
:102DE00051F080F4682979298A299B29C13071F032
:102DF0000E948B1C9FCE682979298A299B290E94D1
:102E00009D1C98CE0E948B1CC501B4010E94791CA8
:102E100091CEE0E2ED0FE53108F04DC0F0E0E05278
:102E2000F24D0C94682DDF708C2F8F71112321F0DF
:102E30000E94141C8D2FCFCE0E94351C8D2FDBCE0F
:102E4000112341F0053008F075CE8C2F8F710E9450
:102E5000581C70CE063008F06DCEF7CF8C2F8F71D6
:102E6000112339F00E94141C65CE8C2F8F71112311
:102E7000C9F30E94351C5ECE112329F08C2F8F716F
:102E80000E94FF1B57CE0E94FA1B54CE112349F01B
:102E9000CF718C2F0E94141C63E08C2F0E94921D16
:102EA00049CE81E00E949B1D023008F443CE82E0AF
:102EB0000E949B1D3FCE112329F0011123CE8C2FA0
:102EC0008F71D0CF002369F0D93309F0A8CEFFEF7E
:102ED0002DEE82E0F15020408040E1F700C000007C
:102EE0009ECE8C2F8F71C5CF4C2F4F706D2FC70189
:102EF0000E94850E0E942A1B1DCE11111BCECF7081
:102F0000C230B1F040F4CC2381F0C13009F012CED0
:102F10000E94BA280FCEC43089F068F080E0C53036
:102F200009F008CE0E94732905CE0E94932802CE94
:102F30000E942129FFCD0E943D29FCCD81E0F2CFE6
:102F40004C2F4F706D2FC7010E94880EF3CDDF917B
:102F5000CF911F910F91FF90EF90DF90CF90BF9096
:102F6000AF909F908F9008950F931F93CF93DF930F
:102F7000EC018B819C81892B29F08881998189239F
:102F80008F3F29F4DF91CF911F910F910895CE01CA
:102F90000E94FF0C8823B1F3688179818A810E94A5
:102FA000501D8C010E94AF1C0E94B11BB801CE01C4
:102FB000DF91CF911F910F910C9437150E940E1E37
:102FC0000E941E1E0E94821D0E94B81D0E945E2348
:102FD0000E943E2290E080E00E94051390E080E095
:102FE0000C941B130E94FB1D0C94DE170E94461DBF
:102FF000E92FE295EF70E250EE3070F4F0E0EB5024
:10300000F24D0C94682D803F19F020F4803E20F49E
:1030100081E00895843FE1F380E00895803EC0F3AD
:10302000813FD1F7F5CF93FB882780F90895CF939F
:10303000DF9300D000D00F92CDB7DEB70F900F9086
:103040000F900F900F90DF91CF910895CF93DF9362
:1030500000D000D000D0CDB7DEB726960FB6F894DA
:10306000DEBF0FBECDBFDF91CF9108951F93CF93E9
:10307000DF93C091D50016E08091D6008C1304C078
:10308000DF91CF911F910895D0E01C9FF0011D9F0B
:10309000F00D1124E952FF4F40815181628173810B
:1030A000848195810E9426182196C770E5CF4091B2
:1030B0000701509108016091090170910A01809106
:1030C0000B0190910C010C9426181F93CF93DF9362
:1030D00080910C01807FC1F4809109018823A1F0C7
:1030E0008091D500C091D6006091070170910801D0
:1030F00040910A0150910B01D62FD723DA01A095F8
:10310000B09516E0C81304C0DF91CF911F910895C8
:1031100090E04115510511F0DF3F31F401968770C1
:10312000F1CF2A0F3B1F17C0189FF001199FF00D18
:103130001124E952FF4F21812713F0CF208126135C
:10314000EDCF22812111EACF238134812417350765
:1031500040F3241B350B283C310500F720910C016E
:103160002F70206120930C0126E0289FF001299FF9
:10317000F00D1124E452FF4F80818F7080618083B5
:1031800087E091E00E94B417DF91CF911F910C94DA
:103190003618BF92CF92DF92EF92FF920F931F9358
:1031A000CF93DF93CDB7DEB761970FB6F894DEBF4C
:1031B0000FBECDBF8C0185E0F801DE011D960190A8
:1031C0000D928A95E1F7D8014C9111965C91119777
:1031D0001296EC90129780910A0190910B01009742
:1031E00009F47FC12091070130910801622F632308
:1031F0006F3F09F476C11396CD90DC90B090090131
:10320000BB2009F411C1C816D906D0F1F601E81B9C
:10321000F90BCF01FF24F394883C910508F0F12CC1
:1032200080910C01982F907FFF2009F4B8C0911174
:103230007FC0FE2C351329C0241327C0E11025C000
:103240008F70806180930C010E94571887E091E095
:103250000E94B41780910C01D80115968C938F2D84
:1032600061960FB6F894DEBF0FBECDBFDF91CF9150
:103270001F910F91FF90EF90DF90CF90BF90089536
:10328000809590958C0D9D1DC5CFCD2829F0852F5B
:1032900084238F3F09F041C180E0B82FB170DB2E4D
:1032A00080FF3CC08091D5002091D60036E082138B
:1032B00015C04D875E878D859E850E94461D292FEE
:1032C00022952F702230F0F0243018F59F70F1F025
:1032D000F8019581907FD1F4D12C1EC090E0389FE9
:1032E000F001399FF00D1124E952FF4F6181651300
:1032F00006C06081641303C06281E6120FC00196AC
:103300008770D5CF9F7011F0882331F3805E8830AD
:1033100018F3C8010E94B417FD2CA1CFEE2009F4C8
:103320009ECF80910C01816080930C01F12C97CF8E
:10333000351306C0241304C0D801EE2009F49AC046
:103340004D875E878D859E850E94F617882319F12B
:10335000EE2009F180910C01803270F0209107017C
:103360003091080138872F831986DB86CA868C87BF
:10337000CE0107960E94B41786E0F801A7E0B1E0FD
:1033800001900D928A95E1F70E9465180E945718E6
:10339000FF24F39464CFC8010E94B417F9CF9111B0
:1033A00013C07C2DD98AC88A6E2D89890E9417186E
:1033B00087E091E00E94B41786E0E7E0F1E0DF01EA
:1033C0001D928A95E9F763C0351312C0241310C00B
:1033D000E1100EC0F8018583C8010E94B417E7E030
:1033E000F1E086E0DF011D928A95E9F7FB2C37CFEB
:1033F0004D875E878D859E850E94F617882359F23A
:10340000EE2049F280910C01803208F4B5CF209172
:103410000701309108013A8329831B82DD82CC8227
:103420008E83CE010196A6CFC816D90698F1F60173
:10343000E81BF90BCF01F12C883C910508F049C03D
:10344000FE2CEE2009F4A7CF351332C0241330C070
:1034500080910C0180FD23C0982F907F01F1D8014D
:1034600015968C931597903F39F0982F907F905F29
:103470008F70892B15968C93C8010E94B41786E033
:10348000F801A7E0B1E001900D928A95E1F70E9462
:103490005718E5CE809590958C0D9D1DCCCF86E07C
:1034A000F801A7E0B1E001900D928A95E1F7D7CE3F
:1034B0004D875E878D859E850E94F61781115CCFB2
:1034C00080910C01816080930C01C8010E94B417A7
:1034D000C6CE7C2DD98AC88A6E2D89890E9417187C
:1034E0006BCFEE2009F457CF4D875E878D859E8583
:1034F0000E94F617F82E882309F44DCF86E0F801D4
:10350000A7E0B1E001900D928A95E1F787E091E0A4
:103510000E944C140E946518BACF81E08E25BDCE62
:103520001F93CF93DF93CDB7DEB72C970FB6F894E8
:10353000DEBF0FBECDBF4F83588769877A878B87E1
:103540009C87CE0107960E94C918882369F08A8556
:103550009B85892B39F04F815885842F85238F3F98
:1035600009F071C016E05FC086E0FE013796DE010B
:10357000119601900D928A95E1F78A859B85892B9A
:1035800089F388859F8189238F3F61F32091D6003D
:1035900030E0C9010196877099274091D5004817FE
:1035A000190671F40E94F2171092D6001092D500FD
:1035B00086E0E7E0F1E0DF011D928A95E9F7D2CFDE
:1035C00096E0929FD001939FB00D1124A952BF4F56
:1035D000FE01319601900D929A95E1F78093D60005
:1035E0000E943618BFCF819FC001112489529F4F7E
:1035F0000E94C9188823E9F0E091D5001E9FF001D0
:103600001124E952FF4F408151816281738184818D
:1036100095810E9426188091D50090E001968770D0
:1036200099278093D5008091D5009091D600891379
:10363000DACF2C960FB6F894DEBF0FBECDBFDF9168
:10364000CF911F91089569857A858B859C850E940D
:10365000261888CFEF92FF920F931F93CF93DF939B
:103660008C01892B81F0F12CEE24E394E801219662
:10367000F8018491843770F4843008F05FC08130A1
:10368000B1F08230A1F1DF91CF911F910F91FF90A6
:10369000EF900895853709F44CC008F43DC09CE7CD
:1036A000980F903780F78F770E94FA1449C00E5F09
:1036B0001F4FFE01849190E2980F983060F487705C
:1036C000FE2D01C0FF0F8A95EAF78F2F0E94111E71
:1036D0000E94B81D02C00E9451148F2D815030F2FB
:1036E000E7EBFBE03197F1F700C00000F7CF0E5F8A
:1036F0001F4FFE01849190E2980F983050F487702C
:10370000FE2D01C0FF0F8A95EAF78F2F0E94171E2A
:10371000DFCF0E94FA14E1CF0E5F1F4FFE01C4916C
:10372000C150D8F287EB9BE00197F1F700C0000091
:10373000F7CF0E5F1F4FFE01F490CFCF0E945114C0
:103740008E01CBCF08950C94A21B0E94A31B609303
:103750005701709358018093590190935A010C942A
:10376000DE1708950C94A51B0F931F93009157012A
:10377000109158012091590130915A01602B712B01
:10378000822B932B1F910F910C94A51B0F931F93CA
:1037900000915701109158012091590130915A011F
:1037A00060237123822393231F910F910C94A51BF7
:1037B0000F931F93009157011091580120915901C7
:1037C00030915A0160277127822793271F910F910B
:1037D0000C94A51B0C94A21B0C94EA1B0E94EC1BDE
:1037E0006093530170935401809355019093560157
:1037F0000C94DE1760E070E0CB010C94EE1B0F938D
:103800001F9341E050E060E070E08A019B0104C03A
:10381000000F111F221F331F8A95D2F7C901B8016B
:103820001F910F910C94EE1B0F931F9341E050E0FA
:1038300060E070E004C0440F551F661F771F8A9533
:10384000D2F78091530190915401A0915501B0910C
:1038500056018A019B01082B192B2A2B3B2BC901EE
:10386000B8011F910F910C94EE1B0F931F9341E031
:1038700050E060E070E004C0440F551F661F771FE2
:103880008A95D2F7CB01BA01609570958095909595
:10389000009153011091540120915501309156012E
:1038A00060237123822393231F910F910C94EE1BAD
:1038B0000F931F9341E050E060E070E004C0440FBC
:1038C000551F661F771F8A95D2F7809153019091FB
:1038D0005401A0915501B09156018A019B0108271E
:1038E00019272A273B27C901B8011F910F910C9472
:1038F000EE1B0F931F9300915301109154012091DF
:10390000550130915601602B712B822B932B1F9107
:103910000F910C94EE1B0F931F9300915301109184
:103920005401209155013091560160237123822367
:1039300093231F910F910C94EE1B0F931F930091F3
:103940005301109154012091550130915601602787
:103950007127822793271F910F910C94EE1B0895D6
:103960002FE0929F800D1124982F977041E001C0A5
:10397000440F9A95EAF786958695869595E0899FF6
:10398000F0011124E35FFE4F90E080E070E0519180
:10399000DF0111979B01082E02C0369527950A94E6
:1039A000E2F7217021952527242325272C930196C2
:1039B0008530910561F708952FE0929F800D1124C5
:1039C000982F977086958695869525E0829FF001C1
:1039D0001124E35FFE4F50E040E080E0219130E0B1
:1039E000092E02C0369527950A94E2F721703327F5
:1039F000042E01C0220F0A94EAF7822B4F5F5F4F1B
:103A00004530510559F70895BF92CF92DF92EF925A
:103A1000FF920F931F93CF93DF938C01C0905301BC
:103A2000D0905401E0905501F090560180915701DB
:103A300090915801A0915901B0915A01C82AD92AF0
:103A4000EA2AFB2ACFE1D0E0BC2ED701C6010C2E1A
:103A500004C0B695A795979587950A94D2F780FDEF
:103A60000EC0219788F7B12C8B2DDF91CF911F913C
:103A70000F91FF90EF90DF90CF90BF900895B80125
:103A80008C2F0E94A50E019761F3EECFCF93DF93A9
:103A9000EC010E94041DBE01DF91CF910C94A50E94
:103AA0001F93CF93DF93EB019091D400992331F0D2
:103AB000CB01DF91CF911F910C94461D882379F0A3
:103AC000CB010E94041D182F682FCE010E94B01C4C
:103AD000BE01812FDF91CF911F910C94A50ECB01D8
:103AE0000E94DC1C182FF4CF682F80917A009091EF
:103AF0007B000C94E61E682F80917A0090917B00E9
:103B00000C94E81E80917A0090917B000C94EA1E40
:103B100080915B01859585958595089580915B01E0
:103B20008770089598E0899F90011124622B60931B
:103B30005B010C94141C90915B0180958923809308
:103B40005B01282F277061F4282F082E000C330BFF
:103B50009217130629F08595859585950C94351C4B
:103B6000089590915B01977081E009F480E00895D9
:103B7000E0917A00F0917B00809167018083E09171
:103B80007A00F0917B00808190916601892B80837F
:103B9000E0917A00F0917B00808190916501892B02
:103BA000808390915C01992381F0E0917A00F091FB
:103BB0007B008081892B808380917A0090917B00AB
:103BC0000E94AD1E811110925C0180917A0090914B
:103BD0007B000C94AE12809167010895909167016B
:103BE000892B8093670108958095909167019823B0
:103BF000909367010895109267010895809166017E
:103C0000089590916601892B8093660108958095AF
:103C10009091660198239093660108951092660131
:103C2000089590916501892B809365010895809591
:103C30009091650198239093650108951092650114
:103C4000089580935C01089510925C01089580911D
:103C50005C01089590E080E00E94762D21E08D3E89
:103C60009E4F09F020E0822F089582E090E00C94AE
:103C70006E2D682F82E090E00C947C2D83E090E024
:103C80000C946E2D682F83E090E00C947C2D84E0E2
:103C900090E00C946E2D682F84E090E00C947C2DC5
:103CA00086E090E00C946E2D682F86E090E00C94F6
:103CB0007C2DAB01BC018FE090E00C948D2DAB010D
:103CC000BC0183E190E00C948D2D60E070E0CB01AD
:103CD0000C945F1E60E070E0CB010E94591E0C94B2
:103CE000651E6DEE7EEF90E080E00E94992D60E011
:103CF00082E090E00E947C2D60E083E090E00E94F2
:103D00007C2D109257011092580110925901109277
:103D10005A0160E084E090E00E947C2D60E085E044
:103D200090E00E947C2D60E086E090E00E947C2D77
:103D30006FEF87E090E00E947C2D40E050E0BA01F8
:103D400088E090E00E948D2D60E08DE090E00E9480
:103D50007C2D0C946A1E0C94711E9C012E5F3F4FAB
:103D6000AC01485F5F4F80E02417350709F40895E0
:103D7000F90191919F019923B9F38F5FF5CF9C01D0
:103D8000FC0132969FEF80E04191461751F09F3F32
:103D900019F4411101C0982F8F5F8630A9F79F3F1A
:103DA00009F40895290F311D97FD3A95F9016283B1
:103DB0000895FC01329608962191261303C0DF0175
:103DC00011971C92E817F907B9F708950C94BF1ED4
:103DD0000C94D91E029626E0FC0111922A95E9F76F
:103DE00008958BE083BF8BEB8CBF82E089BF089581
:103DF0002FB7F89480910A0290910B02A0910C02C7
:103E0000B0910D022FBF08952FB7F89460910A0268
:103E100070910B0280910C0290910D022FBF0895BA
:103E2000CF92DF92EF92FF920F931F932FB7F894E8
:103E300040910A0250910B0260910C0270910D02A8
:103E40002FBF6A017B01EE24FF248C0130E020E0CB
:103E5000C016D106E206F30650F0481B590BCA0102
:103E60001F910F91FF90EF90DF90CF9008954150F8
:103E70005109F3CF78941F921FB61F9211248F938C
:103E80009F93AF93BF9380910A0290910B02A091F0
:103E90000C02B0910D020196A11DB11D80930A0282
:103EA00090930B02A0930C02B0930D02BF91AF91BF
:103EB0009F918F911F901FBE1F90189560E081E029
:103EC00090E00E949F2D87E090EBDC0180935402EC
:103ED00090935502A0935602B093570288E19CE05C
:103EE0000FB6F894A89581BD0FBE91BDFFCFAF92DC
:103EF000BF92CF92DF92EF92FF920F931F93CF93D7
:103F0000C0E0CC24C394D12CE82EF12C8C2F0E943D
:103F1000C60B5C0110E000E0C601002E02C0880F55
:103F2000991F0A94E2F78A219B21892B99F40F5F4C
:103F30001F4F0F30110581F7CF5FC73039F780E091
:103F4000CF911F910F91FF90EF90DF90CF90BF9096
:103F5000AF900895602F7C2F80E00E94890EE816B4
:103F6000F90629F781E0ECCFCF93C82F8CE20E94AD
:103F7000771F882321F08C2FCF910C94771F80E03E
:103F8000CF910895CF930E942A1E811102C00E94F2
:103F9000AB1E86EA96E00E942A09C5E6C15009F0E8
:103FA000D5C08FE996E00E942A0989E20E94B41FD9
:103FB0008111F8C08AE20E94B41F81110E94AB1ED9
:103FC00085E00E94B41F81110E945E1F0E94351E71
:103FD0008093680187E00E94B41F882371F08BE111
:103FE0000E94B41F882309F4BAC090916801892FF8
:103FF0008D7F91FF826080936801809168010E94AB
:10400000391E0E94471E90E090930F0280930E028B
:1040100080EE0E94B41F882341F090910E02892FF8
:104020008E7F90FF816080930E0289E30E94B41F0F
:10403000882341F090910E02892F8D7F91FF82603D
:1040400080930E0282EE0E94B41F882341F090916B
:104050000E02892F8B7F92FF846080930E0286EE82
:104060000E94B41F882341F090910E02892F877F10
:1040700093FF886080930E0283EE0E94B41F882312
:1040800041F090910E02892F8F7E94FF8061809382
:104090000E0285E30E94B41F882341F090910E0226
:1040A000892F8F7D95FF806280930E0281E30E94AD
:1040B000B41F882341F090910E02892F8F7B96FFC9
:1040C000806480930E0281E10E94B41F882341F036
:1040D00090910E02892F97FB87F9805880930E02EA
:1040E00080910E020E944B1E87E20E94B41FC82FCF
:1040F0008EE10E94B41F8111C2608FE10E94B41F43
:104100008111C46080E20E94B41F8111C86081E205
:104110000E94B41F8111C06182E20E94B41F81110C
:10412000C06283E20E94B41F8111C06484E20E94D5
:10413000B41F882389F1C0688C2F0E94421E6C2F07
:1041400070E090E080E0CF910C94B21B0E94690B6C
:104150008FE295E70197F1F700C000001FCF8EE0D6
:104160000E94B41F882339F090916801892F8B7FBA
:1041700092FF846040CF80E10E94B41F909168015B
:10418000882329F0892F877F93FF886034CF892F78
:104190008E7F90FF81602FCFC111CECF0E943E1E37
:1041A000682FCECFCF91089580916B0180FF12C010
:1041B00060917F0085E0689FB00111247595679537
:1041C0007595679560387105A8F561157105A1F1C0
:1041D000862F089581FF09C060917F0085E0689F68
:1041E000B001112475956795EDCF60917F0082FD38
:1041F0000AC080916C018823D1F090917E0060917B
:104200007F00891728F085E0689FB0011124DACF7C
:10421000869FB001112485E0869F9001879F300D15
:104220001124692F70E0C9010E94542DCBCF65E0A5
:1042300070E0CECF8FE7089581E0089580916B0103
:1042400080FF0CC060917D0070E075956795759555
:1042500067956115710549F1862F089581FF06C0A4
:1042600060917D0070E075956795F3CF60917D005A
:1042700082FD0BC090916C019923A1F060917C00AC
:1042800080917D00961738F0682F70E060387105D6
:1042900000F38FE70895899FC001112470E00E9408
:1042A000542DF4CF61E070E0D7CF81E00895803FD6
:1042B00031F40E94D420819580936F010895813F4D
:1042C00019F40E94D420F8CF823F31F40E94D42008
:1042D000819580936E010895833F19F40E94D42044
:1042E000F8CF893F29F40E941E2180937001089520
:1042F0008A3F21F40E941E218195F7CF8B3F31F434
:104300000E941E2181958093710108958C3F19F4BC
:104310000E941E21F8CF843F31F480916D018160AD
:1043200080936D010895853F21F480916D01826035
:10433000F7CF863F21F480916D018460F1CF873FF4
:1043400021F480916D018860EBCF883F21F480914A
:104350006D018061E5CF8D3F31F480916B0181600B
:1043600080936B0108958E3F21F480916B018260F0
:10437000F7CF8F3FB9F780916B018460F1CF9091B7
:104380006E01803F41F480916F0187FD10926F01B3
:10439000992371F00895813F29F480916F011816D7
:1043A000ACF3F6CF823F81F497FFF2CF10926E010B
:1043B00080916F0190917001892B90917101892BEF
:1043C00049F710926C010895833F19F4191674F39C
:1043D000DFCF893F39F4809170011816CCF6109226
:1043E0007001D6CF8A3F29F48091700187FFD0CF2A
:1043F000F6CF8B3F39F48091710187FFC9CF1092BE
:104400007101C6CF8C3F29F4809171011816BCF35D
:10441000BFCF843F31F480916D018E7F80936D0119
:10442000B7CF853F21F480916D018D7FF7CF863F17
:1044300021F480916D018B7FF1CF873F21F4809132
:104440006D01877FEBCF883F21F480916D018F7ED6
:10445000E5CF8D3F31F480916B018E7F80936B01AE
:1044600097CF8E3F21F480916B018D7FF7CF8F3FE7
:1044700009F08ECF80916B018B7FF0CF8091680126
:1044800083FF7EC082EE96E00E942A0980916D0132
:104490001F928F938DED96E09F938F930E94C30997
:1044A0008BED96E00E942A0980916E01282F082E3C
:1044B000000C330B3F938F9388ED96E09F938F937F
:1044C0000E94C30986ED96E00E942A0980916F013F
:1044D000282F082E000C330B3F938F9383ED96E02B
:1044E0009F938F930E94C30981ED96E00E942A0951
:1044F00080917001282F082E000C330B3F938F936F
:104500008EEC96E09F938F930E94C3098CEC96E00B
:104510000E942A0980917101282F082E000C330B6C
:104520003F938F9389EC96E09F938F930E94C309EA
:1045300086EC96E00E942A0980916C011F928F936D
:1045400083EC96E09F938F930E94C30981EC96E0E1
:104550000E942A0980916B011F928F938EEB96E047
:104560009F938F930E94C3098BEB96E00E942A09C8
:104570008DB79EB74C960FB6F8949EBF0FBE8DBFF9
:104580008DE691E00E94FA120E94F81E90936A0153
:104590008093690108951F93CF93DF938091690100
:1045A00090916A010E94101FAC0190916C012091C2
:1045B000800030E0911106C0209181008AE0289FA0
:1045C000900111244217530778F020916E01D09189
:1045D0006F0110917001C0917101211109C08D2FDF
:1045E000812B8C2B09F066C0DF91CF911F9108952C
:1045F0009F3F19F09F5F90936C01121624F40E9464
:10460000D42080936E0180916E0187FF05C00E94C7
:10461000D420819580936E011D1624F40E94D4202D
:1046200080936F0180916F0187FF05C00E94D420A5
:10463000819580936F0130916E013323C1F02091F9
:104640006F012223A1F045EB3403C0011124892F0F
:10465000911101C081E080936E0145EB240390012C
:104660001124832F311101C081E080936F01111655
:1046700024F40E941E21809370018091700187FFB5
:1046800005C00E941E218195809370011C1624F4A0
:104690000E941E21809371018091710187FF05C0E6
:1046A0000E941E21819580937101DF91CF911F910E
:1046B0000C943E229F3F09F09DCFAECF85E0EDE602
:1046C000F1E0DF011D928A95E9F710926C011092DA
:1046D0006B01089585E099E00E942A091F9281E00C
:1046E0008F931F9285E08F9387EB98E09F938F9332
:1046F0000E94C3090F900F900F900F900F900F9092
:104700000895833009F445C028F4813061F0823087
:1047100049F10895853009F46AC008F451C0863023
:1047200009F47CC0089580918100482F460F5527D9
:10473000551F4F3F510594F4680F6093810080919D
:1047400081001F928F9380EF97E09F938F930E9439
:10475000C3090F900F900F900F9008958FEF8093E3
:104760008100EDCF80918000482F460F5527551FBF
:104770004F3F510554F4680F609380008091800092
:104780001F928F938EED97E0E0CF8FEF80938000A4
:10479000F5CF80917F00482F460F5527551F4F3F7B
:1047A000510554F4680F60937F0080917F001F9241
:1047B0008F938BEC97E0C9CF8FEF80937F00F5CF7D
:1047C00080917E00482F460F5527551F4F3F5105BA
:1047D00054F4680F60937E0080917E001F928F9347
:1047E00086EB97E0B2CF8FEF80937E00F5CF80917C
:1047F0007D00482F460F5527551F4F3F510554F454
:10480000680F60937D0080917D001F928F938DE9EA
:1048100097E09BCF8FEF80937D00F5CF80917C0058
:10482000482F460F5527551F4F3F510554F4680F29
:1048300060937C0080917C001F928F9382E897E0C8
:1048400084CF8FEF80937C00F5CF8330C9F128F4BB
:10485000813061F0823019F10895853009F452C039
:1048600008F43FC0863009F45EC00895809181004D
:10487000681790F4861B80938100809181001F92BD
:104880008F9383E797E09F938F930E94C3090F90C4
:104890000F900F900F90089510928100EECF8091AD
:1048A0008000681750F4861B809380008091800000
:1048B0001F928F9381E697E0E6CF10928000F6CFAB
:1048C00080917F00681750F4861B80937F00809151
:1048D0007F001F928F938EE497E0D5CF10927F00D8
:1048E000F6CF80917E00681750F4861B80937E007F
:1048F00080917E001F928F9389E397E0C4CF10923E
:104900007E00F6CF80917D00681750F4861B80935F
:104910007D0080917D001F928F9380E297E0B3CF5E
:1049200010927D00F6CF80917C00681750F4861BB2
:1049300080937C0080917C001F928F9385E097E0AC
:10494000A2CF10927C00F6CFCF93C82F1F928F93E7
:104950008AE09AE09F938F930E94C30961E070E020
:1049600080E090E004C0660F771F881F991FCA95EA
:10497000D2F70E94B21B0F900F900F900F90CF9123
:104980000C94F217CF93873208F048C08E3108F0AC
:1049900057C28E3009F407C2B8F4873009F4E9C170
:1049A00048F4863009F4D3C181EA9EE00E942A09C6
:1049B00080E0DDC1883009F45CC08B30A9F78EE758
:1049C0009BE00E942A09C1C1863109F416C278F41D
:1049D000803151F790916801892F877F93FF88601C
:1049E0008093680183FFEFC180EB9EE011C08931A5
:1049F00009F4ECC18B31C1F690916801892F8D7F4C
:104A000091FF82608093680181FFCAC189EE9EE0B8
:104A10000E942A09809168018160BFC1883379F2C0
:104A200058F4893229F0853319F0873209F0BCCF68
:104A300080E00E94A42489C18334D1F328F48A330E
:104A400008F4B2CF8953F5CF883409F0ADCF0E9476
:104A5000F2178FE09FE00E942A099FEF2EE984E27F
:104A6000915020408040E1F700C000000E945E1F8E
:104A70006CC18FE29FE00E942A0981E99EE00E94BA
:104A80002A090E943E1E1F928F938EE89EE09F93FC
:104A90008F930E94C3098CE89EE00E942A090E941D
:104AA000351EC82F89E79EE00E942A091F92CF93E6
:104AB00084E79EE09F938F930E94C30982E79EE064
:104AC0000E942A0988E69EE00E942A098C2F8170A4
:104AD0001F928F9385E69EE09F938F930E94C30958
:104AE00083E69EE00E942A0989E59EE00E942A0949
:104AF000C1FB882780F91F928F9386E59EE09F93E4
:104B00008F930E94C30984E59EE00E942A0988E4ED
:104B10009EE00E942A09C2FB882780F91F928F938A
:104B200085E49EE09F938F930E94C30983E49EE0F7
:104B30000E942A098AE39EE00E942A09C3FBCC272F
:104B4000C0F91F92CF9387E39EE09F938F930E94BB
:104B5000C30985E39EE00E942A090E94471EC82FD0
:104B600081E29EE00E942A091F92CF938CE19EE091
:104B70009F938F930E94C3098AE19EE00E942A09B5
:104B800081E09EE00E942A098C2F81701F928F93F2
:104B90008EEF9DE09F938F930E94C3098DB79EB7C0
:104BA00080960FB6F8949EBF0FBE8DBF8CEF9DE030
:104BB0000E942A0985EE9DE00E942A09C1FB8827F0
:104BC00080F91F928F9382EE9DE09F938F930E94B6
:104BD000C30980EE9DE00E942A098EEC9DE00E94B0
:104BE0002A09C2FB882780F91F928F938BEC9DE0E6
:104BF0009F938F930E94C30989EC9DE00E942A092C
:104C000087EB9DE00E942A09C3FB882780F91F9249
:104C10008F9384EB9DE09F938F930E94C30982EB57
:104C20009DE00E942A0988EA9DE00E942A09C4FBAF
:104C3000882780F91F928F9385EA9DE09F938F9339
:104C40000E94C30983EA9DE00E942A0981E99DE050
:104C50000E942A09C5FB882780F91F928F938EE84E
:104C60009DE09F938F930E94C3098CE89DE00E9472
:104C70002A0980E79DE00E942A09C6FB882780F95F
:104C80001F928F938DE69DE09F938F930E94C3099F
:104C90008BE69DE00E942A0983E69DE00E942A0996
:104CA000C7FBCC27C0F91F92CF9380E69DE09F936E
:104CB0008F930E94C3098EE59DE00E942A090E94FD
:104CC000501EC82F87E49DE00E942A091F92CF93AF
:104CD00082E49DE09F938F930E94C3098DB79EB796
:104CE00080960FB6F8949EBF0FBE8DBF80E49DE006
:104CF0000E942A0986E39DE00E942A098C2F817078
:104D00001F928F9383E39DE09F938F930E94C3092B
:104D100081E39DE00E942A0988E29DE00E942A0921
:104D2000C6951F92CF9385E29DE09F938F930E943B
:104D3000C30983E29DE00E942A098DB79EB70896B9
:104D40000FB6F8949EBF0FBE8DBF81E010C080915A
:104D50006801807F8093680187E59BE00E942A09B3
:104D60008BE29FE00E942A0981E080937301CF913A
:104D7000089590916801892F8E7F90FF81608093C4
:104D8000680180FF03C083E09FE01BCE86EF9EE0BA
:104D90000E942A0980916801817F80936801D5CFA4
:104DA0008BED9EE00ECE90916801892F8B7F92FF54
:104DB00084608093680182FF03C08CEC9EE028CE63
:104DC0008CEB9EE0FECD83EA9EE0FBCD88E49BE089
:104DD0000E942A0985E39BE00E942A0984EF9AE059
:104DE0000E942A0989EB9AE00E942A0989E79AE041
:104DF0000E942A098EE49AE0E4CD80E49AE00E94C1
:104E00002A090E94A2121F928F9386E29AE09F9332
:104E10008F930E94C3090E94041F9F938F937F93D7
:104E20006F938FE09AE09F938F930E94C3098DB791
:104E30009EB70A960FB6F8949EBF0FBE8DBF85CF62
:104E40008D51F7CD80E008950C9422278E518A3041
:104E500030F4E82FF0E0E257FF4F8081089580E0C2
:104E60000895CF93C82F809173018130D9F08823A2
:104E700039F0823009F44DC01092730180E010C007
:104E8000E0917A00F0917B0080818232B9F78C2F1B
:104E90000E94222781111EC08C2F0E94C224817083
:104EA000CF910895E0917A00F0917B008081823269
:104EB00071F38C2F0E94242781111BC0C431D9F0BB
:104EC00060F4CB3071F0C031D1F080E09AE00E9404
:104ED0002A0913C081E090E0E2CFC93261F0C83303
:104EE000A1F787E59BE00E942A0986E09AE00E94EC
:104EF0002A0981E0D4CF1092730180E0D0CF0E94C4
:104F00006A2382E09AE00E942A0982E0809373017A
:104F1000F0CFC432C8F4CE3108F0BEC0CB30E1F0DF
:104F200040F4C73009F4CCC084EA98E00E942A0912
:104F300026C0C331C1F1C431B9F780917201882311
:104F400051F1109272010AC0CB3409F4B7C0C8F411
:104F5000C93299F3C83341F70E946A2380917201E4
:104F6000882309F4C4C01F928F938EE998E09F9321
:104F70008F930E94C3090F900F900F900F9081E0C4
:104F80008FCFC13509F494C0C23509F48BC0CE343B
:104F900059F66AE08EC083EB98E00E942A0981E00E
:104FA000809373017DCF8DE898E00E942A098BE7FA
:104FB00098E00E942A09809181001F928F9388E7D0
:104FC00098E09F938F930E94C30986E798E00E9420
:104FD0002A0984E698E00E942A09809180001F92A5
:104FE0008F9381E698E09F938F930E94C3098FE58A
:104FF00098E00E942A0980E598E00E942A098091A1
:105000007F001F928F938DE498E09F938F930E946F
:10501000C3098BE498E00E942A098AE398E00E9481
:105020002A0980917E001F928F9387E398E09F93D7
:105030008F930E94C30985E398E00E942A0980E2C9
:1050400098E00E942A0980917D001F928F938DE144
:1050500098E09F938F930E94C3098BE198E00E9490
:105060002A0984E098E00E942A0980917C001F921E
:105070008F9381E098E09F938F930E94C3098FEFF5
:1050800097E00E942A098DB79EB748960FB6F8940C
:105090009EBF0FBE8DBF62CF8C2F0E9426278093AC
:1050A00072015CCF61E0809172010E94812356CF32
:1050B00061E0809172010E94252450CF6AE0F3CF15
:1050C0008EE18093810082E3809380008AE0809368
:1050D0007F0084E180937E0088E080937D0088E2F9
:1050E00080937C0086EA98E00E942A0937CF8BE9FA
:1050F00098E01CCF0E942A1E811102C00E94AB1EA4
:105100000E94501E80931002843020F081708260D3
:10511000809310028091100280FF03C086950C944A
:10512000E90C80E0FCCF80911002982F9E7F19F44B
:105130008E5F809310028091100281608093100234
:105140000E94541E8091680180FF0FC08091100260
:1051500086951F928F9381EA9FE09F938F930E9481
:10516000C3090F900F900F900F90809110028695B9
:105170000C94E90C80911002982F9E7F79F0825058
:10518000809310028E7F91E009F490E080911002EC
:1051900090FB80F9809310020E94541E8091680158
:1051A00080FF0FC08091100286951F928F9389E82F
:1051B0009FE09F938F930E94C3090F900F900F90D1
:1051C0000F908091100286950C94E90C809110024A
:1051D00080FD1DC0816080931002813019F483E04E
:1051E00080931002809110020E94541E80916801E9
:1051F00080FF08C081E69FE09F938F930E94C309C0
:105200000F900F908091100286950C94E90C0895F0
:105210008091100280FF14C08E7F809310020E9444
:10522000541E8091680180FF08C08EE49FE09F9328
:105230008F930E94C3090F900F9080E00C94E90CAB
:105240000895CF93C0911002C1708091680180FFD2
:105250000CC01F92CF9383E79FE09F938F930E9490
:10526000C3090F900F900F900F90CC2319F0CF919E
:105270000C940829CF910C94E62890911002892F64
:1052800086958F5F8F779170823050F5880F892BCC
:1052900080931002809110028E7F91E009F490E0DB
:1052A0008091100290FB80F9809310020E94541E9E
:1052B0008091680180FF0FC08091100286951F9237
:1052C0008F938AE39FE09F938F930E94C3090F906F
:1052D0000F900F900F908091100286950C94E90C1E
:1052E00090931002D7CF811181E0982F990F809170
:1052F00010028170892B809310028E7F91E009F457
:1053000090E08091100290FB80F9809310020E943F
:10531000541E8091100286950C94E90C0E94F81E90
:105320008C010E9433130E94E82A0E949D128091F2
:10533000680180FF04C084EC9FE00E942A090E945B
:105340002D2D8B9A80E0815061F48B987894809118
:10535000680180FF04C089EB9FE00E942A09C0E039
:1053600009C0A895E7EBFBE03197F1F700C000001A
:10537000EACFC1E080912B02882399F010922B0292
:105380000E94F81E8C010E941E2C809131028823FD
:1053900029F080911C0284FD0E9463130E94472A19
:1053A000DECFC8010E94101F069718F7CC2359F3CF
:1053B000E1CF809106020895CF93DF9300D00F9242
:1053C000CDB7DEB7209176013091770128173907E4
:1053D00089F0909377018093760124E029839B8361
:1053E0008A838091480284FF05C063E0CE01019664
:1053F0000E941A2C0F900F900F90DF91CF9108957B
:10540000CF93DF9300D00F92CDB7DEB72091740118
:10541000309175012817390789F0909375018093B1
:10542000740123E029839B838A838091480284FF4F
:1054300005C063E0CE0101960E941A2C0F900F90D8
:105440000F90DF91CF910895CF93DF9300D000D0DC
:1054500000D0CDB7DEB7FC0182E0898395E0DE01A4
:10546000129601900D929A95E1F78091480284FF7F
:1054700005C066E0CE0101960E941A2C26960FB652
:10548000F894DEBF0FBECDBFDF91CF910895CF93CB
:10549000DF93CAE0D0E080911C0284FF63C080915A
:1054A000830190918401981709F467C028E0829FD6
:1054B000C001112468E08B579E4F0E94162C8091EA
:1054C000830190E001968F709927809383018091EA
:1054D000680182FF52C080E690E10E942A09809113
:1054E00083011F928F938DE590E19F938F930E948C
:1054F000C3098AE590E10E942A09809184011F92E4
:105500008F9387E590E19F938F930E94C30984E571
:1055100090E10E942A0950918401409183018DB746
:105520009EB708960FB6F8949EBF0FBE8DBF242F6E
:1055300030E0852F90E0821B930B541708F44096BF
:105540009F938F938FE490E19F938F930E94C30961
:105550000F900F900F900F908CE490E1DF91CF911E
:105560000C942A090E941E2C87EB9BE00197F1F70F
:1055700000C00000219709F08ECFDF91CF910895F0
:10558000FC01A0918401B0E09D012F5F3F4F2F707F
:10559000332780918301821791F083E0AA0FBB1F0C
:1055A0008A95E1F7AB57BE4F98E001900D929A951E
:1055B000E1F7209384010E941E2C0C94472A8091CD
:1055C000680180FFF8CF80E490E10E942A09F3CFC0
:1055D00082E890E00895CF93DF93EC018091680119
:1055E000817098819076903209F07BC099819130DA
:1055F00081F4882321F084E390E10E942A098BE75B
:1056000091E090932D0280932C0288E0DF91CF915E
:105610000895923071F4882321F089E290E10E948C
:105620002A0985E092E090932D0280932C0281E07C
:10563000EDCF9A3029F59B81909305028823F1F0F4
:105640008EE190E10E942A098091680180FF16C0D6
:10565000809105021F928F9389E190E19F938F9330
:105660000E94C3090F900F900F900F9080916801D6
:1056700080FF04C08FEE9FE00E942A0980E0C6CF21
:10568000993041F5882321F08CE090E10E942A09AD
:105690008A819B81811522E09207B9F48C819D81DA
:1056A000892B89F48091680180FF04C082E090E139
:1056B0000E942A0982E080937A018E819F819093D3
:1056C0007901809378018FEFA1CF81309340D9F792
:1056D00081E0F1CF882391F289EF9FE00E942A09AF
:1056E000C5CF882359F281EF9FE0F8CFCF93DF93A6
:1056F000EC018091780190917901892BB1F1809131
:105700007A01813071F1823081F58091680180FFEA
:105710001DC085EE9FE00E942A098091680180FFEC
:1057200015C088811F928F9380EE9FE09F938F9387
:105730000E94C309809168010F900F900F900F9005
:1057400080FF04C08EED9FE00E942A09888180932B
:105750000602109279011092780181E0DF91CF91D9
:1057600008958B9A0E945E1FF8CF8FEFF7CFFC0150
:105770008381813261F08232E1F0823069F48DE61A
:1057800090E190932D0280932C028BE30895828107
:10579000882321F0813051F080E008958FE790E177
:1057A00090932D0280932C0289E0089588E990E17E
:1057B000F7CF84819581009751F0019769F788EAC6
:1057C00090E190932D0280932C0284E808958CE25E
:1057D00091E190932D0280932C0280E408951F9311
:1057E000CF93DF93E82F792F162FEA01888184FF6A
:1057F0001AC0298188E828272983CE010296DC0176
:105800002E2F372F412F4E0FF90121912D939F01FC
:105810004E13FACF612F0E94E1091C5F1883DF91BC
:10582000CF911F9108958AE58883E7CF4CE152E03C
:105830000C94EF2B48E452E00C94EF2BCF93DF93C2
:1058400060912E02635067FD2BC080912A02CCE04C
:10585000D0E0C81BD109CE5CDD4F809129028D328A
:1058600009F0DBC06830D1F483EC809311028AE543
:1058700080938D00109207028881807609F45FC0C2
:10588000CE010E94EB2A8F3F09F068C0988197FDF6
:105890008E8190E89093070280938C0010922E02E4
:1058A00080918D0084FF3EC080918C008F3FD1F1AC
:1058B000C82F893008F0C8E0982F9C1B90938C006B
:1058C0009091110228E89227909311028823E9F021
:1058D00080912C0290912D02209107023C2F380FCD
:1058E00026FFAEC0FC01A2E1B2E024912D933196D7
:1058F0003E13FBCF2FEF2C0F30E02F5F3F4F820F77
:10590000931F90932D0280932C026C2F82E192E0E2
:105910000E94E109CC5FCC3019F08FEF80938C00AE
:10592000C0938D0084E190B39C7031F48150D9F71D
:1059300010922F0210922802DF91CF9108952A81B0
:1059400010921A029981911112C010921B022AE141
:1059500032E082E030932D0220932C029F8191113E
:105960009BCF9E81981708F097CF892F95CF9530C0
:1059700029F420932F022AE132E0ECCF9630A1F5F2
:105980009B81913041F48CE691E190932D028093BC
:105990002C0282E111C0923021F4CE010E94B72B7B
:1059A0000BC09330E1F421110BC08CEA91E190938C
:1059B0002D0280932C0284E090E49093070263CF41
:1059C000213041F480E991E190932D0280932C02E3
:1059D0008CE1F2CF223081F78EE791E1D6CF913280
:1059E000E1F2923249F7D9CF983081F0993019F429
:1059F00020933102C0CF9A3069F09B3009F0BBCFC1
:105A00009BE490931D0290934902B5CF21E332E0CD
:105A100081E0A0CF2AE132E0FBCF8091070287FF2F
:105A20003DCFCE010E94762B8F3F21F48EE18093F3
:105A30008D0034CF882309F431CF10928C002ECF03
:105A4000A2E1B2E0282F492FE22FF42F21912D93CC
:105A50002E2F4F2F3E13F8CF4DCF85B7886085BFCF
:105A60008BB780688BBFACE1B2E08BE411968C936E
:105A70001197E8E4F2E081838AE58C9380830895AE
:105A8000AA1BBB1B51E107C0AA1FBB1FA617B70764
:105A900010F0A61BB70B881F991F5A95A9F7809580
:105AA0009095BC01CD01089597FB072E16F4009444
:105AB00007D077FD09D00E94402D07FC05D03EF4A9
:105AC000909581959F4F0895709561957F4F0895AA
:105AD000EE0FFF1F0590F491E02D0994E199FECFA0
