:100000000C941F090C9463090C942C0A0C9463093A
:100010000C9463090C9463090C9463090C946309B0
:100020000C9463090C9463090C94F21F0C946309FB
:100030000C9463090C9463090C9463090C94630990
:100040000C9463090C9463090C9463090C94630980
:100050000C946309160E180E230E1A0E1C0E1E0E9B
:10006000200E220E250E270E290E340E2B0E2D0EDD
:100070002F0E310E330E360E0516051637163716AF
:10008000751695162A182A18D7162A188417841751
:10009000F617FF172A182318911791179117911720
:1000A0009117911791179117911791179117911710
:1000B0009117911791179117A217B017B717BE177D
:1000C000C817B918B918CB18CB18C218CB18CB1849
:1000D000CB18B918B918C718CB18CB18C7180128EE
:1000E0000001520002E0616303E00002E07603E0F9
:1000F0000002E0616303E00000573A003B003C006F
:100100003D003E003F0040004100420043004400EB
:1001100045004600470035001E001F00200021005A
:100120002200230024002500260027002D002E0099
:1001300030004C002B0014001A00080015001700B6
:100140001C0018000C00120013002F0028003100C2
:10015000A900015104001600070009000A000B0065
:100160000D000E000F0033002A0000003400AA002A
:10017000D65C02511D001B0006001900050011008D
:100180001000360037003800D75C5200A800E000AD
:100190000000E200000000002C0000000000E3006E
:1001A000000000000000500051004F00000000005F
:1001B000000000000000000000000000000000003F
:1001C000000000000000C25CBF5C010001000100F3
:1001D0000100010001000100010001000100010017
:1001E0000100010001000100010001000100010007
:1001F00001000100010001000100010001000100F7
:1002000001000100010001000100010001000100E6
:1002100001000100010001000100010001000100D6
:1002200001000100010001000100010001000100C6
:100230005000510052004F00010001000000010079
:1002400001000100010001000100010001000100A6
:1002500001000100010001000100F400F000F500C0
:10026000010000000100000000000100000000008B
:100270000100000000000000F200F100F3000000A7
:10028000000000000000000000000000000000006E
:10029000000000000000000001000100010001005A
:1002A0000100010001000100010001000100010046
:1002B0000100010001000100010001000100010036
:1002C0000100010001000100010001000100010026
:1002D0000100010001000100010001000100010016
:1002E0000100010001000100010001000100010006
:1002F00001000100010001000100010001000100F6
:10030000010050014D014A014F0101002A01000086
:1003100001000100010001000100010001000100D5
:1003200001000100010001000100010001000100C5
:1003300001000100000001000000000001000000B9
:1003400000000100000000000000010001000100A9
:10035000000000000000000000000000000000009D
:1003600000000000000000000000005C010001002F
:100370000100010001000100010001000100010075
:100380000100010001000100010001000100010065
:100390000100010001000100010001000100010055
:1003A0000100010001000100010001000100010045
:1003B0000100010001000100010001000100010035
:1003C0000100010001000100010001000100010025
:1003D0000100010001000100010001000100010015
:1003E0000000010001000100010001000100010006
:1003F00001000100010001000100010001000100F5
:1004000001000100010000000100000000000100E7
:1004100000000000010000000000000001000100D9
:1004200001000000000000000000000000000000CB
:1004300000000000000000000000000001000100BA
:1004400001000100010001000100010001000100A4
:100450000100010001000100010001000100010094
:100460000100010001000100010001000100010084
:100470000100010001000100010001000100010074
:100480000100010001000100010001000100010064
:100490000100010001000100010001000100010054
:1004A0000100010001000100010001000100010044
:1004B0000100000001000100010001000100010035
:1004C0000100010001000100010001000100010024
:1004D0000100010001000100000001000000000017
:1004E0000100000000000100000000000000010009
:1004F00001000100000000000000000000000000FA
:1005000000000000000000000000000000000100EA
:1005100001000100010001000100010001000100D3
:1005200001000100010001000100010001000100C3
:1005300001000100010001000100010001000100B3
:1005400001000100010001000100010001000100A3
:100550000100010001000100010001000100010093
:100560000100010001000100010001000100010083
:100570000100010001000100010001000100010073
:100580000100010000000100010001000100010064
:100590000100010001000100010001000100010053
:1005A0000100010001000100010000000100000045
:1005B0000000010000000000010000000000000039
:1005C0000100010001000000000000000000000028
:1005D000000000000000000000000000000000001B
:1005E0000100010044454255473A20656E61626C46
:1005F00065642E0A0000000000000000002A2B287D
:1006000000000000000000000000000000000000EA
:1006100029000000002C1E34202122243426272506
:100620002E362D3738271E1F20212223242526333E
:1006300033362E37381F0405060708090A0B0C0D40
:100640000E0F101112131415161718191A1B1C1D52
:100650002F3130232D350405060708090A0B0C0D30
:100660000E0F101112131415161718191A1B1C1D32
:100670002F3130354C000000000000000000000069
:10068000000000000000000000000000000000006A
:100690000000000000000101010101010001010151
:1006A0000100000000000000000000000000000148
:1006B000000100010101010101010101010101012C
:1006C000010101010101010101010101010101011A
:1006D0000000000101000000000000000000000018
:1006E000000000000000000000000000000000000A
:1006F00001010101000A002530325820006B6579A4
:10070000626F6172645F7265706F72743A20000A82
:100710000025303258006B6579626F6172645F73D7
:1007200065745F6C65643A2000646F6E652E0A0024
:10073000626F6F746D61676963207363616E3A20E5
:100740002E2E2E2000290A002575002F0025750069
:100750005D28002564002000256400200025640039
:1007600020002564007C0025303258006D6F7573C1
:10077000656B6579205B62746E7C782079207620C9
:10078000685D287265702F61636C293A205B006D8B
:100790006B5F776865656C5F74696D655F746F5FCB
:1007A0006D6178203D2025640A006D6B5F77686578
:1007B000656C5F6D61785F7370656564203D2025B1
:1007C000640A006D6B5F74696D655F746F5F6D6166
:1007D00078203D2025640A006D6B5F6D61785F7342
:1007E00070656564203D2025640A006D6B5F696E4D
:1007F00074657276616C203D2025640A006D6B5F24
:1008000064656C6179203D2025640A006D6B5F771B
:100810006865656C5F74696D655F746F5F6D617845
:10082000203D2025640A006D6B5F776865656C5F0D
:100830006D61785F7370656564203D2025640A00F2
:100840006D6B5F74696D655F746F5F6D6178203D7E
:100850002025640A006D6B5F6D61785F737065655C
:1008600064203D2025640A006D6B5F696E746572BB
:1008700076616C203D2025640A006D6B5F64656CB9
:100880006179203D2025640A000A00257500363A6A
:1008900020776865656C5F74696D655F746F5F6D07
:1008A00061783A20000A00257500353A207768659E
:1008B000656C5F6D61785F73706565643A20000AEE
:1008C00000257500343A2074696D655F746F5F6D43
:1008D00061783A20000A00257500333A206D61786E
:1008E0005F73706565643A20000A00257500323A2E
:1008F00020696E74657276616C286D73293A2000E8
:100900000A00257500313A2064656C6179282A3126
:10091000306D73293A20000A092D2056616C7565E7
:1009200073202D0A004D3E004D25643E20003F00FF
:100930007365742064656661756C740A00433E20BB
:100940000077686572652064656C74613A20637530
:1009500072736F723D25642C20776865656C3D2548
:10096000640A53656520687474703A2F2F656E2E83
:1009700077696B6970656469612E6F72672F77693B
:100980006B692F4D6F7573655F6B6579730A000A2C
:10099000092D204D6F7573656B6579202D0A4553C0
:1009A000432F713A09717569740A313A0964656CAB
:1009B0006179282A31306D73290A323A09696E74D7
:1009C000657276616C286D73290A333A096D617816
:1009D0005F73706565640A343A0974696D655F74A4
:1009E0006F5F6D61780A353A09776865656C5F6D90
:1009F00061785F73706565640A363A097768656582
:100A00006C5F74696D655F746F5F6D61780A0A7001
:100A10003A097072696E742076616C7565730A6448
:100A20003A097365742064656661756C74730A7540
:100A3000703A092B310A646F776E3A092D310A70CA
:100A40006775703A092B31300A7067646F776E3AB8
:100A5000092D31300A0A7370656564203D20646594
:100A60006C7461202A206D61785F73706565642005
:100A70002A2028726570656174202F2074696D6565
:100A80005F746F5F6D6178290A003F004D3E200062
:100A9000433E20004C25640A0074696D65725F72E4
:100AA000656164333228293A202530346C580A00B5
:100AB000686F73745F6B6579626F6172645F6C6598
:100AC000647328293A2025580A000A092D205374F6
:100AD00061747573202D0A004743433A20342E3940
:100AE0002E32204156522D4C4942433A20312E3865
:100AF0002E3073766E204156525F415243483A2061
:100B0000617672350A004F5054494F4E533A205681
:100B100055534220424F4F544D41474943204D4F7A
:100B20005553454B45592045585452414B45592042
:100B3000434F4E534F4C4520434F4D4D414E442063
:100B4000343039360A004255494C443A2022302E7E
:100B5000362E3137322D3238312D67333336326409
:100B6000342D646972747922202831363A33383A48
:100B70003030204A616E2032322032303139290A39
:100B8000005649443A203078323041302853696E5B
:100B90006761204B6579626F6172647329205049E7
:100BA000443A203078343232442853696E676129E0
:100BB000205645523A204445564943455F564552D2
:100BC0000A00444553433A20444553435249505444
:100BD000494F4E0A000A092D2056657273696F6EDF
:100BE000202D0A000A092D20436F6E736F6C65205B
:100BF0002D0A4553432F713A09717569740A6D3A8C
:100C0000096D6F7573656B65790A000A092D204DB2
:100C100061676963202D0A443A094465627567205B
:100C20004D65737361676520546F67676C650A581B
:100C30003A094D6174726978204465627567204D88
:100C40006F646520546F67676C65202D2053686F53
:100C500077206B65797072657373657320696E2098
:100C60006D617472697820677269640A4B3A094B46
:100C70006579626F61726420446562756720546FA4
:100C800067676C65202D2053686F77206B657970DE
:100C900072657373207265706F72740A4D3A0944FD
:100CA00065627567204D6F75736520546F67676C5B
:100CB000650A563A0956657273696F6E0A533A09A6
:100CC0005374617475730A433A09416374697661B8
:100CD000746520436F6E736F6C65204D6F64650A99
:100CE00046312D4631303A09537769746368207470
:100CF0006F204C6179657220302D392028463130C3
:100D0000203D204C30290A302D393A095377697437
:100D1000636820746F204C6179657220302D390A28
:100D20004553433A0953776974636820746F204CC4
:100D30006179657220302028616C7465726E61740F
:100D400065206B65792031290A47524156453A0999
:100D500053776974636820746F204C6179657220E1
:100D6000302028616C7465726E617465206B6579E2
:100D70002032290A50415553453A094A756D702071
:100D8000746F20426F6F746C6F61646572202852BB
:100D900065736574290A453A095072696E74204575
:100DA0004550524F4D2053657474696E67730A0045
:100DB0000A002575002E6C6576656C3A20000A00E5
:100DC0002575002E656E61626C653A20000A00256B
:100DD000303258006261636B6C696768745F636F7F
:100DE0006E6669672E7261773A20000A00257500E9
:100DF0002E6E6B726F3A20000A002575002E7377F5
:100E000061705F6261636B736C6173685F62616381
:100E10006B73706163653A20000A002575002E73BC
:100E20007761705F67726176655F6573633A200012
:100E30000A002575002E6E6F5F6775693A20000AFB
:100E4000002575002E737761705F72616C745F723C
:100E50006775693A20000A002575002E7377617066
:100E60005F6C616C745F6C6775693A20000A0025DD
:100E700075002E636170736C6F636B5F746F5F637B
:100E80006F6E74726F6C3A20000A002575002E7325
:100E90007761705F636F6E74726F6C5F63617073A4
:100EA0006C6F636B3A20000A0025303258006B6586
:100EB000796D61705F636F6E6669672E7261773AF4
:100EC00020000A002575002E6D6F7573653A2000AD
:100ED0000A002575002E6B6579626F6172643A2095
:100EE000000A002575002E6D61747269783A200041
:100EF0000A002575002E656E61626C653A20000A55
:100F000000253032580064656275675F636F6E66F6
:100F100069672E7261773A20000A002575006465C2
:100F20006661756C745F6C617965723A20003F0090
:100F30000A6D6F7573653A206F66660A000A6D6FF9
:100F40007573653A206F6E0A000A6B6579626F618E
:100F500072643A206F66660A000A6B6579626F6197
:100F600072643A206F6E0A000A6D61747269783A91
:100F7000206F66660A000A6D61747269783A206FA4
:100F80006E0A000A64656275673A206F66660A0039
:100F90000A64656275673A206F6E0A000A0A4A752C
:100FA0006D70696E6720746F20626F6F746C6F6113
:100FB0006465722E2E2E2000433E20006565636F0F
:100FC0006E6669673A0A006261636B6C6967687490
:100FD00020737465703A2025750A006261636B6C3A
:100FE000696768742064697361626C650A00626194
:100FF000636B6C6967687420656E61626C650A007A
:101000006261636B6C6967687420746F67676C6595
:101010003A2025750A006261636B6C696768742009
:1010200064656372656173653A2025750A006261C3
:10103000636B6C6967687420696E63726561736560
:101040003A2025750A006D61696E206C6F6F700A19
:1010500000696E6974466F72557362436F6E6E6598
:101060006374697669747928290A000A0025303288
:1010700058005345545F4C45443A20000A005645F9
:101080004E444F523A00554E4B4E4F574E3A005336
:1010900045545F4C45443A20005345545F524550F7
:1010A0004F52543A200025303258005345545F497E
:1010B000444C453A20004745545F49444C453A204A
:1010C000004745545F5245504F52543A006B627589
:1010D000663A2066756C6C0A00290A002530325881
:1010E000005D28002575002D3E00257500562D5504
:1010F00053423A206B6275665B0009023B000201B5
:101100000080FA0904000001030101000921010126
:1011100000012240000705810308000109040100C5
:1011200001030000000921010100012284000705DC
:10113000830308000105010902A10185020901A13B
:10114000000509190129051500250175019505817D
:1011500002750395018103050109300931158125C7
:101160007F75089502810609381581257F35004570
:1011700000750895018106050C0A38021581257F46
:10118000750895018106C0C005010980A10185038C
:10119000150126B700190129B7751095018100C006
:1011A000050C0901A10185041501269C0219012ADB
:1011B0009C02751095018100C005010906A1017509
:1011C000019508050719E029E71500250181029519
:1011D0000175088103950575010508190129059117
:1011E0000295017503910395067508150026FF0009
:1011F0000507190029FF8100C0120110010000003D
:1012000008A0202D420002010200011203700073A9
:10121000003200610076007200470042001C037734
:101220000069006E006B00650079006C006500735A
:101230000073002E006B00720004030904001124E7
:101240001FBECFE5D8E0DEBFCDBF04B603FE24C08D
:101250008091540290915502A0915602B09157028C
:101260008730904BA740B04BB9F4109254021092C3
:101270005502109256021092570214BE84B7877F0F
:1012800084BF0FB6F894A89581B5886181BD11BC63
:101290000FBEE0E0F8E3099510E0A0E6B0E0EEE96B
:1012A000FDE502C005900D92A839B107D9F722E0FB
:1012B000A8E9B0E001C01D92A435B207E1F70E9491
:1012C000A32A0C94CD2E0C940000FF93EF93E09191
:1012D0009800F0919900309709F00995EF91FF91EE
:1012E0000895FC018591803011F0EFDFFBCF089568
:1012F000FF27E0E230E247FF0CC0419597FF09C0AD
:10130000EDE26095709580959095611D711D811D30
:10131000911D27FF02C0219530E350E2AA27660FF6
:10132000771F881F991FAA1FA41710F0A41B63958D
:101330005A95A9F7AA3008F0A95FA05DAF93F3957D
:10134000611571058105910541F7ED3211F4EF93B7
:10135000F395F21718F43F93F395FBCF8F91B5DF18
:10136000FA95E1F70895E991F9918591803021F09E
:10137000853219F0AADFF9CF089520E0E89455915D
:101380005532C1F3503311F4689455915A3348F4EF
:10139000505390F3220F022E220F220F200D250F03
:1013A000F4CF0EF4219589919991533619F353375F
:1013B00029F1533559F1BC0188279927E8945C3607
:1013C00021F48991999168945591543639F446EFF6
:1013D0007EF077FF0DC08FEF9FEF0AC055374AE0D0
:1013E00039F0583540E121F0523642E009F00895D5
:1013F000FF93EF937DDFEF91FF91B7CFFF93EF93D3
:10140000FC0181918030B9F360DFFBCFFF93EF9354
:1014100068DFF1CFDF93CF93CDB7DEB72596A3DF9B
:10142000CF91DF910895A82FB92F80E090E041E09F
:1014300050EA609530E009C02D91822797958795F5
:1014400010F084279527305EC8F36F5FA8F30895E6
:10145000EADF8D939D930895CF93CFB7CF93C39534
:10146000839BE9F7839B0EC0839B0CC0839B0AC0C0
:10147000839B08C0839B06C0C0912B02C395C09379
:101480002B02A3C0DF93C0912A02DD27CE5CDD4F83
:10149000839B02C0DF91E6CF2F930F931F9300B37E
:1014A0002FEF03FB20F94F933F9310B34FEF01272A
:1014B00003FB21F93BE031C04E7F012F10B32160C7
:1014C00028C0102F4D7F2260000000B329C04B7F41
:1014D0002460012F000010B32BC010B3477F286099
:1014E0002AC04F7E00B320612CC04F7D10B3206214
:1014F0002FC04F7B00B3206432C0422700B3499312
:101500004FEF0000102713FB20F910B31C70C9F136
:10151000297F91F2012703FB21F900B3237F89F290
:10152000315058F1102713FB22F910B3277E79F2BE
:10153000012703FB23F92F7C81F200B3102713FB53
:1015400024F92F7971F200C010B3012703FB25F9AC
:101550002F7359F200C000B3102713FB26F9223075
:1015600040F200C010B3012703FB27F9243028F60E
:101570004F77206810B30000F9CF10E81ABF00279A
:1015800019C03B503195C31BD04010E81ABF0881E9
:10159000033CF9F00B34E9F0209128021981110F76
:1015A0001213EDCF4A81441F093641F10D3211F07B
:1015B000013E29F7009330023F914F911F910F9107
:1015C0002F91DF91CAB7C7FD4ACFCF91CFBFCF913F
:1015D000189520913002222379F310912E021123C5
:1015E000C1F53430C2F130932E02209329021091BC
:1015F0002A023BE0311B30932A022DC000912E02BB
:1016000001303CF50AE54F7049F430918D0034FD0E
:1016100024C000938D00C1E1D2E023C0433049F0E3
:1016200030911C0234FD19C000931C02CDE1D2E0C0
:1016300018C03091480234FD10C000934802C9E43C
:10164000D2E00FC02795A8F45150A9F4220F000052
:10165000F9CF4AE503C042ED01C0432FC4E1D0E019
:1016600032E011B31C60939A11BB02B320E41CE07A
:101670005F93012756E002BB279520F4515021F4D7
:10168000220FF9CF012756E000003B5A02BBD0F2EF
:10169000279528F4515029F4220F0000F9CF012793
:1016A00056E0279502BB20F4515021F4220FF9CFC8
:1016B000012756E02991332302BB21F6037F1091C5
:1016C0002F02110FC651D04002BB11F01093280217
:1016D00010E81ABF086011B3137F402F437F5F915A
:1016E00000C000C002BB11BB42BB66CF8FEF87BBFF
:1016F00088BB1ABA94B39B7B94BB8F988BBB85B382
:101700008C6F85BB979AE8EAF0E0AAE9B0E0119205
:1017100011921D921D9280E0E63BF807C1F70C94F0
:101720003A0D21E030E0A90102C0440F551F8A950F
:10173000E2F7CA0147BB809588BB0895982F990F9F
:101740009A7A86958575982B84E0989F900111244C
:10175000822F8C7C969596959373892B829508950C
:10176000DF92EF92FF920F931F93CF93DF93CAE91B
:10177000D0E08E01F12C25E0D22E8F2D0E94910B0E
:1017800084E18A95F1F7E9B283B380950E949E0BBC
:1017900020B330E020953095207833273695322FCE
:1017A000222737952795E0942E29382BF801808140
:1017B00091818217930721F031832083D0926000BA
:1017C000F3940E5F1F4FF7E0FF12D7CF80916000B8
:1017D0008823B1F0815080936000882339F087EB33
:1017E0009BE00197F1F700C000000AC0E8EAF0E0D2
:1017F000899199918193919390E0C83AD907C1F763
:101800000E94350D81E0DF91CF911F910F91FF90E4
:10181000EF90DF900895E82FF0E0EE0FFF1FE855FE
:10182000FF4F80819181089508950C94190C0C94B8
:101830001A0C089508959C01FB018281882321F1EF
:101840002F3DFCE53F0781F020F42E3D3C4549F05B
:101850000895203EFCE53F0769F0213E3C4569F0D4
:10186000089581EF90E002C08BEE90E00E94320D6F
:1018700080E0089584EE90E0F9CF81EE90E00E9440
:10188000320D8EED90E0F2CF81E008950F931F931B
:10189000CF93DF939C013A9521153F4148F5EB0129
:1018A0008C0190FF03C080EEFB01099511FF03C07E
:1018B00081EEFE01099512FF03C082EEFE0109953B
:1018C00013FF03C083EEFE0109950115104180F05E
:1018D00084EEFE01099585EEFE01099586EEFE0176
:1018E000099587EEFE01DF91CF911F910F91099429
:1018F000DF91CF911F910F910895877091E001C002
:10190000990F8A95EAF7892F0E94C01E0C94771EC2
:10191000877091E001C0990F8A95EAF7892F0E949C
:10192000C01E0C94771E877091E001C0990F8A95B4
:10193000EAF7892F0E94C61E0C94771E877091E0EB
:1019400001C0990F8A95EAF7892F0E94C61E0C9450
:10195000771ECF93DF93EC01805E9109089710F01A
:10196000209719F468E87CE002C06DE77CE0CE01C6
:101970000E94460C8C2FDF91CF910C94A814CF932A
:10198000DF93EC010E948D15CE01805E91090897CE
:1019900010F0209719F46EE97CE002C063E97CE066
:1019A000CE01DF91CF910C94460C81E008950C9408
:1019B0001B0CCF93282F30E0F901EB50FA4FC49164
:1019C000F901EB58F94F2491222359F081EE0E943E
:1019D000A8148C2F0E94A8148C2F0E948D1581EEC4
:1019E00004C08C2F0E94A8148C2FCF910C948D15BD
:1019F0000F931F93CF93DF93EC01062FFE01849189
:101A0000882359F19E012F5F3F4F813041F4E90156
:101A1000F9011491812F0E94A814812F0DC08230EA
:101A200031F4E901F90184910E94A8140AC08330BD
:101A300031F4E901F90184910E948D1502C00E94E0
:101A4000D90C2196802F8823C9F2E7EBFBE0319770
:101A5000F1F700C000008150F6CFDF91CF911F91C8
:101A60000F91089560E00C94F80C0E94A6120C945B
:101A7000170C08950E94E91E811102C00E946A1F7E
:101A80000E94390D0C94150C089508950C94450D81
:101A90000C94460D08950E94A7180E944A0D2FEB42
:101AA00087E299E0215080409040E1F700C00000BB
:101AB0000C941820FF920F931F93CF93DF938C0108
:101AC000FC01C081D1818091D400811113C0828139
:101AD000882349F0CE010E94D91DF82E682FCE012F
:101AE0000E947E1D04C0CE010E94AD1DF82EBE01D5
:101AF0008F2D04C0CE010E94D91DBE010E94D00EC0
:101B0000EC01B8010E940812B801CE010E94D70C66
:101B1000882309F43AC1B801CE010E944A128823F1
:101B200009F433C1C631FCE5DF0739F50E94AA1E6E
:101B3000282FF801828140917A0050917B00882300
:101B400079F02A7A91E009F490E09093B60091112F
:101B500002C069E201C065E3CA010E949E1F0AC07B
:101B60008091B600811102C069E201C065E3CA013B
:101B70000E94A01F0E94771E08C1C7318CE5D807BC
:101B800008F084C0C130ECE5DE0779F4F801828109
:101B9000882309F4FAC0809168018160809368010C
:101BA00084EE95E00E947109F0C0C230FCE5DF07C9
:101BB00058F4C115DC4561F4F8018281882309F4E9
:101BC000E4C00E944B0DE1C0C531ECE5DE0768F0D2
:101BD00081E08093BB008093BC00C801DF91CF916E
:101BE0001F910F91FF900C94D50CF80182818823EE
:101BF000A1F30E94E91E811102C00E946A1F0E9487
:101C0000061F90E090930F0280930E02FE01E350B6
:101C1000FC45E231F10530F4E65DFF4F80910E02A4
:101C20000C94792E80910E02816027C0826025C0BD
:101C3000846023C0806121C080621FC080641DC099
:101C400080681BC08460886018C08E7F16C08D7F3E
:101C500014C08B7F12C08F7E10C08F7D0EC08F7B13
:101C60000CC08F770AC08B7F877F07C087FB222736
:101C700020F991E0922790FB87F980930E028091E2
:101C80000E020E940A1F0E94A7187FC0C73DFCE5F4
:101C9000DF0739F5F8018281882361F01092BC00DA
:101CA0000E94B01F9093BA008093B90080E20E9416
:101CB000C1156BC08091BC0081110FC08091B9002B
:101CC0009091BA000E94C81F883C910530F487E2C9
:101CD0000E94A81487E20E948D1580E20E94C81518
:101CE00054C0C83D8CE5D80738F5C63DDC4509F041
:101CF0006FCFF8018281882351F01092BB000E94BF
:101D0000B01F9093B8008093B70082E0D0CF80914D
:101D1000BB0081110FC08091B7009091B8000E9464
:101D2000C81F883C910530F486E20E94A81486E220
:101D30000E948D1582E0D2CFC83DFCE5DF07E1F4BB
:101D4000F80182818111AACF8091BC008111C5CF99
:101D50008091B9009091BA000E94C81F883C9105FB
:101D600008F0BBCF80E20E94C81588E20E94A81448
:101D700088E20E948D1509C0CD3DDC4509F028CFD1
:101D8000F801828181110E946A1F80E0DF91CF916A
:101D90001F910F91FF90089580E090E008950895BD
:101DA0009FE0799FF001112499E6899FE00DF11DD4
:101DB0001124E60FF11DEE0FFF1FE850FF4F859134
:101DC00094910895880F991FFC01EB50F94F85916C
:101DD00094910895CF93DF930E94D00E0E94D31068
:101DE000EC01811521E5920708F042C0811530E52C
:101DF000930708F026C1883E910500F5803E9105C5
:101E000008F0CDC1883A910570F4853A910508F043
:101E10009DC08130910509F4C2C108F473C10497D3
:101E200008F0BDC16FC18F3B910508F49AC0803C9A
:101E3000910508F467C1805C9109F3C0811540E306
:101E4000940780F4811550E2950708F0E9C0803FBF
:101E5000910508F457C18F3F910511F008F09FC11B
:101E6000D0659DC1811560E4960708F0E7C0DDC02C
:101E7000C11589E5D80740F5C11528E5D20708F056
:101E80002DC1C11534E5D30778F4C11543E5D40756
:101E900008F009C1C11552E5D50708F0EEC0DC2FE6
:101EA000CC27C16FD06A7BC1C11565E5D60708F4A0
:101EB00010C1C11586E5D80708F024C1CF71DD2710
:101EC000DC2FCC27D0626BC1CD3B2CE5D20709F4C7
:101ED00010C1D8F4CB3B4CE5D40709F404C108F099
:101EE00005C1C1156AE5D60708F00CC18C2F8F70AB
:101EF000806E90E0906A24E0D695C7952A95E1F728
:101F0000CF709C013C2BE9014AC1C03C8CE5D8074D
:101F100009F4F5C060F4CE3B3CE5D30709F4ECC00E
:101F2000CF3BDC4509F0EEC0C0E0D2ED38C1CE01B8
:101F300090568115904208F0E5C08D2F8F710E9458
:101F40005011DD27D0628F71D82B29C1853A9105B8
:101F500009F4DBC0863A910509F0DAC0C2E8D0E4A2
:101F60001EC1883A910509F4D6C0893A910509F451
:101F7000D5C08A3A910509F4D4C08B3A910509F489
:101F8000D3C08C3A910509F4D2C08B3B910509F47A
:101F9000D1C08C3B910509F4D0C08D3A910509F46C
:101FA000CFC0803B910509F4CEC08E3A910509F46B
:101FB000CDC08F3A910509F4CCC0813B910509F45D
:101FC000CBC0823B910509F4CAC0833B910509F45B
:101FD000C9C0843B910509F4C8C0853B910509F44B
:101FE000C7C0863B910509F4C6C0873B910509F43B
:101FF000C5C0883B910509F4C4C0893B910509F42B
:10200000C3C08D3B910509F4C2C08E3B910509F414
:10201000C1C08A3B910509F4C0C0C0E0D4E4BFC090
:102020009F700E94E20EEC01BAC09927D3FF03C053
:10203000EC01D86CB4C0EC01D06CB1C0DF70D06AD8
:10204000AEC0282F237081E090E002C0880F991F56
:102050002A95E2F79C689E0174E0369527957A955B
:10206000E1F72370922BCF70C695C69560E2C69FAC
:10207000E0011124C82BD92B92C02C2F2695269530
:1020800080E2289F90011124C370DD2781E090E059
:10209000AC0102C0440F551FCA95E2F7EA01C22BFA
:1020A000D32BDC687CC02C2F2695269580E2289FB8
:1020B00090011124C370DD2781E090E0AC0102C0E3
:1020C000440F551FCA95E2F7EA01C22BD32BDA68F9
:1020D00066C0DC2FCC27C46FD06A61C0DC2FCC2750
:1020E000C06FD06A5CC0C0E0D4ED59C0C0E0D5ED8F
:1020F00056C0C0E0D1ED53C0C0E0D0ED50C0C0E04C
:10210000D3ED4DC0C0E0D0E04AC0C1E8D0E447C044
:10211000C3E8D0E444C0C2EED4E441C0C9EED4E484
:102120003EC0CAEED4E43BC0C5EBD4E438C0C6EB35
:10213000D4E435C0C3EBD4E432C0C4EBD4E42FC044
:10214000C7EBD4E42CC0CCECD4E429C0CDECD4E46F
:1021500026C0C3E8D5E423C0CAE8D5E420C0C2E95C
:10216000D5E41DC0C4E9D5E41AC0C1E2D6E417C065
:10217000C3E2D6E414C0C4E2D6E411C0C5E2D6E49A
:102180000EC0C6E2D6E40BC0C7E2D6E408C0CFE674
:10219000D4E405C0C0E7D4E402C0CAE2D6E4CE016C
:1021A000DF91CF9108958238910549F1B0F48133E0
:1021B000910509F458C048F48932910509F44EC0DC
:1021C0008A32910509F454C008958533910509F4C4
:1021D00040C08933910599F00895833E910529F116
:1021E00038F4803E910591F0823E9105A1F008956A
:1021F000863E9105F9F0873E910531F108952091D1
:102200000E0220FD3AC021FD38C0089580910E02D3
:1022100080FD35C032C080910E0282FF32C08091B5
:102220000E0284FD30C083EE39C080910E0282FD23
:1022300028C0F5CF80910E0283FF27C080910E0247
:1022400084FD21C087EE2AC080910E0283FD1DC04F
:10225000F5CF80910E0285FD1AC01BC080910E0241
:1022600085FD17C014C080910E0286FD14C015C0F4
:1022700080910E0286FD11C00EC080EE0FC089E372
:102280000DC082EE0BC080E009C086EE07C089E277
:1022900005C085E303C08AE201C081E390E00895B0
:1022A00090910E0292FF0DC0282F2871283019F44A
:1022B000877F846006C0282F2471243011F48B7F1F
:1022C000886093FF0DC0282F2871283119F4877E6C
:1022D000846106C0282F2471243111F48B7E88611B
:1022E00094FD877E0895CF93DF93FC01278521110C
:1022F00016C0EC0181E0878787810E94AD1E88852A
:102300000E94C01E0E94771EEA81FB816A897B8938
:10231000CE010696309719F0DF91CF910994DF91A5
:10232000CF910895CF93DF93FC012081223041F4B7
:10233000FB01EC01828193810E94A90C81E08987D5
:10234000DF91CF910895FC018081813021F4FB0160
:102350008081918105C0823029F4FB0182819381C3
:102360000C94A90C0895FC018081813021F4FB01BB
:102370008081918105C0823029F4FB0182819381A3
:102380000C94BF0C0895EF92FF920F931F93CF937D
:10239000DF93FC012085211134C0EC01E380F4803F
:1023A000F7E5FF1A24E12E9DC0012F9D900D112409
:1023B000DC01AF59BF4F1496ED91FC9115975296E1
:1023C0006D917C91539789599F4F309709F00995EA
:1023D00084E18E9D80018F9D100D11240F591F4F98
:1023E000F80187810E94B31EF80180850E94C61EF5
:1023F0000E94771E18821F8219861092BE001092CA
:10240000BD00DF91CF911F910F91FF90EF90089544
:10241000DF92EF92FF920F931F93CF93DF93FB0115
:102420002281222379F1209179002F3F59F18C01EB
:10243000C7E6D0E0E12CF12CDD24D3948091790023
:10244000082E000C990B8E159F05E4F088818823D7
:10245000A1F08B819C810817190739F48091BD0088
:102460009091BE000817190741F0DF82CE01069750
:102470000E947311CE010E94C311FFEFEF1AFF0AF1
:102480006496DCCFDF91CF911F910F91FF90EF9079
:10249000DF900895EF92FF920F931F93CF93DF93F6
:1024A0009C0137552F3F310511F008F047C040918E
:1024B0007900042E000C550B4217530714F4209397
:1024C0007900FB017C01828194E1929F8001939FBE
:1024D000100D1124E801CF59DF4F8E8792818E8134
:1024E000992311F1FA86E9868F5F8E830E94B01FCF
:1024F0009C878B870E94E61E8F830E94AA1E888776
:102500000E94BD1E9885892B8887E881F9816A8998
:102510007B89C80189599F4F309709F00995F0923E
:10252000BE00E092BD000AC0882341F08F85882359
:1025300029F0C80189599F4F0E94C31181E0DF91A2
:10254000CF911F910F91FF90EF900895CF92DF925E
:10255000EF92FF920F931F93CF93DF9380917900B7
:102560008F3FC1F1C0E0D4E12C2F30E080917900A1
:10257000082E000C990B8217930764F1D29FF0018B
:10258000D39FF00D1124EF59FF4FE088F188E1143B
:10259000F10419F488ECE82EF12CD29F6001D39F4E
:1025A000D00C112486010F591F4FF8018681882312
:1025B00079F0838594850E94C81FE816F90640F4D7
:1025C000C8010E947311C60189599F4F0E94C3110F
:1025D000CF5FCACFDF91CF911F910F91FF90EF9006
:1025E000DF90CF9008959093C4008093C300089526
:1025F000E091C300F091C400309721F00190F08188
:10260000E02D099480E00895EF92FF920F931F93BD
:10261000CF93DF93E091C300F091C4003097B1F104
:102620008C010280F381E02D09958091680182FF81
:102630002DC080FF04C08DEF96E00E947109E80173
:1026400018E087EFE82E86E0F82E8091680180FF81
:102650000BC088811F928F93FF92EF920E940A0A0B
:102660000F900F900F900F90115021961111EDCFF8
:102670008091680180FF0AC085EF96E0DF91CF91DD
:102680001F910F91FF90EF900C947109DF91CF9102
:102690001F910F91FF90EF900895E091C300F0918A
:1026A000C400309721F00480F581E02D099408954D
:1026B0002091C1003091C2008217930771F090936E
:1026C000C2008093C100E091C300F091C400309734
:1026D00021F00680F781E02D099408952091BF0034
:1026E0003091C0008217930771F09093C0008093DF
:1026F000BF00E091C300F091C400309721F0008446
:10270000F185E02D0994089581E008950E94A91FA4
:102710000E94760B0E947D200C948829CF93C82FAD
:102720008091680182FF1EC080FF04C086E197E0AF
:102730000E9471098091680180FF0CC01F92CF93A5
:1027400081E197E09F938F930E940A0A0F900F9068
:102750000F900F908091680180FF04C08FE097E098
:102760000E9471098C2FCF910C94480D4F925F926B
:102770007F928F929F92AF92BF92CF92DF92EF9211
:10278000FF920F931F93CF93DF93CDB7DEB72A97B6
:102790000FB6F894DEBF0FBECDBF0E94B00B0E94F3
:1027A0008413811111C08FEF89838A831B820E9459
:1027B000B01F8160782F9D838C8349815A816B8102
:1027C0008D810E94741457C096ECC92E90E0D92ECA
:1027D00000E010E0AA24A394B12C702E802F0E9458
:1027E0000B0C4C01F601419051906F01482659267F
:1027F0004114510431F40F5F1F4F0730110569F781
:10280000D2CF8091680181FD0E94140C20E030E05D
:102810007501022E02C0EE0CFF1C0A94E2F7C701FC
:1028200084219521892B09F12E837F828E209F2080
:1028300091E0892809F490E098870E94B01F816098
:10284000782F9A8789874E815F8168858A850E9463
:102850007414000F111FF801EA53FF4F808191811A
:10286000E826F926F182E08206C02F5F3F4F2F3025
:10287000310571F6C0CF0E94AA231091C5000E94B5
:10288000F8121817D9F00E94F8128093C5002A9602
:102890000FB6F894DEBF0FBECDBFDF91CF911F9171
:1028A0000F91FF90EF90DF90CF90BF90AF909F90EF
:1028B0008F907F905F904F900C948E132A960FB656
:1028C000F894DEBF0FBECDBFDF91CF911F910F9166
:1028D000FF90EF90DF90CF90BF90AF909F908F9040
:1028E0007F905F904F900895CF93DF93CDB7DEB781
:1028F0002B970FB6F894DEBF0FBECDBF4F8358871E
:1029000069877A878B87DE01119686E0FD01119237
:102910008A95E9F785E0FE01379601900D928A9538
:10292000E1F749815A816B817C818D819E810E9472
:102930004E1B2B960FB6F894DEBF0FBECDBFDF91B6
:10294000CF910895FC01808191810E94181E089505
:10295000CF93DF931F92CDB7DEB7882309F4D9C098
:10296000682F8CEF860F813A70F4862F69830E945E
:10297000362869818111CDC080917A0090917B00C9
:102980000E949E1F0CC080E2860F883068F467703A
:1029900081E001C0880F6A95EAF70E94AD1E0F9092
:1029A000DF91CF910C94771E8BE5860F833088F4EE
:1029B000653A29F0663A31F083E890E005C081E895
:1029C00090E002C082E890E00F90DF91CF910C94EC
:1029D000581388E5860F873108F091C0683A09F4EA
:1029E00045C0693A09F445C06A3A09F445C06B3AF2
:1029F00009F445C06C3A09F445C06B3B09F445C085
:102A00006C3B09F445C06D3A09F445C0603B09F4DC
:102A100045C06E3A09F445C06F3A09F445C0613BC0
:102A200009F445C0623B09F445C0633B09F445C065
:102A3000643B09F445C0653B09F445C0663B09F4B5
:102A400045C0673B09F445C0683B09F445C0693B94
:102A500009F445C06D3B09F445C06E3B09F445C01F
:102A60006A3B09F445C080E090E044C082EE90E00B
:102A700041C089EE90E03EC08AEE90E03BC085EB1D
:102A800090E038C086EB90E035C083EB90E032C038
:102A900084EB90E02FC087EB90E02CC08CEC90E0B2
:102AA00029C08DEC90E026C083E891E023C08AE83D
:102AB00091E020C082E991E01DC084E991E01AC054
:102AC00081E292E017C083E292E014C084E292E0D7
:102AD00011C085E292E00EC086E292E00BC087E270
:102AE00092E008C08FE690E005C080E790E002C069
:102AF0008AE292E00F90DF91CF910C946E13603FC9
:102B000040F0862F0E9430220F90DF91CF910C94DD
:102B10001D230F90DF91CF910895882389F19CEFB9
:102B2000980F913A40F4682F80917A0090917B0041
:102B30000E94A01F0DC090E2980F983058F4877043
:102B400091E001C0990F8A95EAF7892F0E94B31E80
:102B50000C94771E9BE5980F933020F480E090E072
:102B60000C94581398E5980F973120F480E090E08A
:102B70000C946E13803F20F00E9498220C941D2329
:102B80000895882321F00E94AD1E0C94771E0895AD
:102B9000882321F00E94B31E0C94771E08954F9253
:102BA0005F926F927F92BF92CF92DF92EF92FF92ED
:102BB0000F931F93CF93DF937C01D62FC72FFC0178
:102BC000058102950F70128111110E94CD1E0E9485
:102BD000701E882379F0112369F080E28D0F883010
:102BE00048F082E00E94591E0E94701E91E0B82EAB
:102BF000B92601C0B12CCC2EC2948FE0C822D12CB2
:102C0000F601E45CFF4F0C94792E8C2F807FCF70FF
:102C1000882311F0C295C07F112399F0CC2309F4C9
:102C2000D0C180E28D0F883010F0D11104C08C2FFC
:102C30000E94AD1E03C08C2F0E94C01E0E94771EF2
:102C4000C0C18D2F0E948D15CC2309F403C280E2F0
:102C50008D0F883010F0D11104C08C2F0E94B31E4C
:102C600003C08C2F0E94C61E0E94771EF3C18C2FBA
:102C7000807FCF70803211F0C295C07FDD2319F0C4
:102C8000D130C9F022C0112371F0002341F001308E
:102C900031F40E94E61E8C2B0E94E01EDBC10E94D4
:102CA000E61E8C2B46C1002319F0013009F4D2C175
:102CB0000E94E31E18C0112321F0063008F0CAC19B
:102CC0000EC0053008F0C6C10EC0112351F000231C
:102CD00031F0F701858180FF74C18F7085838C2F5F
:102CE00028C101117FC18C2F2AC18C2F8695869512
:102CF000837090E0009719F0019761F0ABC1112348
:102D000021F08D2F9C2F937002C080E090E00E94F4
:102D10005813B0C1112321F08D2F9C2F937002C046
:102D200080E090E00E946E13A5C11123F9F0D53F19
:102D300051F0D63F71F0D43FA9F4809108029091F0
:102D4000090281600BC080910802909109028260A3
:102D500005C0809108029091090284609093090255
:102D6000809308028D2F0E9430221EC0D53F51F063
:102D7000D63F71F0D43FA9F48091080290910902E6
:102D80008E7F0BC080910802909109028D7F05C053
:102D900080910802909109028B7F909309028093A1
:102DA00008028D2F0E9498220E941D2363C18C2F40
:102DB000837009F050C0111159C18D2F82958695ED
:102DC0008770880F880F9D2F9F70492E512C612C82
:102DD000712C082E04C0440C551C661C771C0A94E8
:102DE000D2F7D4FF14C00FE010E020E030E0B901CA
:102DF000A80104C0440F551F661F771F8A95D2F79C
:102E0000CB01BA01609570958095909503C060E004
:102E100070E0CB01C695C695C370D0E0C230D10535
:102E200061F0C330D10581F064297529862997297D
:102E3000219771F00E94931C19C164297529862974
:102E400097290E94A51C12C10E94931CC301B201C4
:102E50000E94811C0BC1112319F08C2F817001C0BD
:102E60008695882309F402C18D2F829586958770F7
:102E7000880F880F9D2F9F70492E512C612C712C2B
:102E8000082E04C0440C551C661C771C0A94D2F70B
:102E9000D4FF14C00FE010E020E030E0B901A80139
:102EA00004C0440F551F661F771F8A95D2F7CB01C8
:102EB000BA01609570958095909503C060E070E0D0
:102EC000CB01C695C695C3704C2F50E042305105DA
:102ED00069F04330510589F06429752986299729BD
:102EE0004130510571F00E94591DC0C064297529F7
:102EF000862997290E946B1DB9C00E94591DC301E4
:102F0000B2010E94471DB2C08D2F90E0FC01E05E2F
:102F1000F109E531F10508F050C0E45BFF4F0C9476
:102F2000792EDF708C2F8F71112331F00E94E01CFD
:102F30008D2F0E94C1158EC00E94011D8D2F0E94F1
:102F4000C81588C0112341F0053008F083C08C2FCC
:102F50008F710E94261D7EC0063008F07BC0F7CF1F
:102F6000112339F08C2F8F710E94E01C73C0112344
:102F7000C9F38C2F8F710E94011D6CC0112329F0A1
:102F80008C2F8F710E94CB1C65C00E94C61C62C032
:102F9000112349F0CF718C2F0E94E01C63E08C2F2D
:102FA0000E94501E57C081E00E94591E023008F452
:102FB00051C082E00E94591E4DC0112331F0002300
:102FC00089F28D2F0E94A81445C0002391F2D933B5
:102FD00049F45FEF6DEE72E0515060407040E1F7F0
:102FE00000C000008D2F0E948D1534C04C2F4F70F3
:102FF0006D2FC7010E94CC0E0E94F21B3BC0111125
:1030000039C0CF70D0E0C230D10599F03CF42097A0
:1030100069F02197F9F40E94CD292CC0C430D10564
:1030200071F054F02597B1F480E00AC00E94A52900
:1030300021C00E94372A1EC00E94532A1BC081E073
:103040000E94892A17C04C2F4F706D2FC7010E9414
:10305000CF0E10C088E0C816D10441F05CF0EAE061
:10306000CE1AD108F2E0CF16D10420F40E94F81253
:103070000E94480DBB20F1F00E944C1E80FD1AC03A
:10308000F70112820E94461E0E94E01CC7010E94A6
:1030900068180E94461EDF91CF911F910F91FF90FB
:1030A000EF90DF90CF90BF907F906F905F904F90A8
:1030B0000C94011DDF91CF911F910F91FF90EF9024
:1030C000DF90CF90BF907F906F905F904F9008956A
:1030D0000F931F93CF93DF93EC01888199812B810C
:1030E0003C81232BB9F09F3F11F48F3F99F0CE0123
:1030F0000E945A0D882371F0688179818A810E942B
:10310000231E8C010E947D1D0E947E1CB801CE01F1
:103110000E94CF15DF91CF911F910F9108950E94CA
:10312000CD1E0E94DD1E80917A0090917B000E944E
:10313000A21F0E94771E0E9445240E941D2380E04A
:1031400090E00E94581380E090E00C946E130E946F
:10315000BA1E0C948F180E94181EE92FE295EF708A
:10316000F0E03297EE30F105B0F4EF59FF4F0C94D8
:10317000792E803F91F018F4803E68F40EC0843FB1
:1031800051F40BC0803E48F0813F29F406C093FB08
:10319000882780F9089580E0089581E00895CF930D
:1031A000DF9300D000D01F92CDB7DEB70F900F9005
:1031B0000F900F900F90DF91CF910895CF93DF93F1
:1031C00000D000D000D0CDB7DEB726960FB6F89469
:1031D000DEBF0FBECDBFDF91CF9108951F93CF9378
:1031E000DF93C091D50016E08091D600C81799F002
:1031F000D0E01C9FF0011D9FF00D1124E952FF4FFC
:103200004081518162817381848195810E94DE18A1
:103210002196C770E9CFDF91CF911F91089540911A
:103220000701509108016091090170910A01809194
:103230000B0190910C010C94DE1880910C01829589
:103240008F7009F054C080910901882309F44FC0A0
:103250008091D500A091D60060910701709108017E
:1032600040910A0150910B01B6E08A1709F43FC062
:1032700090E041155105C1F17F3F11F46F3FA1F17D
:10328000B89FF001B99FF00D1124E952FF4F218141
:1032900072132AC02081621327C02281211124C009
:1032A000238134812417350710F421503109241B60
:1032B000350B283C3105C0F420910C012F702061A2
:1032C00020930C0126E0289FF001299FF00D112486
:1032D000E452FF4F80818F708061808387E091E0AE
:1032E0000E9468180C94EE1801968770BECF08955E
:1032F000CF92DF92EF92FF920F931F93CF93DF93C2
:10330000CDB7DEB762970FB6F894DEBF0FBECDBF64
:103310008C0185E0F801DE011D9601900D928A95E1
:10332000E1F7D8014C9111965C91119712966C912E
:1033300012971396CD90DC901497309107017091FD
:10334000080180910A0190910B01009709F46BC16B
:103350007F3F19F43F3F09F466C1E0900901EE2078
:1033600009F4C0C020910C01C816D90628F0F60156
:10337000E81BF90BCF0104C0809590958C0D9D1D25
:10338000FF24F394883C910578F0F12C207F09F01C
:10339000C6C07C2DD98AC88A89890E94CF1887E047
:1033A00091E00E946818B1C0822F807F09F046C06A
:1033B000751314C0341312C0611110C02F70206136
:1033C00020930C010E940F1987E091E00E94681879
:1033D00080910C01D80115968C932EC0CD2819F13F
:1033E0005F3F11F44F3FF9F0F62E61111CC0809140
:1033F000D5002091D60036E0821709F45AC090E03B
:10340000389FF001399FF00D1124E952FF4F71816F
:10341000571306C07081471303C07281711103C036
:1034200001968770E9CFF62E662309F427C18091B3
:103430000C01816080930C01F12C20C1751308C030
:10344000341306C0611104C080910C01D801C3C0BF
:103450004D875E878D859E856A8B0E94AB186A8931
:103460008823E1F16623D1F120910C01822F82950E
:103470008F7090E0029774F080910701909108019D
:1034800098878F831986DB86CA862C87CE0107969C
:103490000E94681886E0F801A7E0B1E001900D9263
:1034A0008A95E1F70E941D190E940F19FF24F394D9
:1034B000E5C04D875E878D859E850E94181E292F49
:1034C00022952F7030E0223031050CF0CBC09F7078
:1034D00009F0C5C0805E883008F4D0C0C8010E94E1
:1034E0006818E4CFC816D90608F453C0F601E81BE3
:1034F000F90BCF01883C910508F450C0F12C7C2DCC
:10350000D98AC88A89890E94CF18E7E0F1E086E06D
:10351000DF011D928A95E9F70E940F19AFC075135C
:1035200014C0341312C0611110C080910C01F80155
:103530008583C8010E94681886E0E7E0F1E0DF01BA
:103540001D928A95E9F7FE2C99C04D875E878D857F
:103550009E856A8B0E94AB186A89882309F4BECFC6
:10356000662309F4BBCF20910C01822F82958F70C6
:1035700090E002970CF48ECF8091070190910801A2
:103580009A8389831B82DD82CC822E83CE010196B1
:103590007FCF809590958C0D9D1DACCFF62E662328
:1035A00009F49CCF75132EC034132CC020910C014C
:1035B00020FD1FC0822F82958F70D9F0D8011596FB
:1035C0002C9315978F3049F08F5F982F9295907FAD
:1035D000822F8F70892B15968C93C8010E946818D2
:1035E00086E0F801A7E0B1E001900D928A95E1F73D
:1035F00093CF86E0F801A7E0B1E001900D928A95A3
:10360000E1F73CC04D875E878D859E850E94AB1893
:10361000811140CF80910C01816080930C01C80121
:103620000E9468182BC0662309F458CF4D875E8727
:103630008D859E850E94AB18F82E882309F44ECF05
:1036400086E0F801A7E0B1E001900D928A95E1F7DC
:1036500087E091E00E94A2140E941D195DCF8111A4
:1036600039CF0CC0243031050CF038CF9F7009F4ED
:1036700031CFF8019581907F09F02CCF8F2D629684
:103680000FB6F894DEBF0FBECDBFDF91CF911F9173
:103690000F91FF90EF90DF90CF9008951F93CF93FD
:1036A000DF93CDB7DEB72C970FB6F894DEBF0FBE11
:1036B000CDBF4F83588769877A878B879C87CE01D8
:1036C00007960E947819882369F08F8198852A854A
:1036D0003B85232BF1F19F3F09F063C08F3F09F039
:1036E00060C037C086E0FE013796DE01119601907A
:1036F0000D928A95E1F76F817885EA85FB85309791
:1037000041F17F3F11F46F3F21F12091D60030E06D
:10371000C9010196877099274091D50050E0841720
:10372000950709F447C069837A83FD83EC8396E0AB
:10373000929FD001939FB00D1124A952BF4FFE015B
:10374000319601900D929A95E1F78093D6000E94F0
:10375000EE1816E08091D5009091D6008917C1F13E
:10376000189FC001112489529F4F0E947819882305
:1037700079F1E091D5001E9FF0011124E952FF4F2D
:103780004081518162817381848195810E94DE181C
:103790008091D50090E00196877099278093D5009D
:1037A000D9CF4F81588569857A858B859C850E9404
:1037B000DE18CFCF0E94A7181092D6001092D50025
:1037C000E7E0F1E086E0DF011D928A95E9F7C1CFDD
:1037D0002C960FB6F894DEBF0FBECDBFDF91CF9110
:1037E0001F910895EF92FF920F931F93CF93DF9352
:1037F0008C01892B09F46CC0F12CEE24E394E801D0
:103800002196F8018491843740F4843008F051C047
:10381000813081F0823019F15BC0853709F444C0F2
:10382000A8F19CE7980F903708F052C08F770E945C
:103830008D1541C00E5F1F4FFE01C49180E28C0FB9
:10384000883048F4C7708E2D01C0880FCA95EAF7FA
:103850000E94D01E14C08C2F0E94A8142DC00E5F91
:103860001F4FFE01C49180E28C0F883058F4C7705E
:103870008E2D01C0880FCA95EAF70E94D61E0E94BD
:10388000771E1AC08C2F0E948D1516C00E5F1F4F19
:10389000FE01C491CC2381F087EB9BE00197F1F707
:1038A00000C00000C150F6CF0E5F1F4FFE01F49024
:1038B00003C00E94A8148E018F2D882309F49FCF86
:1038C000E7EBFBE03197F1F700C000008150F5CF46
:1038D000DF91CF911F910F91FF90EF900895089580
:1038E0000C946F1C0E94701C6093570170935801D8
:1038F0008093590190935A010C948F1808950C9459
:10390000721C0F931F930091570110915801209141
:10391000590130915A01602B712B822B932B1F91EF
:103920000F910C94721C0F931F93009157011091EB
:1039300058012091590130915A016023712382234B
:1039400093231F910F910C94721C0F931F9300915E
:103950005701109158012091590130915A01602767
:103960007127822793271F910F910C94721C089541
:103970000C94B71C0E94B81C6093530170935401BF
:1039800080935501909356010C948F1860E070E07D
:10399000CB010C94BA1C0F931F9341E050E060E000
:1039A00070E08A019B0104C0000F111F221F331F0A
:1039B0008A95D2F7C901B8011F910F910C94BA1CD6
:1039C0000F931F9341E050E060E070E004C0440FAB
:1039D000551F661F771F8A95D2F7809153019091EA
:1039E0005401A0915501B09156018A019B01082B09
:1039F000192B2A2B3B2BC901B8011F910F910C9455
:103A0000BA1C0F931F9341E050E060E070E004C0E7
:103A1000440F551F661F771F8A95D2F74095509522
:103A2000609570958091530190915401A09155013A
:103A3000B09156018A019B01082319232A233B23B5
:103A4000C901B8011F910F910C94BA1C0F931F93D9
:103A500041E050E060E070E004C0440F551F661F75
:103A6000771F8A95D2F78091530190915401A091CC
:103A70005501B09156018A019B01082719272A2771
:103A80003B27C901B8011F910F910C94BA1C0F93E9
:103A90001F930091530110915401209155013091D1
:103AA0005601602B712B822B932B1F910F910C943D
:103AB000BA1C0F931F930091530110915401209150
:103AC00055013091560160237123822393231F9166
:103AD0000F910C94BA1C0F931F93009153011091F6
:103AE000540120915501309156016027712782279A
:103AF00093271F910F910C94BA1C08952FE0929F69
:103B0000800D1124A82FA695A695A695877051E043
:103B100001C0550F8A95EAF785E0A89FD0011124CE
:103B200020E030E070E0F901EA0FFB1FE35FFE4F99
:103B30004081CB01022E02C0969587950A94E2F748
:103B400081709927819584278523842780832F5F1F
:103B50003F4F2530310539F708952FE0929F800DB2
:103B60001124682F669566956695982F977085E065
:103B7000689FB001112440E050E080E0FA01E60FB8
:103B8000F71FE35FFE4F208130E0092E02C036951B
:103B900027950A94E2F721703327042E01C0220FE3
:103BA0000A94EAF7822B4F5F5F4F4530510531F79A
:103BB0000895CF92DF92EF92FF920F931F93CF93CE
:103BC000DF938C01C0905701D0905801E0905901CB
:103BD000F0905A018091530190915401A0915501A8
:103BE000B0915601C82AD92AEA2AFB2ACFE1D0E0AF
:103BF000D701C6010C2E04C0B695A7959795879559
:103C00000A94D2F780FF06C0B8018C2F0E94EA0EFA
:103C1000019721F4219760F780E001C08C2FDF919C
:103C2000CF911F910F91FF90EF90DF90CF9008956B
:103C3000CF93DF93EC010E94D91DBE010E94EA0ED2
:103C4000DF91CF9108951F93CF93DF93EB01909174
:103C5000D400992321F0CB010E94181E13C08823A1
:103C600049F0CB010E94D91D182F682FCE010E9468
:103C70007E1D04C0CB010E94AD1D182FBE01812FF7
:103C80000E94EA0EDF91CF911F91089580915B0110
:103C9000859585958595089580915B018770089538
:103CA00098E0899F90011124262B20935B010C94AE
:103CB000E01C20915B018095822380935B01982F0B
:103CC000977069F430E0482F082E000C550B24172C
:103CD000350729F08595859585950C94011D0895E6
:103CE00090915B01977081E009F480E00895E09184
:103CF0007A00F0917B00809167018083E0917A00E7
:103D0000F0917B00908180916601892B8083E09106
:103D10007A00F0917B00908180916501892B8083EE
:103D200080915C01882381F0E0917A00F0917B0022
:103D30009081892B808380917A0090917B000E94F2
:103D40006C1F811110925C0180917A0090917B0030
:103D50000C94041380916701089590916701892B59
:103D600080936701089580959091670189238093DE
:103D70006701089510926701089580916601089582
:103D800090916601892B80936601089580959091AA
:103D90006601892380936601089510926601089553
:103DA00090916501892B809365010895809590918C
:103DB0006501892380936501089510926501089536
:103DC00080935C01089510925C01089580915C01DC
:103DD000089580E090E00E94872E21E08D3E9E4F66
:103DE00009F020E0822F089582E090E00C947F2E6D
:103DF000682F82E090E00C948D2E83E090E00C948C
:103E00007F2E682F83E090E00C948D2E84E090E06C
:103E10000C947F2E682F84E090E00C948D2E86E029
:103E200090E00C947F2E682F86E090E00C948D2E0D
:103E3000AB01BC018FE090E00C949E2EAB01BC0165
:103E400083E190E00C949E2E60E070E0CB010C9436
:103E50001E1F60E070E0CB010E94181F0C94241F0D
:103E60006DEE7EEF80E090E00E94AA2E60E082E09E
:103E700090E00E948D2E60E083E090E00E948D2E05
:103E800010925701109258011092590110925A0144
:103E900060E084E090E00E948D2E60E085E090E09C
:103EA0000E948D2E60E086E090E00E948D2E6FEFE4
:103EB00087E090E00E948D2E40E050E0BA0188E05B
:103EC00090E00E949E2E60E08DE090E00E948D2E9A
:103ED0000C94291F0C94301FFC01329697E080E06F
:103EE000915029F021912223D9F38F5FF9CF0895C2
:103EF0009C01FC0132969FEF80E04191461789F0CA
:103F00009F3F19F4411101C0982F8F5F8630A9F7A8
:103F10009F3F39F0F901E90FF11D97FDFA95628392
:103F200008950895FC01329608962081261301C059
:103F300010823196E817F907C1F708950C94781F9D
:103F40000C94921F029626E0FC0111922A95E9F743
:103F500008958BE083BF8BEB8CBF82E089BF08950F
:103F60002FB7F89480910A0290910B02A0910C0255
:103F7000B0910D022FBF08952FB7F89460910A02F7
:103F800070910B0280910C0290910D022FBF089549
:103F9000CF92DF92EF92FF920F931F932FB7F89477
:103FA00040910A0250910B0260910C0270910D0237
:103FB0002FBF6A017B01EE24FF248C0120E030E05A
:103FC000C016D106E206F30610F4415051099A01D9
:103FD000281B390BC9011F910F91FF90EF90DF90C3
:103FE000CF90089578941F920F920FB60F921124DC
:103FF0008F939F93AF93BF9380910A0290910B028E
:10400000A0910C02B0910D020196A11DB11D8093EB
:104010000A0290930B02A0930C02B0930D02BF9181
:10402000AF919F918F910F900FBE0F901F90189599
:1040300060E081E090E00E94B02E87E090EBDC0130
:104040008093540290935502A0935602B093570266
:104050009CE088E10FB6F894A89581BD0FBE91BD94
:10406000FFCFAF92BF92CF92DF92EF92FF920F936A
:104070001F93CF93C0E0CC24C394D12CE82EF12C15
:104080008C2F0E940B0C5C0100E010E09601002ECA
:1040900002C0220F331F0A94E2F72A213B21232B6F
:1040A00031F40F5F1F4F0F30110581F70AC0602FE9
:1040B0007C2F80E00E94D00EE816F90691F781E08F
:1040C00004C0CF5FC730E1F680E0CF911F910F9120
:1040D000FF90EF90DF90CF90BF90AF900895CF9377
:1040E000C82F8CE20E943120882321F08C2FCF91A1
:1040F0000C94312080E0CF910895CF930E94E91E67
:10410000811102C00E946A1F80E397E00E9471093A
:10411000C5E6C15049F00E94B00B8FE295E70197C8
:10412000F1F700C00000F5CF89E297E00E94710925
:1041300089E20E946F2081110FC18AE20E946F20E4
:1041400081110E946A1F85E00E946F2081110E94E8
:1041500018200E94F41E8093680187E00E946F205F
:104160008823A9F18BE10E946F20882351F0809170
:10417000680181FB222720F991E0922790FB81F9C9
:104180000EC08EE00E946F20882361F0809168014C
:1041900082FB222720F991E0922790FB82F98093FD
:1041A000680115C080E10E946F209091680188230A
:1041B00041F093FB222720F981E0822780FB93F9CD
:1041C00004C0892F809580FB90F9909368018091BD
:1041D00068010E94F81E0E94061F90E090930F0253
:1041E00080930E0280EE0E946F20882341F0809120
:1041F0000E02982F909590FB80F980930E0289E330
:104200000E946F20882359F080910E0281FB2227A3
:1042100020F991E0922790FB81F980930E0282EEC3
:104220000E946F20882359F080910E0282FB222782
:1042300020F991E0922790FB82F980930E0286EE9E
:104240000E946F20882359F080910E0283FB222761
:1042500020F991E0922790FB83F980930E0283EE80
:104260000E946F20882359F080910E0284FB222740
:1042700020F991E0922790FB84F980930E0285E368
:104280000E946F20882359F080910E0285FB22271F
:1042900020F991E0922790FB85F980930E0281E34B
:1042A0000E946F20882359F080910E0286FB2227FE
:1042B00020F991E0922790FB86F980930E0281E12C
:1042C0000E946F20882359F080910E0287FB2227DD
:1042D00020F991E0922790FB87F980930E0280915C
:1042E0000E020E940A1F87E20E946F20C82F8EE1F3
:1042F0000E946F208111C2608FE10E946F208111A6
:10430000C46080E20E946F208111C86081E20E9437
:104310006F208111C06182E20E946F208111C06212
:1043200083E20E946F208111C06484E20E946F20AA
:10433000882311F0C06802C0CC2329F08C2F0E9482
:10434000011F6C2F03C00E94FD1E682F70E080E0EB
:1043500090E0CF910C947F1CCF91089580916B01D8
:1043600080FF0BC060917F0085E0689FB001112441
:1043700075956795759567952BC081FF09C060910C
:104380007F0085E0689FB00111247595679520C076
:1043900082FF07C060917F0085E0689FB001112413
:1043A00017C090916C019923D1F060917E0096170F
:1043B00088F720917F0085E0289F90011124929F2B
:1043C000A001939F500D112470E0CA010E94652E38
:1043D0006038710540F46115710539F002C065E07F
:1043E00070E0862F08958FE7089581E00895809109
:1043F0006B0180FF08C060917D0070E07595679546
:104400007595679521C081FF06C060917D0070E0C1
:104410007595679519C082FF04C060917D0070E0BA
:1044200010C090916C019923C1F060917C009617A7
:10443000A0F780917D00899FC001112470E00E9447
:10444000652E6038710528F46115710521F0862FFD
:1044500008958FE7089581E0089561E070E0F4CF5A
:10446000803F21F40E94AE21819504C0813F29F450
:104470000E94AE2180936F010895823F21F40E9433
:10448000AE21819504C0833F29F40E94AE21809320
:104490006E010895893F19F40E94F72105C08A3FF3
:1044A00031F40E94F72181958093700108958B3F2C
:1044B00021F40E94F721819504C08C3F29F40E94C9
:1044C000F721809371010895843F21F480916D015B
:1044D000816017C0853F21F480916D01826011C019
:1044E000863F21F480916D0184600BC0873F21F4E9
:1044F00080916D01886005C0883F31F480916D0125
:10450000806180936D0108958D3F21F480916B014E
:1045100081600BC08E3F21F480916B01826005C0E9
:104520008F3F29F480916B01846080936B01089523
:10453000803F39F480916F0187FF6CC010926F014A
:1045400069C0813F29F480916F011816BCF362C0E5
:1045500090916E01823F29F497FF5CC010926E012A
:1045600059C0833F19F41916CCF354C0893F41F464
:104570008091700118160CF04DC0109270014AC065
:104580008A3F29F48091700187FF44C0F6CF8B3FAA
:1045900039F48091710187FF3DC0109271013AC0DA
:1045A0008C3F29F4809171011816BCF333C0843F0D
:1045B00021F480916D018E7F17C0853F21F4809199
:1045C0006D018D7F11C0863F21F480916D018B7F3D
:1045D0000BC0873F21F480916D01877F05C0883F24
:1045E00031F480916D018F7E80936D0113C08D3FFA
:1045F00021F480916B018E7F0BC08E3F21F480915E
:104600006B018D7F05C08F3F29F480916B018B7FFB
:1046100080936B0180916E0181110EC080916F01BA
:1046200081110AC080917001811106C080917101D1
:10463000811102C010926C0108958091680183FF7E
:104640007EC08CE697E00E94710980916D011F92F7
:104650008F9387E697E09F938F930E940A0A85E6DF
:1046600097E00E94710980916E01282F082E000C9E
:10467000330B3F938F9382E697E09F938F930E9433
:104680000A0A80E697E00E94710980916F01282F45
:10469000082E000C330B3F938F938DE597E09F938B
:1046A0008F930E940A0A8BE597E00E94710980911E
:1046B0007001282F082E000C330B3F938F9388E551
:1046C00097E09F938F930E940A0A86E597E00E94E5
:1046D000710980917101282F082E000C330B3F9334
:1046E0008F9383E597E09F938F930E940A0A80E55A
:1046F00097E00E94710980916C011F928F938DE465
:1047000097E09F938F930E940A0A8BE497E00E94A0
:10471000710980916B011F928F9388E497E09F93BA
:104720008F930E940A0A85E497E00E9471098DB771
:104730009EB74C960FB6F8949EBF0FBE8DBF8DE608
:1047400091E00E944D130E94B01F90936A018093E4
:10475000690108951F93CF93DF9380916901909130
:104760006A010E94C81FAC0190916C01992321F04D
:104770002091800030E006C0209181008AE0289FCF
:10478000900111244217530708F47BC080916E01F9
:10479000C0916F01D091700110917101811107C01A
:1047A000C1116BC0D11169C0111167C06AC09F3FB0
:1047B00019F09F5F90936C01181624F40E94AE21AB
:1047C00080936E0180916E0187FF05C00E94AE212B
:1047D000819580936E011C1624F40E94AE21809373
:1047E0006F0180916F0187FF05C00E94AE21819506
:1047F00080936F0130916E013323E1F020916F01BE
:104800002223C1F045EB3403C0011124892F990FF5
:10481000990B009709F481E080936E0135EB230337
:10482000C0011124892F990F990B009709F481E099
:1048300080936F011D1624F40E94F721809370016C
:104840008091700187FF05C00E94F72181958093B8
:104850007001111624F40E94F72180937101809158
:10486000710187FF05C00E94F72181958093710136
:10487000DF91CF911F910C941D239F3F09F099CF99
:10488000A1CFDF91CF911F910895EDE6F1E085E092
:10489000DF011D928A95E9F710926C0110926B016D
:1048A00008958FE899E00E9471091F9281E08F932B
:1048B0001F9285E08F9381E499E09F938F930E94EC
:1048C0000A0A0F900F900F900F900F900F9008957D
:1048D0008330E9F128F4813061F0823009F10895E4
:1048E000853009F462C008F449C0863009F474C008
:1048F000089580918100262F30E0280F311D2F3F31
:10490000310524F4680F6093810003C08FEF80931A
:104910008100809181001F928F938AE798E072C096
:1049200080918000262F30E0280F311D2F3F310568
:1049300024F4680F6093800003C08FEF80938000A1
:10494000809180001F928F9388E698E05BC08091F1
:104950007F00262F30E0280F311D2F3F310524F432
:10496000680F60937F0003C08FEF80937F0080917A
:104970007F001F928F9385E598E044C080917E0070
:10498000262F30E0280F311D2F3F310524F4680F0A
:1049900060937E0003C08FEF80937E0080917E0045
:1049A0001F928F9380E498E02DC080917D00262F88
:1049B00030E0280F311D2F3F310524F4680F60933C
:1049C0007D0003C08FEF80937D0080917D001F925A
:1049D0008F9387E298E016C080917C00262F30E00C
:1049E000280F311D2F3F310524F4680F60937C00A0
:1049F00003C08FEF80937C0080917C001F928F9387
:104A00008CE098E09F938F930E940A0A0F900F907A
:104A10000F900F900895833081F128F4813059F080
:104A20008230D1F00895853009F449C0B8F186305C
:104A300009F456C0089580918100681720F4861B00
:104A40008093810002C010928100809181001F92AA
:104A50008F938DEF97E054C080918000681720F409
:104A6000861B8093800002C010928000809180009D
:104A70001F928F938BEE97E043C080917F00681761
:104A800020F4861B80937F0002C010927F008091EB
:104A90007F001F928F9388ED97E032C080917E0057
:104AA000681720F4861B80937E0002C010927E005F
:104AB00080917E001F928F9383EC97E021C08091BC
:104AC0007D00681720F4861B80937D0002C0109241
:104AD0007D0080917D001F928F938AEA97E010C03D
:104AE00080917C00681720F4861B80937C0002C0B4
:104AF00010927C0080917C001F928F938FE897E04A
:104B00009F938F930E940A0A0F900F900F900F901F
:104B10000895CF93C82F1F928F9384E99AE09F93B3
:104B20008F930E940A0A81E090E0A0E0B0E0BC010F
:104B3000CD0104C0660F771F881F991FCA95D2F751
:104B40000E947F1C0F900F900F900F90CF910C94AC
:104B5000A718CF938732B0F58E3108F06AC28E3035
:104B600009F4FEC100F5873009F4CBC1A8F4863002
:104B700009F065C280916801817F8E7F8093680112
:104B800084EE9BE00E94710988EB9FE00E9471090E
:104B900081E080937301B3C1883009F43FC08B304A
:104BA00009F4A9C14CC2863109F420C220F4803135
:104BB00009F4EAC144C2893109F401C28B3109F414
:104BC000BBC13DC2883309F496C150F4893209F45F
:104BD00032C2853309F42FC2873209F42CC22FC2A6
:104BE000833409F428C228F48A3308F428C289538C
:104BF00023C2883409F023C20E94A7188CE99FE0E1
:104C00000E9471099FEF2EE984E29150204080407C
:104C1000E1F700C000000E94182071C18CEB9FE0FA
:104C20000E9471098EE19FE00E9471090E94FD1EA1
:104C30001F928F938BE19FE09F938F930E940A0AAC
:104C400089E19FE00E9471090E94F41EC82F86E04E
:104C50009FE00E9471091F92CF9381E09FE09F9394
:104C60008F930E940A0A8FEF9EE00E94710985EFE0
:104C70009EE00E9471098C2F81701F928F9382EFAA
:104C80009EE09F938F930E940A0A80EF9EE00E940D
:104C9000710986EE9EE00E947109C1FB882780F9A8
:104CA0001F928F9383EE9EE09F938F930E940A0A38
:104CB00081EE9EE00E94710985ED9EE00E947109DF
:104CC000C2FB882780F91F928F9382ED9EE09F930D
:104CD0008F930E940A0A80ED9EE00E94710987EC82
:104CE0009EE00E947109C3FBCC27C0F91F92CF93AD
:104CF00084EC9EE09F938F930E940A0A82EC9EE0D0
:104D00000E9471090E94061FC82F8EEA9EE00E9431
:104D100071091F92CF9389EA9EE09F938F930E941F
:104D20000A0A87EA9EE00E9471098EE89EE00E94CE
:104D300071098C2F81701F928F938BE89EE09F9357
:104D40008F930E940A0A8DB79EB780960FB6F8948B
:104D50009EBF0FBE8DBF89E89EE00E94710982E769
:104D60009EE00E947109C1FB882780F91F928F93F2
:104D70008FE69EE09F938F930E940A0A8DE69EE045
:104D80000E9471098BE59EE00E947109C2FB882791
:104D900080F91F928F9388E59EE09F938F930E94E6
:104DA0000A0A86E59EE00E94710984E49EE00E9462
:104DB0007109C3FB882780F91F928F9381E49EE0DD
:104DC0009F938F930E940A0A8FE39EE00E947109CD
:104DD00085E39EE00E947109C4FB882780F91F9239
:104DE0008F9382E39EE09F938F930E940A0A80E351
:104DF0009EE00E9471098EE19EE00E947109C5FB50
:104E0000882780F91F928F938BE19EE09F938F9369
:104E10000E940A0A89E19EE00E9471098DEF9DE0DF
:104E20000E947109C6FB882780F91F928F938AEF31
:104E30009DE09F938F930E940A0A88EF9DE00E9455
:104E4000710980EF9DE00E947109C7FBCC27C0F972
:104E50001F92CF938DEE9DE09F938F930E940A0A3D
:104E60008BEE9DE00E9471090E940F1FC82F84EDF8
:104E70009DE00E9471091F92CF938FEC9DE09F935C
:104E80008F930E940A0A8DB79EB780960FB6F8944A
:104E90009EBF0FBE8DBF8DEC9DE00E94710983EC1B
:104EA0009DE00E9471098C2F81701F928F9380EC7E
:104EB0009DE09F938F930E940A0A8EEB9DE00E94D3
:104EC000710985EB9DE00E947109C6951F92CF93F1
:104ED00082EB9DE09F938F930E940A0A80EB9DE0F6
:104EE0000E9471098DB79EB708960FB6F8949EBFC1
:104EF0000FBE8DBF04C08BE09CE00E947109C1E031
:104F0000A3C080916801C82FC095C170C0FB80F913
:104F100080936801CC2329F080E99FE00E94710909
:104F200093C083E89FE00E94710980916801897FA6
:104F3000877F80936801E3CF9091680191FBCC2734
:104F4000C0F981E0C827892FC0FB81F980936801EF
:104F5000CC2319F086E79FE027C088E69FE0CDCFFD
:104F60009091680192FBCC27C0F981E0C827892F76
:104F7000C0FB82F980936801CC2319F089E59FE09A
:104F800013C089E49FE0B9CF9091680193FBCC27CF
:104F9000C0F981E0C827892FC0FB83F9809368019D
:104FA000CC2351F08DE39FE00E947109809168014C
:104FB00081608093680148C080E39FE09ECF85EDCB
:104FC0009BE00E94710982EC9BE00E94710981E8DC
:104FD0009BE00E94710986E49BE00E94710986E0D3
:104FE0009BE00E94710988ED9AE087CF8AEC9AE0F5
:104FF0000E9471090E94F8121F928F9380EB9AE031
:105000009F938F930E940A0A0E94BC1F9F938F93C5
:105010007F936F9389E99AE09F938F930E940A0A86
:105020008DB79EB70A960FB6F8949EBF0FBE8DBF80
:1050300066CF8D5101C080E00E94892560CF8EE24D
:105040009FE00E947109C0E08C2FCF91089580E00D
:10505000089580E008958E518A3030F4E82FF0E012
:10506000E257FF4F8081089580E00895CF93C82FC5
:1050700080917301813071F020F0823009F44BC0CF
:105080003FC1E0917A00F0917B008081823209F08B
:1050900039C107C0E0917A00F0917B0080818232B3
:1050A00061F48C2F0E942728811104C08C2F0E944C
:1050B000A9252FC081E090E02CC08C2F0E942928C8
:1050C000811126C0C431E1F070F4CB3081F0C031E1
:1050D000D1F40E9451248CE89AE00E94710982E088
:1050E0008093730115C0C93259F0C83361F484EE5E
:1050F0009BE00E94710980E99AE00E94710908C052
:105100001092730101C18AE89AE00E947109FCC003
:1051100081E08170FBC0C43228F5CE3108F0C1C0F7
:10512000CB30A1F1D0F4C73009F0D0C08EE180932C
:10513000810082E3809380008AE080937F0084E195
:1051400080937E0088E080937D0088E280937C00DD
:1051500080E399E00E947109BCC0C33149F1C431B8
:10516000C1F0B4C0CB3409F4A6C028F4C93289F028
:10517000C83361F0ABC0C13509F49BC0C23509F436
:1051800096C0CE3409F0A2C06AE09BC00E945124B0
:10519000A0C080917201882319F01092720199C009
:1051A0008DE399E00E94710981E080937301AEC0A4
:1051B00087E199E00E94710985E099E00E947109F8
:1051C000809181001F928F9382E099E09F938F934B
:1051D0000E940A0A80E099E00E9471098EEE98E030
:1051E0000E947109809180001F928F938BEE98E04E
:1051F0009F938F930E940A0A89EE98E00E9471099A
:105200008AED98E00E94710980917F001F928F9330
:1052100087ED98E09F938F930E940A0A85ED98E0AE
:105220000E94710984EC98E00E94710980917E00CF
:105230001F928F9381EC98E09F938F930E940A0AAC
:105240008FEB98E00E9471098AEA98E00E94710948
:1052500080917D001F928F9387EA98E09F938F93B0
:105260000E940A0A85EA98E00E9471098EE898E097
:105270000E94710980917C001F928F938BE898E0C7
:105280009F938F930E940A0A89E898E00E9471090F
:105290008DB79EB748960FB6F8949EBF0FBE8DBFD0
:1052A00018C08C2F0E942B288093720112C061E0DD
:1052B00003C061E006C06AE0809172010E94682428
:1052C00008C0809172010E940B2503C08EE299E014
:1052D00013C080917201882369F01F928F9388E236
:1052E00099E09F938F930E940A0A0F900F900F905E
:1052F0000F9004C085E299E00E94710981E006C028
:105300001092730180E002C080E003CFCF91089536
:105310000E94E91E811102C00E946A1F0E940F1F95
:1053200080931002282F269530E02230310524F09A
:1053300081708260809310028091100280FF02C011
:10534000869501C080E00C94440D80911002982F46
:10535000969521F4817082608093100280911002F2
:105360008160809310020E94131F8091680180FF6A
:105370000FC08091100286951F928F938EE290E16C
:105380009F938F930E940A0A0F900F900F900F9097
:105390008091100286950C94440D80911002982FF4
:1053A000969591F09158990F8170892B80931002F6
:1053B0008E7F91E009F490E08091100290FB80F9DB
:1053C000809310020E94131F8091680180FF0FC01C
:1053D0008091100286951F928F9386E190E19F93B2
:1053E0008F930E940A0A0F900F900F900F90809158
:1053F000100286950C94440D8091100280FD1DC012
:10540000816080931002813019F483E08093100250
:10541000809110020E94131F8091680180FF08C0D4
:105420008EEE9FE09F938F930E940A0A0F900F9039
:105430008091100286950C94440D0895809110027D
:1054400080FF14C08E7F809310020E94131F8091F2
:10545000680180FF08C08BED9FE09F938F930E94AF
:105460000A0A0F900F9080E00C94440D0895CF939A
:10547000C0911002C1708091680180FF0CC01F9222
:10548000CF9380E090E19F938F930E940A0A0F9040
:105490000F900F900F90CC2319F0CF910C941E2AEF
:1054A000CF910C94FC2990911002892F86958F5FE3
:1054B0008F779170823028F4880F892B80931002A7
:1054C00002C090931002809110028E7F91E009F447
:1054D00090E08091100290FB80F9809310020E946E
:1054E000131F8091680180FF0FC080911002869584
:1054F0001F928F9387EC9FE09F938F930E940A0ADD
:105500000F900F900F900F908091100286950C9441
:10551000440D811181E0880F909110029170892BC8
:10552000809310028E7F91E009F490E08091100248
:1055300090FB80F9809310020E94131F809110024B
:1055400086950C94440D0E94B01F8C010E94861316
:105550000E94FF2B0E94F3128091680180FF04C01B
:1055600081E590E10E9471090E943E2E8B9A90E0A5
:10557000915041F0A895E7EBFBE03197F1F700C0BF
:105580000000F6CF8B9878948091680180FF1CC052
:1055900086E490E10E94710917C0C8010E94C81FEB
:1055A0000697A0F0C1E080912B028823B1F31092FE
:1055B0002B020E94B01F8C010E94312D809131027C
:1055C000811107C00E945E2BC0E0EDCFC111EBCF6F
:1055D000F3CF80911C0284FFF5CF0E94B613F2CF67
:1055E000809106020895CF93DF9300D01F92CDB72C
:1055F000DEB720917601309177018217930789F009
:10560000909377018093760124E029839B838A839A
:105610008091480284FF05C063E0CE0101960E949C
:105620002D2D0F900F900F90DF91CF910895CF9374
:10563000DF9300D01F92CDB7DEB720917401309177
:1056400075018217930789F0909375018093740117
:1056500023E029839B838A838091480284FF05C0CD
:1056600063E0CE0101960E942D2D0F900F900F90B8
:10567000DF91CF910895CF93DF9300D000D000D079
:10568000CDB7DEB7FC0182E0898395E0DE0112969A
:1056900001900D929A95E1F78091480284FF05C030
:1056A00066E0CE0101960E942D2D26960FB6F89445
:1056B000DEBF0FBECDBFDF91CF910895CF93DF93B3
:1056C000CAE0D0E080911C0284FF63C08091830116
:1056D00090918401981709F467C028E0829FC00167
:1056E000112468E08B579E4F0E94292D80918301E1
:1056F00090E001968F7099278093830180916801D3
:1057000082FF52C08DEE90E10E9471098091830169
:105710001F928F938AEE90E19F938F930E940A0AC3
:1057200087EE90E10E947109809184011F928F930E
:1057300084EE90E19F938F930E940A0A81EE90E19C
:105740000E94710950918401409183018DB79EB7E9
:1057500008960FB6F8949EBF0FBE8DBF242F30E081
:10576000852F90E0821B930B541708F440969F936B
:105770008F938CED90E19F938F930E940A0A0F9074
:105780000F900F900F9089ED90E1DF91CF910C94E5
:1057900071090E94312D87EB9BE00197F1F700C062
:1057A0000000219709F08ECFDF91CF910895FC0181
:1057B000A0918401B0E09D012F5F3F4F2F703327F0
:1057C00080918301821779F083E0AA0FBB1F8A952D
:1057D000E1F7AB57BE4F98E001900D929A95E1F733
:1057E0002093840108C08091680180FF04C08DEC83
:1057F00090E10E9471090E94312D0C945E2B82E889
:1058000090E00895CF93DF93EC019881907680919A
:105810006801903209F06DC09981913071F480FF78
:1058200004C081EC90E10E9471098BE791E09093B4
:105830002D0280932C0288E06EC0923071F480FFBC
:1058400004C086EB90E10E94710985E092E090939C
:105850002D0280932C0281E05EC09A30E1F49B819E
:105860009093050280FF04C08BEA90E10E947109C9
:105870008091680180FF43C0809105021F928F9341
:1058800086EA90E19F938F930E940A0A0F900F90EF
:105890000F900F9034C0993039F580FF04C089E92A
:1058A00090E10E9471098A819B81811522E0920713
:1058B00071F48C819D81892B59F58091680180FF5D
:1058C00004C08FE890E10E94710982E004C0813039
:1058D0009340F1F481E080937A018E819F819093CF
:1058E00079018093780114C080FF09C086E890E1B7
:1058F00004C080FF04C08EE790E10E94710980918E
:10590000680180FF07C08CE790E10E94710902C026
:105910008FEF01C080E0DF91CF910895CF93DF93A7
:105920002091780130917901232BA9F1EC0180912C
:105930007A01813059F1823071F58091680180FFE0
:1059400004C082E790E10E9471098091680180FFA4
:105950000DC088811F928F938DE690E19F938F9366
:105960000E940A0A0F900F900F900F90809168018B
:1059700080FF04C08BE690E10E94710988818093CA
:105980000602109279011092780103C08B9A0E944E
:10599000182081E001C08FEFDF91CF910895FC01C5
:1059A0008381813261F08232D1F0823071F58AEFE9
:1059B00090E190932D0280932C028BE308958281D5
:1059C000882329F0813009F585E291E102C08CE05D
:1059D00091E190932D0280932C0289E008958481B7
:1059E0009581009751F0019781F485E391E19093BF
:1059F0002D0280932C0284E8089589EB91E1909325
:105A00002D0280932C0280E4089580E008951F9376
:105A1000CF93DF93162FEA01288124FF05C0398137
:105A200028E82327298302C02AE52883FC01CE0128
:105A30000296DC01212F280F31913D932A13FCCFD0
:105A4000612F0E94280A1C5F1883DF91CF911F915C
:105A500008954CE152E00C94072D48E452E00C9478
:105A6000072DCF93DF9360912E02635067FDACC08A
:105A700080912A02CCE0D0E0C81BD109CE5CDD4F7A
:105A8000809129028D3209F08DC0683009F09AC0EA
:105A900083EC809311028AE580938D0010920702B7
:105AA0008881807621F0CE010E94022C68C09A8104
:105AB00010921A028981811106C010921B022AE1FC
:105AC00032E082E057C0853019F490932F024FC026
:105AD0008630A9F58B81813019F489EF91E11CC0E2
